:10000000000002200D65000043650000456500000A
:1000100047650000496500004B6500004165000030
:100020004165000041650000416500004D6500002C
:100030004F650000416500005165000053650000F8
:10004000F9530000F98E0000596500005B6500005F
:100050005D6500005F650000A98D0000358C000023
:100060006565000067650000696500006B6500005C
:100070006D6500006F65000071650000736500002C
:100080007565000077650000796500007B650000FC
:10009000B98E00007F650000E993000083650000D1
:1000A0008565000087650000896500008B6500009C
:1000B0008D6500008F650000B9200000C13C000084
:1000C0009565000097650000996500009B6500003C
:1000D0009D6500009F650000A16500000000000014
:1000E0000000000000000000000000000000000010
:1000F0000000000000000000000000000000000000
:1001000010B5054C237833B9044B13B10448AFF351
:1001100000800123237010BD0008002000000000B3
:10012000ECC9000008B5064B1BB106480649AFF301
:1001300000800648036813B1054B03B1984708BD1A
:1001400000000000ECC9000004080020680700203F
:1001500000000000154B002B08BF134B9D46A3F574
:10016000803A00218B460F461348144A121A0AF0AF
:1001700080FE0F4B002B00D098470E4B002B00D079
:1001800098470020002104000D000D48002802D0EF
:100190000C48AFF300800AF03DFE2000290008F073
:1001A00025FF0AF037FD00BF000008000000022014
:1001B00000000000000000000008002020AA01202C
:1001C00000000000000000002DE9F047804690B0DC
:1001D00072B6384F384E3B6804465A1C1CBF013378
:1001E0003B609A4600F1300920686168A268E368C4
:1001F00035460FC510344C452E46F5D1D9F80000D0
:10020000D9F80410402203C6B9F808306846002126
:1002100033800AF02EFE6D46D8F80000D8F804109E
:10022000D8F80820D8F80C302C460FC408F1100874
:10023000C8452546F0D1D8F80410D8F800001F4E64
:1002400003C53368B8F808101D4A2980CDF83A2054
:10025000B3B105F08FFF4FF47F200BF0F9FCD0B164
:1002600005F0CEFF174A0023D7F800A013603360D3
:100270004FF0FF30BAF1000F04D110B0BDE8F087A5
:100280004FF0FF300AF1FF333B60002BF5D162B62F
:1002900010B0BDE8F08769464FF47F2040220BF094
:1002A000CFFC044605F0ACFF002CDBD12046D7F88C
:1002B00000A0DFE7EC08012004000020440000203B
:1002C000289BF23D00000020F8B5114B11491B6836
:1002D000D3F83A000AF006F9A8B10F4B0F4E1C688C
:1002E00004F1300720686168A268E36835460FC5ED
:1002F0001034BC422E46F5D12068616803C62389BC
:1003000000203380F8BD0548BDE8F840FFF75CBF2A
:1003100044000020289BF23D000000200400002043
:1003200010B5022007210822012305F0C9FE05208F
:100330000C210822012305F0C3FE0320082101221D
:10034000002305F0BDFEBDE8104005200B210A2268
:10035000002305F0B5BE00BF10B5041E4FF00B0121
:100360004FF005004FF00A0208DD012305F0A8FE5A
:100370000C4B1B787BB90C4B1C6010BD002305F0A7
:100380009FFE084B1B78002BF5D008480AF0CEFDE5
:10039000054B1C6010BD06480AF0C8FD024B1C60EE
:1003A00010BD00BF700000201C080020E0BC000051
:1003B000B8BC000008B50C4B1A7822B11B7813B1F9
:1003C0000A480AF0B3FD0A2001F0A0FFBFF34F8FE7
:1003D000074A084BD16801F4E0610B43D360BFF3D7
:1003E0004F8F00BFFDE700BF7000002008BD000078
:1003F00000ED00E00400FA050C4B10B51B7813B1BA
:100400000B480AF093FD0C2108220023052005F07B
:1004100057FE4FF4FA7001F079FFBDE81040052057
:100420000C210822012305F04BBE00BF7000002004
:1004300034BD000010B5134C82B0206823790090C1
:10044000052168468DF8043000F0CEFB234653F8B2
:10045000080F05211B79009068468DF8043000F0E4
:10046000C3FB54F8100F0621A38800906846ADF82E
:10047000043000F0B9FB4FF4FA7001F047FF02B00E
:1004800010BD00BF64BC000010B5124B82B01B78D9
:1004900013B111480AF04AFD0024072303216846DE
:1004A0008DF800308DF801408DF8024000F09CFB83
:1004B0004FF47A7001F02AFF0923684603218DF872
:1004C00001408DF802408DF8003000F08DFB02B045
:1004D00010BD00BF700000205CBD000010B50821F9
:1004E0000A460023032005F0EBFD4FF4FA7001F0FB
:1004F0000DFFBDE81040032008210122002305F074
:10050000DFBD00BF2DE9704F002488B0082303250C
:1005100020468DF80C408DF808308DF80A5003F015
:1005200091FEDFF818A14FF44072012302268DF8E6
:100530000B0002A9504606928DF816308DF81F3038
:100540008DF80D408DF809408DF814408DF81D4050
:100550008DF817508DF81E408DF81C408DF81560F1
:1005600003F02EFD05A9504603F062FD2E4804F06D
:10057000AFF99DF80C3000240133B0FBF3F009F023
:1005800067F9CDE900019DF8150009F061F94FF018
:10059000804502460B462046294606F0EBFA804687
:1005A0009DF808008946013009F062F902460B46C1
:1005B0002046294606F0DEFA002204460D46404653
:1005C00049461A4B09F008F822462B4609F0B6F9BD
:1005D00002460B46DDE9000109F0DAFA09F048FCB1
:1005E000DFF85CB040F25633CBF80000CBF80030B7
:1005F000DBF8000009F03CF900220D4B09F09EF9F0
:100600000C4A0D4BC2E90001CAF82060DAF8141058
:1006100080223143CAF814101A6083F80723DBF8EC
:10062000000008B0BDE8708F0002050000002840FF
:100630000000E03F9017012000E100E000200040B2
:1006400088170120F0B5002487B007460B23204609
:100650008DF800308DF802408DF8014003F0F2FD76
:10066000174D0126032208238DF80300694628460A
:100670008DF80F208DF80D308DF810708DF8044036
:100680008DF805408DF813408DF811408DF8144019
:100690008DF80C408DF812408DF80E6003F090FC40
:1006A00003A9284603F036FD2E626969054B8022B6
:1006B000314369611A6083F8072307B0F0BD00BFBA
:1006C0000020004000E100E010B500F00103044606
:1006D0000C210020042205F0F3FC04F002030020AA
:1006E0000D21042205F0ECFC042104EA01030A4672
:1006F000022005F0E5FC04F0080302200521042295
:10070000BDE8104005F0DCBC074B10B44FF40050BE
:100710004FF48054102120225C6158615DF8044B35
:10072000D965DA65704700BF006000400D4B4FF49B
:100730008052C1074CBF1A615A610A4B4FF40052F4
:1007400081074CBF1A615A61064B102241074CBF0A
:100750009A65DA65034B202201074CBF9A65DA657A
:10076000704700BF0060004070B5544C82B02378E1
:1007700005460E46002B40F0858047F21A639D42E5
:100780002ADD2378002B40F082804D4B00221A7026
:100790004C4A45F6E77312789D42D2B200F383804B
:1007A000A6F5FA76B6B241F294139E424FF00200DB
:1007B0004FF007014FF0080208D8414B1B782BB1CE
:1007C000012305F07DFC012002B070BD002305F07F
:1007D00077FC002002B070BD47F2AF239D42D7DC0A
:1007E0002378002B57D1364A45F6131301219D4239
:1007F0001170CDDC2378002B51D1324B01221A70BD
:10080000237813B130480AF091FB00240723032119
:1008100068468DF800308DF801408DF8024000F0F8
:10082000E3F94FF47A7001F071FD09236846032162
:100830008DF801408DF802408DF8003000F0D4F9B9
:10084000224B234AD968184621F00101D960D368A8
:100850004FF4805423F00103D36003F06FFB4FF09B
:10086000402004F0B5FD1B4803F0BAFC1A4B1021E0
:1008700020224FF400505C615861D965DA6500F0C0
:1008800077FB8DE7294615480AF050FB75E71448B9
:100890000AF04CFB79E713480AF048FBA3E712483B
:1008A0000AF044FBA9E7002A3FF47AAF237813B19A
:1008B0000E480AF03BFBFFF77DFD00BF70000020F3
:1008C00048000020561701205CBD000000100040C9
:1008D00000140040002000400060004084BD000083
:1008E000BCBD0000FCBD00003CBE000088BE000096
:1008F0002DE9F041164D86B06C4606469E46884668
:1009000017460FCD0FC495E80300072384E80300C2
:1009100001250024304669468DF80A30CDF810E0F4
:100920008DF814508DF809508DF80D408DF80B405E
:1009300003F01CFB304641463A4603F00FFB3046BD
:1009400003F0F6FA0323B36106B0BDE8F08100BFFF
:100950007CBC00002DE9F043484B8DB01B78054668
:10096000884603F0FF04002B5ED101274FF00309F6
:1009700002A94FF040208DF808408DF80B408DF80B
:100980000C408DF80D408DF80E408DF80F408DF81D
:1009900010408DF811408DF801408DF802408DF81F
:1009A00003408DF809708DF800708DF80A9004F0FE
:1009B000B7FC694622464FF0402004F0F1FC69463E
:1009C0003A464FF0402004F0EBFC2D4E2B684FF0E0
:1009D000402E06ADCEF82030CEF824400FCE0FC505
:1009E00096E80300274E98F8008085E80300072367
:1009F000304606A98DF822308DF821708DF82540FB
:100A00008DF823408DF82C700A9703F0AFFA30462A
:100A100042460C2103F0A2FA304603F089FAC6F8E8
:100A200018900DB0BDE8F083154D06AC0FCD0FC486
:100A300095E80300134D98F80060012384E8030053
:100A400007222846002406A98DF82C308DF8213085
:100A50000A938DF822208DF825408DF8234003F06D
:100A600085FA284632460A2103F078FA284603F030
:100A70005FFA0323AB610DB0BDE8F083441701209A
:100A80007CBC00000010004030B587B0002301247A
:100A9000054602A94FF040208DF808308DF80B3044
:100AA0008DF80C308DF80D308DF80E308DF80F303C
:100AB0008DF810308DF811308DF801308DF802303E
:100AC0008DF803308DF80A408DF809408DF800400C
:100AD00004F026FC22464FF04020694604F060FCFA
:100AE0004FF040235D6207B030BD00BF10B54FF03E
:100AF000402004F06DFCBDE8104001200C210822CC
:100B0000002305F0DDBA00BFF0B5284D89B002AC76
:100B10000FCD0FC495E80300002584E803002B46A1
:100B2000294605244FF480574FF4E13604200A2269
:100B30008DF808408DF81540ADF81650ADF81870D6
:100B4000049605F0BDFA01212B460A46042005F063
:100B5000B7FA2B4602200821012205F0B1FA144C05
:100B6000022009210A22012305F0AAFA28460A22B6
:100B700001230E2105F0A4FA204602A905F0BCFBD2
:100B8000636D012223F4E06343F480736365636D56
:100B9000082143F003036365022013468DE8240017
:100BA0000A4605F057FA09B0F0BD00BF94BC00003A
:100BB00000E000400320202101F03CBA00B5084AC3
:100BC00085B052F8480F01AB5168127A03C305484B
:100BD00001A91A7005F016FC05B05DF804FB00BF12
:100BE00064BC0000008008402DE9F0478846E2B070
:100BF0004B4F4C4E01464246814668460AF030F95A
:100C000039783378A8F1030203EB81035B00414696
:100C100068468DF801208DF8023000F0FDFE0024BA
:100C2000020A0DF101030DF8080008F1010E03F8A6
:100C300008200DF1840C23460DF185024FF05D0A6A
:100C40007D205E210BE07D2D03F101030CF80450A3
:100C50000ABF02F804A00134023473450BDC1DF80E
:100C600003507E2DEFD1013373450CF8040011556C
:100C700004F10204F3DD4146484601F057FB2A48DF
:100C80007E2105F0ADFB0DF18308A0440DF1830535
:100C900015F8011F244805F0A3FB4545F8D122486B
:100CA0007E2105F09DFB214B1B784BB10020327853
:100CB000002382F0010232703B7062B0BDE8F08721
:100CC0004FF47A7001F0E2FD0028EFD00DF18309B6
:100CD000174DA1444FF0030A002413487E2105F06C
:100CE0007FFB0DF1830818F8011F0F4805F078FB12
:100CF000C845F8D10C487E2105F072FB20462946F4
:100D000000220C4B08F01AFE0D46044609F0B0F81C
:100D100001F0BCFD0028C9D0BAF1010ADDD1C6E757
:100D2000520000204900002000E00040210800207F
:100D300000408F400000F83F30B5847887B00278DB
:100D4000002344F00104684604210093ADF8043008
:100D50008DF800208DF8024000F05EFE9DF8003016
:100D6000020A7E2B8DF804008DF8052054D07D2BCF
:100D700000F0A3808DF8083001259DF801307E2B0E
:100D800056D006AA7D2B2A4400F0908002F8103C31
:100D900001359DF802307E2B57D006AA7D2B2A44C0
:100DA00000F0998002F8103C01359DF803307E2B4D
:100DB00058D006AA7D2B2A4400F0868002F8103C09
:100DC00001359DF804307E2B59D006AA7D2B2A448C
:100DD00000F08F8002F8103C01359DF805307E2B25
:100DE0005AD006AA7D2B2A447CD002F8103C01354B
:100DF00043487E2105F0F4FA0DF10704254414F868
:100E0000011F3F4805F0ECFAAC42F8D13C487E2186
:100E100005F0E6FA07B030BD5E238DF809309DF885
:100E200001307D227E2B8DF808204FF00205A8D1DD
:100E300006AB2B447D215E2203F8101C03F80F2C17
:100E40009DF8023002357E2BA7D106AB2B447D21C5
:100E50005E2203F8101C03F80F2C9DF803300235B6
:100E60007E2BA6D106AB2B447D215E2203F8101CFD
:100E700003F80F2C9DF8043002357E2BA5D106AB6C
:100E80002B447D215E2203F8101C03F80F2C9DF8E3
:100E9000053002357E2BA4D106AB2B447D215E228A
:100EA000023503F8101C03F80F2CA1E75D2102F8AE
:100EB000103C023502F80F1C6BE75D228DF80830FC
:100EC0008DF80920022558E75D2102F8103C023513
:100ED00002F80F1C75E75D2102F8103C023502F89C
:100EE0000F1C62E75D2102F8103C023502F80F1C6E
:100EF0007EE75D2102F8103C023502F80F1C6CE71A
:100F000000E00040062970B502DD03787E2B01D099
:100F1000002070BD431813F8013C7E2BF8D11E460B
:100F200001390022012305E0845401338B4202F190
:100F300001020FDAC45C7D2CF6D1C5186D785D2DE9
:100F400004D05E2D04D186540133EEE78454FBE7D0
:100F50009942DDDC941E013A855C035D214603EB7A
:100F6000052500F059FDADB28542D1D1204670BDB6
:100F7000F0B50F4D0F4C2B680122002B267883B063
:100F8000227011DB4FF0160E0227684604218DF8FF
:100F900003308DF801208DF800E08DF80270FFF726
:100FA00023FE4FF0FF332B60267003B0F0BD00BF6F
:100FB0004C000020210800202DE9F04F4C494D4DF8
:100FC0000B68B9B00122002B2E7814AC2A7012DB0A
:100FD0004FF0160E2046022704218DF851208DF87F
:100FE00053308DF850E08DF85270FFF7FDFD404A08
:100FF0004FF0FF331360404B2E701B684FF0050914
:1010000009930AAB4FF47A7A08930125099A0421CF
:1010100020462260FFF7E8FD01F084F9064601F062
:101020007BF933784FF0000C8DF831C00D938DF8BB
:1010300030500E950F950DF1300E6F46CDE90A0137
:10104000BEE80F000FC74FF0FF36CDF844C0CDF813
:1010500048C010969EE80F0087E80F0008992046C8
:1010600091E80C00614601F0D3FA4FF002084FF00E
:10107000170B4FF0030CF023B922062100BB9DF89B
:10108000547020468DF854308DF850B08DF851C012
:101090008DF852808DF855208DF85370FFF7A4FD20
:1010A00004211623E8B120468DF850308DF85150B8
:1010B0008DF852808DF85370FFF796FD0C4B1E6033
:1010C000B9F1010F07D0504609F1FF3901F01EF9BF
:1010D0004FEA4A0A9AE706490868C01739B0BDE8DE
:1010E000F08F034A3846C017176039B0BDE8F08F5B
:1010F0004C00002021080020CCBE00002DE9F04F5C
:10110000B9B001F04BF9444B0446D3F800A00D46AA
:101110004FF0030B4FF47A780DF12809042108A849
:10112000CDF820A0FFF760FD4FF0000E0123022153
:101130000B228DF831E08DF830300F930D910E9227
:101140000CAF6E460FCF0FC64FF0FF33CDF844E023
:10115000CDF848E0109397E80F00CDE90A4586E8FE
:101160000F00414699E80C0014A801F051FAD0F1A3
:101170000106404638BF002608F0C8FF4FF07F51F7
:1011800009F01CF809F006FABBF1010B80462DD0DE
:10119000002EC3D09DF85540204B023C1B78032CF9
:1011A0008CBF0024012443BB6CB31D4D1D4C2B6828
:1011B0000122002B2678227011DB4FF0160E08A8B2
:1011C000022704218DF823308DF821208DF820E0AE
:1011D0008DF82270FFF708FD4FF0FF332B600020E1
:1011E0002670FFF7E9FE39B0BDE8F08F002ED1D1AF
:1011F0000A4B5C461B78002BD6D00B48214609F0E1
:1012000095FE002CD1D1064B4FF0FF321A60FFF74C
:10121000D1F839B0BDE8F08FD0BE000070000020DA
:101220004C00002021080020ECBE00002DE9F04F0A
:1012300097B0037802AF0F2B044673D0192B43D01D
:101240000D2B03D05437BD46BDE8F08FBA4BC279A1
:101250001978FA75B960217CA27C7960617C90F87C
:1012600008B0F960796890F809A090F80A9090F8B1
:101270000B8090F80CC0467B857BB976C07BF96803
:101280003A76BA6887F816B087F815A087F81490F0
:1012900087F8138087F812C07E743D74F8767976EB
:1012A000002A00F0BF80A54901200022087007F144
:1012B00010051A70A24C2B46543707CB2060616092
:1012C000A260BD46BDE8F08FD0F88030162BB9DDA6
:1012D000817DA3F117051029B4D801A353F821F09B
:1012E0007B16000075160000451200004512000034
:1012F0004B160000E5150000B9150000451200006E
:101300009115000045120000451200004512000032
:10131000C1140000B9140000B11400008B140000C7
:10132000611400004279837903EB0223082B00F05B
:10133000D68133DD202B00F0F78140F3A781802B8D
:101340007BD0B3F5807F7FF47DAF7E4B1B7813B1EC
:101350007D4809F0EBFD7D4D7D4C2B6800207D49DB
:101360000122834226780870227011DB4FF0160CA0
:101370004FF0020E07F110000421FB747A7487F815
:1013800010C087F812E0FFF72FFC4FF0FF332B60FF
:101390000A20267000F0BAFF6F4836E0022B00F0FA
:1013A000D481042B53D0012B7FF44CAF654B1B78B9
:1013B00013B16A4809F0BAFD644D654C2B680122EF
:1013C000002B2678227011DB4FF0160C4FF0020E26
:1013D00007F110000421FB747A7487F810C087F8B5
:1013E00012E0FFF701FC4FF0FF332B605C495D4AD0
:1013F000584D01234FF0000E0A20267085F800E0BA
:101400000B70137000F082FF534802F0E9FE564A59
:10141000564BD16821F00101D160DA6822F0010257
:10142000DA600FE7BB69D4E9220107F110050093E8
:1014300095E80C0001F0D8FF3CE7424B1B7813B154
:101440004B4809F073FD434B01221A70FAE63D4BFD
:101450001B78002B3FF4F6AE464809F067FDF1E635
:10146000454A464B1168012201F12C0034311A70B3
:10147000FFF770FAFFF73AFB324B1B78002B3FF473
:10148000E1AE3F4809F052FDDCE63B4A3B4B1168B8
:10149000002201F12C0034311A70FFF75BFA294B5E
:1014A0001B78002B3FF4CEAE364809F03FFDC9E66D
:1014B0000120FEF751FFC5E60020FEF74DFFC1E613
:1014C000204B1B7813B1304809F030FD2F4B01251C
:1014D0001D70FEF7D9FF244B244AD968184621F025
:1014E0000101D960D368194E23F00103D36002F0E3
:1014F00025FD4FF0402003F06BFF174802F070FE0F
:10150000FFF702F93368124C002B94F80080257025
:101510000FDB4FF0160E022207F110000421FB74BE
:101520007D7487F810E0BA74FFF75EFB4FF0FF336D
:10153000336084F8008085E6551701202D160120C0
:10154000A0A701207000002078C000004C000020FF
:1015500021080020200800200020004020BF0000BB
:1015600052000020490000200010004000140040FC
:1015700040C0000068BF000060BC000044170120AC
:1015800048C100002CC10000F0C000002F1601204F
:1015900007F04AFB00287FF455AE0B2D7FF452AEC6
:1015A000204602F061F8744B1B78002B3FF44AAEE2
:1015B000724809F0BBFC45E63A2D7FF443AE00F1DA
:1015C00017012A4607F1100009F04AFC07F1100044
:1015D000FEF7FAFD6A4B196801F12C003431FFF770
:1015E000B9F92FE6664B6E46196890B00423654D35
:1015F0008DF808300DF109003A2209F031FC2B6812
:101600000DF10808002B1EDBE94696B002AC5E49DE
:101610001822204609F024FC5C4B41461B880DF142
:1016200022001A0A237662763B2209F019FC2B6805
:101630002046E3705521FFF7D7FA4F4B1B78002B5C
:1016400040F09580CD46B546FCE507F0EDFA002860
:101650007FF4F8AD002D7FF4F5AD4D4A4D4BD168C8
:1016600021F00101D160DA6822F00102DA6007F0AE
:101670009BFBE7E506F0BEFBE4E53F4B1B7813B1AF
:10168000454809F053FCFEF729FFDBE5102B7FF4FA
:10169000D9AD394B1B7813B1404809F047FC394D9F
:1016A0003F4C2B680122002B2678227011DB4FF073
:1016B000160C4FF0020E07F110000421FB747A742F
:1016C00087F810C087F812E0FFF78EFA4FF0FF336B
:1016D0002B60344B0022344826701A7095E6264B56
:1016E0001B7813B1314809F021FC264D2C4C2B6896
:1016F0000122002B2678227011DB4FF0160C4FF0E0
:10170000020E07F110000421FB747A7487F810C0F0
:1017100087F812E0FFF768FA4FF0FF332B60214B98
:10172000002226701A708DE50020FFF745FC124B51
:1017300000281B7811DB13B11D4809F0F7FB194B8A
:1017400001221A7006F056FB7CE50B4B1B78002B30
:10175000CBD0184809F0EAFBC7E713B1164809F0E7
:10176000E5FB104B00221A70FEF724FE6AE51348D1
:1017700009F0DCFB66E700BF70000020CCC0000071
:1017800060BC00004C000020D4BE000050000020CF
:1017900000100040001400409CC00000C0BF0000CA
:1017A00021080020200800200020004098BF0000F1
:1017B0001CC0000044BF0000E4BF0000BCC000002B
:1017C0002DE9F04F674DC5B0002B08BF2B4608AF81
:1017D0007B621B884FF6FF74A3423862F961BA62DC
:1017E00000F0BB80BD6ADFF888E16A1CD2B2FA6201
:1017F0002132D2080835DFF88081FA60AEF8003077
:101800000126BD614AE0D8F80020002307F1400519
:101810009A424FF0010B4FF025004FF003014FF0BB
:10182000FF3A6C467D6007F1380C35DB7D6A87F83E
:1018300040B02A887D6887F84130FB647864B964D9
:101840005FFA82FE4FEA122BD7E90423C7E90E2381
:101850000FCD7D6007F13005BD65C7F850A0C7F812
:101860005490C7F830E0C7F834B00FC47D6895E8ED
:101870000F0084E80F0007F160009CE80C004FF4B3
:101880007A7100F0C5FE002854D197F86500003049
:1018900018BF012000284ED00B2E5CD0BD69D7F8B0
:1018A00020E005F4FC736D46ADEB030DBA6A8DF8CC
:1018B00020E00DF12100F96909F0D2FAD8F80020F2
:1018C0004FF00209002A08ABDFF8ACB027DBFA685A
:1018D000EA46AAEBC2018D4608AC234918222046ED
:1018E000BB6009F0BDFADFF888E0BB68BEF80020F5
:1018F0001946130A22766376FA6A0DF13A0009F066
:10190000AFFAFA6ADBF8003002F11A01E370204600
:10191000C9B2FFF769F9154B1B78C3B9D546012E3B
:1019200006F10106AD467FF46EAF00F0F5FCC7E9A5
:10193000040168E748467D6A0D492A884FF6FF731F
:101940000132F4372A800B80BD46BDE8F08F09488C
:1019500009F0ECFAE2E70120EDE77D6A00232B8035
:1019600040E700BF22080020D4BE00007000002025
:1019700050000020BCC000004C0000202DE9F041C8
:1019800002F1080303F4FC7300AFADEB030D6B46EB
:1019900003F8010B1B4D1846541C09F061FA2B6823
:1019A0006E46002B26DBE4B204F1210303F4FC7342
:1019B000E846ADEB030D14491822684609F050FAC9
:1019C000124B31461B880DF11A001A0A8DF8183097
:1019D0008DF81920224609F043FA2B6804F11A0108
:1019E0008DF80330C9B26846FFF7FEF8084B1B7844
:1019F0001BB9C546BD46BDE8F081064809F096FA18
:101A0000F7E700BF4C000020D4BE000050000020CB
:101A100070000020BCC0000030B489B1094D002323
:101A20004FF6FF72C45C01335440E4B235F8144001
:101A30008B4284EA1222F5D1D24390B230BC704777
:101A40000846FBE764C10000014B1868704700BFFF
:101A500024080020014B1868704700BF9C17012024
:101A6000344B2DE9F0431B68334C1B68266891B05A
:101A700003EB864606EB0136044630460D46174614
:101A800006F04AFD033048D0394606A8252209F061
:101A9000E7F9E700294E35B33D1906EB45054FF050
:101AA000FF314FF00008CDF800800023002269705C
:101AB000A970E970297102A802F0B6F8DDF808C033
:101AC000039804996B1D05F11002C5F805C0586014
:101AD0009960032582F801803C4406F814500020E8
:101AE00011B0BDE8F083BDF81C10BDF81E203B19F5
:101AF0009DF83C9006EB43030DF1300CA3F8011068
:101B0000A3F8032083F81190BCE80700C3F8050090
:101B1000C3F80910C3F80D20DEE7304606F0E6FDF5
:101B2000064B04EBC404022203F814204FF0FF30EC
:101B3000D6E700BF9C17012024080020A017012031
:101B40002DE9F04F794C95B02378804605911546E4
:101B5000002B7CD1002A7AD1754B059903EB4820E4
:101B60004FF4007209F07CF9724B01261C68724B2D
:101B7000002C03F80860C0F2D580DFF8D0A16F4FC9
:101B8000DAF800301B6803EB84430393002D40F028
:101B90009980694B08F1FF35694A1D44644B424402
:101BA00002EB06094FEA083B03EB4826CDF810800C
:101BB00005E04D450BF5805B06F500761DD015F868
:101BC000013F002BF5D0DAF8003031461B685B444A
:101BD00003EB8444204606F057FF5A4B80461A78A0
:101BE000002A42D118F1030F46D0524B4D451C68D4
:101BF0000BF5805B06F50076E1D1DDF810800599E4
:101C00000AA8252209F02CF9B8F1000F62D1E600EC
:101C1000BDF82C10BDF82E2033199DF84CA007EB11
:101C2000430310ADA3F80110A3F8032083F811A01B
:101C300007CDC3F80500C3F80910C3F80D203D4BCC
:101C40003444186807F8148015B0BDE8F08FFF2100
:101C50004FF48042364809F00CF937480021402201
:101C600009F007F90023237076E72146364809F08A
:101C70005DF918F1030FB8D1039806F037FD2D4B2D
:101C800002221C6804EBC403002C07F8132047DB76
:101C9000611CC1F309010C4602E099423CD01C468C
:101CA00004EBC40317F81320631C022AC3F30903CF
:101CB000F3D0204B002C1C6032DB4FF000080125D4
:101CC00020265DE7184606F027FC0330D4D0194BD8
:101CD0001C685EE7E600351907EB45054FF0FF315C
:101CE0004FF0000ACDF800A006A86970A970E9704D
:101CF00029710022002301F097FFDDF818C0079832
:101D000008994FF00308C5F805C0C5F80900C5F8E3
:101D10000D1085F811A092E7064B4FF0FF341C60C0
:101D2000204691E74FF0FF308EE700BF53000020C0
:101D3000680800202408002028080020A01701209F
:101D4000270800207000002064C300009C170120B9
:101D500030B40F4D2868002812DB0130C0F30901B0
:101D600008460C4C02E099420CD0184600EBC00328
:101D700014F81320431C022AC3F30903F3D028608C
:101D800030BC70474FF0FF30286030BC704700BF58
:101D900024080020A01701202DE9F04F91B000AFDA
:101DA00004F0F2FC052006F011FC06F049FBDFF818
:101DB00074B28F4C9BF80030206043B39BF8003026
:101DC000002B40F0CF809BF80030002B40F0D280F9
:101DD0009BF80030002B40F0D7809BF80030002BA0
:101DE00040F0DC809BF80030002B40F0E2809BF854
:101DF0000030002B40F0E7809BF80030002B40F0D3
:101E0000EC809BF80030002B40F0A8802068C2686E
:101E1000036900249A4228BF1346073323F00703BF
:101E2000ADEB030D4FF0FF33DFF8D0A105687B6009
:101E30006E46A046FB607B6107E01234B4F5904F1C
:101E400005F5802508F1010861D02846314606F0E5
:101E50008BFD3378FF2B0BD09BF8003002220AF861
:101E60000420002BE9D02946624809F05FF8E4E736
:101E70002846314606F098FC814618B101230AF83D
:101E80000430DAE73146252207F1180008F0E8FFB0
:101E90004FF00103B86958493B6008F023FB3B68E9
:101EA00000B14B4613F0FF0F0AF804300AEB040CA4
:101EB000C3D1FB8B514908EBC80201EB4202BB6066
:101EC0000CF105013961B7F81C90B96807F13003CE
:101ED000A2F80190A2F8031007CB3B69CCF80500EB
:101EE00059609A607B6901330AD0FB68994507DC29
:101EF0004B45A2D1BB6879688B429EDD7B6003E0D5
:101F0000BB68C7F80C907B60C7F8148095E77B69C5
:101F10003B4C5A1C1ABF581CC0F309000020034652
:101F200002E0824216D0134603EBC3021AF81210E5
:101F30005A1C0229C2F30902F3D023609BF8003037
:101F40001BB13048F96808F0F1FFF8684437BD4626
:101F5000BDE8F08F4FF0FF332360EFE70A2008F071
:101F6000FDFF53E7284808F0E1FF9BF80030002B05
:101F70003FF42EAF23682548197908F0D7FF9BF866
:101F80000030002B3FF429AF23682148597908F02D
:101F9000CDFF9BF80030002B3FF424AF23681D4891
:101FA00099680A0D08F0C2FF9BF80030002B3FF43F
:101FB0001EAF23681848D96808F0B8FF9BF80030B6
:101FC000002B3FF419AF23681448196908F0AEFFDD
:101FD0009BF80030002B3FF414AF23681048596978
:101FE00008F0A4FF9BF80030002B3FF40FAFB5E7DB
:101FF0009C17012070C40000C91F283FA0170120B2
:102000002408002098C4000074C3000098C3000096
:10201000B8C30000D8C30000FCC3000018C400000F
:1020200034C4000070000020014B01221A70704778
:1020300068480020F0B5194B012583B0184C0746BD
:102040000E46184829461D7002F04AFD39461648CA
:1020500002F0BEFD3146204602F012FA204602F0A0
:1020600037FC124B29461860204602F039FD002348
:1020700001A88DF804308DF805308DF8063004F095
:102080000BF90B490B4BC8694FF0804220F0070059
:10209000C861C3F880211A6003B0F0BD6948002010
:1020A0006016100000430200020018007048002073
:1020B0000000084000E100E010B5094C094B6268DF
:1020C00000201A6004F0E4F80223A361064BE269E1
:1020D0001B6822F00202E26103B1984710BD00BF05
:1020E000000008406C480020744800202DE9F041B1
:1020F000064682B000200F4604F0CAF8254B1C7833
:10210000CCB1254D254A264C02231760A3612968CE
:10211000244B01FB06F6A3FB06210020890904F0ED
:10212000A9F8012004F0B4F8E36943F00203E36185
:1021300002B0BDE8F0814FF0010841461A4883F82B
:10214000008002F0CDFC1948032102F041FD20215E
:10215000174802F095F9164802F0BAFB0E4D4146B9
:102160002860134802F0BCFC01A88DF804408DF8EB
:1021700005408DF8064004F08FF809490D4BC869F9
:102180004FF0804220F00700C861C3F880211A6038
:10219000B8E700BF6948002070480020744800205C
:1021A00000000840D34D62100043020002001800F6
:1021B0006016100000E100E02DE9F84F494C0023C3
:1021C000074649480D46237002F082FB4749064600
:1021D0002846FFF78BFFBD424AD8454A04E0136901
:1021E00023F00403136130BF2378002BF7D0414D57
:1021F000DFF8148172B62B683E495A1C36D05A1C3F
:102200000A60237803F0FF00E3B1013A2A6002B9C3
:1022100062B6D8F8000007F079FF0446304607F0B0
:1022200075FF0146204608F07DF8334907F0C6FFE8
:1022300007F030FB0022314B07F0CEF907F040FEEB
:10224000BDE8F88F2E4C6368C8F8003004F020F821
:102250000223A3612B4BE2691B6822F00202E261B8
:1022600003B198472A68002AD3D0CEE71A46C8E7B8
:10227000204DDFF89480DFF878A0DFF884901CE030
:10228000D8F80000013B2B6003B962B607F03EFFAF
:102290008346304607F03AFF0146584608F042F8B8
:1022A000154907F08BFF07F0F5FA0022134B07F0F2
:1022B00093F907F005FE87429CD92378002B99D12A
:1022C000DAF8103023F00403CAF8103030BF72B6C9
:1022D0002B682278591C18BF0133002AD0D1D9F8B5
:1022E0000400CFE768480020601610002920000095
:1022F00000ED00E0EC08012000007A440000E03F1F
:1023000000000840744800206C4800200146FFF798
:1023100053BF00BFFFF750BF014BD3E90001704727
:10232000C053002000487047C853002030B4054B0C
:10233000054C0A4630CC0146C3E9004530BC034891
:1023400008F08EBDC053002078480020C8530020FC
:102350002DE9F047DFF8408006468A461422D8E986
:102360000001002308F036F9D8E9004502EBC2026B
:1023700008EB02193146661C09F1080945F100070E
:10238000C8E9006748465246C9E9224508F068FD99
:10239000C9F880A0BDE8F0877848002010B4064C4A
:1023A000D4E90001D4E90023994208BF9042F7D153
:1023B0005DF8044B704700BF7848002082B02DE9DB
:1023C000F04FB1B03AA981E80C00419A9DF8F13084
:1023D00008920593409A429B3F999DF8F090DDF852
:1023E000F480DDF8F8C0894E0792099306910B90AE
:1023F000DDE93A01D6E900ABD6E900239B4508BFE9
:102400009245F7D15AEA0B0200F0F680D6E9004572
:10241000D6E900239D4208BF9442F7D1002D08BFA2
:10242000142C77D2059B00240025002B78D18D42F7
:1024300008BF84423CBF04460D46B9F1000F7AD173
:1024400022462B464FF0FF304FF0FF311AF1FF3498
:10245000CDE902014BF1FF3512EB000A43EB010B12
:10246000089B0CA81844CDE900AB0A90E346B9F1EB
:10247000000F3ED0DDE900239D4208BF94422CBFEF
:1024800000230123002B3ED020462946142200239E
:1024900008F0A0F802EBC202120102F1080306EBF9
:1024A000030ADAE922018D4208BF84420DD157495F
:1024B0000CA811440831902208F0D2FCDAE922235A
:1024C0009D4208BF94422C9F02D0059900297BD1E0
:1024D000B8F1000F34DB002F03DD9DF830304345A9
:1024E0002ED0DDE90201241845EB0105B9F1000FFA
:1024F000C0D1DDE90001A94208BFA0422CBF0023E2
:102500000123002BC0D16FF0030031B0BDE8F04FC4
:1025100002B07047059B143C45F1FF35002B86D077
:10252000B9F1000F57D0A94208BFA0426AD38D422B
:1025300008BF844259D301220023CDE902238FE74B
:10254000BBF1000F05DB012FCBDD9DF831305B4582
:10255000C7D1069900292ADB022FC2DD9DF832304F
:1025600003F001028A42BCD10798002827DA0899B3
:10257000002944DD099A0DF1300CDDF828A0111F67
:10258000634651F8042F002A02DBD8788242A8D192
:1025900001335345F5D10B98614690222C9708F0F2
:1025A0005FFC002031B0BDE8F04F02B07047079AE1
:1025B000002ADCDB022F94DD9DF832300798C3F34C
:1025C000400383428DD1D2E76FF0020031B0BDE805
:1025D000F04F02B0704722462B468B4208BF824222
:1025E000BFF430AF02460B462CE70122002304461D
:1025F0000D46CDE9022333E74FF0FF30D2E70DF16E
:10260000300CC8E76FF00100CCE700BF784800202D
:1026100082B02DE9F04FB9B042AC84E80C00DFF88D
:102620006882139010915E469DF811419DF81091BB
:102630000C94479C459F0D94489CDDF818C10E945E
:10264000499C42AA0F944A9CD2E900011194D8E90E
:1026500000ABD8E900239B4508BF9245F7D15AEA61
:102660000B037ED0D8E90045D8E900239D4208BF7E
:102670009442F7D1002D08BF142CC0F0E2800C9AD0
:10268000143C45F1FF35002A40F0E1808D4208BF3F
:1026900084423CBF04460D46B9F1000F40F0E4808F
:1026A00022462B464FF0FF304FF0FF311AF1FF3436
:1026B000CDE90A014BF1FF3512EB000A43EB010BA8
:1026C0000F9B14A81844CDE908AB1290E346B9F16A
:1026D000000F3CD0DDE908018D4208BF84422CBFC9
:1026E00000230123002B3CD020462946142200233E
:1026F00007F070FF02EBC202120102F1080308EBBF
:10270000030ADAE922018D4208BF84420DD15E49F5
:1027100014A811440831902208F0A2FBDAE9222320
:102720009D4208BF9442349E01D00C98C8B9002F36
:102730003DDB002E03DD9DF85030BB4237D0DDE994
:102740000A23A41845EB0305B9F1000FC2D1DDE956
:102750000823AB4208BFA2422CBF00230123002B59
:10276000C2D1109C002C0BDD21460A29A8BF0A21EA
:102770000120FFF7CFFD241A002C10943FF754AF2F
:1027800044AD6C460FCD0FC495E80F0084E80F00F0
:1027900042A991E80C001398FFF710FE003018BF13
:1027A0000120404239B0BDE8F04F02B07047BBF1A4
:1027B000000F05DB012EC2DD9DF851309B45BED1D7
:1027C0000D9900292BDB022EB9DD9DF8523003F064
:1027D00001028A42B3D10E98002828DA0F9B002B01
:1027E0002CDD1199DDF848C0081F14A90B4650F8DC
:1027F000042F002A03DB93F803E072459FD10133D5
:102800006345F4D1B34613989022CDF8D0B008F0C8
:1028100027FB002039B0BDE8F04F02B070470E9A98
:10282000002ADBDB022E8ADD9DF852300E98C3F3BE
:102830004003984283D10F9B002BD2DCB34614A9EE
:10284000E1E70C9A00240025002A3FF41FAFB9F1FC
:10285000000F0ED0A94208BFA04282D38D4208BF0C
:10286000844201D204460D4601220023CDE90A2309
:1028700026E722462B468B4208BF8242BFF412AFA6
:1028800002460B460EE700BF784800202DE9F04FC6
:10289000E1B060AC0C94DDF83080634A634BD2E960
:1028A000004568E9524593F800B0CDF83080CDE995
:1028B0000A45DFF87C810C9D002301215FFA8BF42F
:1028C0004FF0FF3209940D90297269616B72EB61D0
:1028D0002B62EC602A61AA61C246D8E90067D8E998
:1028E00000239F4208BF9642F7D156EA070057D00F
:1028F000D8E90045D8E900239D4208BF9442F7D1AA
:10290000002D08BF142CC0F08C80143C45F1FF351D
:10291000DDE90A018D4208BF844205D204460D4616
:1029200002E0013445F10005BD4208BFB442204633
:1029300029464FF014024FF0000331D207F04AFE4F
:1029400002EBC202120102F1080308EB030BDBE900
:1029500022018D4208BF84420AD10AEB02010831EC
:1029600090223CA808F07CFADBE92223DDF8709184
:10297000B9F1020FD5DD9DF8F03009999942D0D117
:102980009DF8F230DB07CCD518AD28463CA9902243
:10299000CDF8709108F064FAE87861B0BDE8F08F86
:1029A0000D9C002C0BDD21460A29A8BF0A2101201D
:1029B000FFF7B0FC0D9C241A002C0D948DDCDDF883
:1029C0003080099D002301224FF0FF36C8F80C50DB
:1029D000C8F81C30C8F82030C8F8186088F80820FB
:1029E000C8F8142088F80930C8F8106010AD6C469B
:1029F0000FCD0FC495E80F000C9DDDE90A89C5E9EC
:102A0000008984E80F00DDF8308018AD98E80C00EC
:102A10002846FFF7D3FC0028BED0304661B0BDE8A1
:102A2000F08F0024002573E7C0530020C853002016
:102A30007848002072B6074A07491368581C03D02B
:102A400088682BB962B670476FF00103886813601D
:102A5000704700BFEC080120685400202DE9F04FBA
:102A600001298BB00691099240F29D800024002537
:102A7000CDE90045504D4FF6FF722A60079292460D
:102A80004E494F4A0023DDE900451F46A0F10209E7
:102A9000984608939B461E460B601360CDE904459B
:102AA000CDE9024500E0BB4639F8024FA4F5FF45E9
:102AB0007F3D284606F0DCFE02460B46DDE90201BA
:102AC00006F08AFDCDE9020105FB05F006F0D0FE17
:102AD00002460B46DDE9040106F07EFDCDE9040166
:102AE000204606F0C5FE02460B46DDE9000106F071
:102AF00073FD5C4588BFB04688BF27465445CDE985
:102B0000000102D20794A2460896069D0136AE4205
:102B1000C9D1079C284D2B4B2C602849284A089C7A
:102B2000099D0F60C2F800801C600698002D3ED001
:102B300006F08EFE04460D4622462B46DDE90201D4
:102B400007F026F807F0DCF90999086022462B46C1
:102B5000DDE9000107F01CF807F0D2F91A4B186004
:102B6000DDE9020102460B4606F0E8FE22462B464E
:102B700007F00EF80B460246DDE9040106F02AFDD7
:102B8000069A0446501E0D4606F062FE02460B46AB
:102B90002046294606F0FCFF04F068F907F0B0F97A
:102BA0000BB0BDE8F08F00200BB0BDE8F08F06F051
:102BB0004FFE04460D46C9E7485400204C540020FF
:102BC000D80801205C540020605400202DE9F04F0B
:102BD0008BB05F2900AF0D460646FA613B6140F2BB
:102BE000AC804B00083323F00703ADEB030D00234B
:102BF000984613709A46524BADF1020C1B68C7F809
:102C00000CC07B61DFF858C14E4BC7F818D00021CB
:102C1000F8680A464FEA480406EB8101095B013275
:102C2000AA4220F8021F1146F6D14FEA880907F19F
:102C300020024A442946B86987E80810FFF70EFFCA
:102C400039697A6941F828004A44D1698346BA60F3
:102C500007F066FCBA680028D168584618BF4FF0E4
:102C6000010A07F05DFC97E8081030B1012000FA76
:102C700008F2F86901780A430270334A3348116850
:102C80000268386D08F101080153786DDCF8001016
:102C900002532F48B8F1020F0268B86D0153F86D66
:102CA000196802533C6E44F80910B0D1BAF1000F14
:102CB00004D100202C37BD46BDE8F08F254B2649B6
:102CC0001A6843F62040A1FB0261490801EB41016B
:102CD000521A00FB02321032D7F814C0517DDCF8D2
:102CE00004400029E5D172B61C48926901684E1C67
:102CF00012D0DFF84CC01444DCF800609A68254418
:102D0000B468954228BF2A46A24294BF9A609C604C
:102D10000029CED162B6CCE7094E144431689A68D6
:102D200025448C68954228BF2A466FF00101A242D3
:102D300094BF9A609C600160BBE74FF0FF30B9E739
:102D400060BC0000605400204C5400204854002017
:102D50005C54002068540020ABAAAAAAEC08012009
:102D6000D80801202DE9F04FADF6F40D72B68B486E
:102D70008B4A03685168581C18BF0133002900F0C2
:102D8000FB811668874943F62040A1FB067149087C
:102D900001EB4101711A00FB012202F11007FC69ED
:102DA000787D16941699BC69B1F5C07F149080F0B7
:102DB0007E81002808BF00210E917848013B036006
:102DC000002B31D162B60E99BB69002930D10E9C1F
:102DD0002344BB6172B671480E9C0268531CFB69A8
:102DE00018BF01321B1BB3F5C07FFB61C0F06381CC
:102DF000797D002900F06981002B40F06681012374
:102E0000674C6168664F01393868013087E8030014
:102E10006248013A026002B962B6002BA6D10020D6
:102E20000DF6F40DBDE8F08F0E9923460029CED0A3
:102E30005D4AA2FB0302D20AC2EB0212A3EB0222FA
:102E4000C2F570658D4228BF0D464FEA850802F134
:102E5000080107EB81014246BCA808F001F80E9971
:102E6000A94200F279810DF178090DF17C080DF18C
:102E7000800B0DF1840A24AD1CAA22ABCDF8009082
:102E8000CDF80480CDF808B0CDF80CA00495BCA80E
:102E9000FFF79CFE20B99DF87030002B40F0788140
:102EA000FEF7D2FD0028C0F238810E9BBCA99A0023
:102EB00001EB8300C2F5C062FF2107F0DAFF0E9834
:102EC00007F024F94FF0705107F078F906F0E2FCB2
:102ED00003F0E2FC06F0CCFF0028179040F31D81C0
:102EE000B6B20C94B4B20A940E9CBCAA12940024FC
:102EF000119610920F94BB460C9F2C48FD09A0FB25
:102F000005056C01661BB7EBC61629480A9F149984
:102F1000078014BF00270127002900F00081169ABE
:102F20000E9B9A4200F00E810023139321480378F0
:102F3000002B40F0FA80204A109910683A461E4F44
:102F4000431C3B60FEF7FCFD0028C0F2E580B6F5AF
:102F500070625642139F5641159647B99BF814303C
:102F6000002B00F0C080159F002F00F0C380FEF7FB
:102F70006BFD0C9B0D9012980D9E802894BF1B1822
:102F80008033641BA3EBC4144FF000093346D846CA
:102F90004E460B94AB4699467FE000BFEC080120FB
:102FA00068540020ABAAAAAA898888888810420899
:102FB000DC0801207000002054000020A64F0AEB1E
:102FC000CA0317F81330022B61D0032B40F088801E
:102FD000BBF1000FC0F284800B9C002E08F10807A3
:102FE00018BF4FF4786497E80700079400F0FCFDE1
:102FF000044658460D4606F03BFC984BD3E90023A7
:10300000CDE908230022964B06F098FCDDE9082361
:1030100006F0BEFD02460B462046294606F0DCFAC5
:1030200002460B4629A800F0B3FD97E807002CAB39
:1030300083E8070000214FF400723CA898F8145070
:1030400007F017FF079F874828970A9F1FFA8BF4FE
:103050008DF8BC50ADF89E402690ADF89C7026AD22
:103060003CAC0FCD0FC40FCD0FC495E8030044F85E
:10307000040B2170002E00F007817B490B7833BBD5
:1030800050463CAA0021FEF7EBFC0BF1FF3B01365A
:10309000B6F5006F09F1FF3922D0B9F1000FCA4629
:1030A0008CDA0D9C04F5006AC6EB0A0A86E74FF439
:1030B000C0720E9281E6002B4CD16C484168012908
:1030C00054D97B7D0BB101239CE60123A0E6CDF80A
:1030D00000B000215246119B654807F027FFCFE75B
:1030E000139CC3460CB9159C24B1624F01233B606D
:1030F000FEF72EFE0F9C0C9F013480370F940C9727
:10310000109C129F04F50074803F109412970F9C3E
:10311000179FBC427FF4F0AE5F46BB6957E652484A
:1031200013910378002B3FF406AF5249D1F8008089
:10313000FEF78AFC414602460095119B4E4807F077
:10314000F5FEF8E617980F99431EC91A4B424B41FA
:103150001393EBE67B7D5BE64A1BBCA807F12001DD
:103160009200404407F07CFE0E997CE6797D0029B0
:103170007FF446AE0B464BE6404C013B2360002BF0
:103180007FF44DAE62B600200DF6F40DBDE8F08F71
:1031900022A908220DF1CD008DF8CC3007F060FE99
:1031A000494604220DF1D50007F05AFE414604229B
:1031B0000DF1D90007F054FE594604220DF1DD004F
:1031C00007F04EFE514604220DF1E10007F048FEE3
:1031D000294608220DF1E50007F042FE234A234963
:1031E0001368274A43F62045A2FB0302520802EB6C
:1031F00042029B1A05FB031505F1180393E807002B
:1032000000F0F2FC154B8246A86AD3E900898B4690
:1032100006F01EFB42464B4606F0BAFC02460B4641
:103220005046594606F0D8F9164D02460B4618A8E6
:1032300000F0AEFC189819991A9A95F8008030ABF6
:1032400007C3012330A908202D222B70FEF796FB1F
:1032500085F8008024E600BFA01701209017012008
:103260000000AF40C91F283F7000002068540020B4
:10327000D0C500005400002058C50000EC08012013
:10328000ABAAAAAA210800200B4803784BB1FEF78D
:10329000DBFBCDF800B0024631460848119B07F031
:1032A00045FE00203CA90246FEF74AFC0028BFF676
:1032B000ECAE474631E700BF7000002090C500002B
:1032C0000A4B5A6882B1186809490244013AA1FBC5
:1032D0000201490801EB4101521A43F6204101FB6A
:1032E0000233012283F82520704700BF6854002074
:1032F000ABAAAAAA174B30B493E81400164922448B
:10330000013AA1FB0241490801EB4101521A43F67F
:10331000204505FB023393F8252010331AB9DA69EA
:10332000B2F5706F01D330BC704799690B4C1144F2
:10333000A4FB0154E40AC4EB0414A1EB0424551CBF
:1033400008340146DD6103EB8400042230BC07F041
:1033500087BD00BF68540020ABAAAAAA89888888C4
:1033600038B51E4C63681BBB22681D4D1A44A5FB73
:1033700002056D0805EB4505521B43F6204505FB8C
:1033800002450021581C00220023C5E90623A9623A
:10339000E96285F82510296285F824106060FEF73F
:1033A000FDFF104BC5E904011B681B68A36038BD15
:1033B00022680B491A44013AA1FB0201490801EBBA
:1033C0004101521A43F6204101FB0242022B4FF009
:1033D000010182F82510C7D938BD00BF685400200C
:1033E000ABAAAAAA60BC000082B02DE9F04F83B05E
:1033F0000CAC84E80C0072B6DFF858C1534DDCF811
:1034000000305A1C1CBF0133CCF80030D5F804C082
:103410000193BCF1000F00F084800024D5F80080F7
:10342000DFF838B1A14643F6204A04EB0803ABFBB2
:103430000321490801EB4101591A0AFB01511031DE
:103440000E7DD1E900233EB9821A05D4BA4200D3D9
:1034500014B989461746009401346445E5D1B9F1A1
:10346000000F5ED0DDF800C009F108030CF1010681
:1034700001270DF1300CA6429CE8070083E8070005
:1034800089F814704DD2B04407F1AA37A7FB08138E
:103490005B0803EB4303C3EB080843F6204404FB3B
:1034A00008541034237D002B3BD1DFF8A0800FE0BF
:1034B000D8F8003043F620443344A7FB03C2520837
:1034C00002EB42029B1A04FB03841034237DC3B930
:1034D0000CAB93E8070000F087FB00221C4B06F0C2
:1034E0007BF802460B460CA800F052FB6B680136D5
:1034F0000DF1300C0834B3429CE8070084E8070063
:10350000D6D8144C144B24680DF1300C9CE80700FD
:10351000019483E8070054B903B0BDE8F04F02B04E
:1035200070470D4B0CAC94E8070083E80700019C42
:10353000DFF820C0631ECCF80030002BECD162B65F
:1035400003B0BDE8F04F02B0704700BF68540020E0
:103550000000F03FEC08012050540020ABAAAAAABA
:103560003A4B2DE9F04F1B68DFF8F0A01B6BDAF83F
:1035700000104FF47A720B4487B0804602FB03F0D0
:1035800006F0C4FDDFF8D890DFF8D8E0D9F80410D1
:103590008346DEF80060D9F80000DEF80470DEF83B
:1035A00008E0361A67EB0107BB00D9F8081043EAB8
:1035B0009673B2005D012648C1EB0E0E45EAD26556
:1035C0005401A21A65EB030380FB0E14B61847EBF7
:1035D00003074FEAEE7ECEEBA41EF900F00010EBDD
:1035E0000E0041EA567141EBEE7106F0A9FD01466D
:1035F000584606F097FE174906F0E0FD164B0446C4
:103600001B88B9E80700CDF806002046CDF80A105F
:10361000CDF80E20ADF8043006F0BCFFDAF800302B
:10362000ADF81200ADF8143001AC0FCC2488C8F806
:1036300000004046A8F81040C8F80410C8F8082058
:10364000C8F80C3007B0BDE8F08F00BF60BC0000C8
:10365000D34D62100000C842DC0801205C17012035
:1036600050540020A0A701202DE9F04FADF29C4D51
:1036700000AF07F1480600F117010B2230467E64C7
:1036800007F0EEFB96E8070007F1580303C39648DE
:1036900023F8022B0178120C1A70002940F0528294
:1036A000FEF7D2F9D7F84BE0D7F84F3038647345BE
:1036B0003ED900283CDB97F84A203C6C02F001031D
:1036C000920748BF01335B003B613E694F23B3FB68
:1036D000F6F3FB6106FB03F3083323F00703C7F897
:1036E0000CD0B7F84860ADEB030D804BC7F82CD079
:1036F000C7F824E00125A44604EBC40213F8121015
:10370000601C03EB4202DFF8E4A119B9B2F8012012
:10371000B24219D0C0F30A0464454FF00005EBD162
:10372000062007F158010B22FEF728F9002056E188
:1037300007F1580106200B22FEF720F9002007F2BE
:103740009C47BD46BDE8F08F3E6CB44200F00A8253
:103750003E69012576083E623E6A4FF00008AE40A1
:10376000C7F83CE0013CC7F828E0BE61C7F83480E8
:103770007D60BE6AF86B864264DC7E684FEA8449ED
:1037800008F1010B01E0AB4511D04545FBD8FEF730
:1037900061F9006807F19801484400EB053005F035
:1037A00003F8002800F07F810135AB45EDD1C7F863
:1037B00038803D63FEF74EF90134C4F30904006814
:1037C0004FEA844907F52671484404F0EDFF0546A9
:1037D000454804EBC40B01780AEB4B0869BB1EB9E2
:1037E000396C8C4200F092811AF81B1000260229D5
:1037F000E0D0002940F07981B8F80120B7F84830CE
:103800009A4240F07A81002DD4D1252207F5267105
:1038100007F1700007F024FBB86F06F077FC4FF05B
:10382000705106F0CBFC06F035F803F035F806F0E1
:1038300047FB2E4680460125A2E721462C4807F08B
:1038400075FBCCE74FF000092A4802F0CFFD05F0E8
:10385000EBF9002840F0C080274B1B68002BC0F21A
:10386000BB80D7F84FC00CF1010CB9F1000F00F08C
:103870001481C7F838C06646F86B864294BF4FF093
:10388000000C4FF0010CBCF1000F40F0AF80FE695E
:10389000786B864200F0AA808346B9F1000F66D1AA
:1038A000FE69F86BCBEB060BBE6AC0EB060CDC4581
:1038B00028BFDC46BCF1000F53DDB869796BFE6AA6
:1038C000BC6301FB0063FE6B786A07F19801C0EBF3
:1038D000060B7E6801EB8B0B3E637D610BF1020BE7
:1038E0006546BC691E4613E070000020A017012049
:1038F00050C60000008008404C00002012F0020F6B
:10390000264417D109F101094D450BF1040B23D0D1
:1039100097F84A2012F00101F0D03046ABF10201D5
:10392000022207F09DFA97F84A20012112F0020FB7
:103930002644E7D0786B3A6A484400FB0210FB6AE1
:10394000594603EB4000022209F1010907F088FA09
:103950004D450BF1040BDBD13E6BAC46BC6B7D6976
:103960007E607E6B66447E63FE6B6644FE63D7F8C2
:103970004F30FE6B5A1C96427FF4FBAE7E6B002EDE
:103980002ADDF86BC7F85F30821BFE6AC7F85B2040
:103990006D46002E00F0DC803E69821A06FB02F4C0
:1039A00004F1120323F00703ADEB030D07F15801F7
:1039B0000B22684607F054FA2246F96A0DF10B0013
:1039C00007F04EFA04F10B02D2B26C4621460620F3
:1039D0000023FDF7F5FEAD46FCF7ECFC0120FE6888
:1039E00007F29C47B546BD46BDE8F08F7E6B002EC2
:1039F00040F38A80F86BF96A831B421EC7F85B307C
:103A0000C7F85F206E46002900F08E803A69C31A1D
:103A100002FB03FB0BF1120323F00703ADEB030DD5
:103A200007F158010B226846C7F808C007F018FADA
:103A30005A460DF10B00F96A07F012FA0BF10B026E
:103A4000D7F808C0D2B2EB465946002306209B4661
:103A5000C7F808C0FDF7B4FED7F808C0C7F834B0FF
:103A6000B546BCF1000F3FF418AFBE6B07F158012B
:103A7000731EFE6B07F164000B22C7F85B60C7F88A
:103A80005F3007F0EDF9BE6B07F164010B220023F4
:103A90000620FE63FDF794FEFFE67E6A664528BFBA
:103AA0006646BE63E8E6B7F8762005F10073C2EB20
:103AB0004212D201013B02EBC313B86F7B62D7F80D
:103AC0004F1010447E60294A7E6A01311378884283
:103AD00038BF014606F18002914228BF1146B96203
:103AE000DBB901354FF00009AEE60026D7F8388083
:103AF0003D6B4FF001097E60A6E6D7F838803D6B3C
:103B000079604FF001099FE6B346AAE77E60D7F8D7
:103B100038803D6B4FF0010996E629464246234620
:103B2000134807F003FADCE707F164000B2207F102
:103B30005801C7F808C0834607F092F90B22D7F85E
:103B400008C081E7B7F858100A4807F0EFF9A7E571
:103B500007F164000B2207F15801044607F080F9D1
:103B60000B2233E7002D7FF4F3ADD9E57000002080
:103B70002CC6000010C6000008B5FEF70DF9024B78
:103B80000130186008BD00BF68540020000000002C
:103B90002DE9F04119468046104616461F4602F0B0
:103BA0000BFF06F02DFD04460D4605F099FE02467A
:103BB0000B463046394605F00DFD09A3D3E9002335
:103BC00005F0BCFE02F088FFC8F80040C8F80450B9
:103BD00006F04EF9C8F808004046BDE8F08100BF85
:103BE0000000000080842E4130B585B004AB03E9AD
:103BF00007000198029905F073FE044603980D46EC
:103C000005F036FE06A3D3E9002305F0C1FF024606
:103C10000B462046294605F0DFFC05B030BD00BF4D
:103C20000000000080842E4110B4019C026084607A
:103C300043605DF8044B704770B51C4B86B001249F
:103C40001C701B4D02F0F6FA0220002102F0E2FA8D
:103C500021462246052001AC01F020FB0FCD0FC408
:103C60002B68022600254FF44051802201A82360D2
:103C7000ADF8081003928DF804508DF806508DF8B9
:103C800014508DF815508DF816508DF8056000F021
:103C9000F7FA0849084B0E63096808484FF00042DC
:103CA0000560C3F880211A6006B070BDE4080120E9
:103CB00070C600000010084000E100E00C00024364
:103CC0000849094B012230B40A709D68074C084826
:103CD00002212560026019635A6B30BC22F0020297
:103CE0005A637047E508012000100840E0080120F1
:103CF0000C0002432DE9F047814F0126DFF828E24E
:103D00003E609EF8003086B081468846144603F037
:103D1000FF05002B78D07B4D00272F7000F000FBB3
:103D20004FF47A7000FB08F0774B784EA3FB00202D
:103D300002233363800905F08BFD0022744B05F0EC
:103D40004BFC06F0BDF80146384600F0D9FA6C4B42
:103D500032681F60736BC84543F00203736300F25F
:103D60008C806C4E013C2B7853B9032CFBD8DFE8D8
:103D700004F03F3B370202F04BF92B78002BF4D0D4
:103D8000654E664F72B63368634A591C01D00133E1
:103D900013602A785B49002A30D15C4B01220A70FB
:103DA0009C68574802213C60026019635A6B22F0FC
:103DB00002025A6333680BBB386806F0A7F958490A
:103DC00006F0B0FA564906F0F9F905F063FD002255
:103DD0004F4B05F001FC06F073F806B0BDE8F08724
:103DE000012002F0B9F8BEE7012002F069F8BAE755
:103DF000336923F00403336130BFB4E7013B336020
:103E0000002BD9D162B6D7E78EF8006002F012FA23
:103E10000220294602F0FEF931463246052001F023
:103E20003DFADFF808E101AEBEE80F000FC6DEF88C
:103E300000304FF4405180224FF0020A01A8336055
:103E4000ADF8081003928DF804508DF806508DF8E7
:103E500014508DF815508DF816508DF805A000F00F
:103E60000FFA2A492F4BC1F830A04FF000420968E1
:103E70003D60C3F880211A604DE7274E274FDFF8D9
:103E800094802B78002B7FF47DAF631E032B05D825
:103E9000DFE803F0272F230202F0BAF872B6336886
:103EA0002A78581C18BF01333AB33868013B336095
:103EB00003B962B606F02AF9194906F033FA18492F
:103EC00006F07CF905F0E6FC0022114B05F084FBBE
:103ED00005F0F6FF8145D4D854E7012002F03CF804
:103EE000DCE7D8F8103023F00403C8F8103030BFF6
:103EF000D4E7012001F0E4FFD0E7044A9068D5E759
:103F00000C000243E5080120D34D62100010084068
:103F10000000E03F00ED00E0EC080120E008012097
:103F200000007A4400E100E0E408012070C60000CF
:103F3000036843F001030360704700BF064B10B4F1
:103F400000214FF08E440322046043605DF8044B6F
:103F5000C1608261704700BF80000100436823F0A8
:103F6000F7031A4342EA01114160704700F10473FC
:103F7000F0B45B014C7A00220E7A1A604A6824047D
:103F800044EA46448E7ACD7A0F7844EA026291F888
:103F90000CC04C7842EA06260A6946EA0516FF0775
:103FA0004D7B46EA8C06097D47EA8474120234434D
:103FB00042EA054204604260F0BC1960704700BFED
:103FC00070B50E7905460C4616480EBB00F080FC15
:103FD000154B164E0344A6FB0323DE0D03D0013E12
:103FE000360206F4FE460A236B606378E178207897
:103FF000A2781B01090443EA0063134301F4F8119A
:1040000062790B4333430AB143F008032B6070BD60
:1040100000F05EFC3602034800F05AFC06F4FE464F
:10402000E1E700BF408104003F5DC600A5E830A580
:10403000082343602DE9F001446B8A7824F0FE44A4
:1040400024F4FE04062A60D8DFE802F02F3B475331
:104050005F5F04002E4BDB6803F07F084FEA0848DF
:104060000F7891F801C04D68CB783F074E7A48EA47
:10407000040447EA0C5745EA031344633B430EB17B
:1040800043F080738C7A0CB143F004030C7A0CB1CA
:1040900043F00203C97A09B143F0010345EA024241
:1040A00013430361BDE8F0017047194B5E685D681A
:1040B00006F4FE4305F07F0848EA03084FEA084883
:1040C000CEE7134B5D685B68C5F30668C3F3064330
:1040D00043EA08284FEA0848C2E70D4B9E689D68EE
:1040E00006F4FE4305F07F0848EA03084FEA084853
:1040F000B6E7074B9D689B68C5F30668C3F30643A4
:1041000043EA08284FEA0848AAE74FF00008A7E763
:10411000B081E00F02234360F0B4446B8A7824F44A
:10412000FE4424F07F04062A54D8DFE802F02B3541
:104130003F4953530400294BDB6803F07F0C0B7895
:104140004D780F791B0743EA0553CE788D794CEAF9
:10415000040443EA0723446343EA06130DB143F022
:104160008073CC790CB143F004034C790CB143F06B
:104170000203097A09B143F0010343EA0243C36031
:10418000F0BC7047154B5E685D6806F4FE4305F0B1
:104190007F0C4CEA030CD2E7104B5D685B68C5F3FB
:1041A000066CC3F3064343EA0C2CC8E70B4B9E682E
:1041B0009D6806F4FE4305F07F0C4CEA030CBEE755
:1041C000064B9D689B68C5F3066CC3F3064343EA40
:1041D0000C2CB4E74FF0000CB1E700BFB081E00F4A
:1041E000002230B40A234FF4F81540F2033440F2B1
:1041F00047714360C260124B026105604261046214
:10420000C163426B5C6822F4FE42596804F4FE44C8
:1042100022F07F02224301F07F010A434263446B94
:1042200059685A6801F4FE4124F0FE4302F07F020F
:1042300023F4FE030A4343EA0243436330BC70475E
:10424000B081E00F08B520B10A4B984207D91F2072
:1042500008BD094800F03CFB0028F5D108BD074B1C
:1042600000F5742000F23F20A3FB0020800C0138F1
:10427000C0B208BD0048E8014081040083DE1B4352
:1042800083680178B3FA83F370B4C3F11F0411B1EA
:10429000184B01221A60184A936BDD0706D4136885
:1042A00013F4405F02D0D36BDB07FCD4827C124B4B
:1042B00086885A60C268457846EA421245F0080589
:1042C00086782A43457C42EA8602007C42EA05124F
:1042D00042EA803242EA04224FF0FF3018631A604B
:1042E00029B10648034900221B6802600A6070BCBD
:1042F000704700BF00070243001008400C00024353
:10430000064A936BD80706D4136813F4405F02D0B3
:10431000D36B9B07FCD4014BD96070470010084059
:10432000024B0121002219601A6070470C00024301
:1043300008B500F00F03013B062B7DD8DFE803F042
:104340003C4C5B7C7C6A0400484BDB6A03F46033C2
:10435000B3F5803F74D0B3F5003F6FD0B3F5004F95
:104360000CBF08230123424A904260D0414A904248
:1043700003D13E4B9B6AC3F38103032B1AD8DFE8BA
:1043800003F0130F0B0202F00DF93B4B3B4A1B6885
:1043900012680133D84008BDBDE8084002F0EEB90C
:1043A000BDE8084002F0E2B9314B98424CD0314BA5
:1043B000984252D0002008BD2C4BDB6A03F47053A6
:1043C000B3F5805F3AD0B3F5005F39D0B3F5006F35
:1043D0000CBF04230523C6E7244A936A03F00303B2
:1043E000022BC0D0032B2DD0012B27D0936ADA03E8
:1043F0000ED50923B7E71D4A936A03F00C03082B77
:104400001ED00C2B1ED0042B18D0936ADB02F0D4E4
:104410000123A8E7154B1B6813F080531BD0144AE7
:10442000B3F1805F0CBF0823012390429ED10F4B54
:104430009B6A03F00303A0E7002394E7032392E7BA
:10444000022390E706238EE7084B10209B6A33FA7D
:1044500000F006D108BD072385E7044B14209B6AB2
:10446000F5E7BDE8084002F085B900BF00800C40C8
:104470000200180003001A0078009043A000904347
:1044800038B5C0F30313013B0C46062B05D8DFE813
:1044900003F00F0404212C3E050038BDA94B9842BF
:1044A00000F0DC8003F50433984200F0C08038BD92
:1044B00002F0E8F8A44B41F67131DA6BD9635B681E
:1044C00003F00703042B40D9A04B984240F26981C6
:1044D000052045E09E4BB1FA81F49A68C4F11F04AF
:1044E00022F00F0214439C6038BD02F0CBF8964BCB
:1044F00041F67131DA6BD9635B6803F00703042B73
:1045000040D9924B984240F25481052045E0914BAE
:10451000984200F02F8140F2B7808F4B984200F014
:10452000F9808E4B984240F0D380894A536DD90769
:1045300040F1BE80864BB4FA84F49A6EC4F11F0435
:1045400022F0030222439A6638BD012101FA03F3E7
:1045500013F0130FB8D07D4B984240F242810420F3
:10456000794B596821F00701014359600AB10022D3
:10457000DA63774B013C1A6822F4E03242EA843471
:104580001C6037E0012101FA03F313F0130FB8D0D8
:104590006E4B984240F2158104206B4B596821F014
:1045A0000701014359600AB10022DA6302F06EF894
:1045B0006B4BB0FBF4F0DB6CC3F307434A2B00F00A
:1045C0009480792B00F09180604A482B18BF00221C
:1045D0009042644D644994BF002201225C4B2A60E2
:1045E0000A605A68B4FA84F4C4F11F0422F00F027E
:1045F00014435C6001F0D6FF534B41F67131DA6B26
:10460000D9635B6803F00703042B62D94F4B9842D0
:1046100040F2DF8005204C4B596821F0070101432F
:104620005960002A3FF439AF0022DA6338BD484AA6
:10463000536DD9070BD5464BB4FA84F41A6FC4F105
:104640001F0422F0300242EA04121A6738BD136DCB
:104650005B06F0D5136D5B06F9D4ECE73C4A536D6D
:10466000DD070AD53A4BB4FA84F41A6FC4F11F047B
:1046700022F0030222431A6738BD136D5806F1D5A4
:10468000136D5806F9D4EDE7A3F5043398421ED113
:104690002F4A536DDD0713D52D4BB4FA84F49A6E6F
:1046A000C4F11F0422F0F00242EA04129A6638BDF7
:1046B000136D5B077FF53EAF136D5B07F8D439E7E9
:1046C000136D5807E8D5136D5807F9D4E4E738BDE2
:1046D00038BD012101FA03F313F0130F96D01B4BE1
:1046E000984240F28680042095E7204B17491D69C7
:1046F0009A69DB6905F03F05C3F3031343EA052517
:1047000002F0F0021A4B2A43B2F5017F34BF0A4689
:104710001A465DE70E4A536DDD070BD50C4BB4FA14
:1047200084F49A6EC4F11B0422F4405242EA04322B
:104730009A6638BD136D5807F0D5136D5807F9D434
:10474000ECE700BF7007140000000C400048E801CF
:1047500000800C40602612006000240060062800E3
:10476000B081E00F78009043A0009043D0FF0FE0AD
:1047700000366E01234A536DD9070BD5214BB4FA8D
:1047800084F49A6EC4F11F0422F4706242EA042297
:104790009A6638BD136D5B07F0D5136D5B07F9D4CE
:1047A000ECE7194B194903448B4294BF03200220C4
:1047B000D6E6154B154903448B4294BF03200220D3
:1047C000EBE6114B114903448B428CBF00200120C2
:1047D000E3E60D4B0D4903448B4294BF03200220B6
:1047E00019E7094B094903448B428CBF0020012083
:1047F000B6E6054B054903448B428CBF00200120DF
:1048000009E700BF00800C40FFDB0BFFFF23F40033
:1048100000F00F00013806284ED8DFE800F014241D
:10482000334D4D420400294BDB6A03F46033B3F58A
:10483000803F43D0B3F5003F42D0B3F5004F0CBFEB
:10484000082001207047214BDB6A03F47053B3F555
:10485000805F35D0B3F5005F30D0B3F5006F0CBF8B
:10486000042005207047194B986A00F003000228C5
:1048700025D0032826D0012822D09B6ADA030ED542
:1048800009207047114A936A03F00C03082B15D0D6
:104890000C2B17D0042B13D0936ADB02F0D4012029
:1048A00070470A4B1B6813F080530DD0B3F1805F43
:1048B0000CBF08200120704700207047022070477D
:1048C00003207047062070470720704700800C4087
:1048D00000F47810B0F5A01F08B500F093800ED852
:1048E000B0F5402F7ED021D8B0F5003F76D0B0F59E
:1048F000802F00F0B08000287BD0002008BDB0F5EC
:10490000001F00F09A8039D8B0F5C01F61D0B0F513
:10491000D01F72D0B0F5B01FEFD16448FFF708FD8B
:10492000634B1B6FC3F30113D84008BDB0F5801F64
:1049300037D0B0F5901F6ED0B0F5602FDDD15C4B55
:104940005B6903F4E063B3F5007F00F09E8040F202
:104950008A80B3F5C06F00F0A480B3F5E06F00F07B
:104960009E80B3F5407FC8D1524B534AD86C534B0D
:10497000B0F1985F34BF1046184608BDB0F5181F57
:1049800018D0B0F5201F4FD0B0F5101FB5D14C484E
:10499000FFF7CEFC464B9B6EC3F301330433D84084
:1049A00008BD4748FFF7C4FC414B9B6EC3F303139C
:1049B000D84008BD4248FFF7BBFC3D4B9A6EDB6F09
:1049C000C2F30132D04003F007030133B0FBF3F030
:1049D00008BD3B48BDE80840FFF7AABCBDE8084059
:1049E00001F0E0BD324A136813F0805346D0002B2B
:1049F00083D0BDE8084001F049BE2C48BDE808401E
:104A0000FFF796BC2948FFF793FC294B1B6F03F077
:104A10000303D84008BD2A48FFF78AFC244B9B6E4D
:104A2000C3F30323D84008BD2548FFF781FC204B82
:104A30009B6E03F00303D84008BD2248FFF7E8FE51
:104A4000032817D00828D4D002287FF456AFBDE839
:104A5000084001F093BE01F019FE154B9B6803F06E
:104A60000F03D84008BDF3B1B3F5807F7FF445AFA5
:104A7000154808BDBDE8084001F078BE536903F44D
:104A8000E063B3F5007F7FF462AF0A4B0F4AD86C46
:104A90000F4BB0F1985F34BF1046184608BD0D4863
:104AA00008BD0D4808BD0D4808BD00BF03001A0031
:104AB00000800C40B081E00F40420F00804F120098
:104AC0000200180007232000C0D8A700C0CF6A004A
:104AD00040B56400406F4001003FAB01809FD500AE
:104AE00070B5C0F30323013B82B00446092B11D8F3
:104AF000DFE803F022192410101D05101020274AAA
:104B00001020274DC4F304346B6DDB0704D5224419
:104B10009200116002B070BD2B6D1842F7D02B6D62
:104B20001842F9D1F3E71F4AC4F30434EFE71E4AF1
:104B30000120E6E71D4AF7E71D4AF5E7019101F07C
:104B400031FD1C4B0199DA6CC2F307424A2A0FD09F
:104B5000792A0DD0184B482A18BF0023174A9842CB
:104B6000174D94BF002301231360164A2B60DBE727
:104B7000154A114D16699369D26906F03F06C2F3D2
:104B8000031242EA062603F0F003104A3343B3F55A
:104B9000017F34BF2B461346E0E700BF0003E4105B
:104BA00000800C402002E410C002E410C003E410B6
:104BB0004000E410B081E00F0048E8017800904325
:104BC000A00090430002E410D0FF0FE000366E0119
:104BD00038B500F00F04631E062B52D8DFE803F04F
:104BE0007A626251515D5600012202FA03F313F01A
:104BF000130F00F09680A84B984240F23C820420AC
:104C0000A64B5A6822F0070202435A6009B10022FB
:104C1000DA63A34BA3485C62FFF75AFEA24BDB6C3E
:104C2000C3F307434A2B00F08881792B00F085817C
:104C30009949482B18BF002188429C4A9C4B94BF3D
:104C4000002001201060186001F0FAF901F0AAFCC0
:104C5000924B41F67131DA6BD9635B6803F007035D
:104C6000042B40F25D818C4B984240F2EC81052090
:104C70008A4B596821F00701014359600AB10022AB
:104C8000DA638A4A8A4B12681B6838BD03294ED002
:104C9000082973D002295AD038BD072923D0082902
:104CA00066D038BD01390829F6D801A252F821F0A2
:104CB000734E00007B4E0000C94E0000994C00006E
:104CC000994C0000E34E0000994C0000994C000004
:104CD000514E000002390329DED8DFE811F00A0046
:104CE000B50056008D006E4B1A6822F080521A6093
:104CF000C7E7704A04244FF4807369490B62136854
:104D0000002BFCD001F09CF901F0BCFC634B41F698
:104D10007132D96BDA635B6803F00703042B7FF60B
:104D200063AF5D4B984240F29681052068E75C4B8B
:104D30004021614A19621368002BFCD001F080F910
:104D4000574A60235362D36A9903FCD599E7544BC1
:104D50004FF48071574A19621368002BFCD001F0A0
:104D60006FF94F4A40235362D36AD803FCD588E7D2
:104D70004B4B1A6842F080521A6082E7484A20235F
:104D80005362D36A1B04FCD57BE7474BDB6CC3F350
:104D900007434A2B00F00481792B00F0018147483A
:104DA000482B18BF0120404BDB6CC3F307434A2B51
:104DB00000F0E280792B00F0DF80374A482B0CBFEF
:104DC0001346002383423A4A38492CBF002301236B
:104DD0000B60136001F0C2FC2F4B02249842304B51
:104DE0001A6896BF22F0600242F0600242F0200290
:104DF0001A60334A042380E72B4BDB6CC3F3074371
:104E00004A2B00F0F680792B00F0F3802B48482BDA
:104E100018BF0120244BDB6CC3F307434A2B00F07F
:104E2000D480792B00F0D1801B4A482B18BF002278
:104E300090421E4B1E4994BF0022012201241A6099
:104E40000A6023461F4A58E71B4A0324402354E7BD
:104E50004FF480114FF480330022022C00F0828046
:104E60000F4A936A23F4801323F00C030B439362DD
:104E700007E700210B460A46EFE7094B4FF4807124
:104E80000C4A19621368002BFCD001F0D9F80821F4
:104E900000230222E1E700BF0048E80100000C40C7
:104EA00000800C4000430200B081E00F7800904386
:104EB000A0009043A40590439C0590430148E8015D
:104EC0008C059043840590436F4B40216F4A1962D3
:104ED0001368002BFCD001F0B3F804210023012259
:104EE000BBE701F05FFB6A4BDB6CC3F307434A2B64
:104EF00000F09480792B00F09180664D482B18BF0C
:104F00000025A8426449654B654A94BF00200120F2
:104F10000125086018600C211560002303229CE71E
:104F2000012101FA03F313F0130F3FF49CAE594B28
:104F3000984240F2988004209AE65A4B554A1C69E0
:104F40009969DB6904F03F04C3F3031343EA0424C3
:104F500001F0F001544B2143B1F5017F34BF1146FC
:104F6000194669E648481343816A21F4803121F0EB
:104F700003011943816284E64A4A464B14699169E8
:104F8000D26904F03F04C2F3031242EA042401F0A0
:104F9000F001454A2143B1F5017F28BF134611E7CF
:104FA000404B424A18699969DB6900F03F00C3F33E
:104FB000031343EA002001F0F0013D4B0843B0F534
:104FC000017F34BF10461846EDE6364B314A1C6966
:104FD0009969DB6904F03F04C3F3031343EA042433
:104FE00001F0F001304B2143B1F5017F28BF1A4693
:104FF0001EE72C4B2D4A18699969DB6900F03F00C8
:10500000C3F3031343EA002001F0F001284B0843E7
:10501000B0F5017F34BF10461846FBE6214B1D4A10
:105020001D699969DB6905F03F05C3F3031343EA82
:10503000052501F0F0011C4B0D43B5F5017F34BF90
:1050400015461D465DE71B4B1B4903448B4294BF2D
:10505000032002200CE6174B174A0344934294BFE7
:1050600003200220CCE5134B134903448B428CBF31
:1050700000200120FCE50F4B0F4A034493428CBFF4
:1050800000200120BCE500BF00800C409C0590433F
:10509000B081E00F0048E80178009043A000904301
:1050A00010089043D0FF0FE000366E010148E80180
:1050B00001366E01FFDB0BFFFF23F40038B5044619
:1050C000052804D8DFE800F0272B3035390438BD37
:1050D000684B1D6BC5F30725674AD26A02F470520C
:1050E000B2F5805F64D0B2F5005F61D0B2F5006FB9
:1050F0005ED001F0C7FA614B41F67132D96BDA63C9
:105100005B6803F00703042B1BD95D4B984240F208
:10511000A88005201FE0574BDD6AEDB2DCE7554B58
:10512000DD6AC5F30725D7E7524BDD6AC5F30745AE
:10513000D2E7504BDD6A2D0ECEE74E4B1D6BEDB224
:10514000CAE7012202FA03F313F0130FDDD04C4B30
:1051500098426ED90420494B5A6822F00702024354
:105160005A6009B10022DA63434AD36823F4FF632B
:1051700023F0070343EA04242543D56001F012FA23
:105180003E4B41F67131DA6BD9635B6803F007037C
:10519000042B43D93A4B98425BD90520374B5968C9
:1051A00021F007010143596062B10022DA6309E08E
:1051B000314AD36823F4FF6323F0070343EA04244E
:1051C0002543D56001F0EEF92A4BDB6CC3F30743AE
:1051D0004A2B0ED0792B0CD02949482B18BF00211F
:1051E0008842284A284B94BF002001201060186094
:1051F00038BD264B224A19699C69DB6901F03F01E1
:10520000C3F3031343EA012104F0F004204B2143CC
:10521000B1F5017F34BF11461946E1E7012101FADA
:1052200003F313F0130FB5D0154B984209D904209E
:10523000B4E7184B184A034493428CBF0020012066
:1052400089E7144B144903448B428CBF0020012092
:10525000A4E7104B104903448B4294BF0320022063
:105260009CE70C4B0C4A0344934294BF032002205A
:1052700071E700BFB081E00F00800C4000000C40DF
:105280000048E80178009043A0009043D0FF0FE071
:1052900000366E01FFDB0BFFFF23F40010B404287F
:1052A0002ED8DFE800F0271B031F23001648082331
:1052B000042469B1154B1C621AB95DF8044B00F067
:1052C000BFBE0368002BF8D10368002BF9D0F4E7C8
:1052D0000E4A5DF8044B136200F0B2BE0C48802306
:1052E0004024E6E70B4802230124E2E70A48202392
:1052F0001024DEE709484FF400734FF48074D8E7B8
:105300005DF8044B704700BF8C05904300800C4053
:105310009C0590438405904394059043A4059043D5
:1053200030B400F104744D7822460C320834002366
:1053300064015201012D236013602AD0022D24D074
:10534000164B9B69C3620B788A781B050C7943EA7C
:105350000525CB7845EA021524048A7945EA8303BA
:1053600004F4E02423430AB143F08003CA790AB16C
:1053700043F040030A7A0AB143F002034A7A0AB1C1
:1053800043F00103036030BC7047044B1B6AC362E7
:10539000D9E7024BDB69C362D5E700BFB081E00FFC
:1053A00010B4CB780C781B010CB143F001034C789E
:1053B0000CB143F00403897809B143F002031AB930
:1053C00083605DF8044B7047C3605DF8044B704721
:1053D000002310B433211024064A8360C3600460A4
:1053E0000361C161926944F24773C2625DF8044B84
:1053F00003637047B081E00F1C4B1D4A41F20C0162
:1054000012685858996B2DE9F0470240194F984699
:1054100002EA010422EA010A4FF00209FCB1002568
:105420000126E30717D506FA05F2D8F808303A60E6
:1054300003EB0513DB6828466BB11A7AD3F800C07A
:10544000111C82F0010218BF01211A72BCF1000F79
:1054500001D05A68E047640805F10105E1D1B9F1CE
:10546000010901D05446D9E7BDE8F08700200C407F
:1054700000300C4008300C40F0B41C4E0401B768FA
:10548000049D274469BBF6683444FE6806B1317256
:1054900043B1A668C6F38166032E1CBF05FA06F663
:1054A0009B1923603AB1A3689B0F032B1CBF05FA1D
:1054B00003F3D2186260012303FA00F00B4BD861AA
:1054C00089B91863A368094A23F47F5323F037038B
:1054D00043F0020343EA0515A5609062F0BC5061F9
:1054E00070473C46D1E75863ECE700BF00200C4012
:1054F000124B30B49C688A6804EB00140D78E260AB
:105500000124844075B19C634D684B780B4A00F5CB
:10551000886142F821503BB9094A30BC02449200EC
:1055200013607047DC63EFE7054B41F20805034465
:105530009B0001215451196030BC704700200C4081
:105540006080E110F0B40D4BA9B9D9681578937853
:1055500057781679AD07D47845EA037545EA87652B
:10556000B20445EA036342EA843201EB00101343BC
:105570008360F0BC70479968E8E700BF00200C40EA
:105580002DE9F04F012183B006462C48FFF7A8FA19
:1055900072682B4B2B4D01920124002240F6FF71C3
:1055A000DFF8A4B0C5F8804041F20C005A6003F562
:1055B0008859D96141F2080A596241F20418D96246
:1055C00041F2081C596341F20C17D96341F21011E2
:1055D000DC641A5043F80AB0C9F8002041F2141BE9
:1055E00043F8082041F2181A43F80C2041F21C1924
:1055F000DA5103F589585A5041F2241C41F2281718
:1056000041F22C1143F80B2043F80A2043F80920FB
:10561000C8F8002043F80C20DA515A50019A4FF094
:10562000004BC5F880412C6043F800B09A60327896
:10563000520122435A6003B0BDE8F08F000302001C
:1056400000200C4000E100E0FF0F00802DE9F00F8A
:10565000AB4B82B01B6847780193019AC36842F054
:105660008044002B00F08F830025DFF8B0B2DFF814
:10567000B0A2DFF8B092DFF89882DFF8ACC229461A
:1056800003F00202002A03F0040603F0080218BF28
:10569000022118BF5D46002E18BF042118BF5546D1
:1056A000002A18BF4D4618BF082103F010066A01F2
:1056B000002E02F184426FEA010602F1100218BFC7
:1056C0006FF0100618BF624618BF454618BF10217C
:1056D00033401760D4D1C26890F802A0002A00F0CD
:1056E00052830146DFF834B2DFF83492DFF83482B7
:1056F000DFF81CC2834F50461D468A4602F0020165
:10570000002902F0040602F0080118BF022518BFA4
:105710005B46002E18BF042518BF4B46002918BF52
:10572000434618BF082502F010065901002E01F16A
:1057300084416FEA050601F10C0118BF6FF01006F5
:1057400018BF394618BF634618BF1025324008609D
:10575000D4D1DAF80C3050469AF803A0002B00F0B0
:1057600012830146DFF8B4B1DFF8B491DFF8B481F9
:10577000DFF89CC1644F504615468A4603F002018B
:10578000002903F0040603F0080118BF022518BF22
:105790005A46002E18BF042518BF4A46002918BFD4
:1057A000424618BF082503F010065101002E01F1F2
:1057B00084416FEA050601F1080118BF6FF0100679
:1057C00018BF394618BF624618BF1025334008601D
:1057D000D4D1DAF80C2050469AF804A0002A00F040
:1057E000D2820146DFF834B1DFF83491DFF834813A
:1057F000DFF81CC1454F50461D468A4602F00201A3
:10580000002902F0040602F0080118BF022518BFA3
:105810005B46002E18BF042518BF4B46002918BF51
:10582000434618BF082502F010065901002E01F169
:1058300084416FEA050601F1040118BF6FF01006FC
:1058400018BF394618BF634618BF1025324008609C
:10585000D4D1DAF80C3050469AF80590002B00F0BD
:1058600092820146DFF8B4A0DFF8B480DFF8B4C05C
:10587000274F284E48461546894603F00201002965
:1058800003F0040B03F0080118BF022518BF5246AD
:10589000BBF1000F18BF042518BF4246002918BFEE
:1058A000624618BF082503F01001002902F1047BAD
:1058B0006FEA05014FEA4B1B18BF6FF0100118BFCC
:1058C000B34618BF3A4618BF10250B40CBF800006E
:1058D000D3D1D9F80C20484699F806A0002A00F048
:1058E00052820146DFF834B0DFF83490DFF83480BC
:1058F000DFF81CC0084F50461D468A4616E000BF20
:10590000008000408C081042880810428408104231
:1059100044800040800810429408104210800040EB
:1059200024800040348000409008104202F00201C0
:10593000002902F0040602F0080118BF022518BF72
:105940005B46002E18BF042518BF4B46002918BF20
:10595000434618BF082502F010065901002E01F138
:1059600084416FEA050601F1140118BF6FF01006BB
:1059700018BF394618BF634618BF1025324008606B
:10598000D4D1DAF80C30504613F0020100F0F8815F
:10599000019DB74C9AF800202C409AF809601443F6
:1059A0009AF80A5044F0804444EA06449AF8077092
:1059B00044EA45449AF808609AF84C5044EA07646F
:1059C00044EA0634002D40F0D88113F0040816D0C4
:1059D000457A867AAD0490F807C045EAC646077A4C
:1059E000A44D46EA4C6646EA4737254090F84C609D
:1059F00047EA050444EA8204002E40F0BB8113F01C
:105A0000080C15D0457A877A2D05C67945EA4755A1
:105A1000077A45EA8666984D46EA873790F84C60E3
:105A200047EA0217254047EA0504002E40F09F810F
:105A300013F0100315D0457A877AAD05C67945EA8B
:105A4000C755077A45EAC6668C4D46EAC73790F8CF
:105A50004C6047EA8217254047EA0504002E40F0D3
:105A60008381856A466A2F04056A47EA062635431C
:105A700039B1834FBE6826F0031626F47C562E43B8
:105A8000BE60B8F1000F07D07D4FFE6926F0031607
:105A900026F47C562E43FE61BCF1000F07D0784FF0
:105AA000FE6A26F0031626F47C562E43FE623BB1B6
:105AB000734FFE6B26F0031626F47C563543FD63C8
:105AC00090F82C7090F82D6090F82E5049B1DFF8C6
:105AD000ECA1DFF8EC916B49CAF80070C9F80060DE
