:10000000000002206D6A0000A36A0000A56A0000DB
:10001000A76A0000A96A0000AB6A0000A16A00009C
:10002000A16A0000A16A0000A16A0000AD6A000098
:10003000AF6A0000A16A0000B16A0000B36A000064
:10004000A95100001D8B0000B96A0000BB6A0000C6
:10005000BD6A0000BF6A0000F589000091880000B9
:10006000C56A0000C76A0000C96A0000CB6A0000C8
:10007000CD6A0000CF6A0000D16A0000D36A000098
:10008000D56A0000D76A0000D96A0000DB6A000068
:10009000DD8A0000DF6A0000BD8F0000E36A000017
:1000A000E56A0000E76A0000E96A0000EB6A000008
:1000B000ED6A0000EF6A00003D1E0000713A00008A
:1000C000F56A0000F76A0000F96A0000FB6A0000A8
:1000D000FD6A0000FF6A0000016B000000000000E4
:1000E0000000000000000000000000000000000010
:1000F0000000000000000000000000000000000000
:1001000010B5054C237833B9044B13B10448AFF351
:1001100000800123237010BD0008002000000000B3
:10012000B4C3000008B5064B1BB106480649AFF33F
:1001300000800648036813B1054B03B1984708BD1A
:1001400000000000B4C3000004080020680700207D
:1001500000000000154B002B08BF134B9D46A3F574
:10016000803A00218B460F461348144A121A0AF0AF
:100170006AFC0F4B002B00D098470E4B002B00D091
:1001800098470020002104000D000D48002802D0EF
:100190000C48AFF300800AF027FC2000290008F08B
:1001A00037FD0AF021FB00BF00000800000002201C
:1001B00000000000000000000008002020AA01202C
:1001C00000000000000000002DE9F047804690B0DC
:1001D00072B6384F384E3B6804465A1C1CBF013378
:1001E0003B609A4600F1300920686168A268E368C4
:1001F00035460FC510344C452E46F5D1D9F80000D0
:10020000D9F80410402203C6B9F808306846002126
:1002100033800AF018FC6D46D8F80000D8F80410B6
:10022000D8F80820D8F80C302C460FC408F1100874
:10023000C8452546F0D1D8F80410D8F800001F4E64
:1002400003C53368B8F808101D4A2980CDF83A2054
:10025000B3B105F067FE4FF47F200BF0E1FAD0B1A7
:1002600005F0A6FE174A0023D7F800A013603360FC
:100270004FF0FF30BAF1000F04D110B0BDE8F087A5
:100280004FF0FF300AF1FF333B60002BF5D162B62F
:1002900010B0BDE8F08769464FF47F2040220BF094
:1002A000B7FA044605F084FE002CDBD12046D7F8CF
:1002B00000A0DFE7CC08012004000020440000205B
:1002C0006E51E63D00000020F8B5114B11491B6846
:1002D000D3F83A0009F0F0FEA8B10F4B0F4E1C689E
:1002E00004F1300720686168A268E36835460FC5ED
:1002F0001034BC422E46F5D12068616803C62389BC
:1003000000203380F8BD0548BDE8F840FFF75CBF2A
:10031000440000206E51E63D000000200400002053
:10032000022007210822012305F0A2BD00284FF07A
:100330000B014FF005004FF0080202DD012305F02C
:1003400097BD002305F094BD08B50C4B1A7822B177
:100350001B7813B10A480AF0D3FB0A2001F098FE7B
:10036000BFF34F8F074A084BD16801F4E0610B439C
:10037000D360BFF34F8F00BFFDE700BF78000020C0
:1003800080B8000000ED00E00400FA0500B50B4B5A
:1003900083B01B7813B10A480AF0B2FB002308228D
:1003A000684603218DF800208DF801308DF8023069
:1003B00000F038FB03B05DF804FB00BF78000020BC
:1003C000ACB8000010B50D4C82B0206823790090C5
:1003D000052168468DF8043000F024FB54F8080F1E
:1003E00005212379009068468DF8043000F01AFB4F
:1003F0004FF4FA7001F04CFE02B010BD34B80000AA
:1004000010B5124B82B01B7813B111480AF078FB7B
:1004100000240723032168468DF800308DF8014041
:100420008DF8024000F0FEFA4FF47A7001F030FED1
:100430000923684603218DF801408DF802408DF8AC
:10044000003000F0EFFA02B010BD00BF78000020CD
:10045000D4B8000010B508210A460023032005F097
:1004600007FD4FF4FA7001F013FEBDE810400320C1
:1004700008210122002305F0FBBC00BF2DE9704FCD
:10048000002488B00823032520468DF809408DF804
:100490000C408DF808308DF80A5003F0ABFDDFF802
:1004A0000CA14FF44072012302268DF80B0002A923
:1004B000504606928DF816308DF81F308DF80D409D
:1004C0008DF814408DF81D408DF817508DF81E40A2
:1004D0008DF81C408DF8156003F04AFC05A95046C4
:1004E00003F07EFC2C4804F0CBF89DF80C3000247F
:1004F0000133B0FBF3F008F095FFCDE900019DF862
:10050000150008F08FFF4FF0804502460B4620464D
:10051000294606F0DFFD80469DF808008946013037
:1005200008F090FF02460B462046294606F0D2FD11
:10053000002204460D4640464946184B08F036FE58
:1005400022462B4608F0E4FF02460B46DDE9000197
:1005500009F008F909F076FADFF854B0CBF800009A
:10056000DBF8000008F06EFF00220D4B08F0D0FF12
:100570000C4A0D4BC2E90001CAF82060DAF81410E9
:1005800080223143CAF814101A6083F80723DBF87D
:10059000000008B0BDE8708F000205000000284090
:1005A0000000E03F4017012000E100E00020004093
:1005B00038170120F0B5002487B007460B232046EA
:1005C0008DF800308DF802408DF8014003F012FDE7
:1005D000144D0126032208238DF80300694628469E
:1005E0008DF80F208DF80D308DF810708DF80440C7
:1005F0008DF805408DF813408DF811408DF80E6090
:1006000003F0B6FB03A9284603F05CFC2E6269697F
:10061000054B8022314369611A6083F8072307B0D4
:10062000F0BD00BF0020004000E100E010B500F088
:10063000010304460C210020042205F019FC04F0FB
:10064000020300200D21042205F012FC042104EA1B
:1006500001030A46022005F00BFC04F00803022007
:1006600005210422BDE8104005F002BC074B10B480
:100670004FF400504FF48054102120225C615861E7
:100680005DF8044BD965DA65704700BF0060004033
:100690000D4B4FF48052C1074CBF1A615A610A4B8F
:1006A0004FF4005281074CBF1A615A61064B102269
:1006B00041074CBF9A65DA65034B202201074CBF06
:1006C0009A65DA65704700BF0060004070B547F278
:1006D0001A63984282B004460D462AD9594B1A78BB
:1006E000002A40F09880584B00221A70574A46F270
:1006F000BD6312789C42D2B275D8A5F5FA75ADB239
:1007000041F294139D424FF002004FF007014FF069
:10071000080208D84C4B1B782BB1012305F0A8FB2D
:10072000012002B070BD002305F0A2FB002002B042
:1007300070BD47F2AF239842D8D8424E3378002B91
:1007400071D1414A45F6E97301219C421170CDD81F
:1007500033783C4A13B11378002B6BD13B4B012209
:100760001A70337813B13A480AF0CAF90024072303
:10077000032168468DF800308DF801408DF8024065
:1007800000F050F94FF47A7001F082FC09236846BA
:1007900003218DF801408DF802408DF8003000F003
:1007A00041F92C4B2C4AD968184621F00101D96037
:1007B000D3684FF4805423F00103D36003F096FA1A
:1007C0004FF0402004F0DCFC244803F0E1FB244B14
:1007D000102120224FF400505C615861D965DA6520
:1007E00000F0E4FA89E7002A87D0164B1A780AB19C
:1007F0001B781BBB08210A460023032005F038FBA9
:100800004FF4FA7001F044FC032008210122002378
:1008100005F02EFB71E71B78002B3FF464AF114805
:100820000AF06EF95FE73378002B8AD00E480AF0A1
:1008300067F986E70D480AF063F98FE70C480AF07C
:100840005FF9D7E77800002048000020E21501207A
:10085000D4B8000000100040001400400020004008
:1008600000600040FCB800003CB900007CB900000A
:10087000C8B900002DE9F0438DB0002401270546DA
:100880004FF0030889464FF0402002A98DF8084038
:100890008DF80B408DF80C408DF80D408DF80E4012
:1008A0008DF80F408DF810408DF811408DF8014003
:1008B0008DF802408DF803408DF809708DF80070B6
:1008C0008DF80A8004F004FC224669464FF040206F
:1008D00004F03EFC69463A464FF0402004F038FCF4
:1008E000164E2B684FF0402E06ADCEF82030CEF8D5
:1008F00024400FCE0FC596E80300114E99F80090E2
:1009000085E803000723304606A98DF822308DF8CC
:1009100023408DF825708DF821708DF82C7003F030
:10092000FDF930464A460C2103F0F0F9304603F059
:10093000D7F9C6F818800DB0BDE8F08344B80000C0
:1009400000100040F0B5284D89B002AC0FCD0FC4A7
:1009500095E80300002584E803002B46294605247A
:100960004FF480574FF4E13604200A228DF80840F6
:100970008DF81540ADF81650ADF81870049605F0D6
:1009800077FA01212B460A46042005F071FA2B461E
:1009900002200821012205F06BFA144C02200921E3
:1009A0000A22012305F064FA28460A2201230E21B7
:1009B00005F05EFA204602A905F076FB636D012280
:1009C00023F4E06343F480736365636D082143F0AF
:1009D00003036365022013468DE824000A4605F0F0
:1009E00011FA09B0F0BD00BF5CB8000000E00040A3
:1009F0000320202101F0E0B900B5084A85B052F883
:100A0000400F01AB5168127A03C3054801A91A705F
:100A100005F0D0FB05B05DF804FB00BF34B8000062
:100A2000008008402DE9F0478846E2B04B4F4C4E1D
:100A3000014642468146684609F0FCFF3978337822
:100A4000A8F1030203EB81035B00414668468DF881
:100A500001208DF8023000F09FFE0024020A0DF103
:100A600001030DF8080008F1010E03F808200DF14C
:100A7000840C23460DF185024FF05D0A7D205E2136
:100A80000BE07D2D03F101030CF804500ABF02F8BE
:100A900004A00134023473450BDC1DF803507E2D95
:100AA000EFD1013373450CF80400115504F1020431
:100AB000F3DD4146484601F0FBFA2A487E2105F065
:100AC00067FB0DF18308A0440DF1830515F8011FA4
:100AD000244805F05DFB4545F8D122487E2105F00C
:100AE00057FB214B1B784BB100203278002382F05A
:100AF000010232703B7062B0BDE8F0874FF47A704B
:100B000001F086FD0028EFD00DF18309174DA144B7
:100B10004FF0030A002413487E2105F039FB0DF144
:100B2000830818F8011F0F4805F032FBC845F8D1BB
:100B30000C487E2105F02CFB2046294600220C4B58
:100B400008F0E6FC0D46044608F07CFF01F060FD6D
:100B50000028C9D0BAF1010ADDD1C6E75200002051
:100B60004900002000E000401D08002000408F40A8
:100B70000000F83F30B5847887B00278002344F055
:100B80000104684604210093ADF804308DF800207C
:100B90008DF8024000F000FE9DF80030020A7E2B26
:100BA0008DF804008DF8052054D07D2B00F0A38033
:100BB0008DF8083001259DF801307E2B56D006AA0D
:100BC0007D2B2A4400F0908002F8103C01359DF8FE
:100BD00002307E2B57D006AA7D2B2A4400F0998044
:100BE00002F8103C01359DF803307E2B58D006AA40
:100BF0007D2B2A4400F0868002F8103C01359DF8D8
:100C000004307E2B59D006AA7D2B2A4400F08F8019
:100C100002F8103C01359DF805307E2B5AD006AA0B
:100C20007D2B2A447CD002F8103C013543487E21BC
:100C300005F0AEFA0DF10704254414F8011F3F48F2
:100C400005F0A6FAAC42F8D13C487E2105F0A0FAA6
:100C500007B030BD5E238DF809309DF801307D224C
:100C60007E2B8DF808204FF00205A8D106AB2B444F
:100C70007D215E2203F8101C03F80F2C9DF8023032
:100C800002357E2BA7D106AB2B447D215E2203F8D3
:100C9000101C03F80F2C9DF8033002357E2BA6D1D3
:100CA00006AB2B447D215E2203F8101C03F80F2CA9
:100CB0009DF8043002357E2BA5D106AB2B447D2157
:100CC0005E2203F8101C03F80F2C9DF80530023546
:100CD0007E2BA4D106AB2B447D215E22023503F886
:100CE000101C03F80F2CA1E75D2102F8103C02351F
:100CF00002F80F1C6BE75D228DF808308DF8092093
:100D0000022558E75D2102F8103C023502F80F1C5D
:100D100075E75D2102F8103C023502F80F1C62E70E
:100D20005D2102F8103C023502F80F1C7EE75D21C0
:100D300002F8103C023502F80F1C6CE700E000409E
:100D4000062970B502DD03787E2B01D0002070BD2E
:100D5000431813F8013C7E2BF8D11E4601390022BE
:100D6000012305E0845401338B4202F101020FDAC2
:100D7000C45C7D2CF6D1C5186D785D2D04D05E2D38
:100D800004D186540133EEE78454FBE79942DDDC5D
:100D9000941E013A855C035D214603EB052500F0B6
:100DA000FBFCADB28542D1D1204670BDF0B50F4DF0
:100DB0000F4C2B680122002B267883B0227011DBA8
:100DC0004FF0160E0227684604218DF803308DF887
:100DD00001208DF800E08DF80270FFF723FE4FF040
:100DE000FF332B60267003B0F0BD00BF4C00002025
:100DF0001D0800202DE9F04F4C494D4D0B68B9B04E
:100E00000122002B2E7814AC2A7012DB4FF0160E44
:100E10002046022704218DF851208DF853308DF89B
:100E200050E08DF85270FFF7FDFD404A4FF0FF3360
:100E30001360404B2E701B684FF0050909930AABF5
:100E40004FF47A7A08930125099A042120462260FA
:100E5000FFF7E8FD01F028F9064601F01FF93378A5
:100E60004FF0000C8DF831C00D938DF830500E9579
:100E70000F950DF1300E6F46CDE90A01BEE80F0067
:100E80000FC74FF0FF36CDF844C0CDF848C01096DC
:100E90009EE80F0087E80F000899204691E80C00B3
:100EA000614601F077FA4FF002084FF0170B4FF050
:100EB000030CF023B922062100BB9DF85470204694
:100EC0008DF854308DF850B08DF851C08DF85280A7
:100ED0008DF855208DF85370FFF7A4FD04211623DB
:100EE000E8B120468DF850308DF851508DF8528081
:100EF0008DF85370FFF796FD0C4B1E60B9F1010F92
:100F000007D0504609F1FF3901F0C2F84FEA4A0A0A
:100F10009AE706490868C01739B0BDE8F08F034A60
:100F20003846C017176039B0BDE8F08F4C0000207C
:100F30001D0800200CBA00002DE9F04FB9B001F0F7
:100F4000EFF8444B0446D3F800A00D464FF0030BD6
:100F50004FF47A780DF12809042108A8CDF820A0D3
:100F6000FFF760FD4FF0000E012302210B228DF8E8
:100F700031E08DF830300F930D910E920CAF6E462C
:100F80000FCF0FC64FF0FF33CDF844E0CDF848E067
:100F9000109397E80F00CDE90A4586E80F00414617
:100FA00099E80C0014A801F0F5F9D0F101064046CB
:100FB00038BF002608F094FE4FF07F5108F0E8FE9D
:100FC00009F0D2F8BBF1010B80462DD0002EC3D022
:100FD0009DF85540204B023C1B78032C8CBF00240D
:100FE000012443BB6CB31D4D1D4C2B680122002B0B
:100FF0002678227011DB4FF0160E08A80227042174
:101000008DF823308DF821208DF820E08DF82270A6
:10101000FFF708FD4FF0FF332B6000202670FFF72D
:10102000E9FE39B0BDE8F08F002ED1D10A4B5C4605
:101030001B78002BD6D00B48214609F061FD002C0F
:10104000D1D1064B4FF0FF321A60FFF77DF939B06E
:10105000BDE8F08F10BA0000780000204C0000209E
:101060001D0800202CBA00002DE9F04F97B003783E
:1010700002AF0F2B04466DD0192B43D00D2B03D09C
:101080005437BD46BDE8F08FB84BC2791978FA7570
:10109000B960217CA27C7960617C90F808B0F9602D
:1010A000796890F809A090F80A9090F80B8090F871
:1010B0000CC0467B857BB976C07BF9683A76BA6806
:1010C00087F816B087F815A087F8149087F8138072
:1010D00087F812C07E743D74F8767976002A00F0A5
:1010E000B980A34901200022087007F110051A7089
:1010F000A04C2B46543707CB20606160A260BD46F0
:10110000BDE8F08FD0F88030162BB9DD817DA3F1DA
:1011100017050D29B4D801A353F821F0411400009C
:101120003514000081100000811000001F14000021
:10113000BD130000411300008110000019130000CE
:101140008110000081100000811000009F1200003B
:10115000911200004279837903EB0223082B00F0FF
:10116000D88133DD202B00F0C38140F37381802BC5
:1011700000F08480B3F5807F82D17F4B1B7813B160
:101180007E4809F0BDFC7E4D7E4C2B6800207E49D8
:101190000122834226780870227011DB4FF0160C72
:1011A0004FF0020E07F110000421FB747A7487F8E7
:1011B00010C087F812E0FFF735FC4FF0FF332B60CB
:1011C0000A20267000F064FF704836E0022B00F021
:1011D0006A81042B49D0012B7FF452AF664B1B78F8
:1011E00013B16B4809F08CFC654D664C2B680122ED
:1011F000002B2678227011DB4FF0160C4FF0020EF8
:1012000007F110000421FB747A7487F810C087F886
:1012100012E0FFF707FC4FF0FF332B605D495E4A99
:10122000594D01234FF0000E0A20267085F800E08A
:101230000B70137000F02CFF544802F0A9FE574ABF
:10124000574BD16821F00101D160DA6822F0010228
:10125000DA6015E7BB69D4E9220107F110050093B4
:1012600095E80C0001F08CFF42E7434B1B78002B04
:101270003FF406AF4B4809F043FC01E73E4B1B78B7
:1012800013B1494809F03CFC3F4B01221A70F7E6C4
:10129000002D7FF4F5AE2846FFF748F8F0E62DB9AB
:1012A000354B1B7813B1414809F02AFC404B01250E
:1012B0001D70FFF7A5F8394B394AD968184621F057
:1012C0000101D960D3682E4E23F00103D36002F0F0
:1012D0000DFD4FF0402003F053FF2C4802F058FE64
:1012E000FFF7C4F93368274C002B94F80080257071
:1012F0000FDB4FF0160E022207F110000421FB74E1
:101300007D7487F810E0BA74FFF78CFB4FF0FF3361
:10131000336084F80080B3E607F0B4FA00287FF465
:10132000AFAE0B2D7FF4ACAE204602F069F8124B45
:101330001B78002B3FF4A4AE1E4809F0E1FB9FE6AA
:101340003A2D7FF49DAE00F117012A4607F11000F7
:1013500009F070FB07F11000FEF736FF164B196815
:1013600001F12C003431FFF785FA89E605170120D9
:101370000717012050A7012078000020B8BB00000B
:101380004C0000201D0800201C0800200020004008
:1013900060BA000052000020490000200010004008
:1013A00000140040A8BA000080BB000020BC000070
:1013B00010170120FCBB000030B80000002D7FF4A6
:1013C0005FAE5D4B6E46196890B004235B4D8DF89F
:1013D00008300DF109003A2209F02CFB2B680DF1C1
:1013E0000808002B19DBE94696B002AC54491822D4
:1013F000204609F01FFB534B41461B880DF122008C
:101400001A0A237662763B2209F014FB2B682046E9
:10141000E3705521FFF706FBCD46B54630E607F0F1
:1014200031FA00287FF42CAE002D7FF429AE07F0AE
:10143000E1FA25E6002D7FF423AE06F08BFF1FE6D0
:101440002DB9414B1B7813B1404809F059FBFFF708
:1014500001F815E6102B7FF413AE3B4B1B7813B14C
:101460003B4809F04DFB354D3A4C2B680122002BCF
:101470002678227011DB4FF0160C4FF0020E07F1A8
:1014800010000421FB747A7487F810C087F812E00A
:10149000FFF7C8FA4FF0FF332B602F4B00222F4885
:1014A00026701A70C9E6284B1B7813B12C4809F036
:1014B00027FB224D274C2B680122002B2678227017
:1014C00011DB4FF0160C4FF0020E07F11000042153
:1014D000FB747A7487F810C087F812E0FFF7A2FA5D
:1014E0004FF0FF332B601C4B002226701A70C7E5AB
:1014F0000020FFF77FFC144B00281B7811DB13B191
:10150000184809F0FDFA144B01221A7006F022FF68
:10151000B6E50D4B1B78002BCBD0134809F0F0FA41
:10152000C7E713B1114809F0EBFA0B4B00221A7010
:10153000FEF70AFFA4E500BF30B800004C00002011
:1015400014BA00005000002078000020DCBB00002E
:1015500000BB00001D0800201C08002000200040E7
:1015600084BA00005CBB0000D8BA000024BB0000B5
:101570002DE9F04F644DC5B0002B08BF2B4608AFD6
:101580007B621B884FF6FF74A3423862F961BA622E
:1015900000F0B580BD6ADFF878E16A1CD2B2FA6269
:1015A0002132D2080835DFF86C81FA60AEF80030DD
:1015B0000126BD614AE0D8F80020002307F140056C
:1015C0009A424FF0010B4FF025004FF003014FF00E
:1015D000FF3A6C467D6007F1380C35DB7D6A87F891
:1015E00040B02A887D687864B96487F84130FB642C
:1015F000D7E904015FFA82FEC7E90E014FEA122B18
:101600000FCD7D6007F13005BD65C7F850A0C7F864
:101610005490C7F830E0C7F834B00FC47D6895E83F
:101620000F0084E80F0007F160009CE80C004FF405
:101630007A7100F0AFFE002852D197F865000030B3
:1016400018BF012000284CD00B2E56D0BD69D7F80A
:1016500020E005F4FC736D46ADEB030D8DF820E042
:101660000DF12100F969BA6A09F0E4F9D8F80030FF
:101670004FF00209002B0DF1200BDFF898A024DBBE
:10168000F9686B46A3EBC100854608AC1F491822D8
:101690002046BB6009F0CEF9DFF874E05946BEF889
:1016A0000020100A22766076FA6A0DF13A0009F0FD
:1016B000C1F9F86ADAF8002000F11A01E270204658
:1016C000C9B2FFF7AFF9BB689D46012E06F10106CE
:1016D000AD467FF470AF00F0E1FCC7E904016AE7B2
:1016E00048467D6A0A492A884FF6FF730132F4376B
:1016F0002A800B80BD46BDE8F08F0120F1E77D6AAE
:1017000000232B8046E700BF1E08002014BA00000B
:10171000500000204C000020F8B502F1080303F44B
:10172000FC7300AFADEB030D6B4603F8010B174DD7
:101730001846541C09F07EF92B686E46002B22DBFC
:10174000E4B204F1210303F4FC73ADEB030D68462E
:101750000F49182209F06EF90E4B0DF11A001B8883
:101760002246190A8DF818308DF81910314609F003
:1017700061F92B6804F11A018DF803306846C9B28B
:10178000FFF750F9B546BD46F8BD00BF4C0000203C
:1017900014BA00005000002030B489B1094D002374
:1017A0004FF6FF72C45C01335440E4B235F8144084
:1017B0008B4284EA1222F5D1D24390B230BC7047FA
:1017C0000846FBE75CBC0000014B1868704700BF8F
:1017D00020480020014B1868704700BF48170120BF
:1017E000344B2DE9F0431B68334C1B68266891B0DD
:1017F00003EB863606EB4126044630460D46174677
:1018000004F068FD033048D0394606A8252209F0C7
:1018100011F9E700294E35B33D1906EB45054FF0A8
:10182000FF314FF00008CDF80080002300226970DE
:10183000A970E970297102A802F0CEF8DDF808C09D
:10184000039804996B1D05F11002C5F805C0586096
:101850009960032582F801803C4406F8145000206A
:1018600011B0BDE8F083BDF81C10BDF81E203B1977
:101870009DF83C9006EB43030DF1300CA3F80110EA
:10188000A3F8032083F81190BCE80700C3F8050013
:10189000C3F80910C3F80D20DEE7304604F0FCFD64
:1018A000064B04EBC404022203F814204FF0FF306F
:1018B000D6E700BF4817012020480020501701201C
:1018C0002DE9F04F7B4C95B0237803900591154698
:1018D000002B53D1002A51D1039B774C774F04EB57
:1018E000432005994FF4007209F0A4F83A6874494E
:1018F00003980123002A0B54C0F2D8802946DFF850
:10190000D081704EDFF8CC911D460B46D8F8001000
:10191000096801EB82310491002B6BD1039B039882
:1019200003F1FF3C684BDFF898A10344E2441D44F7
:1019300004EB402B0BE01846594604F073FF0330CC
:1019400000F087803A68AA450BF5007B24D01AF88E
:10195000013FC4EB0B0000EB8230002BF3D0D8F832
:10196000003099F800201B680344002AE3D0194690
:101970005648029309F0C4F8029BDCE7FF214FF4BC
:1019800080424D4809F05FF84D480021202209F0BF
:101990005AF8002323709FE7944605990AA8252248
:1019A000CDF808C009F046F8039BDDF808C043BB3A
:1019B0004FEACC05BDF82C10BDF82E209A469DF8B4
:1019C0004C9005EB0C0306EB430310ACA3F801109D
:1019D000A3F8032083F8119007CCC3F80500C3F8DF
:1019E0000910C3F80D20AC44386806F81CA015B0E7
:1019F000BDE8F08F084604F06DFC033029D03A684A
:101A00008CE74FEACC0505EB0C0406EB44044FF0E1
:101A1000FF314FF00008CDF8008006A86170A1707A
:101A2000E170217100220023CDF808C001F0D4FF3D
:101A3000DDF818900798089984F81180C4F805908B
:101A40004FF0030AC4F80900C4F80D10DDF808C00F
:101A5000C9E7049804F020FD3968022201EBC103B4
:101A6000002906F813201DDB0131C1F30A000246EC
:101A700002E0984211D01A4602EBC20316F8131086
:101A8000531C0229C3F30A03F3D0002A3A600BDB8C
:101A9000002303932025012338E74FF0FF333B60F9
:101AA0009C4661460846A2E79446FAE74FF0FF30AD
:101AB0009DE700BF530000202008002020480020A0
:101AC0002448002050170120234800205CBE00005D
:101AD000481701207800002030B40F4D28680028F6
:101AE00012DB0130C0F30A0108460C4C02E09942B7
:101AF0000CD0184600EBC00314F81320431C022A34
:101B0000C3F30A03F3D0286030BC70474FF0FF30B6
:101B1000286030BC704700BF2048002050170120CB
:101B20002DE9F04F91B000AF05F0DEF8052004F08C
:101B30002BFC04F063FB9049DFF86C920B78C9F83A
:101B4000000043B30B78002B40F0C9808A4A137819
:101B5000002B40F0CC8088490B78002B40F0D280DD
:101B6000854A1378002B40F0D88083490B78002BEE
:101B700040F0DF80804A1378002B40F0E5807E49FA
:101B80000B78002B40F0EB807B4A1378002B40F061
:101B9000A280D9F80000C268036900269A4228BFD3
:101BA0001346073323F00703ADEB030D4FF0FF336C
:101BB000DFF8CCB104687B60E8463546FB607B61AA
:101BC0000CE002230BF80630D9F8003001355B69D0
:101BD000B5F5006F06F112061C4455D0204641466B
:101BE00004F0A0FD98F80030FF2BEAD120464146D2
:101BF00004F0C4FC824618B101230BF80630E3E779
:101C00004146252207F1180008F014FF4FF00103A8
:101C1000B8695A493B6008F04FFA3B6800B1534637
:101C200013F0FF0F0BF806300BEB060CCCD1FB8B3F
:101C3000534905EBC50201EB4202BB600CF1050103
:101C40003961B7F81CA0B96807F13003A2F801A008
:101C5000A2F8031007CB3B69CCF8050059609A60E5
:101C60007B6901330AD0FB689A4507DC5345ABD149
:101C7000BB6879688B42A7DD7B6003E0BB68C7F86F
:101C80000CA07B607D619FE77B693E4C5A1C1ABFAC
:101C9000581CC0F30A000020034602E0824216D01E
:101CA000134603EBC3021BF812105A1C0229C2F39D
:101CB0000A02F3D0236030490B781BB13248F9682F
:101CC00008F01EFFF8684437BD46BDE8F08F4FF0BE
:101CD000FF332360EFE70A2008F02AFF59E72B487B
:101CE00008F00EFF244A1378002B3FF434AFD9F8E4
:101CF00000302748197908F003FF1F490B78002BA3
:101D00003FF42EAFD9F800302248597908F0F8FE98
:101D1000194A1378002B3FF428AFD9F800301E4839
:101D200099680A0D08F0ECFE13490B78002B3FF47C
:101D300021AFD9F800301948D96808F0E1FE0E4A01
:101D40001378002B3FF41BAFD9F800301448196901
:101D500008F0D6FE08490B78002B3FF415AFD9F8F0
:101D600000301048596908F0CBFE034A1378002B65
:101D70003FF40FAFAFE700BF78000020F5F3223F3C
:101D8000501701202048002048BF00006CBE000012
:101D900090BE0000B0BE0000D0BE0000F4BE000047
:101DA00010BF00002CBF000048170120014B01228A
:101DB0001A70704744480020F0B5194B012583B0D4
:101DC000184C07460E46184829461D7002F060FD63
:101DD0003946164802F0D4FD3146204602F028FA72
:101DE000204602F04DFC124B29461860204602F0B6
:101DF0004FFD002301A88DF804308DF805308DF8D3
:101E0000063004F021F90B490B4BC8694FF08042B2
:101E100020F00700C861C3F880211A6003B0F0BD4C
:101E20004548002060161000004302000200180020
:101E30004C4800200000084000E100E010B5094CCB
:101E4000094B626800201A6004F0FAF80223A361CB
:101E5000064BE2691B6822F00202E26103B1984777
:101E600010BD00BF00000840484800205048002036
:101E70002DE9F041064682B000200F4604F0E0F85C
:101E8000254B1C78CCB1254D254A264C02231760E2
:101E9000A3612968244B01FB06F6A3FB0621002061
:101EA000890904F0BFF8012004F0CAF8E36943F09F
:101EB0000203E36102B0BDE8F0814FF00108414642
:101EC0001A4883F8008002F0E3FC1948032102F06D
:101ED00057FD2021174802F0ABF9164802F0D0FB5D
:101EE0000E4D41462860134802F0D2FC01A88DF83F
:101EF00004408DF805408DF8064004F0A5F8094926
:101F00000D4BC8694FF0804220F00700C861C3F84C
:101F100080211A60B8E700BF454800204C480020E7
:101F20005048002000000840D34D621000430200DA
:101F3000020018006016100000E100E02DE9F84FE3
:101F4000494C0023074649480D46237002F098FB90
:101F5000474906462846FFF78BFFBD424AD8454A07
:101F600004E0136923F00403136130BF2378002BCE
:101F7000F7D0414DDFF8148172B62B683E495A1CE8
:101F800036D05A1C0A60237803F0FF00E3B1013A0F
:101F90002A6002B962B6D8F8000007F0A1FE044634
:101FA000304607F09DFE0146204607F0A5FF334965
:101FB00007F0EEFE07F058FA0022314B07F0F6F872
:101FC00007F068FDBDE8F88F2E4C6368C8F8003054
:101FD00004F036F80223A3612B4BE2691B6822F060
:101FE0000202E26103B198472A68002AD3D0CEE703
:101FF0001A46C8E7204DDFF89480DFF878A0DFF8B4
:1020000084901CE0D8F80000013B2B6003B962B655
:1020100007F066FE8346304607F062FE01465846EA
:1020200007F06AFF154907F0B3FE07F01DFA00221A
:10203000134B07F0BBF807F02DFD87429CD923789E
:10204000002B99D1DAF8103023F00403CAF81030CD
:1020500030BF72B62B682278591C18BF0133002A92
:10206000D0D1D9F80400CFE7444800206016100012
:10207000AD1D000000ED00E0CC08012000007A4416
:102080000000E03F00000840504800204848002081
:102090000146FFF753BF00BFFFF750BF014BD3E925
:1020A00000017047A053002000487047A85300204B
:1020B00030B4054B054C0A4630CC0146C3E9004517
:1020C00030BC034808F0B6BCA0530020584800209C
:1020D000A85300202DE9F047DFF8408006468A46E5
:1020E0001422D8E90001002308F05EF8D8E9004581
:1020F00002EBC20208EB02193146661C09F108091D
:1021000045F10007C8E9006748465246C9E922453B
:1021100008F090FCC9F880A0BDE8F087584800207E
:1021200010B4064CD4E90001D4E90023994208BF59
:102130009042F7D15DF8044B704700BF584800202B
:1021400082B02DE9F04FB1B03AA981E80C00419A74
:102150009DF8F13008920593409A429B3F999DF873
:10216000F090DDF8F480DDF8F8C0894E079209930D
:1021700006910B90DDE93A01D6E900ABD6E90023E0
:102180009B4508BF9245F7D15AEA0B0200F0F68052
:10219000D6E90045D6E900239D4208BF9442F7D115
:1021A000002D08BF142C77D2059B00240025002B9E
:1021B00078D18D4208BF84423CBF04460D46B9F138
:1021C000000F7AD122462B464FF0FF304FF0FF31FF
:1021D0001AF1FF34CDE902014BF1FF3512EB000A91
:1021E00043EB010B089B0CA81844CDE900AB0A9007
:1021F000E346B9F1000F3ED0DDE900239D4208BF60
:1022000094422CBF00230123002B3ED020462946B8
:102210001422002307F0C8FF02EBC202120102F1F0
:10222000080306EB030ADAE922018D4208BF844263
:102230000DD157490CA811440831902208F0FAFB3F
:10224000DAE922239D4208BF94422C9F02D00599CF
:1022500000297BD1B8F1000F34DB002F03DD9DF89E
:10226000303043452ED0DDE90201241845EB01054D
:10227000B9F1000FC0D1DDE90001A94208BFA042B9
:102280002CBF00230123002BC0D16FF0030031B01D
:10229000BDE8F04F02B07047059B143C45F1FF3597
:1022A000002B86D0B9F1000F57D0A94208BFA04239
:1022B0006AD38D4208BF844259D301220023CDE95D
:1022C00002238FE7BBF1000F05DB012FCBDD9DF86B
:1022D00031305B45C7D1069900292ADB022FC2DDC8
:1022E0009DF8323003F001028A42BCD107980028E1
:1022F00027DA0899002944DD099A0DF1300CDDF840
:1023000028A0111F634651F8042F002A02DBD87859
:102310008242A8D101335345F5D10B9861469022F2
:102320002C9708F087FB002031B0BDE8F04F02B0D9
:102330007047079A002ADCDB022F94DD9DF83230CB
:102340000798C3F3400383428DD1D2E76FF00200B8
:1023500031B0BDE8F04F02B0704722462B468B42A9
:1023600008BF8242BFF430AF02460B462CE7012281
:10237000002304460D46CDE9022333E74FF0FF303A
:10238000D2E70DF1300CC8E76FF00100CCE700BFD9
:102390005848002082B02DE9F04FB9B042AC84E833
:1023A0000C00DFF86882139010915E469DF8114191
:1023B0009DF810910C94479C459F0D94489CDDF826
:1023C00018C10E94499C42AA0F944A9CD2E900017C
:1023D0001194D8E900ABD8E900239B4508BF92458A
:1023E000F7D15AEA0B037ED0D8E90045D8E900239B
:1023F0009D4208BF9442F7D1002D08BF142CC0F0B5
:10240000E2800C9A143C45F1FF35002A40F0E1804F
:102410008D4208BF84423CBF04460D46B9F1000F0F
:1024200040F0E48022462B464FF0FF304FF0FF3162
:102430001AF1FF34CDE90A014BF1FF3512EB000A26
:1024400043EB010B0F9B14A81844CDE908AB129085
:10245000E346B9F1000F3CD0DDE908018D4208BF29
:1024600084422CBF00230123002B3CD02046294668
:102470001422002307F098FE02EBC202120102F1BF
:10248000080308EB030ADAE922018D4208BF8442FF
:102490000DD15E4914A811440831902208F0CAFAFF
:1024A000DAE922239D4208BF9442349E01D00C9861
:1024B000C8B9002F3DDB002E03DD9DF85030BB4234
:1024C00037D0DDE90A23A41845EB0305B9F1000F65
:1024D000C2D1DDE90823AB4208BFA2422CBF0023D2
:1024E0000123002BC2D1109C002C0BDD21460A29B0
:1024F000A8BF0A210120FFF7CFFD241A002C109459
:102500003FF754AF44AD6C460FCD0FC495E80F00B4
:1025100084E80F0042A991E80C001398FFF710FE21
:10252000003018BF0120404239B0BDE8F04F02B082
:102530007047BBF1000F05DB012EC2DD9DF8513065
:102540009B45BED10D9900292BDB022EB9DD9DF8EC
:10255000523003F001028A42B3D10E98002828DAE3
:102560000F9B002B2CDD1199DDF848C0081F14A922
:102570000B4650F8042F002A03DB93F803E0724562
:102580009FD101336345F4D1B34613989022CDF81F
:10259000D0B008F04FFA002039B0BDE8F04F02B0DB
:1025A00070470E9A002ADBDB022E8ADD9DF852303E
:1025B0000E98C3F34003984283D10F9B002BD2DCCB
:1025C000B34614A9E1E70C9A00240025002A3FF441
:1025D0001FAFB9F1000F0ED0A94208BFA04282D3AD
:1025E0008D4208BF844201D204460D4601220023D9
:1025F000CDE90A2326E722462B468B4208BF8242BA
:10260000BFF412AF02460B460EE700BF5848002049
:102610002DE9F04FE1B060AC0C94DDF83080634AF6
:10262000634BD2E9004568E9524593F800B0CDF814
:102630003080CDE90A45DFF87C810C9D0023012123
:102640005FFA8BF44FF0FF3209940D9029726961A3
:102650006B72EB612B62EC602A61AA61C246D8E919
:102660000067D8E900239F4208BF9642F7D156EA97
:10267000070057D0D8E90045D8E900239D4208BF9C
:102680009442F7D1002D08BF142CC0F08C80143C6C
:1026900045F1FF35DDE90A018D4208BF844205D2CC
:1026A00004460D4602E0013445F10005BD4208BF75
:1026B000B442204629464FF014024FF0000331D2B5
:1026C00007F072FD02EBC202120102F1080308EBEF
:1026D000030BDBE922018D4208BF84420AD10AEBD9
:1026E0000201083190223CA808F0A4F9DBE922237A
:1026F000DDF87091B9F1020FD5DD9DF8F030099940
:102700009942D0D19DF8F230DB07CCD518AD2846E0
:102710003CA99022CDF8709108F08CF9E87861B06E
:10272000BDE8F08F0D9C002C0BDD21460A29A8BFC7
:102730000A210120FFF7B0FC0D9C241A002C0D94F7
:102740008DDCDDF83080099D002301224FF0FF363B
:10275000C8F80C50C8F81C30C8F82030C8F8186009
:1027600088F80820C8F8142088F80930C8F81060E4
:1027700010AD6C460FCD0FC495E80F000C9DDDE940
:102780000A89C5E9008984E80F00DDF8308018ADBA
:1027900098E80C002846FFF7D3FC0028BED030464E
:1027A00061B0BDE8F08F0024002573E7A05300203E
:1027B000A85300205848002072B6074A07491368FA
:1027C000581C03D088682BB962B670476FF00103BC
:1027D00088681360704700BFCC080120485400206F
:1027E0002DE9F04F01298BB00691099240F29D80AE
:1027F00000240025CDE90045504D4FF6FF722A60B8
:10280000079292464E494F4A0023DDE900451F4694
:10281000A0F10209984608939B461E460B60136080
:10282000CDE90445CDE9024500E0BB4639F8024F49
:10283000A4F5FF457F3D284606F004FE02460B4600
:10284000DDE9020106F0B2FCCDE9020105FB05F06D
:1028500006F0F8FD02460B46DDE9040106F0A6FC91
:10286000CDE90401204606F0EDFD02460B46DDE908
:10287000000106F09BFC5C4588BFB04688BF274638
:102880005445CDE9000102D20794A2460896069D60
:102890000136AE42C9D1079C284D2B4B2C602849EC
:1028A000284A089C099D0F60C2F800801C600698A9
:1028B000002D3ED006F0B6FD04460D4622462B46BE
:1028C000DDE9020106F04EFF07F004F909990860FE
:1028D00022462B46DDE9000106F044FF07F0FAF836
:1028E0001A4B1860DDE9020102460B4606F010FEA5
:1028F00022462B4606F036FF0B460246DDE9040170
:1029000006F052FC069A0446501E0D4606F08AFD5B
:1029100002460B462046294606F024FF04F056FDE9
:1029200007F0D8F80BB0BDE8F08F00200BB0BDE881
:10293000F08F06F077FD04460D46C9E728540020C5
:102940002C540020B80801203C54002040540020A2
:102950002DE9F04F8BB05F2900AF0D460646FA61B6
:102960003B6140F2AC804B00083323F00703ADEB32
:10297000030D0023984613709A46524BADF1020C9A
:102980001B68C7F80CC07B61DFF858C14E4BC7F815
:1029900018D00021F8680A464FEA480406EB810186
:1029A000095B0132AA4220F8021F1146F6D14FEA14
:1029B000880907F120024A442946B86987E80810C7
:1029C000FFF70EFF39697A6941F828004A44D16956
:1029D0008346BA6007F08EFBBA680028D168584673
:1029E00018BF4FF0010A07F085FB97E8081030B1D7
:1029F000012000FA08F2F86901780A430270334AAC
:102A0000334811680268386D08F101080153786D88
:102A1000DCF8001002532F48B8F1020F0268B86DBD
:102A20000153F86D196802533C6E44F80910B0D197
:102A3000BAF1000F04D100202C37BD46BDE8F08F5D
:102A4000254B26491A6843F62040A1FB026149083C
:102A500001EB4101521A00FB02321032D7F814C0C8
:102A6000517DDCF804400029E5D172B61C4892691A
:102A700001684E1C12D0DFF84CC01444DCF8006032
:102A80009A682544B468954228BF2A46A24294BF5A
:102A90009A609C600029CED162B6CCE7094E1444FE
:102AA00031689A6825448C68954228BF2A466FF0A1
:102AB0000101A24294BF9A609C600160BBE74FF0A5
:102AC000FF30B9E730B80000405400202C540020FB
:102AD000285400203C54002048540020ABAAAAAA45
:102AE000CC080120B80801202DE9F04FADF6F40D17
:102AF00072B68B488B4A03685168581C18BF013363
:102B0000002900F0FB811668874943F62040A1FBAD
:102B10000671490801EB4101711A00FB012202F123
:102B20001007FC69787D16941699BC69B1F5C07FD1
:102B3000149080F07E81002808BF00210E91784813
:102B4000013B0360002B31D162B60E99BB690029AD
:102B500030D10E9C2344BB6172B671480E9C026852
:102B6000531CFB6918BF01321B1BB3F5C07FFB610F
:102B7000C0F06381797D002900F06981002B40F06D
:102B800066810123674C6168664F013938680130FE
:102B900087E803006248013A026002B962B6002B7E
:102BA000A6D100200DF6F40DBDE8F08F0E99234656
:102BB0000029CED05D4AA2FB0302D20AC2EB021268
:102BC000A3EB0222C2F570658D4228BF0D464FEA85
:102BD000850802F1080107EB81014246BCA807F015
:102BE00029FF0E99A94200F279810DF178090DF1C2
:102BF0007C080DF1800B0DF1840A24AD1CAA22ABD8
:102C0000CDF80090CDF80480CDF808B0CDF80CA038
:102C10000495BCA8FFF79CFE20B99DF87030002BEE
:102C200040F07881FEF7D0FD0028C0F238810E9B7D
:102C3000BCA99A0001EB8300C2F5C062FF2107F036
:102C400002FF0E9807F04CF84FF0705107F0A0F813
:102C500006F00AFC04F0D0F806F0F4FE0028179005
:102C600040F31D81B6B20C94B4B20A940E9CBCAA77
:102C700012940024119610920F94BB460C9F2C487E
:102C8000FD09A0FB05056C01661BB7EBC6162948BC
:102C90000A9F1499078014BF00270127002900F01C
:102CA0000081169A0E9B9A4200F00E810023139326
:102CB00021480378002B40F0FA80204A10991068D0
:102CC0003A461E4F431C3B60FEF7FAFD0028C0F257
:102CD000E580B6F570625642139F5641159647B986
:102CE0009BF81430002B00F0C080159F002F00F0DF
:102CF000C380FEF769FD0C9B0D9012980D9E8028F5
:102D000094BF1B188033641BA3EBC4144FF000095D
:102D10003346D8464E460B94AB4699467FE000BFFB
:102D2000CC08012048540020ABAAAAAA8988888828
:102D300088104208BC0801207800002054000020C0
:102D4000AA4F0AEBCA0317F81330022B61D0032BEA
:102D500040F08880BBF1000FC0F284800B9C002EF5
:102D600008F1080718BF4FF4786497E80700079444
:102D700000F012FE044658460D4606F063FB9C4BDD
:102D8000D3E90023CDE9082300229A4B06F0C0FBCB
:102D9000DDE9082306F0E6FC02460B4620462946FC
:102DA00006F004FA02460B4629A800F0C9FD97E890
:102DB00007002CAB83E8070000214FF400723CA809
:102DC00098F8145007F03FFE079F8B4828970A9FFA
:102DD0001FFA8BF48DF8BC50ADF89E402690ADF8EC
:102DE0009C7026AD3CAC0FCD0FC40FCD0FC495E841
:102DF000030044F8040B2170002E00F011817F497C
:102E00000B7833BB50463CAA0021FEF7E9FC0BF1DE
:102E1000FF3B0136B6F5006F09F1FF3922D0B9F159
:102E2000000FCA468CDA0D9C04F5006AC6EB0A0A4C
:102E300086E74FF4C0720E9281E6002B4CD17048A9
:102E40004168012954D97B7D0BB101239CE6012304
:102E5000A0E6CDF800B000215246119B694807F06A
:102E60004FFECFE7139CC3460CB9159C24B1664FA7
:102E700001233B60FEF730FE0F9C0C9F013480372E
:102E80000F940C97109C129F04F50074803F1094CF
:102E900012970F9C179FBC427FF4F0AE5F46BB6950
:102EA00057E6564813910378002B3FF406AF564976
:102EB000D1F80080FEF788FC414602460095119B40
:102EC000524807F01DFEF8E617980F99431EC91ADD
:102ED0004B424B411393EBE67B7D5BE64A1BBCA860
:102EE00007F120019200404407F0A4FD0E997CE612
:102EF000797D00297FF446AE0B464BE6444C013BFE
:102F00002360002B7FF44DAE62B600200DF6F40D69
:102F1000BDE8F08F22A908220DF1CD008DF8CC304C
:102F200007F088FD494604220DF1D50007F082FD27
:102F3000414604220DF1D90007F07CFD59460422D8
:102F40000DF1DD0007F076FD514604220DF1E100A0
:102F500007F070FD294608220DF1E50007F06AFD33
:102F6000274A274913682B4A43F62045A2FB030250
:102F7000520802EB42029B1A05FB031505F11803E8
:102F800093E8070000F008FD194B8246A86AD3E9D0
:102F900000898B4606F046FA42464B4606F0E2FBB5
:102FA00002460B465046594606F000F902460B46CB
:102FB00018A800F0C5FC184B1898D3F800C0199950
:102FC0001A9A164D30AB4FF0010EBCF1000F95F878
:102FD000008007C385F800E004DB30A908202D221B
:102FE000FEF79AFB85F800801CE600BF5017012011
:102FF000401701200000AF40F5F3223F7800002089
:103000004854002010C0000054000020A8BF000059
:10301000CC080120ABAAAAAA4C0000201D08002061
:103020000B4803784BB1FEF7CFFBCDF800B002465A
:1030300031460848119B07F063FD00203CA9024679
:10304000FEF73EFC0028BFF6E2AE474627E700BF8A
:1030500078000020D8BF00000A4B5A6882B1186877
:1030600009490244013AA1FB0201490801EB41016F
:10307000521A43F6204101FB0233012283F8252036
:10308000704700BF48540020ABAAAAAA174B30B41F
:1030900093E8140016492244013AA1FB0241490871
:1030A00001EB4101521A43F6204505FB023393F828
:1030B000252010331AB9DA69B2F5706F01D330BC2C
:1030C000704799690B4C1144A4FB0154E40AC4EB0A
:1030D0000414A1EB0424551C08340146DD6103EB04
:1030E0008400042230BC07F0A5BC00BF4854002077
:1030F000ABAAAAAA8988888838B51E4C63681BBB0E
:1031000022681D4D1A44A5FB02056D0805EB450517
:10311000521B43F6204505FB02450021581C0022A6
:103120000023C5E90623A962E96285F82510296212
:1031300085F824106060FEF7F3FF104BC5E9040129
:103140001B681B68A36038BD22680B491A44013A0A
:10315000A1FB0201490801EB4101521A43F620414B
:1031600001FB0242022B4FF0010182F82510C7D962
:1031700038BD00BF48540020ABAAAAAA30B800004E
:1031800082B02DE9F04F83B00CAC84E80C0072B62D
:10319000DFF858C1534DDCF800305A1C1CBF013316
:1031A000CCF80030D5F804C00193BCF1000F00F05A
:1031B00084800024D5F80080DFF838B1A14643F6BA
:1031C000204A04EB0803ABFB0321490801EB410152
:1031D000591A0AFB015110310E7DD1E900233EB985
:1031E000821A05D4BA4200D314B98946174600940E
:1031F00001346445E5D1B9F1000F5ED0DDF800C0BF
:1032000009F108030CF1010601270DF1300CA6426B
:103210009CE8070083E8070089F814704DD2B04499
:1032200007F1AA37A7FB08135B0803EB4303C3EBC3
:10323000080843F6204404FB08541034237D002B77
:103240003BD1DFF8A0800FE0D8F8003043F62044EF
:103250003344A7FB03C2520802EB42029B1A04FB51
:1032600003841034237DC3B90CAB93E8070000F04E
:1032700093FB00221C4B05F099FF02460B460CA85D
:1032800000F05EFB6B6801360DF1300C0834B34280
:103290009CE8070084E80700D6D8144C144B246837
:1032A0000DF1300C9CE80700019483E8070054B945
:1032B00003B0BDE8F04F02B070470D4B0CAC94E882
:1032C000070083E80700019CDFF820C0631ECCF8EC
:1032D0000030002BECD162B603B0BDE8F04F02B075
:1032E000704700BF485400200000F03FCC08012088
:1032F00030540020ABAAAAAA3A4B2DE9F04F1B6824
:10330000DFF8F0A01B6BDAF800104FF47A720B4470
:1033100087B0804602FB03F006F0E2FCDFF8D890AD
:10332000DFF8D8E0D9F804108346DEF80060D9F859
:103330000000DEF80470DEF808E0361A67EB0107DB
:10334000BB00D9F8081043EA9673B2005D01264825
:10335000C1EB0E0E45EAD2655401A21A65EB0303D8
:1033600080FB0E14B61847EB03074FEAEE7ECEEB58
:10337000A41EF900F00010EB0E0041EA567141EB7B
:10338000EE7106F0C7FC0146584606F0B5FD174938
:1033900006F0FEFC164B04461B88B9E80700CDF882
:1033A00006002046CDF80A10CDF80E20ADF8043006
:1033B00006F0DAFEDAF80030ADF81200ADF814309D
:1033C00001AC0FCC2488C8F800004046A8F8104093
:1033D000C8F80410C8F80820C8F80C3007B0BDE8D9
:1033E000F08F00BF30B80000D34D62100000C8421B
:1033F000BC0801200C1701203054002050A70120E8
:103400002DE9F04FADF29C4D00AF07F1480600F1F9
:1034100017010B2230467E6407F00CFB96E807008C
:1034200007F1580303C3984823F8022B0178120CC4
:103430001A70002940F05E82FEF7C6F9D7F84BE01B
:10344000D7F84F30B86273453ED900283CDB97F877
:103450004A20BC6A02F00103920748BF01335B00B7
:103460003B613E694F23B3FBF6F3FB6106FB03F3BD
:10347000083323F00703C7F80CD0B7F84860ADEB6A
:10348000030D824BC7F830D0C7F824E00125A446CD
:1034900004EBC40213F81210601C03EB4202DFF8C5
:1034A000ECB119B9B2F80120B24219D0C0F30A0444
:1034B00064454FF00005EBD1062007F158010B22BF
:1034C000FEF72AF90020E1E107F1580106200B225E
:1034D000FEF722F9002007F29C47BD46BDE8F08FB9
:1034E000BE6AB44200F016823E69012576083E624B
:1034F0003E6A4FF00008AE40C7F840E0013CC7F814
:103500002CE0BE61C7F838807D60FE6A386C864268
:1035100068DC7E684FEA843908F1010A01E0AA45B7
:1035200011D04545FBD8FEF755F9006807F1980121
:10353000484400EB452003F021F8002800F07C818E
:103540000135AA45EDD17D633546BE6AC7F83C809A
:103550004D480134C4F30A04027804EBC40A4FEA6C
:1035600084390BEB4A08002A37D115B9B44200F070
:10357000A5811BF81A200025022AE9D0002A40F074
:103580008C81B8F80100B7F84810884240F08D816E
:10359000FEF720F9006807F52671484402F0EEFFB7
:1035A0000028D5D10346252207F5267107F17000C2
:1035B000BB6007F03FFAB86F06F092FB4FF0705116
:1035C00006F0E6FB05F050FF03F016FCBB68012592
:1035D0001E4606F05FFA80469EE721462C4807F01B
:1035E0008FFAC2E74FF000092A4802F0D7FD05F034
:1035F00049F9002840F04981274B1B68002BC0F295
:103600004481D7F84FC00CF1010CB9F1000F00F064
:103610000D81C7F83CC06646386C864294BF4FF0B7
:10362000000C4FF0010CBCF1000F40F0A880FE69C7
:10363000B86B864200F0A3808246B9F1000F66D1D4
:10364000FE69386CCAEB060AFE6AC0EB060CD4456C
:1036500028BFD446BCF1000F53DDB869B96B3E6B8F
:10366000FC6301FB00633E6C786A07F19801C0EBD4
:10367000060A7E6801EB8A0A7E637D610AF1020A0E
:103680006546BC691E4613E07800002050170120F3
:1036900048C10000008008404C00002012F0020FDA
:1036A000264417D109F101094D450AF1040A23D036
:1036B00097F84A2012F00101F0D03046AAF1020139
:1036C000022207F0B7F997F84A20012112F0020F01
:1036D0002644E7D0B86B3A6A484400FB02103B6BC3
:1036E000514603EB4000022209F1010907F0A2F95B
:1036F0004D450AF1040ADBD17E6BAC46FC6B7D695B
:103700007E60BE6B6644BE633E6C66443E64D7F822
:103710004F303E6C5A1C96427FF4F7AEBE6B002EC3
:1037200040F3B380386CC7F85F30821B3E6BC7F83C
:103730005B206D46002E00F0E3803E69821A06FB96
:1037400002F404F1120323F00703ADEB030D07F1BC
:1037500058010B22684607F06DF92246396B0DF1CE
:103760000B0007F067F904F10B02D2B26C46214658
:1037700006200023FDF7FCFE0120AD4686E0BE6B6F
:10378000002E40F39980386C396B831B421EC7F8BA
:103790005B30C7F85F206E46002900F09D803A69D3
:1037A000C31A02FB03FA0AF1120323F00703ADEB7D
:1037B000030D07F158010B226846C7F808C007F04F
:1037C00039F952460DF10B00396B07F033F90AF164
:1037D0000B02D7F808C0D2B2EA46514600230620B1
:1037E0009A46C7F808C0FDF7C3FED7F808C0C7F867
:1037F00038A0B546BCF1000F3FF41FAFFE6B07F1D8
:103800005801731E3E6C07F164000B22C7F85B6021
:10381000C7F85F3007F00EF9FE6B07F164010B2269
:10382000002306203E64FDF7A3FE06E77E6A664598
:1038300028BF6646FE63EFE6B7F8762005F1007311
:10384000C2EB4212D201013B02EBC313B86F7B62A1
:10385000D7F84F1010447E60304A7E6A01311378E9
:10386000884238BF014606F18002914228BF1146C6
:10387000F96253BB2A4801354FF0000902F08EFC73
:1038800005F000F800283FF4B7AE0120FE6807F20B
:103890009C47B546BD46BDE8F08F0026D7F83C8072
:1038A0007D6B4FF001097E609EE6D7F83C807D6B12
:1038B0007A604FF0010997E6B2469BE77D60D7F842
:1038C0003C807D6B4FF001098EE629464246234637
:1038D000144807F015F9CDE707F164000B2207F152
:1038E0005801C7F808C0824607F0A4F80B22D7F8A1
:1038F00008C072E7B7F858100B4807F001F99BE5CC
:1039000007F164000B2207F15801044607F092F812
:103910000B222CE7002D7FF4E7ADCDE578000020E9
:103920000080084024C1000008C1000008B5FEF76F
:10393000F7F8024B0130186008BD00BF4854002062
:103940002DE9F04119468046104616461F4603F001
:10395000E3FA06F03FFC04460D4605F0ABFD0246D7
:103960000B463046394605F01FFC09A3D3E9002376
:1039700005F0CEFD03F060FBC8F80040C8F8045025
:1039800006F060F8C8F808004046BDE8F08100BFC6
:103990000000000080842E4130B585B004AB03E9FF
:1039A00007000198029905F085FD044603980D462D
:1039B00005F048FD06A3D3E9002305F0D3FE024637
:1039C0000B462046294605F0F1FB05B030BD00BF8F
:1039D0000000000080842E4110B4019C02608460CD
:1039E00043605DF8044B704770B51C4B86B00124F2
:1039F0001C701B4D02F0F6FA0220002102F0E2FAE0
:103A000021462246052001AC01F020FB0FCD0FC45A
:103A10002B68022600254FF44051802201A8236024
:103A2000ADF8081003928DF804508DF806508DF80B
:103A300014508DF815508DF816508DF8056000F073
:103A4000F7FA0849084B0E63096808484FF000422E
:103A50000560C3F880211A6006B070BDC40801205B
:103A600068C100000010084000E100E00C000243C3
:103A70000849094B012230B40A709D68074C084878
:103A800002212560026019635A6B30BC22F00202E9
:103A90005A637047C508012000100840C008012083
:103AA0000C0002432DE9F047814F0126DFF828E2A0
:103AB0003E609EF8003086B081468846144603F08A
:103AC000FF05002B78D07B4D00272F7000F000FB06
:103AD0004FF47A7000FB08F0774B784EA3FB002080
:103AE00002233363800905F09DFC0022744B05F02E
:103AF0005DFB05F0CFFF0146384600F0D9FA6C4B6C
:103B000032681F60736BC84543F00203736300F2B1
:103B10008C806C4E013C2B7853B9032CFBD8DFE82A
:103B200004F03F3B370202F04BF92B78002BF4D026
:103B3000654E664F72B63368634A591C01D0013333
:103B400013602A785B49002A30D15C4B01220A704D
:103B50009C68574802213C60026019635A6B22F04E
:103B600002025A6333680BBB386806F0B9F858494B
:103B700006F0C2F9564906F00BF905F075FC002273
:103B80004F4B05F013FB05F085FF06B0BDE8F0874D
:103B9000012002F0B9F8BEE7012002F069F8BAE7A7
:103BA000336923F00403336130BFB4E7013B336072
:103BB000002BD9D162B6D7E78EF8006002F012FA76
:103BC0000220294602F0FEF931463246052001F076
:103BD0003DFADFF808E101AEBEE80F000FC6DEF8DF
:103BE00000304FF4405180224FF0020A01A83360A8
:103BF000ADF8081003928DF804508DF806508DF83A
:103C000014508DF815508DF816508DF805A000F061
:103C10000FFA2A492F4BC1F830A04FF00042096833
:103C20003D60C3F880211A604DE7274E274FDFF82B
:103C300094802B78002B7FF47DAF631E032B05D877
:103C4000DFE803F0272F230202F0BAF872B63368D8
:103C50002A78581C18BF01333AB33868013B3360E7
:103C600003B962B606F03CF8194906F045F918495F
:103C700006F08EF805F0F8FB0022114B05F096FADD
:103C800005F008FF8145D4D854E7012002F03CF844
:103C9000DCE7D8F8103023F00403C8F8103030BF48
:103CA000D4E7012001F0E4FFD0E7044A9068D5E7AB
:103CB0000C000243C5080120D34D621000100840DB
:103CC0000000E03F00ED00E0CC080120C00801202A
:103CD00000007A4400E100E0C408012068C100004F
:103CE000036843F001030360704700BF064B10B444
:103CF00000214FF08E440322046043605DF8044BC2
:103D0000C1608261704700BF80000100436823F0FA
:103D1000F7031A4342EA01114160704700F104734E
:103D2000F0B45B014C7A00220E7A1A604A682404CF
:103D300044EA46448E7ACD7A0F7844EA026291F8DA
:103D40000CC04C7842EA06260A6946EA0516FF07C7
:103D50004D7B46EA8C06097D47EA8474120234439F
:103D600042EA054204604260F0BC1960704700BF3F
:103D700070B50E7905460C4616480EBB00F080FC67
:103D8000154B164E0344A6FB0323DE0D03D0013E64
:103D9000360206F4FE460A236B606378E1782078E9
:103DA000A2781B01090443EA0063134301F4F811EC
:103DB00062790B4333430AB143F008032B6070BDB3
:103DC00000F05EFC3602034800F05AFC06F4FE46A2
:103DD000E1E700BF408104003F5DC600A5E830A5D3
:103DE000082343602DE9F001446B8A7824F0FE44F7
:103DF00024F4FE04062A60D8DFE802F02F3B475384
:103E00005F5F04002E4BDB6803F07F084FEA084831
:103E10000F7891F801C04D68CB783F074E7A48EA99
:103E2000040447EA0C5745EA031344633B430EB1CD
:103E300043F080738C7A0CB143F004030C7A0CB11C
:103E400043F00203C97A09B143F0010345EA024293
:103E500013430361BDE8F0017047194B5E685D686C
:103E600006F4FE4305F07F0848EA03084FEA0848D5
:103E7000CEE7134B5D685B68C5F30668C3F3064382
:103E800043EA08284FEA0848C2E70D4B9E689D6840
:103E900006F4FE4305F07F0848EA03084FEA0848A5
:103EA000B6E7074B9D689B68C5F30668C3F30643F6
:103EB00043EA08284FEA0848AAE74FF00008A7E7B6
:103EC000B081E00F02234360F0B4446B8A7824F49D
:103ED000FE4424F07F04062A54D8DFE802F02B3594
:103EE0003F4953530400294BDB6803F07F0C0B78E8
:103EF0004D780F791B0743EA0553CE788D794CEA4C
:103F0000040443EA0723446343EA06130DB143F074
:103F10008073CC790CB143F004034C790CB143F0BD
:103F20000203097A09B143F0010343EA0243C36083
:103F3000F0BC7047154B5E685D6806F4FE4305F003
:103F40007F0C4CEA030CD2E7104B5D685B68C5F34D
:103F5000066CC3F3064343EA0C2CC8E70B4B9E6880
:103F60009D6806F4FE4305F07F0C4CEA030CBEE7A7
:103F7000064B9D689B68C5F3066CC3F3064343EA92
:103F80000C2CB4E74FF0000CB1E700BFB081E00F9C
:103F9000002230B40A234FF4F81540F2033440F203
:103FA00047714360C260124B026105604261046266
:103FB000C163426B5C6822F4FE42596804F4FE441B
:103FC00022F07F02224301F07F010A434263446BE7
:103FD00059685A6801F4FE4124F0FE4302F07F0262
:103FE00023F4FE030A4343EA0243436330BC7047B1
:103FF000B081E00F08B520B10A4B984207D91F20C5
:1040000008BD094800F03CFB0028F5D108BD074B6E
:1040100000F5742000F23F20A3FB0020800C013843
:10402000C0B208BD0048E8014081040083DE1B43A4
:1040300083680178B3FA83F370B4C3F11F0411B13C
:10404000184B01221A60184A936BDD0706D41368D7
:1040500013F4405F02D0D36BDB07FCD4827C124B9D
:1040600086885A60C268457846EA421245F00805DB
:1040700086782A43457C42EA8602007C42EA0512A1
:1040800042EA803242EA04224FF0FF3018631A609D
:1040900029B10648034900221B6802600A6070BC0F
:1040A000704700BF00070243001008400C000243A5
:1040B000064A936BD80706D4136813F4405F02D006
:1040C000D36B9B07FCD4014BD960704700100840AC
:1040D000024B0121002219601A6070470C00024354
:1040E00008B500F00F03013B062B7DD8DFE803F095
:1040F0003C4C5B7C7C6A0400484BDB6A03F4603315
:10410000B3F5803F74D0B3F5003F6FD0B3F5004FE7
:104110000CBF08230123424A904260D0414A90429A
:1041200003D13E4B9B6AC3F38103032B1AD8DFE80C
:1041300003F0130F0B0202F0E5FC3B4B3B4A1B68FC
:1041400012680133D84008BDBDE8084002F0C6BD82
:10415000BDE8084002F0BABD314B98424CD0314B1B
:10416000984252D0002008BD2C4BDB6A03F47053F8
:10417000B3F5805F3AD0B3F5005F39D0B3F5006F87
:104180000CBF04230523C6E7244A936A03F0030304
:10419000022BC0D0032B2DD0012B27D0936ADA033A
:1041A0000ED50923B7E71D4A936A03F00C03082BC9
:1041B0001ED00C2B1ED0042B18D0936ADB02F0D437
:1041C0000123A8E7154B1B6813F080531BD0144A3A
:1041D000B3F1805F0CBF0823012390429ED10F4BA7
:1041E0009B6A03F00303A0E7002394E7032392E70D
:1041F000022390E706238EE7084B10209B6A33FAD0
:1042000000F006D108BD072385E7044B14209B6A04
:10421000F5E7BDE8084002F05DBD00BF00800C403E
:104220000200180003001A0078009043A000904399
:1042300038B5C0F30313013B0C46062B05D8DFE865
:1042400003F00F0404212C3E050038BDA94B984211
:1042500000F0DC8003F50433984200F0C08038BDE4
:1042600002F0C0FCA44B41F67131DA6BD9635B6894
:1042700003F00703042B40D9A04B984240F2698118
:10428000052045E09E4BB1FA81F49A68C4F11F0401
:1042900022F00F0214439C6038BD02F0A3FC964B41
:1042A00041F67131DA6BD9635B6803F00703042BC5
:1042B00040D9924B984240F25481052045E0914B01
:1042C000984200F02F8140F2B7808F4B984200F067
:1042D000F9808E4B984240F0D380894A536DD907BC
:1042E00040F1BE80864BB4FA84F49A6EC4F11F0488
:1042F00022F0030222439A6638BD012101FA03F33A
:1043000013F0130FB8D07D4B984240F24281042045
:10431000794B596821F00701014359600AB1002225
:10432000DA63774B013C1A6822F4E03242EA8434C3
:104330001C6037E0012101FA03F313F0130FB8D02A
:104340006E4B984240F2158104206B4B596821F066
:104350000701014359600AB10022DA6302F046FC0A
:104360006B4BB0FBF4F0DB6CC3F307434A2B00F05C
:104370009480792B00F09180604A482B18BF00226E
:104380009042644D644994BF002201225C4B2A6034
:104390000A605A68B4FA84F4C4F11F0422F00F02D0
:1043A00014435C6002F0AEFB534B41F67131DA6BA3
:1043B000D9635B6803F00703042B62D94F4B984223
:1043C00040F2DF8005204C4B596821F00701014382
:1043D0005960002A3FF439AF0022DA6338BD484AF9
:1043E000536DD9070BD5464BB4FA84F41A6FC4F158
:1043F0001F0422F0300242EA04121A6738BD136D1E
:104400005B06F0D5136D5B06F9D4ECE73C4A536DBF
:10441000DD070AD53A4BB4FA84F41A6FC4F11F04CD
:1044200022F0030222431A6738BD136D5806F1D5F6
:10443000136D5806F9D4EDE7A3F5043398421ED165
:104440002F4A536DDD0713D52D4BB4FA84F49A6EC1
:10445000C4F11F0422F0F00242EA04129A6638BD49
:10446000136D5B077FF53EAF136D5B07F8D439E73B
:10447000136D5807E8D5136D5807F9D4E4E738BD34
:1044800038BD012101FA03F313F0130F96D01B4B33
:10449000984240F28680042095E7204B17491D6919
:1044A0009A69DB6905F03F05C3F3031343EA052569
:1044B00002F0F0021A4B2A43B2F5017F34BF0A46DC
:1044C0001A465DE70E4A536DDD070BD50C4BB4FA67
:1044D00084F49A6EC4F11B0422F4405242EA04327E
:1044E0009A6638BD136D5807F0D5136D5807F9D487
:1044F000ECE700BF7007140000000C400048E80122
:1045000000800C4060261200600024006006280035
:10451000B081E00F78009043A0009043D0FF0FE0FF
:1045200000366E01234A536DD9070BD5214BB4FADF
:1045300084F49A6EC4F11F0422F4706242EA0422E9
:104540009A6638BD136D5B07F0D5136D5B07F9D420
:10455000ECE7194B194903448B4294BF0320022016
:10456000D6E6154B154903448B4294BF0320022025
:10457000EBE6114B114903448B428CBF0020012014
:10458000E3E60D4B0D4903448B4294BF0320022008
:1045900019E7094B094903448B428CBF00200120D5
:1045A000B6E6054B054903448B428CBF0020012031
:1045B00009E700BF00800C40FFDB0BFFFF23F40086
:1045C00000F00F00013806284ED8DFE800F0142470
:1045D000334D4D420400294BDB6A03F46033B3F5DD
:1045E000803F43D0B3F5003F42D0B3F5004F0CBF3E
:1045F000082001207047214BDB6A03F47053B3F5A8
:10460000805F35D0B3F5005F30D0B3F5006F0CBFDD
:10461000042005207047194B986A00F00300022817
:1046200025D0032826D0012822D09B6ADA030ED594
:1046300009207047114A936A03F00C03082B15D028
:104640000C2B17D0042B13D0936ADB02F0D401207B
:1046500070470A4B1B6813F080530DD0B3F1805F95
:104660000CBF0820012070470020704702207047CF
:1046700003207047062070470720704700800C40D9
:1046800000F47810B0F5A01F08B500F093800ED8A4
:10469000B0F5402F7ED021D8B0F5003F76D0B0F5F0
:1046A000802F00F0B08000287BD0002008BDB0F53E
:1046B000001F00F09A8039D8B0F5C01F61D0B0F566
:1046C000D01F72D0B0F5B01FEFD16448FFF708FDDE
:1046D000634B1B6FC3F30113D84008BDB0F5801FB7
:1046E00037D0B0F5901F6ED0B0F5602FDDD15C4BA8
:1046F0005B6903F4E063B3F5007F00F09E8040F255
:104700008A80B3F5C06F00F0A480B3F5E06F00F0CD
:104710009E80B3F5407FC8D1524B534AD86C534B5F
:10472000B0F1985F34BF1046184608BDB0F5181FA9
:1047300018D0B0F5201F4FD0B0F5101FB5D14C48A0
:10474000FFF7CEFC464B9B6EC3F301330433D840D6
:1047500008BD4748FFF7C4FC414B9B6EC3F30313EE
:10476000D84008BD4248FFF7BBFC3D4B9A6EDB6F5B
:10477000C2F30132D04003F007030133B0FBF3F082
:1047800008BD3B48BDE80840FFF7AABCBDE80840AB
:1047900002F0B8B9324A136813F0805346D0002BA8
:1047A00083D0BDE8084002F021BA2C48BDE808409B
:1047B000FFF796BC2948FFF793FC294B1B6F03F0CA
:1047C0000303D84008BD2A48FFF78AFC244B9B6EA0
:1047D000C3F30323D84008BD2548FFF781FC204BD5
:1047E0009B6E03F00303D84008BD2248FFF7E8FEA4
:1047F000032817D00828D4D002287FF456AFBDE88C
:10480000084002F06BBA02F0F1F9154B9B6803F017
:104810000F03D84008BDF3B1B3F5807F7FF445AFF7
:10482000154808BDBDE8084002F050BA536903F4CA
:10483000E063B3F5007F7FF462AF0A4B0F4AD86C98
:104840000F4BB0F1985F34BF1046184608BD0D48B5
:1048500008BD0D4808BD0D4808BD00BF03001A0083
:1048600000800C40B081E00F40420F00804F1200EA
:104870000200180007232000C0D8A700C0CF6A009C
:1048800040B56400406F4001003FAB01809FD50000
:1048900070B5C0F30323013B82B00446092B11D845
:1048A000DFE803F022192410101D05101020274AFC
:1048B0001020274DC4F304346B6DDB0704D522446C
:1048C0009200116002B070BD2B6D1842F7D02B6DB5
:1048D0001842F9D1F3E71F4AC4F30434EFE71E4A44
:1048E0000120E6E71D4AF7E71D4AF5E7019102F0CE
:1048F00009F91C4B0199DA6CC2F307424A2A0FD01E
:10490000792A0DD0184B482A18BF0023174A98421D
:10491000174D94BF002301231360164A2B60DBE779
:10492000154A114D16699369D26906F03F06C2F324
:10493000031242EA062603F0F003104A3343B3F5AC
:10494000017F34BF2B461346E0E700BF0003E410AD
:1049500000800C402002E410C002E410C003E41008
:104960004000E410B081E00F0048E8017800904377
:10497000A00090430002E410D0FF0FE000366E016B
:1049800038B500F00F04631E062B52D8DFE803F0A1
:104990007A626251515D5600012202FA03F313F06C
:1049A000130F00F09680A84B984240F23C820420FE
:1049B000A64B5A6822F0070202435A6009B100224E
:1049C000DA63A34BA3485C62FFF75AFEA24BDB6C91
:1049D000C3F307434A2B00F08881792B00F08581CF
:1049E0009949482B18BF002188429C4A9C4B94BF90
:1049F000002001201060186001F0FAF902F082F83E
:104A0000924B41F67131DA6BD9635B6803F00703AF
:104A1000042B40F25D818C4B984240F2EC810520E2
:104A20008A4B596821F00701014359600AB10022FD
:104A3000DA638A4A8A4B12681B6838BD03294ED054
:104A4000082973D002295AD038BD072923D0082954
:104A500066D038BD01390829F6D801A252F821F0F4
:104A6000234C00002B4C0000794C0000494A000008
:104A7000494A0000934C0000494A0000494A00009E
:104A8000014C000002390329DED8DFE811F00A00EA
:104A9000B50056008D006E4B1A6822F080521A60E5
:104AA000C7E7704A04244FF4807369490B621368A6
:104AB000002BFCD001F09CF902F094F8634B41F616
:104AC0007132D96BDA635B6803F00703042B7FF65E
:104AD00063AF5D4B984240F29681052068E75C4BDE
:104AE0004021614A19621368002BFCD001F080F963
:104AF000574A60235362D36A9903FCD599E7544B14
:104B00004FF48071574A19621368002BFCD001F0F2
:104B10006FF94F4A40235362D36AD803FCD588E724
:104B20004B4B1A6842F080521A6082E7484A2023B1
:104B30005362D36A1B04FCD57BE7474BDB6CC3F3A2
:104B400007434A2B00F00481792B00F0018147488C
:104B5000482B18BF0120404BDB6CC3F307434A2BA3
:104B600000F0E280792B00F0DF80374A482B0CBF41
:104B70001346002383423A4A38492CBF00230123BD
:104B80000B60136002F09AF82F4B02249842304BCE
:104B90001A6896BF22F0600242F0600242F02002E2
:104BA0001A60334A042380E72B4BDB6CC3F30743C3
:104BB0004A2B00F0F680792B00F0F3802B48482B2D
:104BC00018BF0120244BDB6CC3F307434A2B00F0D2
:104BD000D480792B00F0D1801B4A482B18BF0022CB
:104BE00090421E4B1E4994BF0022012201241A60EC
:104BF0000A6023461F4A58E71B4A0324402354E710
:104C00004FF480114FF480330022022C00F0828098
:104C10000F4A936A23F4801323F00C030B4393622F
:104C200007E700210B460A46EFE7094B4FF4807176
:104C30000C4A19621368002BFCD001F0D9F8082146
:104C400000230222E1E700BF0048E80100000C4019
:104C500000800C4000430200B081E00F78009043D8
:104C6000A0009043A40590439C0590430148E801AF
:104C70008C059043840590436F4B40216F4A196225
:104C80001368002BFCD001F0B3F8042100230122AB
:104C9000BBE701F037FF6A4BDB6CC3F307434A2BDA
:104CA00000F09480792B00F09180664D482B18BF5E
:104CB0000025A8426449654B654A94BF0020012045
:104CC0000125086018600C211560002303229CE771
:104CD000012101FA03F313F0130F3FF49CAE594B7B
:104CE000984240F2988004209AE65A4B554A1C6933
:104CF0009969DB6904F03F04C3F3031343EA042416
:104D000001F0F001544B2143B1F5017F34BF11464E
:104D1000194669E648481343816A21F4803121F03D
:104D200003011943816284E64A4A464B146991693A
:104D3000D26904F03F04C2F3031242EA042401F0F2
:104D4000F001454A2143B1F5017F28BF134611E721
:104D5000404B424A18699969DB6900F03F00C3F390
:104D6000031343EA002001F0F0013D4B0843B0F586
:104D7000017F34BF10461846EDE6364B314A1C69B8
:104D80009969DB6904F03F04C3F3031343EA042485
:104D900001F0F001304B2143B1F5017F28BF1A46E5
:104DA0001EE72C4B2D4A18699969DB6900F03F001A
:104DB000C3F3031343EA002001F0F001284B08433A
:104DC000B0F5017F34BF10461846FBE6214B1D4A63
:104DD0001D699969DB6905F03F05C3F3031343EAD5
:104DE000052501F0F0011C4B0D43B5F5017F34BFE3
:104DF00015461D465DE71B4B1B4903448B4294BF80
:104E0000032002200CE6174B174A0344934294BF39
:104E100003200220CCE5134B134903448B428CBF83
:104E200000200120FCE50F4B0F4A034493428CBF46
:104E300000200120BCE500BF00800C409C05904391
:104E4000B081E00F0048E80178009043A000904353
:104E500010089043D0FF0FE000366E010148E801D2
:104E600001366E01FFDB0BFFFF23F40038B504466B
:104E7000052804D8DFE800F0272B3035390438BD89
:104E8000684B1D6BC5F30725674AD26A02F470525E
:104E9000B2F5805F64D0B2F5005F61D0B2F5006F0B
:104EA0005ED001F09FFE614B41F67132D96BDA633F
:104EB0005B6803F00703042B1BD95D4B984240F25B
:104EC000A88005201FE0574BDD6AEDB2DCE7554BAB
:104ED000DD6AC5F30725D7E7524BDD6AC5F3074501
:104EE000D2E7504BDD6A2D0ECEE74E4B1D6BEDB277
:104EF000CAE7012202FA03F313F0130FDDD04C4B83
:104F000098426ED90420494B5A6822F007020243A6
:104F10005A6009B10022DA63434AD36823F4FF637D
:104F200023F0070343EA04242543D56001F0EAFD9A
:104F30003E4B41F67131DA6BD9635B6803F00703CE
:104F4000042B43D93A4B98425BD90520374B59681B
:104F500021F007010143596062B10022DA6309E0E0
:104F6000314AD36823F4FF6323F0070343EA0424A0
:104F70002543D56001F0C6FD2A4BDB6CC3F3074324
:104F80004A2B0ED0792B0CD02949482B18BF002171
:104F90008842284A284B94BF0020012010601860E6
:104FA00038BD264B224A19699C69DB6901F03F0133
:104FB000C3F3031343EA012104F0F004204B21431F
:104FC000B1F5017F34BF11461946E1E7012101FA2D
:104FD00003F313F0130FB5D0154B984209D90420F1
:104FE000B4E7184B184A034493428CBF00200120B9
:104FF00089E7144B144903448B428CBF00200120E5
:10500000A4E7104B104903448B4294BF03200220B5
:105010009CE70C4B0C4A0344934294BF03200220AC
:1050200071E700BFB081E00F00800C4000000C4031
:105030000048E80178009043A0009043D0FF0FE0C3
:1050400000366E01FFDB0BFFFF23F40010B40428D1
:105050002ED8DFE800F0271B031F23001648082383
:10506000042469B1154B1C621AB95DF8044B00F0B9
:10507000BFBE0368002BF8D10368002BF9D0F4E71A
:105080000E4A5DF8044B136200F0B2BE0C48802358
:105090004024E6E70B4802230124E2E70A482023E4
:1050A0001024DEE709484FF400734FF48074D8E70A
:1050B0005DF8044B704700BF8C05904300800C40A6
:1050C0009C0590438405904394059043A405904328
:1050D00030B400F104744D7822460C3208340023B9
:1050E00064015201012D236013602AD0022D24D0C7
:1050F000164B9B69C3620B788A781B050C7943EACF
:105100000525CB7845EA021524048A7945EA83030C
:1051100004F4E02423430AB143F08003CA790AB1BE
:1051200043F040030A7A0AB143F002034A7A0AB113
:1051300043F00103036030BC7047044B1B6AC36239
:10514000D9E7024BDB69C362D5E700BFB081E00F4E
:1051500010B4CB780C781B010CB143F001034C78F0
:105160000CB143F00403897809B143F002031AB982
:1051700083605DF8044B7047C3605DF8044B704773
:10518000002310B433211024064A8360C3600460F6
:105190000361C161926944F24773C2625DF8044BD6
:1051A00003637047B081E00F1C4B1D4A41F20C01B4
:1051B00012685858996B2DE9F0470240194F9846EC
:1051C00002EA010422EA010A4FF00209FCB10025BB
:1051D0000126E30717D506FA05F2D8F808303A6039
:1051E00003EB0513DB6828466BB11A7AD3F800C0CD
:1051F000111C82F0010218BF01211A72BCF1000FCC
:1052000001D05A68E047640805F10105E1D1B9F120
:10521000010901D05446D9E7BDE8F08700200C40D1
:1052200000300C4008300C40F0B41C4E0401B7684C
:10523000049D274469BBF6683444FE6806B13172A8
:1052400043B1A668C6F38166032E1CBF05FA06F6B5
:105250009B1923603AB1A3689B0F032B1CBF05FA6F
:1052600003F3D2186260012303FA00F00B4BD861FC
:1052700089B91863A368094A23F47F5323F03703DD
:1052800043F0020343EA0515A5609062F0BC50614B
:1052900070473C46D1E75863ECE700BF00200C4064
:1052A000124B30B49C688A6804EB00140D78E260FD
:1052B0000124844075B19C634D684B780B4A00F51E
:1052C000886142F821503BB9094A30BC024492003F
:1052D00013607047DC63EFE7054B41F208050344B8
:1052E0009B0001215451196030BC704700200C40D4
:1052F0006080E110F0B40D4BA9B9D96815789378A6
:1053000057781679AD07D47845EA037545EA87657D
:10531000B20445EA036342EA843201EB001013430E
:105320008360F0BC70479968E8E700BF00200C403C
:105330002DE9F04F012183B006462C48FFF7A8FA6B
:1053400072682B4B2B4D01920124002240F6FF7115
:10535000DFF8A4B0C5F8804041F20C005A6003F5B4
:105360008859D96141F2080A596241F20418D96298
:1053700041F2081C596341F20C17D96341F2101134
:10538000DC641A5043F80AB0C9F8002041F2141B3B
:1053900043F8082041F2181A43F80C2041F21C1976
:1053A000DA5103F589585A5041F2241C41F228176A
:1053B00041F22C1143F80B2043F80A2043F809204E
:1053C000C8F8002043F80C20DA515A50019A4FF0E7
:1053D000004BC5F880412C6043F800B09A603278E9
:1053E000520122435A6003B0BDE8F08F000302006F
:1053F00000200C4000E100E0FF0F00802DE9F00FDD
:10540000AB4B82B01B6847780193019AC36842F0A6
:105410008044002B00F08F830025DFF8B0B2DFF866
:10542000B0A2DFF8B092DFF89882DFF8ACC229466C
:1054300003F00202002A03F0040603F0080218BF7A
:10544000022118BF5D46002E18BF042118BF554623
:10545000002A18BF4D4618BF082103F010066A0144
:10546000002E02F184426FEA010602F1100218BF19
:105470006FF0100618BF624618BF454618BF1021CE
:1054800033401760D4D1C26890F802A0002A00F01F
:1054900052830146DFF834B2DFF83492DFF8348209
:1054A000DFF81CC2834F50461D468A4602F00201B7
:1054B000002902F0040602F0080118BF022518BFF7
:1054C0005B46002E18BF042518BF4B46002918BFA5
:1054D000434618BF082502F010065901002E01F1BD
:1054E00084416FEA050601F10C0118BF6FF0100648
:1054F00018BF394618BF634618BF102532400860F0
:10550000D4D1DAF80C3050469AF803A0002B00F002
:1055100012830146DFF8B4B1DFF8B491DFF8B4814B
:10552000DFF89CC1644F504615468A4603F00201DD
:10553000002903F0040603F0080118BF022518BF74
:105540005A46002E18BF042518BF4A46002918BF26
:10555000424618BF082503F010065101002E01F144
:1055600084416FEA050601F1080118BF6FF01006CB
:1055700018BF394618BF624618BF1025334008606F
:10558000D4D1DAF80C2050469AF804A0002A00F092
:10559000D2820146DFF834B1DFF83491DFF834818C
:1055A000DFF81CC1454F50461D468A4602F00201F5
:1055B000002902F0040602F0080118BF022518BFF6
:1055C0005B46002E18BF042518BF4B46002918BFA4
:1055D000434618BF082502F010065901002E01F1BC
:1055E00084416FEA050601F1040118BF6FF010064F
:1055F00018BF394618BF634618BF102532400860EF
:10560000D4D1DAF80C3050469AF80590002B00F00F
:1056100092820146DFF8B4A0DFF8B480DFF8B4C0AE
:10562000274F284E48461546894603F002010029B7
:1056300003F0040B03F0080118BF022518BF5246FF
:10564000BBF1000F18BF042518BF4246002918BF40
:10565000624618BF082503F01001002902F1047BFF
:105660006FEA05014FEA4B1B18BF6FF0100118BF1E
:10567000B34618BF3A4618BF10250B40CBF80000C0
:10568000D3D1D9F80C20484699F806A0002A00F09A
:1056900052820146DFF834B0DFF83490DFF834800E
:1056A000DFF81CC0084F50461D468A4616E000BF72
:1056B000008000408C081042880810428408104284
:1056C000448000408008104294081042108000403E
:1056D00024800040348000409008104202F0020113
:1056E000002902F0040602F0080118BF022518BFC5
:1056F0005B46002E18BF042518BF4B46002918BF73
:10570000434618BF082502F010065901002E01F18A
:1057100084416FEA050601F1140118BF6FF010060D
:1057200018BF394618BF634618BF102532400860BD
:10573000D4D1DAF80C30504613F0020100F0F881B1
:10574000019DB74C9AF800202C409AF80960144348
:105750009AF80A5044F0804444EA06449AF80770E4
:1057600044EA45449AF808609AF84C5044EA0764C1
:1057700044EA0634002D40F0D88113F0040816D016
:10578000457A867AAD0490F807C045EAC646077A9E
:10579000A44D46EA4C6646EA4737254090F84C60EF
:1057A00047EA050444EA8204002E40F0BB8113F06E
:1057B000080C15D0457A877A2D05C67945EA4755F4
:1057C000077A45EA8666984D46EA873790F84C6036
:1057D00047EA0217254047EA0504002E40F09F8162
:1057E00013F0100315D0457A877AAD05C67945EADE
:1057F000C755077A45EAC6668C4D46EAC73790F822
:105800004C6047EA8217254047EA0504002E40F025
:105810008381856A466A2F04056A47EA062635436E
:1058200039B1834FBE6826F0031626F47C562E430A
:10583000BE60B8F1000F07D07D4FFE6926F0031659
:1058400026F47C562E43FE61BCF1000F07D0784F42
:10585000FE6A26F0031626F47C562E43FE623BB108
:10586000734FFE6B26F0031626F47C563543FD631A
:1058700090F82C7090F82D6090F82E5049B1DFF818
:10588000ECA1DFF8EC916B49CAF80070C9F8006030
:105890000D60B8F1000F09D0DFF8D891DFF8D8819A
:1058A0006549C9F80070C8F800600D60BCF1000FD0
:1058B00009D0DFF8C881DFF8C8C16049C8F80070B6
:1058C000CCF800600D603BB1DFF8B8C15C495D4BBE
:1058D000CCF800700E601D60816B466BC3680904D4
:1058E000056B41EA062113F0020C41EA050107D0DD
:1058F0004F4EF56825F0031525F47C550D43F560F2
:1059000013F0040707D04A4E356A25F0031525F435
:105910007C550D43356213F008060AD0DFF810817C
:10592000D8F8305025F0031525F47C550D43C8F800
:10593000305013F010030AD0DFF8F480D8F840504C
:1059400025F0031525F47C552943C8F8401090F83C
:105950003C5090F83D10BCF1000F07D0DFF82881D3
:10596000DFF828C1C8F80050CCF800102FB1DFF8DC
:1059700020C1354FCCF8005039601EB1334F344E42
:105980003D6031601BB1334E334B35601960C368E5
:105990008569416913F0020C41EA052107D0244EC4
:1059A000756825F4407525F003050D43756013F007
:1059B000040707D01E4EB56925F4407525F0030590
:1059C0000D43B56113F008060AD0DFF86480D8F8FB
:1059D000285025F4407525F003050D43C8F82850DC
:1059E00013F010030AD0DFF84880D8F8385025F4B7
:1059F000407525F003052943C8F83810017FBCF134
:105A0000000F01D0154D29600FB1154D29600EB161
:105A1000144D29600BB1144B1960054B1C6039E023
:105A2000FCEEFCFEF3DDF3FDCFBBCFFB3F773FF792
:105A30000080004070011042F0031042F005104257
:105A4000F4071042F007104270041042740610422E
:105A5000700610427408104270081042F0001042A4
:105A60007003104270051042700710427801104216
:105A700074011042F8031042F4031042F80510427A
:105A8000F4051042F8071042F4011042F0011042F0
:105A900074041042032A06D8DFE802F0023A3A0200
:105AA000284B00221A60284B026C5969456C21F47E
:105AB00040310A435A615A69816C22F4F8022A4340
:105AC0005A615A6914F0706F22F0E04242EA010212
:105AD0005A6102D0C2791D4B1A601D4B01221A6017
