:1000000000000220556C00008B6C00008D6C00001D
:100010008F6C0000916C0000936C0000896C0000F4
:10002000896C0000896C0000896C0000956C0000F0
:10003000976C0000896C0000996C00009B6C0000BC
:1000400091530000158D0000A16C0000A36C00000E
:10005000A56C0000A76C0000BD8B00005D8A00004D
:10006000AD6C0000AF6C0000B16C0000B36C000020
:10007000B56C0000B76C0000B96C0000BB6C0000F0
:10008000BD6C0000BF6C0000C16C0000C36C0000C0
:10009000D58C0000C76C000055920000CB6C0000AE
:1000A000CD6C0000CF6C0000D16C0000D36C000060
:1000B000D56C0000D76C000009210000593C0000FD
:1000C000DD6C0000DF6C0000E16C0000E36C000000
:1000D000E56C0000E76C0000E96C00000000000027
:1000E0000000000000000000000000000000000010
:1000F0000000000000000000000000000000000000
:1001000010B5054C237833B9044B13B10448AFF351
:1001100000800123237010BD0008002000000000B3
:1001200094C7000008B5064B1BB106480649AFF35B
:1001300000800648036813B1054B03B1984708BD1A
:100140000000000094C70000040800206C07002095
:1001500000000000154B002B08BF134B9D46A3F574
:10016000803A00218B460F461348144A121A0AF0AF
:10017000B6FD0F4B002B00D098470E4B002B00D044
:1001800098470020002104000D000D48002802D0EF
:100190000C48AFF300800AF073FD2000290008F03E
:1001A0005BFE0AF06DFC00BF0000080000000220AA
:1001B00000000000000000000008002028C301200B
:1001C00000000000000000002DE9F047804690B0DC
:1001D00072B6384F384E3B6804465A1C1CBF013378
:1001E0003B609A4600F1300920686168A268E368C4
:1001F00035460FC510344C452E46F5D1D9F80000D0
:10020000D9F80410402203C6B9F808306846002126
:1002100033800AF064FD6D46D8F80000D8F8041069
:10022000D8F80820D8F80C302C460FC408F1100874
:10023000C8452546F0D1D8F80410D8F800001F4E64
:1002400003C53368B8F808101D4A2980CDF83A2054
:10025000B3B105F05BFF4FF47F200BF025FCD0B16C
:1002600005F09AFF174A0023D7F800A01360336007
:100270004FF0FF30BAF1000F04D110B0BDE8F087A5
:100280004FF0FF300AF1FF333B60002BF5D162B62F
:1002900010B0BDE8F08769464FF47F2040220BF094
:1002A0000BFC044605F078FF002CDBD12046D7F884
:1002B00000A0DFE7D4080120040000204400002053
:1002C000016AEA3D00000020F8B5114B11491B6896
:1002D000D3F83A000AF03CF8A8B10F4B0F4E1C6857
:1002E00004F1300720686168A268E36835460FC5ED
:1002F0001034BC422E46F5D12068616803C62389BC
:1003000000203380F8BD0548BDE8F840FFF75CBF2A
:1003100044000020016AEA3D0000002004000020A3
:10032000022007210822012305F096BE10B5041E05
:100330004FF00B014FF005004FF00A0208DD0123DA
:1003400005F08AFE0C4B1B787BB90C4B1C6010BD72
:10035000002305F081FE084B1B78002BF5D00848E0
:100360000AF01AFD054B1C6010BD06480AF014FD8A
:10037000024B1C6010BD00BF740000201C08002050
:100380004CBB000024BB000008B50C4B1A7822B10E
:100390001B7813B10A480AF0FFFC0A2001F0DEFFC7
:1003A000BFF34F8F074A084BD16801F4E0610B435C
:1003B000D360BFF34F8F00BFFDE700BF7400002084
:1003C00074BB000000ED00E00400FA0500B50B4B23
:1003D00083B01B7813B10A480AF0DEFC0023082220
:1003E000684603218DF800208DF801308DF8023029
:1003F00000F00EFC03B05DF804FB00BF74000020A9
:10040000A0BB000010B5174C82B0206804210090FA
:10041000684600F0FDFB234653F8040F05211B79C5
:10042000009068468DF8043000F0F2FB234653F844
:100430000C0F05211B79009068468DF8043000F000
:10044000E7FB54F8140F0621A38800906846ADF826
:10045000043000F0DDFB4FF4FA7001F07FFF02B0D2
:1004600010BD00BFCCBA000010B5124B82B01B7893
:1004700013B111480AF090FC0024072303216846B9
:100480008DF800308DF801408DF8024000F0C0FB7F
:100490004FF47A7001F062FF0923684603218DF85A
:1004A00001408DF802408DF8003000F0B1FB02B041
:1004B00010BD00BF74000020C8BB000010B50821AB
:1004C0000A460023032005F0C7FD4FF4FA7001F03F
:1004D00045FFBDE81040032008210122002305F05C
:1004E000BBBD00BF2DE9704F002488B00823032551
:1004F00020468DF80C408DF808308DF80A5003F036
:100500006DFEDFF818A14FF44072012302268DF82A
:100510000B0002A9504606928DF816308DF81F3058
:100520008DF80D408DF809408DF814408DF81D4070
:100530008DF817508DF81E408DF81C408DF8156011
:1005400003F00AFD05A9504603F03EFD2E4804F0D5
:100550008BF99DF80C3000240133B0FBF3F009F067
:10056000ADF8CDE900019DF8150009F0A7F84FF0AE
:10057000804502460B462046294606F09FFE8046EF
:100580009DF808008946013009F0A8F802460B469C
:100590002046294606F092FE002204460D464046BB
:1005A00049461A4B08F04EFF22462B4609F0FCF84C
:1005B00002460B46DDE9000109F020FA09F08EFB46
:1005C000DFF85CB040F25633CBF80000CBF80030D7
:1005D000DBF8000009F082F800220D4B09F0E4F886
:1005E0000C4A0D4BC2E90001CAF82060DAF8141079
:1005F00080223143CAF814101A6083F80723DBF80D
:10060000000008B0BDE8708F00020500000028401F
:100610000000E03F2030012000E100E00020004029
:1006200018300120F0B5002487B007460B23204680
:100630008DF800308DF802408DF8014003F0CEFDBA
:10064000174D0126032208238DF80300694628462A
:100650008DF80F208DF80D308DF810708DF8044056
:100660008DF805408DF813408DF811408DF8144039
:100670008DF80C408DF812408DF80E6003F06CFC84
:1006800003A9284603F012FD2E626969054B8022FA
:10069000314369611A6083F8072307B0F0BD00BFDA
:1006A0000020004000E100E010B500F00103044626
:1006B0000C210020042205F0CFFC04F002030020EE
:1006C0000D21042205F0C8FC042104EA01030A46B6
:1006D000022005F0C1FC04F00803022005210422D9
:1006E000BDE8104005F0B8BC074B10B44FF4005003
:1006F0004FF48054102120225C6158615DF8044B56
:10070000D965DA65704700BF006000400D4B4FF4BB
:100710008052C1074CBF1A615A610A4B4FF4005214
:1007200081074CBF1A615A61064B102241074CBF2A
:100730009A65DA65034B202201074CBF9A65DA659A
:10074000704700BF0060004070B5644C82B02378F1
:1007500005460E46002B62D147F2CE739D4226DD40
:100760002378002B40F0A6805D4B00221A705D4A72
:1007700046F2523312789D42D2B25B4B31DC0022FA
:100780001A70A6F57A76B6B2B6F57A6F4FF0020017
:100790004FF007014FF008023BD8514B1B78002B5C
:1007A00037D0012305F058FC012002B070BD47F29C
:1007B000AF239D42DBDC2378002B40F08380484A46
:1007C00045F6E97301219D421170D0DC464B1A7841
:1007D00052BB19702378002BD3D044480AF0DCFABE
:1007E000CFE7002ACBD000221A702378002B71D1DA
:1007F00008210A460023032005F02EFC4FF4FA706E
:1008000001F0ACFD032008210122002305F024FCA7
:10081000B7E7002305F020FC002002B070BD294698
:1008200033480AF0B9FA97E72378002B4ED12D4BC5
:1008300001221A702378002B40D1002407230321C2
:1008400068468DF800308DF801408DF8024000F0C8
:10085000DFF94FF47A7001F081FD09236846032126
:100860008DF801408DF802408DF8003000F0D0F98D
:10087000204B214AD968184621F00101D960D3687C
:100880004FF4805423F00103D36003F023FB4FF0B7
:10089000402004F069FD194803F06EFC184B10214C
:1008A00020224FF400505C615861D965DA6500F090
:1008B00073FB66E713480AF06FFA55E712480AF02F
:1008C0006BFABAE711480AF067FA78E710480AF0BD
:1008D00063FAACE70F480AF05FFA89E7740000207A
:1008E00048000020E62F012020080020A8BC0000BE
:1008F000F0BB000000100040001400400020004049
:100900000060004028BC0000C8BB000068BC0000BC
:10091000FCBC000048BD00002DE9F041164D86B03A
:100920006C4606469E46884617460FCD0FC495E88E
:100930000300072384E803000125002430466946AC
:100940008DF80A30CDF810E08DF814508DF809506C
:100950008DF80D408DF80B4003F0D4FA3046414637
:100960003A4603F0C7FA304603F0AEFA0323B36108
:1009700006B0BDE8F08100BFE8BA00002DE9F04301
:10098000484B8DB01B780546884603F0FF04002BCA
:100990005ED101274FF0030902A94FF040208DF8E6
:1009A00008408DF80B408DF80C408DF80D408DF807
:1009B0000E408DF80F408DF810408DF811408DF8E5
:1009C00001408DF802408DF803408DF809708DF8D4
:1009D00000708DF80A9004F06FFC694622464FF0D3
:1009E000402004F0A9FC69463A464FF0402004F04C
:1009F000A3FC2D4E2B684FF0402E06ADCEF82030D4
:100A0000CEF824400FCE0FC596E80300274E98F885
:100A1000008085E803000723304606A98DF82230C0
:100A20008DF821708DF825408DF823408DF82C70BD
:100A30000A9703F067FA304642460C2103F05AFA4F
:100A4000304603F041FAC6F818900DB0BDE8F083C7
:100A5000154D06AC0FCD0FC495E80300134D98F863
:100A60000060012384E8030007222846002406A929
:100A70008DF82C308DF821300A938DF822208DF8D6
:100A800025408DF8234003F03DFA284632460A21DE
:100A900003F030FA284603F017FA0323AB610DB0D8
:100AA000BDE8F083D42F0120E8BA00000010004018
:100AB00030B587B000230124054602A94FF040203D
:100AC0008DF808308DF80B308DF80C308DF80D3026
:100AD0008DF80E308DF80F308DF810308DF8113004
:100AE0008DF801308DF802308DF803308DF80A4012
:100AF0008DF809408DF8004004F0DEFB22464FF0EF
:100B00004020694604F018FC4FF040235D6207B0B6
:100B100030BD00BF10B54FF0402004F025FCBDE80B
:100B2000104001200C210822002305F095BA00BFD7
:100B3000F0B5284D89B002AC0FCD0FC495E8030085
:100B4000002584E803002B46294605244FF48057EE
:100B50004FF4E13604200A228DF808408DF8154044
:100B6000ADF81650ADF81870049605F075FA01212D
:100B70002B460A46042005F06FFA2B460220082176
:100B8000012205F069FA144C022009210A220123EE
:100B900005F062FA28460A2201230E2105F05CFACC
:100BA000204602A905F074FB636D012223F4E06383
:100BB00043F480736365636D082143F00303636549
:100BC000022013468DE824000A4605F00FFA09B00A
:100BD000F0BD00BF00BB000000E00040032020216A
:100BE00001F050BA00B5084A85B052F84C0F01AB7D
:100BF0005168127A03C3054801A91A7005F0CEFBAB
:100C000005B05DF804FB00BFCCBA000000800840CE
:100C10002DE9F0478846E2B04B4F4C4E0146424624
:100C2000814668460AF052F839783378A8F1030211
:100C300003EB81035B00414668468DF801208DF887
:100C4000023000F02DFF0024020A0DF101030DF81F
:100C5000080008F1010E03F808200DF1840C23466A
:100C60000DF185024FF05D0A7D205E210BE07D2DA8
:100C700003F101030CF804500ABF02F804A0013488
:100C8000023473450BDC1DF803507E2DEFD1013388
:100C900073450CF80400115504F10204F3DD4146DC
:100CA000484601F06BFB2A487E2105F065FB0DF1FB
:100CB0008308A0440DF1830515F8011F244805F0B1
:100CC0005BFB4545F8D122487E2105F055FB214BC1
:100CD0001B784BB100203278002382F00102327081
:100CE0003B7062B0BDE8F0874FF47A7001F0F6FD1A
:100CF0000028EFD00DF18309174DA1444FF0030AEE
:100D0000002413487E2105F037FB0DF1830818F805
:100D1000011F0F4805F030FBC845F8D10C487E2173
:100D200005F02AFB2046294600220C4B08F03CFD2A
:100D30000D46044608F0D2FF01F0D0FD0028C9D0CE
:100D4000BAF1010ADDD1C6E75200002049000020B7
:100D500000E000402508002000408F400000F83FE0
:100D600030B5847887B00278002344F001046846E7
:100D700004210093ADF804308DF800208DF8024076
:100D800000F08EFE9DF80030020A7E2B8DF80400E4
:100D90008DF8052054D07D2B00F0A3808DF808300D
:100DA00001259DF801307E2B56D006AA7D2B2A44C2
:100DB00000F0908002F8103C01359DF802307E2B47
:100DC00057D006AA7D2B2A4400F0998002F8103CE7
:100DD00001359DF803307E2B58D006AA7D2B2A447E
:100DE00000F0868002F8103C01359DF804307E2B1F
:100DF00059D006AA7D2B2A4400F08F8002F8103CBF
:100E000001359DF805307E2B5AD006AA7D2B2A4449
:100E10007CD002F8103C013543487E2105F0ACFA45
:100E20000DF10704254414F8011F3F4805F0A4FA0A
:100E3000AC42F8D13C487E2105F09EFA07B030BDA7
:100E40005E238DF809309DF801307D227E2B8DF8D0
:100E500008204FF00205A8D106AB2B447D215E226D
:100E600003F8101C03F80F2C9DF8023002357E2B7E
:100E7000A7D106AB2B447D215E2203F8101C03F89A
:100E80000F2C9DF8033002357E2BA6D106AB2B44E8
:100E90007D215E2203F8101C03F80F2C9DF804300E
:100EA00002357E2BA5D106AB2B447D215E2203F8B3
:100EB000101C03F80F2C9DF8053002357E2BA4D1B1
:100EC00006AB2B447D215E22023503F8101C03F88B
:100ED0000F2CA1E75D2102F8103C023502F80F1C2F
:100EE0006BE75D228DF808308DF80920022558E760
:100EF0005D2102F8103C023502F80F1C75E75D21F8
:100F000002F8103C023502F80F1C62E75D2102F87E
:100F1000103C023502F80F1C7EE75D2102F8103C00
:100F2000023502F80F1C6CE700E00040062970B59E
:100F300002DD03787E2B01D0002070BD431813F82A
:100F4000013C7E2BF8D11E4601390022012305E029
:100F5000845401338B4202F101020FDAC45C7D2C10
:100F6000F6D1C5186D785D2D04D05E2D04D1865460
:100F70000133EEE78454FBE79942DDDC941E013A2D
:100F8000855C035D214603EB052500F089FDADB2CC
:100F90008542D1D1204670BDF0B50F4D0F4C2B6866
:100FA0000122002B267883B0227011DB4FF0160E41
:100FB0000227684604218DF803308DF801208DF852
:100FC00000E08DF80270FFF723FE4FF0FF332B6037
:100FD000267003B0F0BD00BF4C00002025080020A3
:100FE0002DE9F04F4C494D4D0B68B9B00122002B53
:100FF0002E7814AC2A7012DB4FF0160E2046022712
:1010000004218DF851208DF853308DF850E08DF883
:101010005270FFF7FDFD404A4FF0FF331360404B25
:101020002E701B684FF0050909930AAB4FF47A7ACA
:1010300008930125099A042120462260FFF7E8FD64
:1010400001F098F9064601F08FF933784FF0000C63
:101050008DF831C00D938DF830500E950F950DF130
:10106000300E6F46CDE90A01BEE80F000FC74FF002
:10107000FF36CDF844C0CDF848C010969EE80F006A
:1010800087E80F000899204691E80C00614601F0BE
:10109000E7FA4FF002084FF0170B4FF0030CF02364
:1010A000B922062100BB9DF8547020468DF85430BB
:1010B0008DF850B08DF851C08DF852808DF85520C4
:1010C0008DF85370FFF7A4FD04211623E8B12046E4
:1010D0008DF850308DF851508DF852808DF8537046
:1010E000FFF796FD0C4B1E60B9F1010F07D050467B
:1010F00009F1FF3901F032F94FEA4A0A9AE7064945
:101100000868C01739B0BDE8F08F034A3846C017E9
:10111000176039B0BDE8F08F4C0000202508002092
:101120008CBD00002DE9F04FB9B001F05FF9444BE0
:101130000446D3F800A00D464FF0030B4FF47A7825
:101140000DF12809042108A8CDF820A0FFF760FDC3
:101150004FF0000E012302210B228DF831E08DF8B3
:1011600030300F930D910E920CAF6E460FCF0FC61D
:101170004FF0FF33CDF844E0CDF848E0109397E806
:101180000F00CDE90A4586E80F00414699E80C00BA
:1011900014A801F065FAD0F10106404638BF0026D8
:1011A00008F0EAFE4FF07F5108F03EFF09F028F901
:1011B000BBF1010B80462DD0002EC3D09DF85540C9
:1011C000204B023C1B78032C8CBF0024012443BB22
:1011D0006CB31D4D1D4C2B680122002B267822700C
:1011E00011DB4FF0160E08A8022704218DF82330DA
:1011F0008DF821208DF820E08DF82270FFF708FD92
:101200004FF0FF332B6000202670FFF7E9FE39B066
:10121000BDE8F08F002ED1D10A4B5C461B78002B25
:10122000D6D00B48214609F0B7FD002CD1D1064B92
:101230004FF0FF321A60FFF7A7F839B0BDE8F08F22
:1012400090BD0000740000204C0000202508002004
:10125000ACBD00002DE9F04F97B0037802AF0F2B23
:10126000044673D0192B43D00D2B03D05437BD4601
:10127000BDE8F08FBA4BC2791978FA75B960217C54
:10128000A27C7960617C90F808B0F960796890F888
:1012900009A090F80A9090F80B8090F80CC0467B5B
:1012A000857BB976C07BF9683A76BA6887F816B05C
:1012B00087F815A087F8149087F8138087F812C074
:1012C0007E743D74F8767976002A00F0BF80A549D7
:1012D00001200022087007F110051A70A24C2B465D
:1012E000543707CB20606160A260BD46BDE8F08F37
:1012F000D0F88030162BB9DD817DA3F117051029B8
:10130000B4D801A353F821F0451600003F160000A1
:101310006D1200006D120000151600005716000037
:10132000E91500006D120000B91500006D120000F3
:101330006D1200006D120000E7140000DF140000C1
:10134000D7140000B114000087140000427983799B
:1013500003EB0223082B00F0158233DD202B00F075
:10136000D98140F3AE81802B7BD0B3F5807F7FF4B1
:101370007DAF7E4B1B7813B17D4809F00DFD7D4D8F
:101380007D4C2B6800207D4901228342267808701D
:10139000227011DB4FF0160C4FF0020E07F1100017
:1013A0000421FB747A7487F810C087F812E0FFF705
:1013B0002FFC4FF0FF332B600A20267000F0CEFF89
:1013C0006F4836E0022B00F0B681042B52D0012B7F
:1013D0007FF44CAF654B1B7813B16A4809F0DCFC15
:1013E000644D654C2B680122002B2678227011DB9E
:1013F0004FF0160C4FF0020E07F110000421FB74A1
:101400007A7487F810C087F812E0FFF701FC4FF0FC
:10141000FF332B605C495D4A584D01234FF0000EAD
:101420000A20267085F800E00B70137000F096FF1C
:10143000534802F0A1FE564A564BD16821F00101F3
:10144000D160DA6822F00102DA600FE7BB69D4E903
:10145000220107F11005009395E80C0001F09CFFB4
:101460003CE7424B1B78002B3FF400AF4A4809F0A1
:1014700093FCFBE63D4B1B78002B3FF4F7AE47484F
:1014800009F08AFCF2E6464A464B1168012201F156
:101490002C0034311A70FFF771FAFFF73BFB334B26
:1014A0001B78002B3FF4E2AE3F4809F075FCDDE607
:1014B0003B4A3C4B1168002201F12C0034311A7078
:1014C000FFF75CFA294B1B78002B3FF4CFAE37486F
:1014D00009F062FCCAE60120FEF728FFC6E60020FC
:1014E000FEF724FFC2E6214B1B7813B1304809F008
:1014F00053FC304B01251D70FEF7B6FF244B254AE7
:10150000D968184621F00101D960D368194E23F03B
:101510000103D36002F0DEFC4FF0402003F024FF13
:10152000174802F029FEFFF7DFF83368124C002B52
:1015300094F8008025700FDB4FF0160E022207F1A1
:1015400010000421FB747D7487F810E0BA74FFF773
:101550005FFB4FF0FF33336084F8008086E600BF06
:10156000E52F0120C02E012030C001207400002092
:1015700038BF00004C00002025080020240800206F
:1015800000200040E0BD0000520000204900002083
:10159000001000400014004000BF000028BE000002
:1015A000C8BA0000D42F01202CC0000010C00000D9
:1015B000D4BF0000C22E01208E4E3378002B40F0A5
:1015C000108107F045FA00287FF450AE0B2D7FF410
:1015D0004DAE204602F024F83378002B3FF446AE9F
:1015E000854809F0D9FB41E63A2D7FF43FAE00F182
:1015F00017012A4607F1100009F068FB07F11000F7
:10160000FEF7E2FD7D4B196801F12C003431FFF744
:10161000B5F92BE607F01CFA00287FF427AE002D61
:101620007FF424AE764A774BD16821F00101D16076
:10163000DA6822F00102DA6007F0C0FA16E606F076
:101640007DFF13E66B4B1B7813B16F4809F0A4FBC9
:10165000FEF734FF0AE6694B6D46196890B0042323
:101660008DF808300DF109003A2209F02FFB674B85
:101670000DF108081B7813B3654E3368002B1EDB91
:10168000E94696B002AC63491822204609F01EFBD9
:10169000614B41461B880DF122001A0A23766276BF
:1016A0003B2209F013FB33682046E3705521FFF716
:1016B000AFFA504B1B78002B40F09780CD46AD46DB
:1016C000D4E5102B7FF4D2AD4A4B1B7813B15348AD
:1016D00009F062FB4E4D524C2B680122002B2678FC
:1016E000227011DB4FF0160C4FF0020E07F11000C4
:1016F0000421FB747A7487F810C087F812E0FFF7B2
:1017000087FA4FF0FF332B60404B0022454826708C
:101710001A708EE60020FFF763FC364B00281B781A
:1017200055DB13B1404809F037FB384B01221A70E2
:1017300006F004FF9AE52F4B1B7813B13B4809F0E4
:101740002BFB324B324D00221A70FEF73FFE2B6806
:10175000334C0122002B2678227011DB4FF0160C3F
:101760004FF0020E07F110000421FB747A7487F821
:1017700010C087F812E0FFF74BFA4FF0FF332B60F1
:10178000267073E51B4B1B7813B1294809F004FB45
:101790001F4D234C2B680122002B2678227011DB71
:1017A0004FF0160C4FF0020E07F110000421FB74ED
:1017B0007A7487F810C087F812E0FFF729FA4FF023
:1017C000FF332B60114B002226701A704EE513B1C7
:1017D000184809F0E1FA0D4B00221A70FEF7D4FD0B
:1017E00044E5154809F0D8FAEBE6144809F0D4FAB4
:1017F00064E700BF74000020B0BF0000C8BA00005A
:1018000000100040001400405CBF000024080020CD
:101810004C00002094BD00005000002080BE00005D
:101820002508002000200040DCBE000004BE0000AF
:1018300058BE0000A4BE00008CBF00007CBF0000AA
:101840002DE9F04F664DC3B0002B14BF9A46AA464F
:10185000BAF800309146013208AF4FF6FF74D2B2A9
:10186000A3423962FA615F4902F1210208BF0023F5
:101870004FEAD202786208BFAAF80030DFF8788118
:10188000FA600B80012409F1080B45E0D8F800301C
:10189000002B3EDBBAF800202525FD63002301263E
:1018A00003204FF0FF3587F8386087F839307B64C4
:1018B000BD6438644FF0020CD1B207F1380E120A41
:1018C0006D4607F12806C7F84CC0FA62B962D7E93D
:1018D00004233E65C7E90C23BEE80F000FC59EE850
:1018E0000F0085E80F0007F130030CCB07F158001B
:1018F000C7F804C04FF47A7100F0B2FED7F804C004
:10190000002858D197F85D00003018BF012000284A
:1019100052D001340B2C60D00BF4FC737A6A6E4603
:10192000ADEB030D8DF820200DF121004A46396AF8
:1019300009F0CCF92C4B1A7808AB002A32D0D8F831
:101940000020DFF8B4C0002A2CDBF9686A46A2EB5D
:10195000C102C7F818D0954608AD24491822284678
:10196000C7F804C0BB6009F0B1F91E49BB680A881A
:101970001946130A2A766B76FA690DF13A0009F0D6
:10198000A5F9D7F804C0FA69DCF8003002F11A01B1
:10199000EB702846C9B2FFF73BF9154B1B78C3B96A
:1019A000BB699D46012CB5467FF470AF00F0DCFCAE
:1019B000C7E904016AE76046BAF8002009494FF612
:1019C000FF730132EC37AAF800200B80BD46BDE85A
:1019D000F08F084809F0E0F9E2E70120ECE700BFEA
:1019E00022080020500000202408002094BD0000A0
:1019F000740000207CBF00004C0000202DE9F04165
:101A000002F1080303F4FC7300AFADEB030D6B466A
:101A100003F8010B1846541C09F058F91A4B6E468E
:101A20001B7853B3194D2B68002B26DBE4B204F16D
:101A3000210303F4FC73E846ADEB030D14491822AF
:101A4000684609F043F9134B31461B880DF11A0023
:101A50001A0A8DF818308DF81920224609F036F947
:101A60002B6804F11A018DF80330C9B26846FFF7FC
:101A7000CFF8094B1B781BB9C546BD46BDE8F081C0
:101A8000064809F089F9F7E7240800204C000020F7
:101A900094BD000050000020740000207CBF0000B6
:101AA00030B489B1094D00234FF6FF72C45C013395
:101AB0005440E4B235F814408B4284EA1222F5D146
:101AC000D24390B230BC70470846FBE748C00000E4
:101AD000014B1868704700BF28080020014B1868A8
:101AE000704700BF28300120344B2DE9F0431B68BC
:101AF000334C1B68266891B003EB863606EB412613
:101B0000044630460D46174604F0D8FC033048D052
:101B1000394606A8252209F0D9F8E700294E35B341
:101B20003D1906EB45054FF0FF314FF00008CDF8A9
:101B30000080002300226970A970E970297102A851
:101B400002F03EF8DDF808C0039804996B1D05F11A
:101B50001002C5F805C058609960032582F801801D
:101B60003C4406F81450002011B0BDE8F083BDF8E5
:101B70001C10BDF81E203B199DF83C9006EB43035A
:101B80000DF1300CA3F80110A3F8032083F8119095
:101B9000BCE80700C3F80500C3F80910C3F80D201E
:101BA000DEE7304604F06CFD064B04EBC404022271
:101BB00003F814204FF0FF30D6E700BF2830012093
:101BC00028080020303001202DE9F04F6E4C93B0F2
:101BD0002378804603911546002B6DD1002A6BD1E6
:101BE0006A4A6B4F02EB482003994FF4007209F0E8
:101BF0006DF83C68674A0123002C02F80830C0F2F7
:101C0000BF80DFF89CB1644E9A46DBF8001009688B
:101C100001EB84310291002D5CD1604A5D4B08F1EB
:101C2000FF3542440AEB02091D444FEA482A204688
:101C300003E04D450AF5007A14D015F8013F002B5A
:101C4000F7D0DBF8003051491B685144534403EB93
:101C5000803004F0DBFE033067D04D4538680AF56C
:101C6000007AEAD10446039908A8252209F02EF843
:101C7000B8F1000F35D14FEAC409BDF82410BDF802
:101C8000262009EB04039DF844A006EB43030EADA8
:101C9000A3F80110A3F8032083F811A007CDC3F81F
:101CA0000500C3F80910C3F80D204C44386806F845
:101CB000148013B0BDE8F08FFF214FF48042334809
:101CC00009F00DF833480021202209F008F800231C
:101CD000237085E7084604F0F1FB033025D03C680B
:101CE0009BE74FEAC40909EB040506EB45054FF0F5
:101CF000FF314FF0000ACDF800A004A86970A97068
:101D0000E97029710022002301F05AFFDDF810C0AC
:101D1000059806994FF00308C5F805C0C5F80900F5
:101D2000C5F80D1085F811A0BFE7029804F0A8FCD3
:101D30003C684FF0020204EBC403002C06F81320A9
:101D40001CDB611CC1F30A010C4602E0994212D06F
:101D50001C4604EBC40316F81320631C022AC3F3C9
:101D60000A03F3D0002C3C6008DB4FF0000801258B
:101D70004FF0200A49E74FF0FF343C60204698E7D7
:101D80004FF0FF3095E700BF530000204C080020C3
:101D9000280800202C080020303001202B080020CB
:101DA0002830012030B40F4D2868002812DB0130A4
:101DB000C0F30A0108460C4C02E099420CD01846C8
:101DC00000EBC00314F81320431C022AC3F30A03D8
:101DD000F3D0286030BC70474FF0FF30286030BC33
:101DE000704700BF28080020303001202DE9F04F57
:101DF00091B000AF05F06CF8052004F0B9FB04F0D9
:101E0000F1FA9049DFF86C920B78C9F8000043B3FF
:101E10000B78002B40F0C9808A4A1378002B40F0E1
:101E2000CC8088490B78002B40F0D280854A13780B
:101E3000002B40F0D88083490B78002B40F0DF80E6
:101E4000804A1378002B40F0E5807E490B78002B08
:101E500040F0EB807B4A1378002B40F0A280D9F849
:101E60000000C268036900269A4228BF1346073360
:101E700023F00703ADEB030D4FF0FF33DFF8CCB1D8
:101E800004687B60E8463546FB607B610CE002231A
:101E90000BF80630D9F8003001355B69B5F5006FF5
:101EA00006F112061C4455D02046414604F02EFD92
:101EB00098F80530FF2BEAD12046414604F052FC49
:101EC000824618B101230BF80630E3E7414625228C
:101ED00007F1180008F0FAFE4FF00103B8695A49FB
:101EE0003B6008F035FA3B6800B1534613F0FF0F32
:101EF0000BF806300BEB060CCCD1FB8B534905EBF2
:101F0000C50201EB4202BB600CF105013961B7F873
:101F10001CA0B96807F13003A2F801A0A2F80310D1
:101F200007CB3B69CCF8050059609A607B690133A7
:101F30000AD0FB689A4507DC5345ABD1BB6879688A
:101F40008B42A7DD7B6003E0BB68C7F80CA07B6019
:101F50007D619FE77B693E4C5A1C1ABF581CC0F339
:101F60000A000020034602E0824216D0134603EB2B
:101F7000C3021BF812105A1C0229C2F30A02F3D042
:101F8000236030490B781BB13248F96808F004FF30
:101F9000F8684437BD46BDE8F08F4FF0FF3323604B
:101FA000EFE70A2008F010FF59E72B4808F0F4FE8D
:101FB000244A1378002B3FF434AFD9F80030274877
:101FC000197908F0E9FE1F490B78002B3FF42EAF7A
:101FD000D9F800302248597908F0DEFE194A137802
:101FE000002B3FF428AFD9F800301E4899680A0D3D
:101FF00008F0D2FE13490B78002B3FF421AFD9F83B
:1020000000301948D96808F0C7FE0E4A1378002B33
:102010003FF41BAFD9F800301448196908F0BCFE32
:1020200008490B78002B3FF415AFD9F80030104861
:10203000596908F0B1FE034A1378002B3FF40FAF43
:10204000AFE700BF74000020E42C283F30300120AF
:102050002808002024C3000048C200006CC2000011
:102060008CC20000ACC20000D0C20000ECC2000074
:1020700008C3000028300120014B01221A7070476C
:102080004C480020F0B5194B012583B0184C074689
:102090000E46184829461D7002F0EEFC39461648D7
:1020A00002F062FD3146204602F0B6F9204602F009
:1020B000DBFB124B29461860204602F0DDFC0023B2
:1020C00001A88DF804308DF805308DF8063004F045
:1020D000AFF80B490B4BC8694FF0804220F0070066
:1020E000C861C3F880211A6003B0F0BD4D480020DC
:1020F000601610000043020002001800544800203F
:102100000000084000E100E010B5094C094B62688E
:1021100000201A6004F088F80223A361064BE269EC
:102120001B6822F00202E26103B1984710BD00BFB4
:102130000000084050480020584800202DE9F04198
:10214000064682B000200F4604F06EF8254B1C783E
:10215000CCB1254D254A264C02231760A36129687E
:10216000244B01FB06F6A3FB06210020890904F09D
:102170004DF8012004F058F8E36943F00203E361ED
:1021800002B0BDE8F0814FF0010841461A4883F8DB
:10219000008002F071FC1948032102F0E5FC2021C7
:1021A000174802F039F9164802F05EFB0E4D414621
:1021B0002860134802F060FC01A88DF804408DF8F7
:1021C00005408DF8064004F033F809490D4BC86905
:1021D0004FF0804220F00700C861C3F880211A60E8
:1021E000B8E700BF4D480020544800205848002060
:1021F00000000840D34D62100043020002001800A6
:102200006016100000E100E02DE9F84F494C002372
:10221000074649480D46237002F026FB474906460B
:102220002846FFF78BFFBD424AD8454A04E01369B0
:1022300023F00403136130BF2378002BF7D0414D06
:10224000DFF8148172B62B683E495A1C36D05A1CEE
:102250000A60237803F0FF00E3B1013A2A6002B973
:1022600062B6D8F8000007F087FE0446304607F053
:1022700083FE0146204607F08BFF334907F0D4FE6A
:1022800007F03EFA0022314B07F0DCF807F04EFD74
:10229000BDE8F88F2E4C6368C8F8003003F0C4FF27
:1022A0000223A3612B4BE2691B6822F00202E26168
:1022B00003B198472A68002AD3D0CEE71A46C8E768
:1022C000204DDFF89480DFF878A0DFF884901CE0E0
:1022D000D8F80000013B2B6003B962B607F04CFE52
:1022E0008346304607F048FE0146584607F050FF47
:1022F000154907F099FE07F003FA0022134B07F087
:10230000A1F807F013FD87429CD92378002B99D1BF
:10231000DAF8103023F00403CAF8103030BF72B678
:102320002B682278591C18BF0133002AD0D1D9F864
:102330000400CFE74C480020601610007920000010
:1023400000ED00E0D408012000007A440000E03FE6
:102350000000084058480020504800200146FFF780
:1023600053BF00BFFFF750BF014BD3E900017047D7
:10237000A853002000487047B053002030B4054BEC
:10238000054C0A4630CC0146C3E9004530BC034841
:1023900008F09CBCA853002060480020B0530020E7
:1023A0002DE9F047DFF8408006468A461422D8E936
:1023B0000001002308F044F8D8E9004502EBC2020E
:1023C00008EB02193146661C09F1080945F10007BE
:1023D000C8E9006748465246C9E9224508F076FC3C
:1023E000C9F880A0BDE8F0876048002010B4064C12
:1023F000D4E90001D4E90023994208BF9042F7D103
:102400005DF8044B704700BF6048002082B02DE9A2
:10241000F04FB1B03AA981E80C00419A9DF8F13033
:1024200008920593409A429B3F999DF8F090DDF801
:10243000F480DDF8F8C0894E0792099306910B905D
:10244000DDE93A01D6E900ABD6E900239B4508BF98
:102450009245F7D15AEA0B0200F0F680D6E9004522
:10246000D6E900239D4208BF9442F7D1002D08BF52
:10247000142C77D2059B00240025002B78D18D42A7
:1024800008BF84423CBF04460D46B9F1000F7AD123
:1024900022462B464FF0FF304FF0FF311AF1FF3448
:1024A000CDE902014BF1FF3512EB000A43EB010BC2
:1024B000089B0CA81844CDE900AB0A90E346B9F19B
:1024C000000F3ED0DDE900239D4208BF94422CBF9F
:1024D00000230123002B3ED020462946142200234E
:1024E00007F0AEFF02EBC202120102F1080306EB95
:1024F000030ADAE922018D4208BF84420DD157490F
:102500000CA811440831902208F0E0FBDAE92223FC
:102510009D4208BF94422C9F02D0059900297BD18F
:10252000B8F1000F34DB002F03DD9DF83030434558
:102530002ED0DDE90201241845EB0105B9F1000FA9
:10254000C0D1DDE90001A94208BFA0422CBF002391
:102550000123002BC0D16FF0030031B0BDE8F04F74
:1025600002B07047059B143C45F1FF35002B86D027
:10257000B9F1000F57D0A94208BFA0426AD38D42DB
:1025800008BF844259D301220023CDE902238FE7FB
:10259000BBF1000F05DB012FCBDD9DF831305B4532
:1025A000C7D1069900292ADB022FC2DD9DF83230FF
:1025B00003F001028A42BCD10798002827DA089963
:1025C000002944DD099A0DF1300CDDF828A0111F17
:1025D000634651F8042F002A02DBD8788242A8D142
:1025E00001335345F5D10B98614690222C9708F0A2
:1025F0006DFB002031B0BDE8F04F02B07047079A84
:10260000002ADCDB022F94DD9DF832300798C3F3FB
:10261000400383428DD1D2E76FF0020031B0BDE8B4
:10262000F04F02B0704722462B468B4208BF8242D1
:10263000BFF430AF02460B462CE7012200230446CC
:102640000D46CDE9022333E74FF0FF30D2E70DF11D
:10265000300CC8E76FF00100CCE700BF60480020F5
:1026600082B02DE9F04FB9B042AC84E80C00DFF83D
:102670006882139010915E469DF811419DF810916B
:102680000C94479C459F0D94489CDDF818C10E940E
:10269000499C42AA0F944A9CD2E900011194D8E9BE
:1026A00000ABD8E900239B4508BF9245F7D15AEA11
:1026B0000B037ED0D8E90045D8E900239D4208BF2E
:1026C0009442F7D1002D08BF142CC0F0E2800C9A80
:1026D000143C45F1FF35002A40F0E1808D4208BFEF
:1026E00084423CBF04460D46B9F1000F40F0E4803F
:1026F00022462B464FF0FF304FF0FF311AF1FF34E6
:10270000CDE90A014BF1FF3512EB000A43EB010B57
:102710000F9B14A81844CDE908AB1290E346B9F119
:10272000000F3CD0DDE908018D4208BF84422CBF78
:1027300000230123002B3CD02046294614220023ED
:1027400007F07EFE02EBC202120102F1080308EB61
:10275000030ADAE922018D4208BF84420DD15E49A5
:1027600014A811440831902208F0B0FADAE92223C3
:102770009D4208BF9442349E01D00C98C8B9002FE6
:102780003DDB002E03DD9DF85030BB4237D0DDE944
:102790000A23A41845EB0305B9F1000FC2D1DDE906
:1027A0000823AB4208BFA2422CBF00230123002B09
:1027B000C2D1109C002C0BDD21460A29A8BF0A219A
:1027C0000120FFF7CFFD241A002C10943FF754AFDF
:1027D00044AD6C460FCD0FC495E80F0084E80F00A0
:1027E00042A991E80C001398FFF710FE003018BFC3
:1027F0000120404239B0BDE8F04F02B07047BBF154
:10280000000F05DB012EC2DD9DF851309B45BED186
:102810000D9900292BDB022EB9DD9DF8523003F013
:1028200001028A42B3D10E98002828DA0F9B002BB0
:102830002CDD1199DDF848C0081F14A90B4650F88B
:10284000042F002A03DB93F803E072459FD1013384
:102850006345F4D1B34613989022CDF8D0B008F078
:1028600035FA002039B0BDE8F04F02B070470E9A3B
:10287000002ADBDB022E8ADD9DF852300E98C3F36E
:102880004003984283D10F9B002BD2DCB34614A99E
:10289000E1E70C9A00240025002A3FF41FAFB9F1AC
:1028A000000F0ED0A94208BFA04282D38D4208BFBC
:1028B000844201D204460D4601220023CDE90A23B9
:1028C00026E722462B468B4208BF8242BFF412AF56
:1028D00002460B460EE700BF604800202DE9F04F8E
:1028E000E1B060AC0C94DDF83080634A634BD2E910
:1028F000004568E9524593F800B0CDF83080CDE945
:102900000A45DFF87C810C9D002301215FFA8BF4DE
:102910004FF0FF3209940D90297269616B72EB617F
:102920002B62EC602A61AA61C246D8E90067D8E947
:1029300000239F4208BF9642F7D156EA070057D0BE
:10294000D8E90045D8E900239D4208BF9442F7D159
:10295000002D08BF142CC0F08C80143C45F1FF35CD
:10296000DDE90A018D4208BF844205D204460D46C6
:1029700002E0013445F10005BD4208BFB4422046E3
:1029800029464FF014024FF0000331D207F058FDF2
:1029900002EBC202120102F1080308EB030BDBE9B0
:1029A00022018D4208BF84420AD10AEB020108319C
:1029B00090223CA808F08AF9DBE92223DDF8709127
:1029C000B9F1020FD5DD9DF8F03009999942D0D1C7
:1029D0009DF8F230DB07CCD518AD28463CA99022F3
:1029E000CDF8709108F072F9E87861B0BDE8F08F29
:1029F0000D9C002C0BDD21460A29A8BF0A210120CD
:102A0000FFF7B0FC0D9C241A002C0D948DDCDDF832
:102A10003080099D002301224FF0FF36C8F80C508A
:102A2000C8F81C30C8F82030C8F8186088F80820AA
:102A3000C8F8142088F80930C8F8106010AD6C464A
:102A40000FCD0FC495E80F000C9DDDE90A89C5E99B
:102A5000008984E80F00DDF8308018AD98E80C009C
:102A60002846FFF7D3FC0028BED0304661B0BDE851
:102A7000F08F0024002573E7A8530020B0530020F6
:102A80006048002072B6074A07491368581C03D0F3
:102A900088682BB962B670476FF0010388681360CD
:102AA000704700BFD4080120505400202DE9F04F9A
:102AB00001298BB00691099240F29D8000240025E7
:102AC000CDE90045504D4FF6FF722A6007929246BD
:102AD0004E494F4A0023DDE900451F46A0F1020997
:102AE000984608939B461E460B601360CDE904454B
:102AF000CDE9024500E0BB4639F8024FA4F5FF4599
:102B00007F3D284606F0EAFD02460B46DDE902015C
:102B100006F098FCCDE9020105FB05F006F0DEFDAC
:102B200002460B46DDE9040106F08CFCCDE9040108
:102B3000204606F0D3FD02460B46DDE9000106F013
:102B400081FC5C4588BFB04688BF27465445CDE927
:102B5000000102D20794A2460896069D0136AE42B5
:102B6000C9D1079C284D2B4B2C602849284A089C2A
:102B7000099D0F60C2F800801C600698002D3ED0B1
:102B800006F09CFD04460D4622462B46DDE9020177
:102B900006F034FF07F0EAF80999086022462B4650
:102BA000DDE9000106F02AFF07F0E0F81A4B186093
:102BB000DDE9020102460B4606F0F6FD22462B46F1
:102BC00006F01CFF0B460246DDE9040106F038FC66
:102BD000069A0446501E0D4606F070FD02460B464E
:102BE0002046294606F00AFF04F0E4FC07F0BEF890
:102BF0000BB0BDE8F08F00200BB0BDE8F08F06F001
:102C00005DFD04460D46C9E73054002034540020D1
:102C1000C008012044540020485400202DE9F04F02
:102C20008BB05F2900AF0D460646FA613B6140F26A
:102C3000AC804B00083323F00703ADEB030D0023FA
:102C4000984613709A46524BADF1020C1B68C7F8B8
:102C50000CC07B61DFF858C14E4BC7F818D000217B
:102C6000F8680A464FEA480406EB8101095B013225
:102C7000AA4220F8021F1146F6D14FEA880907F14F
:102C800020024A442946B86987E80810FFF70EFF7A
:102C900039697A6941F828004A44D1698346BA60A3
:102CA00007F074FBBA680028D168584618BF4FF087
:102CB000010A07F06BFB97E8081030B1012000FA19
:102CC00008F2F86901780A430270334A3348116800
:102CD0000268386D08F101080153786DDCF80010C6
:102CE00002532F48B8F1020F0268B86D0153F86D16
:102CF000196802533C6E44F80910B0D1BAF1000FC4
:102D000004D100202C37BD46BDE8F08F254B264965
:102D10001A6843F62040A1FB0261490801EB41011A
:102D2000521A00FB02321032D7F814C0517DDCF881
:102D300004400029E5D172B61C48926901684E1C16
:102D400012D0DFF84CC01444DCF800609A682544C7
:102D5000B468954228BF2A46A24294BF9A609C60FC
:102D60000029CED162B6CCE7094E144431689A6886
:102D700025448C68954228BF2A466FF00101A24283
:102D800094BF9A609C600160BBE74FF0FF30B9E7E9
:102D9000C8BA0000485400203454002030540020A9
:102DA0004454002050540020ABAAAAAAD408012001
:102DB000C00801202DE9F04FADF6DC0D72B6874852
:102DC000874A03685168581C18BF0133002900F076
:102DD000D2811668834943F62040A1FB0641490889
:102DE00001EB4101711A00FB012202F11007FC699D
:102DF000787D14941499BC69B1F5C07F129080F06D
:102E00007181002808BF00210D917448013B0360C7
:102E1000002B31D162B60D99BB69002930D10D9CD0
:102E20002344BB6172B66D4E0D9C3268531CFB6926
:102E300018BF01321B1BB3F5C07FFB61C0F0568188
:102E4000797D002900F05C81002B40F0598101233D
:102E500063484168624C01392068013084E803000E
:102E60005E4E013A326002B962B6002BA6D1002054
:102E70000DF6DC0DBDE8F08F0D9923460029CED06C
:102E8000594AA2FB0302D20AC2EB0212A3EB0222AE
:102E9000C2F570658D4228BF0D464FEA850802F1E4
:102EA000080107EB81014246B6A807F00FFF0D9914
:102EB000A94200F250810DF15C090DF160080DF19D
:102EC000640B0DF1680A1DAD16AA1BABCDF800907E
:102ED000CDF80480CDF808B0CDF80CA00495B6A8C4
:102EE000FFF79CFE20B99DF85830002B40F04F8131
:102EF000FEF7EEFD0028C0F222810D99B6AB8A00E4
:102F000003EB8100C2F5C062FF2107F0E8FE0D98D7
:102F100007F032F84FF0705107F086F806F0F0FB3A
:102F200004F05EF806F0DAFE0028159040F3078101
:102F3000B6B209960B94B6AE0D9C0F96002610946F
:102F40000E96BB460B9C294EE509A6FB05640B9E1D
:102F5000C4EB4414B6EBC4142548099E14BF0022E8
:102F600001220680129E2EB1149E0D98864200F01A
:102F7000E880002611961F491E4E08680F99431CD1
:102F80003360FEF721FE0028C0F2D880B4F57062ED
:102F9000544254411394119C44B99BF81430002BB3
:102FA00000F0B380139C002C00F0B680FEF790FD7B
:102FB0000E4E0B9AA6FB0565109CC5EB4513802CA5
:102FC00094BF12198032A2EBC3130A935B460C9094
:102FD00082464FF00009AB461E4677E0D408012038
:102FE00050540020ABAAAAAA898888888810420871
:102FF000C408012054000020924807EBC70310F8D2
:10300000133006F10808022B5BD0032B7AD1BBF1F9
:10301000000F77DB98E807000A9CB9F1000F18BF92
:103020004FF47864089400F0ABFD044658460D4612
:1030300006F054FB844BD3E90023CDE9062300229C
:10304000824B06F0B1FBDDE9062306F0D7FC024611
:103050000B462046294606F0F5F902460B4622A803
:1030600000F062FD98E8070025AB83E80700002127
:103070004FF4007236A8357D07F031FE0898744988
:10308000099A1FFA8BF48DF8A050ADF88240219078
:103090001F91ADF880201FAD36AC0FCD0FC40FCD02
:1030A0000FC495E8030044F8040B217036AA384693
:1030B0000021B9F1000F00F0BB80FEF715FD0BF108
:1030C000FF3B09F10109B9F5006F1BD0BAF1000F00
:1030D00057460AF1FF3A8FDA0C9C04F5006CC9EBF5
:1030E0000C0789E74FF4C0720D928EE6002B30D1A9
:1030F000584E7168012938D97B7D0BB10123A9E6AF
:103100000123ADE6119CB3460CB9139E26B1524E75
:1031100001233360FEF746FE0E9C0B9E0134803681
:103120000E940B960F9C109E04F50074803E0F9435
:1031300010960E9C159EB4427FF404AF5F46BB69A7
:103140006DE6159E731E0E9EF11A4B424B41119374
:1031500011E77B7D84E64A1BB6A807F120019200A7
:10316000404407F0B3FD0D99A5E6797D00297FF471
:103170006FAE0B4674E6394C013B2360002B7FF4A5
:1031800076AE62B600200DF6DC0DBDE8F08F1BA90F
:1031900008222EA807F09AFD4946042232A807F01B
:1031A00095FD4146042233A807F090FD59460422BC
:1031B00034A807F08BFD5146042235A807F086FDA0
:1031C0002946082230A807F081FD224A43F6204113
:1031D0001368234ADFF890C0A2FB0302520802EBF7
:1031E00042021C489B1A01FB0302D2F828E029ADD9
:1031F00002F1180393E80700C5F80CE085E8070022
:10320000DCF80000174906F00FFF07F0F9F8DFF8C7
:103210005C80288298F80090012329460A203422F5
:103220006E8288F80030FEF7E9FB88F800905FE6D0
:10323000114648464A46FEF7C7FC0028BFF63FAF96
:1032400037467CE730300120203001200000AF40BD
:10325000E42C283F5054002054000020D4080120C2
:10326000ABAAAAAA0000C8425800002025080020E6
:103270000A4B5A6882B1186809490244013AA1FB15
:103280000201490801EB4101521A43F6204101FBBA
:103290000233012283F82520704700BF50540020DC
:1032A000ABAAAAAA174B30B493E8140016492244DB
:1032B000013AA1FB0241490801EB4101521A43F6D0
:1032C000204505FB023393F8252010331AB9DA693B
:1032D000B2F5706F01D330BC704799690B4C114443
:1032E000A4FB0154E40AC4EB0414A1EB0424551C10
:1032F00008340146DD6103EB8400042230BC07F092
:10330000E5BC00BF50540020ABAAAAAA89888888CF
:1033100038B51E4C63681BBB22681D4D1A44A5FBC3
:1033200002056D0805EB4505521B43F6204505FBDC
:1033300002450021581C00220023C5E90623A9628A
:10334000E96285F82510296285F824106060FFF78E
:103350004DF8104BC5E904011B681B68A36038BD1C
:1033600022680B491A44013AA1FB0201490801EB0A
:103370004101521A43F6204101FB0242022B4FF059
:10338000010182F82510C7D938BD00BF5054002074
:10339000ABAAAAAAC8BA000082B02DE9F04F83B048
:1033A0000CAC84E80C0072B6DFF858C1534DDCF861
:1033B00000305A1C1CBF0133CCF80030D5F804C0D3
:1033C0000193BCF1000F00F084800024D5F8008048
:1033D000DFF838B1A14643F6204A04EB0803ABFB03
:1033E0000321490801EB4101591A0AFB015110312F
:1033F0000E7DD1E900233EB9821A05D4BA4200D32A
:1034000014B989461746009401346445E5D1B9F1F1
:10341000000F5ED0DDF800C009F108030CF10106D1
:1034200001270DF1300CA6429CE8070083E8070055
:1034300089F814704DD2B04407F1AA37A7FB0813DE
:103440005B0803EB4303C3EB080843F6204404FB8B
:1034500008541034237D002B3BD1DFF8A0800FE00F
:10346000D8F8003043F620443344A7FB03C2520887
:1034700002EB42029B1A04FB03841034237DC3B980
:103480000CAB93E8070000F07BFB00221C4B05F01F
:10349000D9FF02460B460CA800F046FB6B680136CC
:1034A0000DF1300C0834B3429CE8070084E80700B3
:1034B000D6D8144C144B24680DF1300C9CE807004E
:1034C000019483E8070054B903B0BDE8F04F02B09F
:1034D00070470D4B0CAC94E8070083E80700019C93
:1034E000DFF820C0631ECCF80030002BECD162B6B0
:1034F00003B0BDE8F04F02B0704700BF5054002049
:103500000000F03FD408012038540020ABAAAAAA3A
:103510003B4B2DE9F04F1B68DFF8F8A01B6BDAF886
:1035200000104FF47A720B4487B0804602FB03F020
:1035300006F022FDDFF8E090DFF8E0E0D9F80410B3
:103540008346DEF80060D9F80000DEF80470DEF88B
:1035500008E0361A67EB0107BB00D9F8081043EA08
:103560009673B2005D012748C1EB0E0E45EAD265A5
:103570005401A21A65EB030380FB0E14B61847EB47
:1035800003074FEAEE7ECEEBA41EF900F00010EB2D
:103590000E0041EA567141EBEE7106F007FD01465F
:1035A000584606F0F5FD184A184D034614882B605E
:1035B000B9E80700CDF80600CDF80A1018461449FE
:1035C000CDF80E20ADF8044006F02EFD06F018FFF1
:1035D000DAF80030ADF81200ADF8143001AC0FCCC1
:1035E0002488C8F800004046A8F81040C8F8041025
:1035F000C8F80820C8F80C3007B0BDE8F08F00BF4D
:10360000C8BA0000D34D6210C40801205800002041
:103610000000C842EC2F01203854002030C00120A7
:103620002DE9F04FB9B002AF07F1380400F11701EE
:103630000B22204607F04AFB94E8070007F14803F5
:1036400003C3724823F8022B0178120C1A70002968
:1036500042D1FEF73DFAD7F83F40D7F83B507863A8
:10366000AC42BC602ED900282CDB6848ADF5007D4B
:1036700002AC0378ADF5007D02AE3C633E61FD60B7
:10368000002B40F01A8261480378002B40F01F8223
:103690007C6BB7F838E05E4B0126A44604EBC4020D
:1036A00013F81210601C03EB4202DFF864B119B981
:1036B000B2F80120724515D0C0F30A0464454FF0FA
:1036C0000006EBD107F1480106200B22FEF796F920
:1036D000DC37BD46BDE8F08FB7F848104D4807F01D
:1036E0005BFBB6E7796B8C4200F0FF81FD62002640
:1036F0007E62FE6A0125013C7E6100263E62A04694
:10370000FD617C69FE6AB44200F38A807C6A4FEAFC
:103710008836A94604F1010A2546344601E0CA4527
:1037200018D0A945FBD8FEF7D9F9384E026833788E
:1037300004EB4926002B5AD1FEF7D0F90068396B0B
:10374000304403F00FF8002800F0898109F10109E5
:10375000CA45E6D1C7F82890D7F810A0D7F81C9032
:103760002A4808F10108C8F30A08037808EBC805DD
:103770004FEA88360BEB4504002B42D1B9F1000F1C
:1037800003D1796B884500F092811BF815304FF01A
:103790000009022BE4D0002B40F07E81B4F8010038
:1037A000398F884240F07E81FEF798F900685146D3
:1037B000304402F0D7FF0028D2D1252239690546CE
:1037C00007F1600007F082FAB86E06F0D5FB4FF003
:1037D000705106F029FC05F093FF03F001FCFD6138
:1037E00006F0A4FA4FF001097862044692E73244E9
:1037F000B7F84830494600920748424607F0CCFAED
:103800009AE74146054807F0C7FAB7E77400002079
:103810003030012084C3000018C400004CC40000F4
:103820004FF0000AB34802F0ADFD05F011F9002891
:103830007FF44EAFB04B1B68002BFFF649AFBAF1D7
:10384000000F00F0D980BE6806F10109C7F8289082
:10385000FE6AB14594BF4FF0000C4FF0010CBCF173
:10386000000F40F0D2803C6A132C00F08180BAF146
:10387000000F35D17E69FC6AC4EB06093E6AC6F1C9
:103880001303994528BF99464B46002BC7F818905B
:103890001FDDF868D146261A3C6A07F18C0000EB60
:1038A000840A3C6B04EB86064C46D7F818903146E8
:1038B0005046022207F00AFA01340AF10200B11C54
:1038C000022207F003FAA1450AF1040A06F10406F0
:1038D000EDD13C6ABE6934443C62FC6A3444FC620B
:1038E000BE6AFC6AA6423FF60CAF844E3378002BCA
:1038F00040F0F4803C6A002C7FF7EAAEFE6A0020BC
:103900004FF08041341B751E02460B46C7F84B40F2
:10391000C7F84F5003F0D2FC0022794B05F090FD20
:1039200006F004FA341BA40004F1120323F0070389
:103930006E46ADEB030D02AD87F84A0007F1480172
:1039400028460B2207F0C2F9224607F18C010DF13F
:10395000130007F0BBF904F10B022946D2B2002391
:103960000620FDF76DFFDC37B546BD46BDE8F08F9C
:10397000FC6A3A6A00204FF0804104F1FF3EA61A2B
:103980000B460246C7F800C0C7F84FE0C7F84B60C7
:1039900003F094FC00225A4B05F052FD06F0C6F9E4
:1039A000A61BB60006F1120323F007036C46ADEB2D
:1039B000030D02AB87F84A0007F1480118460B22B5
:1039C0007B6007F083F90DF11300324607F18C019B
:1039D00007F07CF97B6806F10B021946D2B206208B
:1039E0000023FDF72DFFD7F800C0A546BCF1000F5E
:1039F00078D1C7F820C03AE7BC68D7F80C90631CB0
:103A0000BB62994528BF994622E73E6A002EAFDC8B
:103A1000FC6A00204FF0804102460B4609F1FF3658
:103A2000C7F84B40C7F84F6003F048FC344B002206
:103A300005F006FD06F07AF907F1480187F84A001B
:103A40000B2207F1540007F041F907F154010B2252
:103A500000230620C7F82C90FDF7F2FE07E7B7F821
:103A6000662009F10073C2EB4212D201013B02EB66
:103A7000C313FB60B96EBC68FE68631C0A449A42BB
:103A800028BF1A4606F180039A4228BF1A4682468A
:103A900009F101057A61C5E60024BD6A4FF0010A0B
:103AA000FC61BFE6BD6AFB614FF0010ABAE6C7F8E8
:103AB0001C90BD6A4FF0010AB4E6124829462A4616
:103AC00007F06AF90D480378002B3FF4E1ADD7F811
:103AD0003F100D480A4607F05FF9D9E50B4807F09B
:103AE0005BF907E700243C6292E7002E7FF4FEAD0D
:103AF000E8E500BF008008404C0000207400002072
:103B00000000F03FA0C30000DCC300006CC4000054
:103B100008B5FEF76BF9024B0130186008BD00BF15
:103B200050540020000000002DE9F0411946804665
:103B3000104616461F4603F0E3FA06F097FC0446CB
:103B40000D4605F003FE02460B463046394605F0A9
:103B500077FC09A3D3E9002305F026FE03F060FB00
:103B6000C8F80040C8F8045006F0B8F8C8F80800D3
:103B70004046BDE8F08100BF0000000080842E4177
:103B800030B585B004AB03E907000198029905F050
:103B9000DDFD044603980D4605F0A0FD06A3D3E91C
:103BA000002305F02BFF02460B462046294605F070
:103BB00049FC05B030BD00BF0000000080842E41EC
:103BC00010B4019C0260846043605DF8044B704750
:103BD00070B51C4B86B001241C701B4D02F0F6FA28
:103BE0000220002102F0E2FA21462246052001AC23
:103BF00001F020FB0FCD0FC42B68022600254FF4E7
:103C00004051802201A82360ADF8081003928DF87E
:103C100004508DF806508DF814508DF815508DF81D
:103C200016508DF8056000F0F7FA0849084B0E634E
:103C3000096808484FF000420560C3F880211A6007
:103C400006B070BDCC08012084C4000000100840FC
:103C500000E100E00C0002430849094B012230B4A6
:103C60000A709D68074C08480221256002601963AC
:103C70005A6B30BC22F002025A637047CD08012013
:103C800000100840C80801200C0002432DE9F0474D
:103C9000814F0126DFF828E23E609EF8003086B0B2
:103CA00081468846144603F0FF05002B78D07B4DF3
:103CB00000272F7000F000FB4FF47A7000FB08F033
:103CC000774B784EA3FB002002233363800905F075
:103CD000F5FC0022744B05F0B5FB06F027F8014611
:103CE000384600F0D9FA6C4B32681F60736BC845D8
:103CF00043F00203736300F28C806C4E013C2B781E
:103D000053B9032CFBD8DFE804F03F3B370202F045
:103D10004BF92B78002BF4D0654E664F72B63368A2
:103D2000634A591C01D0013313602A785B49002A89
:103D300030D15C4B01220A709C68574802213C60DC
:103D4000026019635A6B22F002025A6333680BBB9C
:103D5000386806F011F9584906F01AFA564906F083
:103D600063F905F0CDFC00224F4B05F06BFB05F02D
:103D7000DDFF06B0BDE8F087012002F0B9F8BEE72C
:103D8000012002F069F8BAE7336923F004033361D4
:103D900030BFB4E7013B3360002BD9D162B6D7E71F
:103DA0008EF8006002F012FA0220294602F0FEF9B5
:103DB00031463246052001F03DFADFF808E101AE58
:103DC000BEE80F000FC6DEF800304FF440518022ED
:103DD0004FF0020A01A83360ADF8081003928DF885
:103DE00004508DF806508DF814508DF815508DF84C
:103DF00016508DF805A000F00FFA2A492F4BC1F894
:103E000030A04FF0004209683D60C3F880211A607D
:103E10004DE7274E274FDFF894802B78002B7FF457
:103E20007DAF631E032B05D8DFE803F0272F2302A5
:103E300002F0BAF872B633682A78581C18BF0133FA
:103E40003AB33868013B336003B962B606F094F8C0
:103E5000194906F09DF9184906F0E6F805F050FCFE
:103E60000022114B05F0EEFA05F060FF8145D4D831
:103E700054E7012002F03CF8DCE7D8F8103023F0DA
:103E80000403C8F8103030BFD4E7012001F0E4FF8C
:103E9000D0E7044A9068D5E70C000243CD08012022
:103EA000D34D6210001008400000E03F00ED00E03C
:103EB000D4080120C808012000007A4400E100E095
:103EC000CC08012084C40000036843F001030360B0
:103ED000704700BF064B10B400214FF08E44032200
:103EE000046043605DF8044BC1608261704700BFAD
:103EF00080000100436823F0F7031A4342EA0111EE
:103F00004160704700F10473F0B45B014C7A002209
:103F10000E7A1A604A68240444EA46448E7ACD7ABE
:103F20000F7844EA026291F80CC04C7842EA062607
:103F30000A6946EA0516FF074D7B46EA8C06097DAD
:103F400047EA84741202344342EA05420460426044
:103F5000F0BC1960704700BF70B50E7905460C467D
:103F600016480EBB00F080FC154B164E0344A6FB12
:103F70000323DE0D03D0013E360206F4FE460A237B
:103F80006B606378E1782078A2781B01090443EA2A
:103F90000063134301F4F81162790B4333430AB110
:103FA00043F008032B6070BD00F05EFC360203484E
:103FB00000F05AFC06F4FE46E1E700BF4081040031
:103FC0003F5DC600A5E830A5082343602DE9F00158
:103FD000446B8A7824F0FE4424F4FE04062A60D858
:103FE000DFE802F02F3B47535F5F04002E4BDB6896
:103FF00003F07F084FEA08480F7891F801C04D6838
:10400000CB783F074E7A48EA040447EA0C5745EA62
:10401000031344633B430EB143F080738C7A0CB1BD
:1040200043F004030C7A0CB143F00203C97A09B1DE
:1040300043F0010345EA024213430361BDE8F00186
:104040007047194B5E685D6806F4FE4305F07F0813
:1040500048EA03084FEA0848CEE7134B5D685B68FF
:10406000C5F30668C3F3064343EA08284FEA084845
:10407000C2E70D4B9E689D6806F4FE4305F07F087D
:1040800048EA03084FEA0848B6E7074B9D689B6873
:10409000C5F30668C3F3064343EA08284FEA084815
:1040A000AAE74FF00008A7E7B081E00F02234360C2
:1040B000F0B4446B8A7824F4FE4424F07F04062A8A
:1040C00054D8DFE802F02B353F4953530400294B05
:1040D000DB6803F07F0C0B784D780F791B0743EA00
:1040E0000553CE788D794CEA040443EA07234463F0
:1040F00043EA06130DB143F08073CC790CB143F061
:1041000004034C790CB143F00203097A09B143F07E
:10411000010343EA0243C360F0BC7047154B5E687D
:104120005D6806F4FE4305F07F0C4CEA030CD2E711
:10413000104B5D685B68C5F3066CC3F3064343EA46
:104140000C2CC8E70B4B9E689D6806F4FE4305F0F7
:104150007F0C4CEA030CBEE7064B9D689B68C5F3D9
:10416000066CC3F3064343EA0C2CB4E74FF0000C93
:10417000B1E700BFB081E00F002230B40A234FF452
:10418000F81540F2033440F247714360C260124BAD
:104190000261056042610462C163426B5C6822F4A3
:1041A000FE42596804F4FE4422F07F02224301F0EB
:1041B0007F010A434263446B59685A6801F4FE4127
:1041C00024F0FE4302F07F0223F4FE030A4343EA95
:1041D0000243436330BC7047B081E00F08B520B1A3
:1041E0000A4B984207D91F2008BD094800F03CFB44
:1041F0000028F5D108BD074B00F5742000F23F20E0
:10420000A3FB0020800C0138C0B208BD0048E801C3
:104210004081040083DE1B4383680178B3FA83F393
:1042200070B4C3F11F0411B1184B01221A60184A6F
:10423000936BDD0706D4136813F4405F02D0D36B91
:10424000DB07FCD4827C124B86885A60C2684578B2
:1042500046EA421245F0080586782A43457C42EA40
:104260008602007C42EA051242EA803242EA0422D7
:104270004FF0FF3018631A6029B106480349002245
:104280001B6802600A6070BC704700BF00070243F1
:10429000001008400C000243064A936BD80706D46E
:1042A000136813F4405F02D0D36B9B07FCD4014B1F
:1042B000D960704700100840024B012100221960AC
:1042C0001A6070470C00024308B500F00F03013B71
:1042D000062B7DD8DFE803F03C4C5B7C7C6A040055
:1042E000484BDB6A03F46033B3F5803F74D0B3F519
:1042F000003F6FD0B3F5004F0CBF08230123424AA3
:10430000904260D0414A904203D13E4B9B6AC3F336
:104310008103032B1AD8DFE803F0130F0B0202F01E
:10432000E5FC3B4B3B4A1B6812680133D84008BD93
:10433000BDE8084002F0C6BDBDE8084002F0BABDC5
:10434000314B98424CD0314B984252D0002008BD9E
:104350002C4BDB6A03F47053B3F5805F3AD0B3F5AE
:10436000005F39D0B3F5006F0CBF04230523C6E707
:10437000244A936A03F00303022BC0D0032B2DD0F1
:10438000012B27D0936ADA030ED50923B7E71D4A1C
:10439000936A03F00C03082B1ED00C2B1ED0042BA9
:1043A00018D0936ADB02F0D40123A8E7154B1B68F1
:1043B00013F080531BD0144AB3F1805F0CBF082365
:1043C000012390429ED10F4B9B6A03F00303A0E7A9
:1043D000002394E7032392E7022390E706238EE766
:1043E000084B10209B6A33FA00F006D108BD072362
:1043F00085E7044B14209B6AF5E7BDE8084002F00E
:104400005DBD00BF00800C400200180003001A00D0
:1044100078009043A000904338B5C0F30313013BEC
:104420000C46062B05D8DFE803F00F0404212C3ED0
:10443000050038BDA94B984200F0DC8003F5043339
:10444000984200F0C08038BD02F0C0FCA44B41F699
:104450007131DA6BD9635B6803F00703042B40D931
:10446000A04B984240F26981052045E09E4BB1FA8D
:1044700081F49A68C4F11F0422F00F0214439C6077
:1044800038BD02F0A3FC964B41F67131DA6BD9636B
:104490005B6803F00703042B40D9924B984240F22B
:1044A0005481052045E0914B984200F02F8140F265
:1044B000B7808F4B984200F0F9808E4B984240F0C5
:1044C000D380894A536DD90740F1BE80864BB4FA38
:1044D00084F49A6EC4F11F0422F0030222439A6608
:1044E00038BD012101FA03F313F0130FB8D07D4B4F
:1044F000984240F242810420794B596821F007012B
:10450000014359600AB10022DA63774B013C1A6813
:1045100022F4E03242EA84341C6037E0012101FADF
:1045200003F313F0130FB8D06E4B984240F215818D
:1045300004206B4B596821F00701014359600AB10F
:104540000022DA6302F046FC6B4BB0FBF4F0DB6C4C
:10455000C3F307434A2B00F09480792B00F091803D
:10456000604A482B18BF00229042644D644994BFB2
:10457000002201225C4B2A600A605A68B4FA84F473
:10458000C4F11F0422F00F0214435C6002F0AEFB82
:10459000534B41F67131DA6BD9635B6803F0070363
:1045A000042B62D94F4B984240F2DF8005204C4BE0
:1045B000596821F0070101435960002A3FF439AFDF
:1045C0000022DA6338BD484A536DD9070BD5464BF4
:1045D000B4FA84F41A6FC4F11F0422F0300242EAE4
:1045E00004121A6738BD136D5B06F0D5136D5B06B8
:1045F000F9D4ECE73C4A536DDD070AD53A4BB4FADF
:1046000084F41A6FC4F11F0422F0030222431A67D4
:1046100038BD136D5806F1D5136D5806F9D4EDE782
:10462000A3F5043398421ED12F4A536DDD0713D5ED
:104630002D4BB4FA84F49A6EC4F11F0422F0F002F8
:1046400042EA04129A6638BD136D5B077FF53EAFF0
:10465000136D5B07F8D439E7136D5807E8D5136D70
:104660005807F9D4E4E738BD38BD012101FA03F356
:1046700013F0130F96D01B4B984240F28680042013
:1046800095E7204B17491D699A69DB6905F03F05DD
:10469000C3F3031343EA052502F0F0021A4B2A4341
:1046A000B2F5017F34BF0A461A465DE70E4A536DE4
:1046B000DD070BD50C4BB4FA84F49A6EC4F11B04DD
:1046C00022F4405242EA04329A6638BD136D58070C
:1046D000F0D5136D5807F9D4ECE700BF700714004C
:1046E00000000C400048E80100800C4060261200E9
:1046F0006000240060062800B081E00F780090433D
:10470000A0009043D0FF0FE000366E01234A536DA6
:10471000D9070BD5214BB4FA84F49A6EC4F11F0467
:1047200022F4706242EA04229A6638BD136D5B0778
:10473000F0D5136D5B07F9D4ECE7194B1949034425
:104740008B4294BF03200220D6E6154B1549034443
:104750008B4294BF03200220EBE6114B1149034426
:104760008B428CBF00200120E3E60D4B0D49034432
:104770008B4294BF0320022019E7094B09490344E7
:104780008B428CBF00200120B6E6054B054903444F
:104790008B428CBF0020012009E700BF00800C4045
:1047A000FFDB0BFFFF23F40000F00F0001380628A9
:1047B0004ED8DFE800F01424334D4D420400294B5D
:1047C000DB6A03F46033B3F5803F43D0B3F5003FB9
:1047D00042D0B3F5004F0CBF082001207047214B99
:1047E000DB6A03F47053B3F5805F35D0B3F5005F37
:1047F00030D0B3F5006F0CBF042005207047194B73
:10480000986A00F00300022825D0032826D001284A
:1048100022D09B6ADA030ED509207047114A936AA9
:1048200003F00C03082B15D00C2B17D0042B13D03E
:10483000936ADB02F0D4012070470A4B1B6813F027
:1048400080530DD0B3F1805F0CBF0820012070476A
:1048500000207047022070470320704706207047F1
:104860000720704700800C4000F47810B0F5A01FBE
:1048700008B500F093800ED8B0F5402F7ED021D837
:10488000B0F5003F76D0B0F5802F00F0B080002862
:104890007BD0002008BDB0F5001F00F09A8039D809
:1048A000B0F5C01F61D0B0F5D01F72D0B0F5B01F09
:1048B000EFD16448FFF708FD634B1B6FC3F301138F
:1048C000D84008BDB0F5801F37D0B0F5901F6ED02E
:1048D000B0F5602FDDD15C4B5B6903F4E063B3F5A9
:1048E000007F00F09E8040F28A80B3F5C06F00F038
:1048F000A480B3F5E06F00F09E80B3F5407FC8D18F
:10490000524B534AD86C534BB0F1985F34BF1046AA
:10491000184608BDB0F5181F18D0B0F5201F4FD0AD
:10492000B0F5101FB5D14C48FFF7CEFC464B9B6E3F
:10493000C3F301330433D84008BD4748FFF7C4FC34
:10494000414B9B6EC3F30313D84008BD4248FFF7A9
:10495000BBFC3D4B9A6EDB6FC2F30132D04003F0DB
:1049600007030133B0FBF3F008BD3B48BDE8084046
:10497000FFF7AABCBDE8084002F0B8B9324A136894
:1049800013F0805346D0002B83D0BDE8084002F0DE
:1049900021BA2C48BDE80840FFF796BC2948FFF72C
:1049A00093FC294B1B6F03F00303D84008BD2A4832
:1049B000FFF78AFC244B9B6EC3F30323D84008BD4A
:1049C0002548FFF781FC204B9B6E03F00303D84082
:1049D00008BD2248FFF7E8FE032817D00828D4D0E6
:1049E00002287FF456AFBDE8084002F06BBA02F02F
:1049F000F1F9154B9B6803F00F03D84008BDF3B1E4
:104A0000B3F5807F7FF445AF154808BDBDE8084089
:104A100002F050BA536903F4E063B3F5007F7FF40A
:104A200062AF0A4B0F4AD86C0F4BB0F1985F34BF9E
:104A30001046184608BD0D4808BD0D4808BD0D4874
:104A400008BD00BF03001A0000800C40B081E00FD9
:104A500040420F00804F1200020018000723200080
:104A6000C0D8A700C0CF6A0040B56400406F4001C5
:104A7000003FAB01809FD50070B5C0F30323013B1D
:104A800082B00446092B11D8DFE803F02219241064
:104A9000101D05101020274A1020274DC4F30434A0
:104AA0006B6DDB0704D522449200116002B070BD2B
:104AB0002B6D1842F7D02B6D1842F9D1F3E71F4A3E
:104AC000C4F30434EFE71E4A0120E6E71D4AF7E786
:104AD0001D4AF5E7019102F009F91C4B0199DA6CC6
:104AE000C2F307424A2A0FD0792A0DD0184B482A20
:104AF00018BF0023174A9842174D94BF0023012383
:104B00001360164A2B60DBE7154A114D166993694D
:104B1000D26906F03F06C2F3031242EA062603F00A
:104B2000F003104A3343B3F5017F34BF2B461346DD
:104B3000E0E700BF0003E41000800C402002E41016
:104B4000C002E410C003E4104000E410B081E00FA4
:104B50000048E80178009043A00090430002E41070
:104B6000D0FF0FE000366E0138B500F00F04631E71
:104B7000062B52D8DFE803F07A626251515D56008D
:104B8000012202FA03F313F0130F00F09680A84BF2
:104B9000984240F23C820420A64B5A6822F0070259
:104BA00002435A6009B10022DA63A34BA3485C6256
:104BB000FFF75AFEA24BDB6CC3F307434A2B00F00E
:104BC0008881792B00F085819949482B18BF0021F5
:104BD00088429C4A9C4B94BF0020012010601860C2
:104BE00001F0FAF902F082F8924B41F67131DA6B7A
:104BF000D9635B6803F00703042B40F25D818C4BA3
:104C0000984240F2EC8105208A4B596821F0070157
:104C1000014359600AB10022DA638A4A8A4B12685A
:104C20001B6838BD03294ED0082973D002295AD0F9
:104C300038BD072923D0082966D038BD0139082995
:104C4000F6D801A252F821F00B4E0000134E0000DE
:104C5000614E0000314C0000314C00007B4E0000E2
:104C6000314C0000314C0000E94D000002390329AD
:104C7000DED8DFE811F00A00B50056008D006E4B5B
:104C80001A6822F080521A60C7E7704A04244FF471
:104C9000807369490B621368002BFCD001F09CF90A
:104CA00002F094F8634B41F67132D96BDA635B68BA
:104CB00003F00703042B7FF663AF5D4B984240F28D
:104CC0009681052068E75C4B4021614A19621368B0
:104CD000002BFCD001F080F9574A60235362D36A5D
:104CE0009903FCD599E7544B4FF48071574A1962E8
:104CF0001368002BFCD001F06FF94F4A4023536238
:104D0000D36AD803FCD588E74B4B1A6842F080522F
:104D10001A6082E7484A20235362D36A1B04FCD5F9
:104D20007BE7474BDB6CC3F307434A2B00F004815E
:104D3000792B00F001814748482B18BF0120404BD8
:104D4000DB6CC3F307434A2B00F0E280792B00F0C1
:104D5000DF80374A482B0CBF1346002383423A4A70
:104D600038492CBF002301230B60136002F09AF82E
:104D70002F4B02249842304B1A6896BF22F06002F3
:104D800042F0600242F020021A60334A042380E7B6
:104D90002B4BDB6CC3F307434A2B00F0F680792BD7
:104DA00000F0F3802B48482B18BF0120244BDB6C0C
:104DB000C3F307434A2B00F0D480792B00F0D18055
:104DC0001B4A482B18BF002290421E4B1E4994BF1D
:104DD0000022012201241A600A6023461F4A58E774
:104DE0001B4A0324402354E74FF480114FF48033CF
:104DF0000022022C00F082800F4A936A23F4801371
:104E000023F00C030B43936207E700210B460A468D
:104E1000EFE7094B4FF480710C4A19621368002BBD
:104E2000FCD001F0D9F8082100230222E1E700BFFD
:104E30000048E80100000C4000800C4000430200E4
:104E4000B081E00F78009043A0009043A405904308
:104E50009C0590430148E8018C05904384059043EC
:104E60006F4B40216F4A19621368002BFCD001F090
:104E7000B3F8042100230122BBE701F037FF6A4B9E
:104E8000DB6CC3F307434A2B00F09480792B00F0CE
:104E90009180664D482B18BF0025A8426449654B98
:104EA000654A94BF002001200125086018600C218C
:104EB0001560002303229CE7012101FA03F313F09C
:104EC000130F3FF49CAE594B984240F29880042057
:104ED0009AE65A4B554A1C699969DB6904F03F040C
:104EE000C3F3031343EA042401F0F001544B2143BC
:104EF000B1F5017F34BF1146194669E648481343AE
:104F0000816A21F4803121F003011943816284E632
:104F10004A4A464B14699169D26904F03F04C2F3CE
:104F2000031242EA042401F0F001454A2143B1F59D
:104F3000017F28BF134611E7404B424A186999691F
:104F4000DB6900F03F00C3F3031343EA002001F0E4
:104F5000F0013D4B0843B0F5017F34BF10461846C1
:104F6000EDE6364B314A1C699969DB6904F03F0470
:104F7000C3F3031343EA042401F0F001304B21434F
:104F8000B1F5017F28BF1A461EE72C4B2D4A186940
:104F90009969DB6900F03F00C3F3031343EA002083
:104FA00001F0F001284B0843B0F5017F34BF1046F3
:104FB0001846FBE6214B1D4A1D699969DB6905F01E
:104FC0003F05C3F3031343EA052501F0F0011C4B31
:104FD0000D43B5F5017F34BF15461D465DE71B4BFC
:104FE0001B4903448B4294BF032002200CE6174B5D
:104FF000174A0344934294BF03200220CCE5134B8D
:10500000134903448B428CBF00200120FCE50F4B69
:105010000F4A034493428CBF00200120BCE500BF2F
:1050200000800C409C059043B081E00F0048E801EF
:1050300078009043A000904310089043D0FF0FE009
:1050400000366E010148E80101366E01FFDB0BFFFF
:10505000FF23F40038B50446052804D8DFE800F043
:10506000272B3035390438BD684B1D6BC5F3072538
:10507000674AD26A02F47052B2F5805F64D0B2F52A
:10508000005F61D0B2F5006F5ED001F09FFE614B12
:1050900041F67132D96BDA635B6803F00703042BC6
:1050A0001BD95D4B984240F2A88005201FE0574B6A
:1050B000DD6AEDB2DCE7554BDD6AC5F30725D7E7BE
:1050C000524BDD6AC5F30745D2E7504BDD6A2D0E22
:1050D000CEE74E4B1D6BEDB2CAE7012202FA03F395
:1050E00013F0130FDDD04C4B98426ED90420494B7E
:1050F0005A6822F0070202435A6009B10022DA63BB
:10510000434AD36823F4FF6323F0070343EA0424EC
:105110002543D56001F0EAFD3E4B41F67131DA6B73
:10512000D9635B6803F00703042B43D93A4B9842D9
:105130005BD90520374B596821F0070101435960BD
:1051400062B10022DA6309E0314AD36823F4FF63D5
:1051500023F0070343EA04242543D56001F0C6FD8C
:105160002A4BDB6CC3F307434A2B0ED0792B0CD0B0
:105170002949482B18BF00218842284A284B94BF50
:10518000002001201060186038BD264B224A1969A2
:105190009C69DB6901F03F01C3F3031343EA01217A
:1051A00004F0F004204B2143B1F5017F34BF1146D8
:1051B0001946E1E7012101FA03F313F0130FB5D00B
:1051C000154B984209D90420B4E7184B184A0344F8
:1051D00093428CBF0020012089E7144B14490344FB
:1051E0008B428CBF00200120A4E7104B10490344E0
:1051F0008B4294BF032002209CE70C4B0C4A0344D3
:10520000934294BF0320022071E700BFB081E00FFA
:1052100000800C4000000C400048E80178009043FA
:10522000A0009043D0FF0FE000366E01FFDB0BFFC4
:10523000FF23F40010B404282ED8DFE800F0271B69
:10524000031F230016480823042469B1154B1C6270
:105250001AB95DF8044B00F0BFBE0368002BF8D10B
:105260000368002BF9D0F4E70E4A5DF8044B136293
:1052700000F0B2BE0C4880234024E6E70B4802232E
:105280000124E2E70A4820231024DEE709484FF40E
:1052900000734FF48074D8E75DF8044B704700BF8B
:1052A0008C05904300800C409C05904384059043FE
:1052B00094059043A405904330B400F104744D78F4
:1052C00022460C320834002364015201012D236070
:1052D00013602AD0022D24D0164B9B69C3620B7831
:1052E0008A781B050C7943EA0525CB7845EA021537
:1052F00024048A7945EA830304F4E02423430AB1B1
:1053000043F08003CA790AB143F040030A7A0AB134
:1053100043F002034A7A0AB143F00103036030BC50
:105320007047044B1B6AC362D9E7024BDB69C36257
:10533000D5E700BFB081E00F10B4CB780C781B012B
:105340000CB143F001034C780CB143F004038978AD
:1053500009B143F002031AB983605DF8044B70474A
:10536000C3605DF8044B7047002310B43321102450
:10537000064A8360C36004600361C161926944F2BC
:105380004773C2625DF8044B03637047B081E00F5E
:105390001C4B1D4A41F20C0112685858996B2DE9BB
:1053A000F0470240194F984602EA010422EA010A36
:1053B0004FF00209FCB100250126E30717D506FAD4
:1053C00005F2D8F808303A6003EB0513DB6828468D
:1053D0006BB11A7AD3F800C0111C82F0010218BF19
:1053E00001211A72BCF1000F01D05A68E04764082D
:1053F00005F10105E1D1B9F1010901D05446D9E720
:10540000BDE8F08700200C4000300C4008300C4014
:10541000F0B41C4E0401B768049D274469BBF668CC
:105420003444FE6806B1317243B1A668C6F38166A2
:10543000032E1CBF05FA06F69B1923603AB1A36838
:105440009B0F032B1CBF05FA03F3D21862600123E4
:1054500003FA00F00B4BD86189B91863A368094AB5
:1054600023F47F5323F0370343F0020343EA051587
:10547000A5609062F0BC506170473C46D1E758632C
:10548000ECE700BF00200C40124B30B49C688A68E7
:1054900004EB00140D78E2600124844075B19C6334
:1054A0004D684B780B4A00F5886142F821503BB9B2
:1054B000094A30BC0244920013607047DC63EFE796
:1054C000054B41F2080503449B000121545119602A
:1054D00030BC704700200C406080E110F0B40D4BF0
:1054E000A9B9D9681578937857781679AD07D47823
:1054F00045EA037545EA8765B20445EA036342EA73
:10550000843201EB001013438360F0BC704799684C
:10551000E8E700BF00200C402DE9F04F012183B0E7
:1055200006462C48FFF7A8FA72682B4B2B4D0192C8
:105530000124002240F6FF71DFF8A4B0C5F88040D6
:1055400041F20C005A6003F58859D96141F2080A0A
:10555000596241F20418D96241F2081C596341F2C0
:105560000C17D96341F21011DC641A5043F80AB0E9
:10557000C9F8002041F2141B43F8082041F2181A20
:1055800043F80C2041F21C19DA5103F589585A509E
:1055900041F2241C41F2281741F22C1143F80B2050
:1055A00043F80A2043F80920C8F8002043F80C20EB
:1055B000DA515A50019A4FF0004BC5F880412C60E7
:1055C00043F800B09A603278520122435A6003B027
:1055D000BDE8F08F0003020000200C4000E100E075
:1055E000FF0F00802DE9F00FAB4B82B01B684778AE
:1055F0000193019AC36842F08044002B00F08F832E
:105600000025DFF8B0B2DFF8B0A2DFF8B092DFF823
:105610009882DFF8ACC2294603F00202002A03F0A8
:10562000040603F0080218BF022118BF5D46002ED1
:1056300018BF042118BF5546002A18BF4D4618BF91
:10564000082103F010066A01002E02F184426FEA7D
:10565000010602F1100218BF6FF0100618BF624673
:1056600018BF454618BF102133401760D4D1C26817
:1056700090F802A0002A00F052830146DFF834B20D
:10568000DFF83492DFF83482DFF81CC2834F5046D3
:105690001D468A4602F00201002902F0040602F0CB
:1056A000080118BF022518BF5B46002E18BF04254D
:1056B00018BF4B46002918BF434618BF082502F003
:1056C00010065901002E01F184416FEA050601F12F
:1056D0000C0118BF6FF0100618BF394618BF63469B
:1056E00018BF102532400860D4D1DAF80C3050468B
:1056F0009AF803A0002B00F012830146DFF8B4B142
:10570000DFF8B491DFF8B481DFF89CC1644F5046F4
:1057100015468A4603F00201002903F0040603F04F
:10572000080118BF022518BF5A46002E18BF0425CD
:1057300018BF4A46002918BF424618BF082503F083
:1057400010065101002E01F184416FEA050601F1B6
:10575000080118BF6FF0100618BF394618BF62461F
:1057600018BF102533400860D4D1DAF80C20504619
:105770009AF804A0002A00F0D2820146DFF834B182
:10578000DFF83491DFF83481DFF81CC1454F504613
:105790001D468A4602F00201002902F0040602F0CA
:1057A000080118BF022518BF5B46002E18BF04254C
:1057B00018BF4B46002918BF434618BF082502F002
:1057C00010065901002E01F184416FEA050601F12E
:1057D000040118BF6FF0100618BF394618BF6346A2
:1057E00018BF102532400860D4D1DAF80C3050468A
:1057F0009AF80590002B00F092820146DFF8B4A0E1
:10580000DFF8B480DFF8B4C0274F284E484615466D
:10581000894603F00201002903F0040B03F008019C
:1058200018BF022518BF5246BBF1000F18BF042550
:1058300018BF4246002918BF624618BF082503F06A
:105840001001002902F1047B6FEA05014FEA4B1BAE
:1058500018BF6FF0100118BFB34618BF3A4618BF03
:1058600010250B40CBF80000D3D1D9F80C204846C6
:1058700099F806A0002A00F052820146DFF834B001
:10588000DFF83490DFF83480DFF81CC0084F504652
:105890001D468A4616E000BF008000408C0810427A
:1058A000880810428408104244800040800810425A
:1058B0009408104210800040248000403480004052
:1058C0009008104202F00201002902F0040602F0E2
:1058D000080118BF022518BF5B46002E18BF04251B
:1058E00018BF4B46002918BF434618BF082502F0D1
:1058F00010065901002E01F184416FEA050601F1FD
:10590000140118BF6FF0100618BF394618BF634660
:1059100018BF102532400860D4D1DAF80C30504658
:1059200013F0020100F0F881019DB74C9AF80020B5
:105930002C409AF8096014439AF80A5044F08044C5
:1059400044EA06449AF8077044EA45449AF8086025
:105950009AF84C5044EA076444EA0634002D40F0BB
:10596000D88113F0040816D0457A867AAD0490F8F1
:1059700007C045EAC646077AA44D46EA4C6646EAA1
:105980004737254090F84C6047EA050444EA820412
:10599000002E40F0BB8113F0080C15D0457A877AB1
:1059A0002D05C67945EA4755077A45EA8666984D3A
:1059B00046EA873790F84C6047EA0217254047EAE5
:1059C0000504002E40F09F8113F0100315D0457A96
:1059D000877AAD05C67945EAC755077A45EAC666AE
:1059E0008C4D46EAC73790F84C6047EA821725404D
:1059F00047EA0504002E40F08381856A466A2F0439
:105A0000056A47EA0626354339B1834FBE6826F05A
:105A1000031626F47C562E43BE60B8F1000F07D063
:105A20007D4FFE6926F0031626F47C562E43FE6158
:105A3000BCF1000F07D0784FFE6A26F0031626F45B
:105A40007C562E43FE623BB1734FFE6B26F003166D
:105A500026F47C563543FD6390F82C7090F82D6049
:105A600090F82E5049B1DFF8ECA1DFF8EC916B49CA
:105A7000CAF80070C9F800600D60B8F1000F09D0D5
:105A8000DFF8D891DFF8D8816549C9F80070C8F807
:105A900000600D60BCF1000F09D0DFF8C881DFF8AD
:105AA000C8C16049C8F80070CCF800600D603BB117
:105AB000DFF8B8C15C495D4BCCF800700E601D602A
:105AC000816B466BC3680904056B41EA062113F03C
:105AD000020C41EA050107D04F4EF56825F0031589
