:1000000000000220FD650000336600003566000038
:1000100037660000396600003B660000316600006C
:100020003166000031660000316600003D66000068
:100030003F66000031660000416600004366000034
:10004000E954000045910000496600004B6600003D
:100050004D6600004F660000ED8F0000798E0000B5
:100060005566000057660000596600005B66000098
:100070005D6600005F660000616600006366000068
:100080006566000067660000696600006B66000038
:10009000059100006F660000A996000073660000DD
:1000A0007566000077660000796600007B660000D8
:1000B0007D6600007F66000029210000B13D000040
:1000C0008566000087660000896600008B66000078
:1000D0008D6600008F660000916600000000000041
:1000E0000000000000000000000000000000000010
:1000F0000000000000000000000000000000000000
:1001000010B5054C237833B9044B13B10448AFF351
:1001100000800123237010BD0008002000000000B3
:1001200088CD000008B5064B1BB106480649AFF361
:1001300000800648036813B1054B03B1984708BD1A
:100140000000000088CD0000040800206C0700209B
:1001500000000000154B002B08BF134B9D46A3F574
:10016000803A00218B460F461348144A121A0AF0AF
:10017000E0FF0F4B002B00D098470E4B002B00D018
:1001800098470020002104000D000D48002802D0EF
:100190000C48AFF300800AF09DFF2000290009F011
:1001A00073F80AF097FE00BF00000800000002206C
:1001B00000000000000000000008002020AA01202C
:1001C00000000000000000002DE9F047804690B0DC
:1001D00072B6384F384E3B6804465A1C1CBF013378
:1001E0003B609A4600F1300920686168A268E368C4
:1001F00035460FC510344C452E46F5D1D9F80000D0
:10020000D9F80410402203C6B9F808306846002126
:1002100033800AF08EFF6D46D8F80000D8F804103D
:10022000D8F80820D8F80C302C460FC408F1100874
:10023000C8452546F0D1D8F80410D8F800001F4E64
:1002400003C53368B8F808101D4A2980CDF83A2054
:10025000B3B106F007F84FF47F200BF051FED0B198
:1002600006F046F8174A0023D7F800A01360336061
:100270004FF0FF30BAF1000F04D110B0BDE8F087A5
:100280004FF0FF300AF1FF333B60002BF5D162B62F
:1002900010B0BDE8F08769464FF47F2040220BF094
:1002A00037FE044606F024F8002CDBD12046D7F8B0
:1002B00000A0DFE7EC08012004000020440000203B
:1002C000289BF23D00000020F8B5114B11491B6836
:1002D000D3F83A000AF066FAA8B10F4B0F4E1C682B
:1002E00004F1300720686168A268E36835460FC5ED
:1002F0001034BC422E46F5D12068616803C62389BC
:1003000000203380F8BD0548BDE8F840FFF75CBF2A
:1003100044000020289BF23D000000200400002043
:1003200010B5022007210822012305F041FF052016
:100330000C210822012305F03BFF032008210122A4
:10034000002305F035FFBDE8104005200B210A22EF
:10035000002305F02DBF00BF10B5041E4FF00B01A8
:100360004FF005004FF00A0208DD012305F020FFE1
:100370000C4B1B787BB90C4B1C6010BD002305F0A7
:1003800017FF084B1B78002BF5D008480AF02EFF0A
:10039000054B1C6010BD06480AF028FF024B1C608C
:1003A00010BD00BF740000201C080020A4BF000086
:1003B0007CBF000008B50C4B1A7822B11B7813B132
:1003C0000A480AF013FF0A2001F0D8FFBFF34F8F4D
:1003D000074A084BD16801F4E0610B43D360BFF3D7
:1003E0004F8F00BFFDE700BF74000020CCBF0000AE
:1003F00000ED00E00400FA050C4B10B51B7813B1BA
:100400000B480AF0F3FE0C2108220023052005F01A
:10041000CFFE4FF4FA7001F0B1FFBDE810400520A7
:100420000C210822012305F0C3BE00BF7400002088
:10043000F8BF000010B5174C82B02068042100906E
:10044000684600F0D9FB234653F8040F05211B79B9
:10045000009068468DF8043000F0CEFB234653F838
:100460000C0F05211B79009068468DF8043000F0D0
:10047000C3FB54F8140F0621A38800906846ADF81A
:10048000043000F0B9FB4FF4FA7001F077FF02B0CE
:1004900010BD00BF24BF000010B5124B82B01B7806
:1004A00013B111480AF0A2FE002407230321684675
:1004B0008DF800308DF801408DF8024000F09CFB73
:1004C0004FF47A7001F05AFF0923684603218DF832
:1004D00001408DF802408DF8003000F08DFB02B035
:1004E00010BD00BF7400002020C0000010B508211E
:1004F0000A460023032005F05BFE4FF4FA7001F07A
:100500003DFFBDE81040032008210122002305F033
:100510004FBE00BF2DE9704F002488B0082303258B
:1005200020468DF80C408DF808308DF80A5003F005
:1005300001FFDFF818A14FF44072012302268DF865
:100540000B0002A9504606928DF816308DF81F3028
:100550008DF80D408DF809408DF814408DF81D4040
:100560008DF817508DF81E408DF81C408DF81560E1
:1005700003F09EFD05A9504603F0D2FD2E4804F07D
:100580001FFA9DF80C3000240133B0FBF3F009F0A2
:10059000BFFACDE900019DF8150009F0B9FA4FF056
:1005A000804502460B462046294606F05BFB804606
:1005B0009DF808008946013009F0BAFA02460B4658
:1005C0002046294606F04EFB002204460D464046D2
:1005D00049461A4B09F060F922462B4609F00EFBFA
:1005E00002460B46DDE9000109F032FC09F0A0FDEE
:1005F000DFF85CB040F25633CBF80000CBF80030A7
:10060000DBF8000009F094FA00220D4B09F0F6FA2D
:100610000C4A0D4BC2E90001CAF82060DAF8141048
:1006200080223143CAF814101A6083F80723DBF8DC
:10063000000008B0BDE8708F0002050000002840EF
:100640000000E03F9017012000E100E000200040A2
:1006500088170120F0B5002487B007460B232046F9
:100660008DF800308DF802408DF8014003F062FEF5
:10067000174D0126032208238DF8030069462846FA
:100680008DF80F208DF80D308DF810708DF8044026
:100690008DF805408DF813408DF811408DF8144009
:1006A0008DF80C408DF812408DF80E6003F000FDBF
:1006B00003A9284603F0A6FD2E626969054B802236
:1006C000314369611A6083F8072307B0F0BD00BFAA
:1006D0000020004000E100E010B500F001030446F6
:1006E0000C210020042205F063FD04F00203002029
:1006F0000D21042205F05CFD042104EA01030A46F1
:10070000022005F055FD04F0080302200521042213
:10071000BDE8104005F04CBD074B10B44FF400503D
:100720004FF48054102120225C6158615DF8044B25
:10073000D965DA65704700BF006000400D4B4FF48B
:100740008052C1074CBF1A615A610A4B4FF40052E4
:1007500081074CBF1A615A61064B102241074CBFFA
:100760009A65DA65034B202201074CBF9A65DA656A
:10077000704700BF0060004070B5544C82B02378D1
:1007800005460E46002B40F0858047F21A639D42D5
:100790002ADD2378002B40F082804D4B00221A7016
:1007A0004C4A46F2523312789D42D2B200F3838013
:1007B000A6F5FA76B6B241F294139E424FF00200CB
:1007C0004FF007014FF0080208D8414B1B782BB1BE
:1007D000012305F0EDFC012002B070BD002305F0FF
:1007E000E7FC002002B070BD47F2AF239D42D7DC8A
:1007F0002378002B57D1364A45F6E97301219D42F3
:100800001170CDDC2378002B51D1324B01221A70AC
:10081000237813B130480AF0E9FC002407230321B0
:1008200068468DF800308DF801408DF8024000F0E8
:10083000E3F94FF47A7001F0A1FD09236846032122
:100840008DF801408DF802408DF8003000F0D4F9A9
:10085000224B234AD968184621F00101D960D36898
:100860004FF4805423F00103D36003F0DFFB4FF01B
:10087000402004F025FE1B4803F02AFD1A4B1021EE
:1008800020224FF400505C615861D965DA6500F0B0
:1008900077FB8DE7294615480AF0A8FC75E7144850
:1008A0000AF0A4FC79E713480AF0A0FCA3E7124879
:1008B0000AF09CFCA9E7002A3FF47AAF237813B131
:1008C0000E480AF093FCFFF775FD00BF740000208E
:1008D000480000205617012020C0000000100040F2
:1008E00000140040002000400060004048C00000AC
:1008F00080C00000C0C0000000C100004CC100006A
:100900002DE9F041164D86B06C4606469E46884657
:1009100017460FCD0FC495E80300072384E80300B2
:1009200001250024304669468DF80A30CDF810E0E4
:100930008DF814508DF809508DF80D408DF80B404E
:1009400003F08CFB304641463A4603F07FFB3046CD
:1009500003F066FB0323B36106B0BDE8F08100BF7E
:1009600040BF00002DE9F043484B8DB01B78054691
:10097000884603F0FF04002B5ED101274FF00309E6
:1009800002A94FF040208DF808408DF80B408DF8FB
:100990000C408DF80D408DF80E408DF80F408DF80D
:1009A00010408DF811408DF801408DF802408DF80F
:1009B00003408DF809708DF800708DF80A9004F0EE
:1009C00027FD694622464FF0402004F061FD69464C
:1009D0003A464FF0402004F05BFD2D4E2B684FF05F
:1009E000402E06ADCEF82030CEF824400FCE0FC5F5
:1009F00096E80300274E98F8008085E80300072357
:100A0000304606A98DF822308DF821708DF82540EA
:100A10008DF823408DF82C700A9703F01FFB3046A9
:100A200042460C2103F012FB304603F0F9FAC6F8F7
:100A300018900DB0BDE8F083154D06AC0FCD0FC476
:100A400095E80300134D98F80060012384E8030043
:100A500007222846002406A98DF82C308DF8213075
:100A60000A938DF822208DF825408DF8234003F05D
:100A7000F5FA284632460A2103F0E8FA284603F040
:100A8000CFFA0323AB610DB0BDE8F083441701201A
:100A900040BF00000010004030B587B000230124A3
:100AA000054602A94FF040208DF808308DF80B3034
:100AB0008DF80C308DF80D308DF80E308DF80F302C
:100AC0008DF810308DF811308DF801308DF802302E
:100AD0008DF803308DF80A408DF809408DF80040FC
:100AE00004F096FC22464FF04020694604F0D0FC0A
:100AF0004FF040235D6207B030BD00BF10B54FF02E
:100B0000402004F0DDFCBDE8104001200C2108224B
:100B1000002305F04DBB00BFF0B5284D89B002ACF5
:100B20000FCD0FC495E80300002584E803002B4691
:100B3000294605244FF480574FF4E13604200A2259
:100B40008DF808408DF81540ADF81650ADF81870C6
:100B5000049605F02DFB01212B460A46042005F0E2
:100B600027FB2B4602200821012205F021FB144C13
:100B7000022009210A22012305F01AFB28460A2235
:100B800001230E2105F014FB204602A905F02CFCE0
:100B9000636D012223F4E06343F480736365636D46
:100BA000082143F003036365022013468DE8240007
:100BB0000A4605F0C7FA09B0F0BD00BF58BF0000F3
:100BC00000E000400320202101F06CBA00B5084A83
:100BD00085B052F84C0F01AB5168127A03C3054837
:100BE00001A91A7005F086FC05B05DF804FB00BF92
:100BF00024BF0000008008402DE9F0478846E2B09D
:100C00004B4F4C4E01464246814668460AF088FAF0
:100C100039783378A8F1030203EB81035B00414686
:100C200068468DF801208DF8023000F02DFF002479
:100C3000020A0DF101030DF8080008F1010E03F896
:100C400008200DF1840C23460DF185024FF05D0A5A
:100C50007D205E210BE07D2D03F101030CF8045093
:100C60000ABF02F804A00134023473450BDC1DF8FE
:100C700003507E2DEFD1013373450CF8040011555C
:100C800004F10204F3DD4146484601F087FB2A489F
:100C90007E2105F01DFC0DF18308A0440DF18305B4
:100CA00015F8011F244805F013FC4545F8D12248EA
:100CB0007E2105F00DFC214B1B784BB100203278D2
:100CC000002382F0010232703B7062B0BDE8F08711
:100CD0004FF47A7001F012FE0028EFD00DF1830975
:100CE000174DA1444FF0030A002413487E2105F05C
:100CF000EFFB0DF1830818F8011F0F4805F0E8FB22
:100D0000C845F8D10C487E2105F0E2FB2046294673
:100D100000220C4B08F072FF0D46044609F008FA59
:100D200001F0ECFD0028C9D0BAF1010ADDD1C6E717
:100D3000520000204900002000E00040230800206D
:100D400000408F400000F83F30B5847887B00278CB
:100D5000002344F00104684604210093ADF80430F8
:100D60008DF800208DF8024000F08EFE9DF80030D6
:100D7000020A7E2B8DF804008DF8052054D07D2BBF
:100D800000F0A3808DF8083001259DF801307E2BFE
:100D900056D006AA7D2B2A4400F0908002F8103C21
:100DA00001359DF802307E2B57D006AA7D2B2A44B0
:100DB00000F0998002F8103C01359DF803307E2B3D
:100DC00058D006AA7D2B2A4400F0868002F8103CF9
:100DD00001359DF804307E2B59D006AA7D2B2A447C
:100DE00000F08F8002F8103C01359DF805307E2B15
:100DF0005AD006AA7D2B2A447CD002F8103C01353B
:100E000043487E2105F064FB0DF10704254414F8E6
:100E1000011F3F4805F05CFBAC42F8D13C487E2105
:100E200005F056FB07B030BD5E238DF809309DF804
:100E300001307D227E2B8DF808204FF00205A8D1CD
:100E400006AB2B447D215E2203F8101C03F80F2C07
:100E50009DF8023002357E2BA7D106AB2B447D21B5
:100E60005E2203F8101C03F80F2C9DF803300235A6
:100E70007E2BA6D106AB2B447D215E2203F8101CED
:100E800003F80F2C9DF8043002357E2BA5D106AB5C
:100E90002B447D215E2203F8101C03F80F2C9DF8D3
:100EA000053002357E2BA4D106AB2B447D215E227A
:100EB000023503F8101C03F80F2CA1E75D2102F89E
:100EC000103C023502F80F1C6BE75D228DF80830EC
:100ED0008DF80920022558E75D2102F8103C023503
:100EE00002F80F1C75E75D2102F8103C023502F88C
:100EF0000F1C62E75D2102F8103C023502F80F1C5E
:100F00007EE75D2102F8103C023502F80F1C6CE709
:100F100000E00040062970B502DD03787E2B01D089
:100F2000002070BD431813F8013C7E2BF8D11E46FB
:100F300001390022012305E0845401338B4202F180
:100F400001020FDAC45C7D2CF6D1C5186D785D2DD9
:100F500004D05E2D04D186540133EEE78454FBE7C0
:100F60009942DDDC941E013A855C035D214603EB6A
:100F7000052500F089FDADB28542D1D1204670BD76
:100F8000F0B50F4D0F4C2B680122002B267883B053
:100F9000227011DB4FF0160E0227684604218DF8EF
:100FA00003308DF801208DF800E08DF80270FFF716
:100FB00023FE4FF0FF332B60267003B0F0BD00BF5F
:100FC0004C000020230800202DE9F04F4C494D4DE6
:100FD0000B68B9B00122002B2E7814AC2A7012DBFA
:100FE0004FF0160E2046022704218DF851208DF86F
:100FF00053308DF850E08DF85270FFF7FDFD404AF8
:101000004FF0FF331360404B2E701B684FF0050903
:1010100009930AAB4FF47A7A08930125099A0421BF
:1010200020462260FFF7E8FD01F0B4F9064601F022
:10103000ABF933784FF0000C8DF831C00D938DF87B
:1010400030500E950F950DF1300E6F46CDE90A0127
:10105000BEE80F000FC74FF0FF36CDF844C0CDF803
:1010600048C010969EE80F0087E80F0008992046B8
:1010700091E80C00614601F003FB4FF002084FF0CD
:10108000170B4FF0030CF023B922062100BB9DF88B
:10109000547020468DF854308DF850B08DF851C002
:1010A0008DF852808DF855208DF85370FFF7A4FD10
:1010B00004211623E8B120468DF850308DF85150A8
:1010C0008DF852808DF85370FFF796FD0C4B1E6023
:1010D000B9F1010F07D0504609F1FF3901F04EF97F
:1010E0004FEA4A0A9AE706490868C01739B0BDE8CE
:1010F000F08F034A3846C017176039B0BDE8F08F4B
:101100004C0000202308002090C100002DE9F04F82
:10111000B9B001F07BF9444B0446D3F800A00D466A
:101120004FF0030B4FF47A780DF12809042108A839
:10113000CDF820A0FFF760FD4FF0000E0123022143
:101140000B228DF831E08DF830300F930D910E9217
:101150000CAF6E460FCF0FC64FF0FF33CDF844E013
:10116000CDF848E0109397E80F00CDE90A4586E8EE
:101170000F00414699E80C0014A801F081FAD0F163
:101180000106404638BF002609F020F94FF07F5194
:1011900009F074F909F05EFBBBF1010B80462DD01C
:1011A000002EC3D09DF85540204B023C1B78032CE9
:1011B0008CBF0024012443BB6CB31D4D1D4C2B6818
:1011C0000122002B2678227011DB4FF0160E08A8A2
:1011D000022704218DF823308DF821208DF820E09E
:1011E0008DF82270FFF708FD4FF0FF332B600020D1
:1011F0002670FFF7E9FE39B0BDE8F08F002ED1D19F
:101200000A4B5C461B78002BD6D00B48214609F0D0
:10121000EDFF002CD1D1064B4FF0FF321A60FFF7E3
:10122000C9F839B0BDE8F08F94C100007400002007
:101230004C00002023080020B0C100002DE9F04F31
:1012400097B0037802AF0F2B044673D0192B43D00D
:101250000D2B03D05437BD46BDE8F08FBA4BC27991
:101260001978FA75B960217CA27C7960617C90F86C
:1012700008B0F960796890F809A090F80A9090F8A1
:101280000B8090F80CC0467B857BB976C07BF968F3
:101290003A76BA6887F816B087F815A087F81490E0
:1012A00087F8138087F812C07E743D74F8767976DB
:1012B000002A00F0BF80A54901200022087007F134
:1012C00010051A70A24C2B46543707CB2060616082
:1012D000A260BD46BDE8F08FD0F88030162BB9DD96
:1012E000817DA3F117051029B4D801A353F821F08B
:1012F0002D160000271600005512000055120000A0
:10130000FD1500003F160000D11500005512000029
:10131000A1150000551200005512000055120000E2
:10132000CF140000C7140000BF140000991400007F
:101330006F1400004279837903EB0223082B00F03D
:10134000158233DD202B00F0D98140F3AE81802B54
:101350007BD0B3F5807F7FF47DAF7E4B1B7813B1DC
:101360007D4809F043FF7D4D7D4C2B6800207D4971
:101370000122834226780870227011DB4FF0160C90
:101380004FF0020E07F110000421FB747A7487F805
:1013900010C087F812E0FFF72FFC4FF0FF332B60EF
:1013A0000A20267000F0EAFF6F4836E0022B00F0BA
:1013B000B681042B52D0012B7FF44CAF654B1B78C8
:1013C00013B16A4809F012FF644D654C2B68012285
:1013D000002B2678227011DB4FF0160C4FF0020E16
:1013E00007F110000421FB747A7487F810C087F8A5
:1013F00012E0FFF701FC4FF0FF332B605C495D4AC0
:10140000584D01234FF0000E0A20267085F800E0A9
:101410000B70137000F0B2FF534802F059FF564AA8
:10142000564BD16821F00101D160DA6822F0010247
:10143000DA600FE7BB69D4E9220107F110050093D8
:1014400095E80C0002F022F83CE7424B1B78002B99
:101450003FF400AF4A4809F0C9FEFBE63D4B1B785C
:10146000002B3FF4F7AE474809F0C0FEF2E6464ACB
:10147000464B1168012201F12C0034311A70FFF73C
:1014800071FAFFF73BFB334B1B78002B3FF4E2AEC6
:101490003F4809F0ABFEDDE63B4A3C4B11680022B9
:1014A00001F12C0034311A70FFF75CFA294B1B78DC
:1014B000002B3FF4CFAE374809F098FECAE6012072
:1014C000FEF74AFFC6E60020FEF746FFC2E6214BC4
:1014D0001B7813B1304809F089FE304B01251D708F
:1014E000FEF7DAFF244B254AD968184621F001019E
:1014F000D960D368194E23F00103D36002F096FD42
:101500004FF0402003F0DCFF174802F0E1FEFFF748
:1015100003F93368124C002B94F8008025700FDB20
:101520004FF0160E022207F110000421FB747D74A7
:1015300087F810E0BA74FFF75FFB4FF0FF333360BA
:1015400084F8008086E600BF551701202D16012083
:10155000A0A70120740000203CC300004C00002024
:10156000230800202208002000200040E4C10000E1
:1015700052000020490000200010004000140040EC
:1015800004C300002CC2000020BF0000441701204B
:1015900030C4000014C40000D8C300002F1601207E
:1015A0008E4E3378002B40F0108107F05FFC00284E
:1015B0007FF450AE0B2D7FF44DAE204602F0AAF81A
:1015C0003378002B3FF446AE854809F00FFE41E624
:1015D0003A2D7FF43FAE00F117012A4607F11000C3
:1015E00009F09EFD07F11000FEF7EEFD7D4B196836
:1015F00001F12C003431FFF7B5F92BE607F036FC8A
:1016000000287FF427AE002D7FF424AE764A774B76
:10161000D16821F00101D160DA6822F00102DA60BC
:1016200007F0E4FC16E606F05DFC13E66B4B1B7856
:1016300013B16F4809F0DAFDFEF758FF0AE6694B6F
:101640006D46196890B004238DF808300DF109003B
:101650003A2209F065FD674B0DF108081B7813B3BA
:10166000654E3368002B1EDBE94696B002AC634939
:101670001822204609F054FD614B41461B880DF1AC
:1016800022001A0A237662763B2209F049FD33686C
:101690002046E3705521FFF7AFFA504B1B78002B23
:1016A00040F09780CD46AD46D4E5102B7FF4D2AD07
:1016B0004A4B1B7813B1534809F098FD4E4D524CDC
:1016C0002B680122002B2678227011DB4FF0160CBC
:1016D0004FF0020E07F110000421FB747A7487F8B2
:1016E00010C087F812E0FFF787FA4FF0FF332B6046
:1016F000404B0022454826701A708EE60020FFF706
:1017000063FC364B00281B7855DB13B1404809F0C9
:101710006DFD384B01221A7006F0E4FB9AE52F4B61
:101720001B7813B13B4809F061FD324B324D00226A
:101730001A70FEF761FE2B68334C0122002B2678CD
:10174000227011DB4FF0160C4FF0020E07F1100063
:101750000421FB747A7487F810C087F812E0FFF751
:101760004BFA4FF0FF332B60267073E51B4B1B7851
:1017700013B1294809F03AFD1F4D234C2B68012273
:10178000002B2678227011DB4FF0160C4FF0020E62
:1017900007F110000421FB747A7487F810C087F8F1
:1017A00012E0FFF729FA4FF0FF332B60114B0022B4
:1017B00026701A704EE513B1184809F017FD0D4B4D
:1017C00000221A70FEF7F6FD44E5154809F00EFDFB
:1017D000EBE6144809F00AFD64E700BF740000203E
:1017E000B4C3000020BF00000010004000140040FF
:1017F00060C30000220800204C00002098C10000B7
:101800005000002084C20000230800200020004077
:10181000E0C2000008C200005CC20000A8C20000D4
:1018200090C3000080C300002DE9F04F664DC3B0A7
:10183000002B14BF9A46AA46BAF8003091460132EE
:1018400008AF4FF6FF74D2B2A3423962FA615F4922
:1018500002F1210208BF00234FEAD202786208BFDA
:10186000AAF80030DFF87881FA600B80012409F1D2
:10187000080B45E0D8F80030002B3EDBBAF800201A
:101880002525FD630023012603204FF0FF3587F84F
:10189000386087F839307B64BD6438644FF0020CDF
:1018A000D1B207F1380E120A6D4607F12806C7F8C3
:1018B0004CC0FA62B962D7E904233E65C7E90C233C
:1018C000BEE80F000FC59EE80F0085E80F0007F186
:1018D00030030CCB07F15800C7F804C04FF47A71FD
:1018E00000F0CEFED7F804C0002858D197F85D006C
:1018F000003018BF0120002852D001340B2C60D0DA
:101900000BF4FC737A6A6E46ADEB030D8DF8202064
:101910000DF121004A46396A09F002FC2C4B1A7875
:1019200008AB002A32D0D8F80020DFF8B4C0002A73
:101930002CDBF9686A46A2EBC102C7F818D09546BD
:1019400008AD244918222846C7F804C0BB6009F036
:10195000E7FB1E49BB680A881946130A2A766B768C
:10196000FA690DF13A0009F0DBFBD7F804C0FA6917
:10197000DCF8003002F11A01EB702846C9B2FFF71B
:101980003BF9154B1B78C3B9BB699D46012CB54685
:101990007FF470AF00F0F8FCC7E904016AE7604625
:1019A000BAF8002009494FF6FF730132EC37AAF864
:1019B00000200B80BD46BDE8F08F084809F016FCFA
:1019C000E2E70120ECE700BF2008002050000020E3
:1019D0002208002098C100007400002080C300008D
:1019E0004C0000202DE9F04102F1080303F4FC73E0
:1019F00000AFADEB030D6B4603F8010B1846541C0A
:101A000009F08EFB1A4B6E461B7853B3194D2B68A9
:101A1000002B26DBE4B204F1210303F4FC73E84657
:101A2000ADEB030D14491822684609F079FB134BFE
:101A300031461B880DF11A001A0A8DF818308DF8FE
:101A40001920224609F06CFB2B6804F11A018DF86D
:101A50000330C9B26846FFF7CFF8094B1B781BB9B2
:101A6000C546BD46BDE8F081064809F0BFFBF7E773
:101A7000220800204C00002098C1000050000020E7
:101A80007400002080C3000030B489B1094D0023E8
:101A90004FF6FF72C45C01335440E4B235F8144091
:101AA0008B4284EA1222F5D1D24390B230BC704707
:101AB0000846FBE74CC40000014B1868704700BFA4
:101AC00024080020014B1868704700BF9C170120B4
:101AD000344B2DE9F0431B68334C1B68266891B0EA
:101AE00003EB864606EB0136044630460D461746A4
:101AF00006F056FD033048D0394606A8252209F0E5
:101B00000FFBE700294E35B33D1906EB45054FF0B5
:101B1000FF314FF00008CDF80080002300226970EB
:101B2000A970E970297102A802F0F6F8DDF808C082
:101B3000039804996B1D05F11002C5F805C05860A3
:101B40009960032582F801803C4406F81450002077
:101B500011B0BDE8F083BDF81C10BDF81E203B1984
:101B60009DF83C9006EB43030DF1300CA3F80110F7
:101B7000A3F8032083F81190BCE80700C3F8050020
:101B8000C3F80910C3F80D20DEE7304606F0F2FD79
:101B9000064B04EBC404022203F814204FF0FF307C
:101BA000D6E700BF9C17012024080020A0170120C1
:101BB0002DE9F04F794C95B0237880460591154674
:101BC000002B7CD1002A7AD1754B059903EB482074
:101BD0004FF4007209F0A4FA724B01261C68724B94
:101BE000002C03F80860C0F2D580DFF8D0A16F4F59
:101BF000DAF800301B6803EB84430393002D40F0B8
:101C00009980694B08F1FF35694A1D44644B424491
:101C100002EB06094FEA083B03EB4826CDF810809B
:101C200005E04D450BF5805B06F500761DD015F8F7
:101C3000013F002BF5D0DAF8003031461B685B44D9
:101C400003EB8444204607F041F85A4B80461A784B
:101C5000002A42D118F1030F46D0524B4D451C6863
:101C60000BF5805B06F50076E1D1DDF81080059973
:101C70000AA8252209F054FAB8F1000F62D1E60053
:101C8000BDF82C10BDF82E2033199DF84CA007EBA1
:101C9000430310ADA3F80110A3F8032083F811A0AB
:101CA00007CDC3F80500C3F80910C3F80D203D4B5C
:101CB0003444186807F8148015B0BDE8F08FFF2190
:101CC0004FF48042364809F034FA37480021402268
:101CD00009F02FFA0023237076E72146364809F0F1
:101CE00085FA18F1030FB8D1039806F043FD2D4B88
:101CF00002221C6804EBC403002C07F8132047DB06
:101D0000611CC1F309010C4602E099423CD01C461B
:101D100004EBC40317F81320631C022AC3F309035E
:101D2000F3D0204B002C1C6032DB4FF00008012563
:101D300020265DE7184606F033FC0330D4D0194B5B
:101D40001C685EE7E600351907EB45054FF0FF31EB
:101D50004FF0000ACDF800A006A86970A970E970DC
:101D600029710022002301F0D7FFDDF818C0079881
:101D700008994FF00308C5F805C0C5F80900C5F873
:101D80000D1085F811A092E7064B4FF0FF341C6050
:101D9000204691E74FF0FF308EE700BF5300002050
:101DA000280800202408002028480020A01701202F
:101DB000274800207400002098C900009C170120CB
:101DC00030B40F4D2868002812DB0130C0F3090140
:101DD00008460C4C02E099420CD0184600EBC003B8
:101DE00014F81320431C022AC3F30903F3D028601C
:101DF00030BC70474FF0FF30286030BC704700BFE8
:101E000024080020A01701202DE9F04F91B000AF69
:101E100004F032FD052006F01DFC06F055FBDFF84E
:101E200074B28F4C9BF80030206043B39BF80030B5
:101E3000002B40F0CF809BF80030002B40F0D28088
:101E40009BF80030002B40F0D7809BF80030002B2F
:101E500040F0DC809BF80030002B40F0E2809BF8E3
:101E60000030002B40F0E7809BF80030002B40F062
:101E7000EC809BF80030002B40F0A8802068C268FE
:101E8000036900249A4228BF1346073323F007034F
:101E9000ADEB030D4FF0FF33DFF8D0A105687B6099
:101EA0006E46A046FB607B6107E01234B4F5904FAC
:101EB00005F5802508F1010861D02846314606F075
:101EC00075FE3378FF2B0BD09BF8003002220AF806
:101ED0000420002BE9D02946624809F087F9E4E79D
:101EE0002846314606F0A4FC814618B101230AF8C1
:101EF0000430DAE73146252207F1180009F010F91D
:101F00004FF00103B86958493B6008F04BFC3B684F
:101F100000B14B4613F0FF0F0AF804300AEB040C33
:101F2000C3D1FB8B514908EBC80201EB4202BB60F5
:101F30000CF105013961B7F81C90B96807F130035D
:101F4000A2F80190A2F8031007CB3B69CCF805007A
:101F500059609A607B6901330AD0FB68994507DCB8
:101F60004B45A2D1BB6879688B429EDD7B6003E064
:101F7000BB68C7F80C907B60C7F8148095E77B6955
:101F80003B4C5A1C1ABF581CC0F3090000200346E2
:101F900002E0824216D0134603EBC3021AF8121075
:101FA0005A1C0229C2F30902F3D023609BF80030C7
:101FB0001BB13048F96809F019F9F8684437BD4693
:101FC000BDE8F08F4FF0FF332360EFE70A2009F000
:101FD00025F953E7284809F009F99BF80030002B50
:101FE0003FF42EAF23682548197909F0FFF89BF8D4
:101FF0000030002B3FF429AF23682148597909F0BC
:10200000F5F89BF80030002B3FF424AF23681D48FF
:1020100099680A0D09F0EAF89BF80030002B3FF4AC
:102020001EAF23681848D96809F0E0F89BF8003023
:10203000002B3FF419AF23681448196909F0D6F84A
:102040009BF80030002B3FF414AF23681048596907
:1020500009F0CCF89BF80030002B3FF40FAFB5E748
:102060009C17012048C70000E42C283FA01701203E
:102070002408002070C700004CC6000070C6000095
:1020800090C60000B0C60000D4C60000F0C6000034
:102090000CC7000074000020014B01221A70704729
:1020A00068480020F0B5194B012583B0184C07464D
:1020B0000E46184829461D7002F08AFD394616481A
:1020C00002F0FEFD3146204602F052FA204602F0B0
:1020D00077FC124B29461860204602F079FD002358
:1020E00001A88DF804308DF805308DF8063004F025
:1020F0004BF90B490B4BC8694FF0804220F00700A9
:10210000C861C3F880211A6003B0F0BD694800209F
:102110006016100000430200020018007048002002
:102120000000084000E100E010B5094C094B62686E
:1021300000201A6004F024F90223A361064BE2692F
:102140001B6822F00202E26103B1984710BD00BF94
:10215000000008406C480020744800202DE9F04140
:10216000064682B000200F4604F00AF9254B1C7881
:10217000CCB1254D254A264C02231760A36129685E
:10218000244B01FB06F6A3FB06210020890904F07D
:10219000E9F8012004F0F4F8E36943F00203E36195
:1021A00002B0BDE8F0814FF0010841461A4883F8BB
:1021B000008002F00DFD1948032102F081FD20216D
:1021C000174802F0D5F9164802F0FAFB0E4D4146C9
:1021D0002860134802F0FCFC01A88DF804408DF83B
:1021E00005408DF8064004F0CFF809490D4BC86949
:1021F0004FF0804220F00700C861C3F880211A60C8
:10220000B8E700BF694800207048002074480020EB
:1022100000000840D34D6210004302000200180085
:102220006016100000E100E02DE9F84F494C002352
:10223000074649480D46237002F0C2FB474906464F
:102240002846FFF78BFFBD424AD8454A04E0136990
:1022500023F00403136130BF2378002BF7D0414DE6
:10226000DFF8148172B62B683E495A1C36D05A1CCE
:102270000A60237803F0FF00E3B1013A2A6002B953
:1022800062B6D8F8000008F0A1F80446304608F01D
:102290009DF80146204608F0A5F9334908F0EEF80C
:1022A00007F058FC0022314B07F0F6FA07F068FF00
:1022B000BDE8F88F2E4C6368C8F8003004F060F871
:1022C0000223A3612B4BE2691B6822F00202E26148
:1022D00003B198472A68002AD3D0CEE71A46C8E748
:1022E000204DDFF89480DFF878A0DFF884901CE0C0
:1022F000D8F80000013B2B6003B962B608F066F81D
:102300008346304608F062F80146584608F06AF9FC
:10231000154908F0B3F807F01DFC0022134B07F035
:10232000BBFA07F02DFF87429CD92378002B99D167
:10233000DAF8103023F00403CAF8103030BF72B658
:102340002B682278591C18BF0133002AD0D1D9F844
:102350000400CFE7684800206016100099200000B4
:1023600000ED00E0EC08012000007A440000E03FAE
:1023700000000840744800206C4800200146FFF728
:1023800053BF00BFFFF750BF014BD3E900017047B7
:10239000C053002000487047C853002030B4054B9C
:1023A000054C0A4630CC0146C3E9004530BC034821
:1023B00008F0B6BEC053002078480020C853002063
:1023C0002DE9F047DFF8408006468A461422D8E916
:1023D0000001002308F05EFAD8E9004502EBC202D2
:1023E00008EB02193146661C09F1080945F100079E
:1023F000C8E9006748465246C9E9224508F090FE00
:10240000C9F880A0BDE8F0877848002010B4064CD9
:10241000D4E90001D4E90023994208BF9042F7D1E2
:102420005DF8044B704700BF7848002082B02DE96A
:10243000F04FB1B03AA981E80C00419A9DF8F13013
:1024400008920593409A429B3F999DF8F090DDF8E1
:10245000F480DDF8F8C0894E0792099306910B903D
:10246000DDE93A01D6E900ABD6E900239B4508BF78
:102470009245F7D15AEA0B0200F0F680D6E9004502
:10248000D6E900239D4208BF9442F7D1002D08BF32
:10249000142C77D2059B00240025002B78D18D4287
:1024A00008BF84423CBF04460D46B9F1000F7AD103
:1024B00022462B464FF0FF304FF0FF311AF1FF3428
:1024C000CDE902014BF1FF3512EB000A43EB010BA2
:1024D000089B0CA81844CDE900AB0A90E346B9F17B
:1024E000000F3ED0DDE900239D4208BF94422CBF7F
:1024F00000230123002B3ED020462946142200232E
:1025000008F0C8F902EBC202120102F1080306EB5F
:10251000030ADAE922018D4208BF84420DD15749EE
:102520000CA811440831902208F0FAFDDAE92223C0
:102530009D4208BF94422C9F02D0059900297BD16F
:10254000B8F1000F34DB002F03DD9DF83030434538
:102550002ED0DDE90201241845EB0105B9F1000F89
:10256000C0D1DDE90001A94208BFA0422CBF002371
:102570000123002BC0D16FF0030031B0BDE8F04F54
:1025800002B07047059B143C45F1FF35002B86D007
:10259000B9F1000F57D0A94208BFA0426AD38D42BB
:1025A00008BF844259D301220023CDE902238FE7DB
:1025B000BBF1000F05DB012FCBDD9DF831305B4512
:1025C000C7D1069900292ADB022FC2DD9DF83230DF
:1025D00003F001028A42BCD10798002827DA089943
:1025E000002944DD099A0DF1300CDDF828A0111FF7
:1025F000634651F8042F002A02DBD8788242A8D122
:1026000001335345F5D10B98614690222C9708F081
:1026100087FD002031B0BDE8F04F02B07047079A47
:10262000002ADCDB022F94DD9DF832300798C3F3DB
:10263000400383428DD1D2E76FF0020031B0BDE894
:10264000F04F02B0704722462B468B4208BF8242B1
:10265000BFF430AF02460B462CE7012200230446AC
:102660000D46CDE9022333E74FF0FF30D2E70DF1FD
:10267000300CC8E76FF00100CCE700BF78480020BD
:1026800082B02DE9F04FB9B042AC84E80C00DFF81D
:102690006882139010915E469DF811419DF810914B
:1026A0000C94479C459F0D94489CDDF818C10E94EE
:1026B000499C42AA0F944A9CD2E900011194D8E99E
:1026C00000ABD8E900239B4508BF9245F7D15AEAF1
:1026D0000B037ED0D8E90045D8E900239D4208BF0E
:1026E0009442F7D1002D08BF142CC0F0E2800C9A60
:1026F000143C45F1FF35002A40F0E1808D4208BFCF
:1027000084423CBF04460D46B9F1000F40F0E4801E
:1027100022462B464FF0FF304FF0FF311AF1FF34C5
:10272000CDE90A014BF1FF3512EB000A43EB010B37
:102730000F9B14A81844CDE908AB1290E346B9F1F9
:10274000000F3CD0DDE908018D4208BF84422CBF58
:1027500000230123002B3CD02046294614220023CD
:1027600008F098F802EBC202120102F1080308EB2C
:10277000030ADAE922018D4208BF84420DD15E4985
:1027800014A811440831902208F0CAFCDAE9222387
:102790009D4208BF9442349E01D00C98C8B9002FC6
:1027A0003DDB002E03DD9DF85030BB4237D0DDE924
:1027B0000A23A41845EB0305B9F1000FC2D1DDE9E6
:1027C0000823AB4208BFA2422CBF00230123002BE9
:1027D000C2D1109C002C0BDD21460A29A8BF0A217A
:1027E0000120FFF7CFFD241A002C10943FF754AFBF
:1027F00044AD6C460FCD0FC495E80F0084E80F0080
:1028000042A991E80C001398FFF710FE003018BFA2
:102810000120404239B0BDE8F04F02B07047BBF133
:10282000000F05DB012EC2DD9DF851309B45BED166
:102830000D9900292BDB022EB9DD9DF8523003F0F3
:1028400001028A42B3D10E98002828DA0F9B002B90
:102850002CDD1199DDF848C0081F14A90B4650F86B
:10286000042F002A03DB93F803E072459FD1013364
:102870006345F4D1B34613989022CDF8D0B008F058
:102880004FFC002039B0BDE8F04F02B070470E9AFF
:10289000002ADBDB022E8ADD9DF852300E98C3F34E
:1028A0004003984283D10F9B002BD2DCB34614A97E
:1028B000E1E70C9A00240025002A3FF41FAFB9F18C
:1028C000000F0ED0A94208BFA04282D38D4208BF9C
:1028D000844201D204460D4601220023CDE90A2399
:1028E00026E722462B468B4208BF8242BFF412AF36
:1028F00002460B460EE700BF784800202DE9F04F56
:10290000E1B060AC0C94DDF83080634A634BD2E9EF
:10291000004568E9524593F800B0CDF83080CDE924
:102920000A45DFF87C810C9D002301215FFA8BF4BE
:102930004FF0FF3209940D90297269616B72EB615F
:102940002B62EC602A61AA61C246D8E90067D8E927
:1029500000239F4208BF9642F7D156EA070057D09E
:10296000D8E90045D8E900239D4208BF9442F7D139
:10297000002D08BF142CC0F08C80143C45F1FF35AD
:10298000DDE90A018D4208BF844205D204460D46A6
:1029900002E0013445F10005BD4208BFB4422046C3
:1029A00029464FF014024FF0000331D207F072FFB6
:1029B00002EBC202120102F1080308EB030BDBE990
:1029C00022018D4208BF84420AD10AEB020108317C
:1029D00090223CA808F0A4FBDBE92223DDF87091EB
:1029E000B9F1020FD5DD9DF8F03009999942D0D1A7
:1029F0009DF8F230DB07CCD518AD28463CA99022D3
:102A0000CDF8709108F08CFBE87861B0BDE8F08FEC
:102A10000D9C002C0BDD21460A29A8BF0A210120AC
:102A2000FFF7B0FC0D9C241A002C0D948DDCDDF812
:102A30003080099D002301224FF0FF36C8F80C506A
:102A4000C8F81C30C8F82030C8F8186088F808208A
:102A5000C8F8142088F80930C8F8106010AD6C462A
:102A60000FCD0FC495E80F000C9DDDE90A89C5E97B
:102A7000008984E80F00DDF8308018AD98E80C007C
:102A80002846FFF7D3FC0028BED0304661B0BDE831
:102A9000F08F0024002573E7C0530020C8530020A6
:102AA0007848002072B6074A07491368581C03D0BB
:102AB00088682BB962B670476FF0010388681360AD
:102AC000704700BFEC080120685400202DE9F04F4A
:102AD00001298BB00691099240F29D8000240025C7
:102AE000CDE90045504D4FF6FF722A60079292469D
:102AF0004E494F4A0023DDE900451F46A0F1020977
:102B0000984608939B461E460B601360CDE904452A
:102B1000CDE9024500E0BB4639F8024FA4F5FF4578
:102B20007F3D284607F004F802460B46DDE9020126
:102B300006F0B2FECDE9020105FB05F006F0F8FF54
:102B400002460B46DDE9040106F0A6FECDE90401CC
:102B5000204606F0EDFF02460B46DDE9000106F0D7
:102B60009BFE5C4588BFB04688BF27465445CDE9EB
:102B7000000102D20794A2460896069D0136AE4295
:102B8000C9D1079C284D2B4B2C602849284A089C0A
:102B9000099D0F60C2F800801C600698002D3ED091
:102BA00006F0B6FF04460D4622462B46DDE902013B
:102BB00007F04EF907F004FB0999086022462B46FE
:102BC000DDE9000107F044F907F0FAFA1A4B186042
:102BD000DDE9020102460B4607F010F822462B46BB
:102BE00007F036F90B460246DDE9040106F052FE15
:102BF000069A0446501E0D4606F08AFF02460B4612
:102C00002046294607F024F904F0A8F907F0D8FA7D
:102C10000BB0BDE8F08F00200BB0BDE8F08F06F0E0
:102C200077FF04460D46C9E7485400204C54002065
:102C3000D80801205C540020605400202DE9F04F9A
:102C40008BB05F2900AF0D460646FA613B6140F24A
:102C5000AC804B00083323F00703ADEB030D0023DA
:102C6000984613709A46524BADF1020C1B68C7F898
:102C70000CC07B61DFF858C14E4BC7F818D000215B
:102C8000F8680A464FEA480406EB8101095B013205
:102C9000AA4220F8021F1146F6D14FEA880907F12F
:102CA00020024A442946B86987E80810FFF70EFF5A
:102CB00039697A6941F828004A44D1698346BA6083
:102CC00007F08EFDBA680028D168584618BF4FF04B
:102CD000010A07F085FD97E8081030B1012000FADD
:102CE00008F2F86901780A430270334A33481168E0
:102CF0000268386D08F101080153786DDCF80010A6
:102D000002532F48B8F1020F0268B86D0153F86DF5
:102D1000196802533C6E44F80910B0D1BAF1000FA3
:102D200004D100202C37BD46BDE8F08F254B264945
:102D30001A6843F62040A1FB0261490801EB4101FA
:102D4000521A00FB02321032D7F814C0517DDCF861
:102D500004400029E5D172B61C48926901684E1CF6
:102D600012D0DFF84CC01444DCF800609A682544A7
:102D7000B468954228BF2A46A24294BF9A609C60DC
:102D80000029CED162B6CCE7094E144431689A6866
:102D900025448C68954228BF2A466FF00101A24263
:102DA00094BF9A609C600160BBE74FF0FF30B9E7C9
:102DB00020BF0000605400204C54002048540020E4
:102DC0005C54002068540020ABAAAAAAEC08012099
:102DD000D80801202DE9F04FADF60C1D72B68D48D4
:102DE0008D4A03685168581C18BF0133002900F050
:102DF000FB811668894943F62040A1FB064149083A
:102E000001EB4101711A00FB012202F11007FC697C
:102E1000787D16941699BC69B1F5C07F149080F046
:102E20008281002808BF00210E917A48013B03608F
:102E3000002B31D162B60E99BB69002930D10E9CAE
:102E40002344BB6172B6734E0E9C3268531CFB69FF
:102E500018BF01321B1BB3F5C07FFB61C0F0678157
:102E6000797D002900F06D81002B40F06A810123FB
:102E700069484168684C01392068013084E80300E2
:102E8000644E013A326002B962B6002BA6D100202E
:102E90000DF60C1DBDE8F08F0E9923460029CED00B
:102EA0005F4AA2FB0302D20AC2EB0212A3EB022288
:102EB000C2F570658D4228BF0D464FEA850802F1C4
:102EC000080107EB81014246C2A808F029F90E99D2
:102ED000A94200F279810DF178090DF17C080DF11C
:102EE000800B0DF1840A24AD1CAA22ABCDF8009012
:102EF000CDF80480CDF808B0CDF80CA00495C2A898
:102F0000FFF79CFE20B99DF87030002B40F07881CF
:102F1000FEF7D2FD0028C0F23A810E9BC2A99A00AA
:102F200001EB8300C2F5C062FF2108F002F90E98A0
:102F300007F04CFA4FF0705107F0A0FA06F00AFEC5
:102F400003F022FD07F0F4F80028179040F31F81EA
:102F5000B6B211960C94119CC2AEA4B210960E9EFD
:102F60000A94002412960F94BB460C9E2D48F40937
:102F7000A0FB0405C5EB4515B6EBC5152A480A9E0E
:102F80001499068014BF00260126002900F0018153
:102F9000169A0E9B9A4200F00D810023139323484A
:102FA0000378002B40F0FB80214A109910683246CC
:102FB0001F4E431C3360FEF7FBFD0028C0F2E68085
:102FC000B5F570625542139E5541159546B99BF86B
:102FD0001430002B00F0C180159E002E00F0C4803C
:102FE00010484FF00009A0FB0404FEF765FD2746DA
:102FF000C4EB44130C9A129CD846802C94BF12192F
:103000008032A2EBC3134E460D900B93BB46814614
:103010007FE000BFEC08012068540020ABAAAAAAF8
:103020008988888888104208DC0801207400002004
:1030300054000020B1480AEBCA0310F81330022BE9
:1030400061D0032B40F08680BBF1000FC0F282807C
:103050000B9C002E08F1080718BF4FF4786497E81E
:103060000700079400F038FE044658460D4606F067
:103070005FFDA34BD3E90023CDE908230022A14B38
:1030800006F0BCFDDDE9082306F0E2FE02460B4631
:103090002046294606F000FC02460B4629A800F00F
:1030A000EFFD97E807002CAB83E8070000214FF401
:1030B000007242A898F8145008F03BF8079892491B
:1030C0000A9A1FFA8BF48DF8BC50ADF89E402890F8
:1030D0002691ADF89C2026AD42AC0FCD0FC40FCD8C
:1030E0000FC495E8030044F8040B2170002E00F093
:1030F00021818648037833BB504642AA0021FEF75F
:10310000E7FC0BF1FF3B0136B6F5006F09F1FF3923
:1031100020D0B9F1000FCA468CDA0D9C04F5006A84
:10312000C6EB0A0A86E74FF4C0720E927DE6002BCA
:1031300048D1774E7168012950D97B7D0BB10123AD
:1031400098E601239CE600215246119B714808F045
:103150004DF8D1E7139CC3460CB9159C24B16E4EB3
:1031600001233360FEF72CFE0F9C0C9E0134803649
:103170000F940C96109C129E04F50074803E1094DF
:1031800012960F9C179EB4427FF4EFAE5F46BB6968
:1031900055E65E4813910378002B3FF405AF5E4976
:1031A0000F68FEF789FC39460246119B5B4808F020
:1031B0001DF8F9E617980F99431EC91A4B424B4167
:1031C0001393ECE67B7D5BE64A1BC2A807F1200166
:1031D0009200404407F0A4FF0E997CE6797D002917
:1031E0007FF446AE0B464BE64D4C013B2360002B73
:1031F0007FF44DAE62B600200DF60C1DBDE8F08FD9
:1032000022A908220DF1CD008DF8CC3007F088FFFF
:10321000494604220DF1D50007F082FF4146042201
:103220000DF1D90007F07CFF594604220DF1DD00B5
:1032300007F076FF514604220DF1E10007F070FF20
:10324000294608220DF1E50007F06AFF304A43F6EF
:1032500020411368334ADFF8D8A0A2FB03025208CA
:1032600002EB42029B1A2A4A01FB032303F11805D1
:1032700095E8070003F1100B00F02EFD8046DBF807
:103280001800894607F0A2F8DAF8001007F0AAF94A
:1032900006F060FC02460B464046494606F0FCFA42
:1032A00002460B4618A800F0EBFC189819991A9AD8
:1032B000DBF818E030AB07C307CDCDF8F500CDF84B
:1032C000F910DAF800001849CDF8EDE0CDF8FD204E
:1032D00007F0D4F807F0BEFA144DADF8F10095F8F8
:1032E0000080012330A908204122ADF8F3602B7043
:1032F000FEF778FB85F800800AE600BFA0170120E2
:10330000901701200000AF40E42C283F74000020FB
:10331000685400209CC800005400002030C8000001
:10332000EC080120ABAAAAAA0000C842230800208A
:1033300058000020094C237833B1FEF7BDFB119AE9
:103340000146074807F052FF002042A90246FEF757
:103350002FFC0028BFF6D5AE474618E774000020C2
:1033600064C800000A4B5A6882B1186809490244CF
:10337000013AA1FB0201490801EB4101521A43F64F
:10338000204101FB0233012283F82520704700BF52
:1033900068540020ABAAAAAA174B30B493E81400D3
:1033A00016492244013AA1FB0241490801EB4101BF
:1033B000521A43F6204505FB023393F825201033BB
:1033C0001AB9DA69B2F5706F01D330BC70479969E8
:1033D0000B4C1144A4FB0154E40AC4EB0414A1EB0C
:1033E0000424551C08340146DD6103EB84000422EB
:1033F00030BC07F095BE00BF68540020ABAAAAAA53
:103400008988888838B51E4C63681BBB22681D4DAF
:103410001A44A5FB02056D0805EB4505521B43F652
:10342000204505FB02450021581C00220023C5E968
:103430000623A962E96285F82510296285F824101F
:103440006060FEF7E3FF104BC5E904011B681B68D1
:10345000A36038BD22680B491A44013AA1FB02015E
:10346000490801EB4101521A43F6204101FB024297
:10347000022B4FF0010182F82510C7D938BD00BFDB
:1034800068540020ABAAAAAA20BF000082B02DE990
:10349000F04F83B00CAC84E80C0072B6DFF858C172
:1034A000534DDCF800305A1C1CBF0133CCF80030FF
:1034B000D5F804C00193BCF1000F00F08480002413
:1034C000D5F80080DFF838B1A14643F6204A04EB76
:1034D0000803ABFB0321490801EB4101591A0AFB20
:1034E000015110310E7DD1E900233EB9821A05D475
:1034F000BA4200D314B98946174600940134644592
:10350000E5D1B9F1000F5ED0DDF800C009F1080384
:103510000CF1010601270DF1300CA6429CE80700D2
:1035200083E8070089F814704DD2B04407F1AA3738
:10353000A7FB08135B0803EB4303C3EB080843F640
:10354000204404FB08541034237D002B3BD1DFF8CA
:10355000A0800FE0D8F8003043F620443344A7FBA6
:1035600003C2520802EB42029B1A04FB038410348C
:10357000237DC3B90CAB93E8070000F0ADFB00223C
:103580001C4B06F089F902460B460CA800F078FBAC
:103590006B6801360DF1300C0834B3429CE807002B
:1035A00084E80700D6D8144C144B24680DF1300C75
:1035B0009CE80700019483E8070054B903B0BDE814
:1035C000F04F02B070470D4B0CAC94E8070083E855
:1035D0000700019CDFF820C0631ECCF80030002BF0
:1035E000ECD162B603B0BDE8F04F02B0704700BF47
:1035F000685400200000F03FEC08012050540020E7
:10360000ABAAAAAA3B4B2DE9F04F1B68DFF8F8A044
:103610001B6BDAF800104FF47A720B4487B08046C7
:1036200002FB03F006F0D2FEDFF8E090DFF8E0E006
:10363000D9F804108346DEF80060D9F80000DEF8FF
:103640000470DEF808E0361A67EB0107BB00D9F812
:10365000081043EA9673B2005D012748C1EB0E0ED5
:1036600045EAD2655401A21A65EB030380FB0E14F0
:10367000B61847EB03074FEAEE7ECEEBA41EF90027
:10368000F00010EB0E0041EA567141EBEE7106F0CE
:10369000B7FE0146584606F0A5FF184A184D0346E6
:1036A00014882B60B9E80700CDF80600CDF80A10A1
:1036B00018461449CDF80E20ADF8044006F0DEFEA1
:1036C00007F0C8F8DAF80030ADF81200ADF81430A1
:1036D00001AC0FCC2488C8F800004046A8F8104080
:1036E000C8F80410C8F80820C8F80C3007B0BDE8C6
:1036F000F08F00BF20BF0000D34D6210DC08012016
:10370000580000200000C8425C17012050540020DF
:10371000A0A701202DE9F04FB9B002AF07F138049E
:1037200000F117010B22204607F0FAFC94E807008D
:1037300007F1480303C3DFF840A323F8022B9AF8EC
:103740000010120C1A70002940D1FEF7B5F9D7F815
:103750003F60D7F83B503863AE42FE602CD900285A
:103760002ADBADF5006D02AE9AF80030ADF5006DC4
:10377000FE6102AE7E633D61002B40F051829AF8FB
:103780000030002B40F056823C6BB7F838E0B24B6B
:103790000126A44604EBC40213F81210601C03EBCC
:1037A000420219B9B2F80120724515D0C0F30A04DB
:1037B00064454FF00006EDD107F1480106200B22C9
:1037C000FEF710F9DC37BD46BDE8F08FB7F84810BA
:1037D000A24807F00BFDB8E7D7F830E0744500F0D9
:1037E0003782BD6200267E62BE6A01257E610026A8
:1037F000013CA9463E627E69D7F828E076457ADC2E
:10380000796A4FEA8448C7F82C904E1C8B46D7F84B
:103810001C9001E0AE4218D05D45FBD8FEF752F98E
:1038200002689AF8003008EB020C0CEB053C002B08
:1038300043D1604649464FF4006205F0D9F80028AC
:1038400000F09A810135AE42E6D1FE6AFD62FEF7D4
:1038500039F901340368C4F309044FEA844808EBDA
:10386000030B4FF400625846796B05F0C1F8DFF89E
:10387000E8E19AF8002004EBC40584460EEB450904
:103880004ABB1EB9396B8C4200F0C181724A12F8F2
:103890001530022B0CD0002B40F09181B9F80110AB
:1038A0003A8F914240F09181BCF1000F00F092817B
:1038B0009AF80030DBB90026C9E7B7F84830684805
:1038C000CDF800C02946C7F800C0224607F08EFC9C
:1038D000D7F800C0ADE75B4662482146B7F84820FC
:1038E000C7F800C007F082FCD7F800C0C9E75E48FF
:1038F00007F07CFCDFE74FF0000B5C4802F0EEFDC8
:1039000005F0B4FA00287FF45DAF594B1B68002B1B
:10391000FFF658AFFE68BBF1000F00F0FB8006F128
:103920000108C7F82C80BE6AB04594BF4FF0000C68
:103930004FF0010C3E6ABCF1000F40F0F380132EF3
:1039400000F09C80BBF1000F3AD17E69B96AC1EBEF
:1039500006083E6AC6F11303984528BF98464346B9
:10396000002BC7F8188025DD8E463969D8463246C7
:10397000C1EB0E06D7F81CE007F18C03BC6044468F
:10398000D7F8188003EB820B0EEB860631465846BB
:10399000022207F0C5FB01340BF10200B11C022228
:1039A00007F0BEFBA0450BF1040B06F10406EDD1B8
:1039B000BC683E6ABB691E443E62BE6A1E44BE626B
:1039C000BE6AF96A8E42FFF416AF9AF80030002BF7
:1039D00040F037813E6A002E7FF7F4AED7F828E03A
:1039E00000204FF08041C6EB0E040EF1FF35024679
:1039F0000B46C7F84B40C7F84F5003F033F900228D
:103A00001C4B05F047FF06F0BBFBBE6A87F84A0077
:103A1000341BA40004F1120323F007036E46ADEB40
:103A2000030D02AD07F1480128460B2207F078FB91
:103A3000224607F18C010DF1130007F071FB04F130
:103A40000B022946D2B200230620FDF7EDFEDC373B
:103A5000B546BD46BDE8F08FA0170120D8C80000CC
:103A60006CC90000B0C90000A8C90000008008406F
:103A70004C0000200000F03F740000203A6AD7F8A4
:103A800028E000204FF08041C2EB0E060B460EF1FD
:103A9000FF3E0246C7F800C0C7F820E0C7F84FE075
:103AA000C7F84B6003F0DEF800226B4B05F0F2FE26
:103AB00006F066FBB96AC7F820D08E1BB60006F187
:103AC000120323F00703ADEB030D02AB87F84A00A6
:103AD00007F1480118460B227B6007F021FB3246B4
:103AE0000DF1130007F18C0107F01AFB7B6806F15A
:103AF0000B021946D2B206200023FDF795FE3E6A5E
:103B0000D7F800C0B546BCF1000F40F09E80C7F862
:103B100020C017E7D7F81080731CFB62984528BFB8
:103B2000984600E7002EA9DCD7F828E000204FF0E7
:103B3000804102460B4608F1FF36C7F84BE0C7F854
:103B40004F6003F08FF8444B002205F0A3FE06F00F
:103B500017FB07F1480187F84A000B2207F15400D0
:103B600007F0DEFA07F154010B2200230620C7F804
:103B70002880FDF759FEE5E69AF80030D7F82C903A
:103B8000002B49D1B7F8662005F10073C2EB421251
:103B9000D201013B02EBC313FE683B61B96E731C9B
:103BA0003E690A449A4228BF1A4606F180039A42A7
:103BB00028BF1A4601357A614FF0000B9DE6FD6A79
:103BC0004FF0010B4FF0000997E6FD6A99464FF060
:103BD000010B92E62522796B07F16000C7F800C05F
:103BE00007F09EFAB86E06F0F1FB4FF0705106F048
:103BF00045FC05F0AFFF02F0C7FED7F800C0012575
:103C0000C7F82CC006F0BCFA78620146FDE5B14663
:103C1000FD6A4FF0010B70E6104807F0E7FAB1E7D4
:103C20000F4829462A4607F0E1FA9AF80030002B9F
:103C30003FF4AAADD7F83F100A480A4607F0D6FA73
:103C4000A2E5094807F0D2FAC4E600263E626BE717
:103C5000002E7FF4C6ADAFE50000F03FA8C900001C
:103C6000F4C8000030C90000F0C9000008B5FEF734
:103C7000CBF8024B0130186008BD00BF685400202B
:103C80002DE9F04119468046104616461F4602F0BF
:103C90000BFF06F015FE04460D4605F081FF0246B7
:103CA0000B463046394605F0F5FD09A3D3E900235C
:103CB00005F0A4FF02F088FFC8F80040C8F80450DF
:103CC00006F036FAC8F808004046BDE8F08100BFAB
:103CD0000000000080842E4130B585B004AB03E9BC
:103CE00007000198029905F05BFF044603980D4612
:103CF00005F01EFF06A3D3E9002306F0A9F802464B
:103D00000B462046294605F0C7FD05B030BD00BF73
:103D10000000000080842E4110B4019C0260846089
:103D200043605DF8044B704770B51C4B86B00124AE
:103D30001C701B4D02F0F6FA0220002102F0E2FA9C
:103D400021462246052001AC01F020FB0FCD0FC417
:103D50002B68022600254FF44051802201A82360E1
:103D6000ADF8081003928DF804508DF806508DF8C8
:103D700014508DF815508DF816508DF8056000F030
:103D8000F7FA0849084B0E63096808484FF00042EB
:103D90000560C3F880211A6006B070BDE4080120F8
:103DA00008CA00000010084000E100E00C000243D7
:103DB0000849094B012230B40A709D68074C084835
:103DC00002212560026019635A6B30BC22F00202A6
:103DD0005A637047E508012000100840E008012000
:103DE0000C0002432DE9F047814F0126DFF828E25D
:103DF0003E609EF8003086B081468846144603F047
:103E0000FF05002B78D07B4D00272F7000F000FBC2
:103E10004FF47A7000FB08F0774B784EA3FB00203C
:103E200002233363800905F073FE0022744B05F012
:103E300033FD06F0A5F90146384600F0D9FA6C4B7F
:103E400032681F60736BC84543F00203736300F26E
:103E50008C806C4E013C2B7853B9032CFBD8DFE8E7
:103E600004F03F3B370202F04BF92B78002BF4D0E3
:103E7000654E664F72B63368634A591C01D00133F0
:103E800013602A785B49002A30D15C4B01220A700A
:103E90009C68574802213C60026019635A6B22F00B
:103EA00002025A6333680BBB386806F08FFA584930
:103EB00006F098FB564906F0E1FA05F04BFE0022A9
:103EC0004F4B05F0E9FC06F05BF906B0BDE8F08762
:103ED000012002F0B9F8BEE7012002F069F8BAE764
:103EE000336923F00403336130BFB4E7013B33602F
:103EF000002BD9D162B6D7E78EF8006002F012FA33
:103F00000220294602F0FEF931463246052001F032
:103F10003DFADFF808E101AEBEE80F000FC6DEF89B
:103F200000304FF4405180224FF0020A01A8336064
:103F3000ADF8081003928DF804508DF806508DF8F6
:103F400014508DF815508DF816508DF805A000F01E
:103F50000FFA2A492F4BC1F830A04FF000420968F0
:103F60003D60C3F880211A604DE7274E274FDFF8E8
:103F700094802B78002B7FF47DAF631E032B05D834
:103F8000DFE803F0272F230202F0BAF872B6336895
:103F90002A78581C18BF01333AB33868013B3360A4
:103FA00003B962B606F012FA194906F01BFB18496C
:103FB00006F064FA05F0CEFD0022114B05F06CFC12
:103FC00006F0DEF88145D4D854E7012002F03CF831
:103FD000DCE7D8F8103023F00403C8F8103030BF05
:103FE000D4E7012001F0E4FFD0E7044A9068D5E768
:103FF0000C000243E5080120D34D62100010084078
:104000000000E03F00ED00E0EC080120E0080120A6
:1040100000007A4400E100E0E408012008CA000042
:10402000036843F001030360704700BF064B10B400
:1040300000214FF08E440322046043605DF8044B7E
:10404000C1608261704700BF80000100436823F0B7
:10405000F7031A4342EA01114160704700F104730B
:10406000F0B45B014C7A00220E7A1A604A6824048C
:1040700044EA46448E7ACD7A0F7844EA026291F897
:104080000CC04C7842EA06260A6946EA0516FF0784
:104090004D7B46EA8C06097D47EA8474120234435C
:1040A00042EA054204604260F0BC1960704700BFFC
:1040B00070B50E7905460C4616480EBB00F080FC24
:1040C000154B164E0344A6FB0323DE0D03D0013E21
:1040D000360206F4FE460A236B606378E1782078A6
:1040E000A2781B01090443EA0063134301F4F811A9
:1040F00062790B4333430AB143F008032B6070BD70
:1041000000F05EFC3602034800F05AFC06F4FE465E
:10411000E1E700BF408104003F5DC600A5E830A58F
:10412000082343602DE9F001446B8A7824F0FE44B3
:1041300024F4FE04062A60D8DFE802F02F3B475340
:104140005F5F04002E4BDB6803F07F084FEA0848EE
:104150000F7891F801C04D68CB783F074E7A48EA56
:10416000040447EA0C5745EA031344633B430EB18A
:1041700043F080738C7A0CB143F004030C7A0CB1D9
:1041800043F00203C97A09B143F0010345EA024250
:1041900013430361BDE8F0017047194B5E685D6829
:1041A00006F4FE4305F07F0848EA03084FEA084892
:1041B000CEE7134B5D685B68C5F30668C3F306433F
:1041C00043EA08284FEA0848C2E70D4B9E689D68FD
:1041D00006F4FE4305F07F0848EA03084FEA084862
:1041E000B6E7074B9D689B68C5F30668C3F30643B3
:1041F00043EA08284FEA0848AAE74FF00008A7E773
:10420000B081E00F02234360F0B4446B8A7824F459
:10421000FE4424F07F04062A54D8DFE802F02B3550
:104220003F4953530400294BDB6803F07F0C0B78A4
:104230004D780F791B0743EA0553CE788D794CEA08
:10424000040443EA0723446343EA06130DB143F031
:104250008073CC790CB143F004034C790CB143F07A
:104260000203097A09B143F0010343EA0243C36040
:10427000F0BC7047154B5E685D6806F4FE4305F0C0
:104280007F0C4CEA030CD2E7104B5D685B68C5F30A
:10429000066CC3F3064343EA0C2CC8E70B4B9E683D
:1042A0009D6806F4FE4305F07F0C4CEA030CBEE764
:1042B000064B9D689B68C5F3066CC3F3064343EA4F
:1042C0000C2CB4E74FF0000CB1E700BFB081E00F59
:1042D000002230B40A234FF4F81540F2033440F2C0
:1042E00047714360C260124B026105604261046223
:1042F000C163426B5C6822F4FE42596804F4FE44D8
:1043000022F07F02224301F07F010A434263446BA3
:1043100059685A6801F4FE4124F0FE4302F07F021E
:1043200023F4FE030A4343EA0243436330BC70476D
:10433000B081E00F08B520B10A4B984207D91F2081
:1043400008BD094800F03CFB0028F5D108BD074B2B
:1043500000F5742000F23F20A3FB0020800C013800
:10436000C0B208BD0048E8014081040083DE1B4361
:1043700083680178B3FA83F370B4C3F11F0411B1F9
:10438000184B01221A60184A936BDD0706D4136894
:1043900013F4405F02D0D36BDB07FCD4827C124B5A
:1043A00086885A60C268457846EA421245F0080598
:1043B00086782A43457C42EA8602007C42EA05125E
:1043C00042EA803242EA04224FF0FF3018631A605A
:1043D00029B10648034900221B6802600A6070BCCC
:1043E000704700BF00070243001008400C00024362
:1043F000064A936BD80706D4136813F4405F02D0C3
:10440000D36B9B07FCD4014BD96070470010084068
:10441000024B0121002219601A6070470C00024310
:1044200008B500F00F03013B062B7DD8DFE803F051
:104430003C4C5B7C7C6A0400484BDB6A03F46033D1
:10444000B3F5803F74D0B3F5003F6FD0B3F5004FA4
:104450000CBF08230123424A904260D0414A904257
:1044600003D13E4B9B6AC3F38103032B1AD8DFE8C9
:1044700003F0130F0B0202F00DF93B4B3B4A1B6894
:1044800012680133D84008BDBDE8084002F0EEB91B
:10449000BDE8084002F0E2B9314B98424CD0314BB4
:1044A000984252D0002008BD2C4BDB6A03F47053B5
:1044B000B3F5805F3AD0B3F5005F39D0B3F5006F44
:1044C0000CBF04230523C6E7244A936A03F00303C1
:1044D000022BC0D0032B2DD0012B27D0936ADA03F7
:1044E0000ED50923B7E71D4A936A03F00C03082B86
:1044F0001ED00C2B1ED0042B18D0936ADB02F0D4F4
:104500000123A8E7154B1B6813F080531BD0144AF6
:10451000B3F1805F0CBF0823012390429ED10F4B63
:104520009B6A03F00303A0E7002394E7032392E7C9
:10453000022390E706238EE7084B10209B6A33FA8C
:1045400000F006D108BD072385E7044B14209B6AC1
:10455000F5E7BDE8084002F085B900BF00800C40D7
:104560000200180003001A0078009043A000904356
:1045700038B5C0F30313013B0C46062B05D8DFE822
:1045800003F00F0404212C3E050038BDA94B9842CE
:1045900000F0DC8003F50433984200F0C08038BDA1
:1045A00002F0E8F8A44B41F67131DA6BD9635B682D
:1045B00003F00703042B40D9A04B984240F26981D5
:1045C000052045E09E4BB1FA81F49A68C4F11F04BE
:1045D00022F00F0214439C6038BD02F0CBF8964BDA
:1045E00041F67131DA6BD9635B6803F00703042B82
:1045F00040D9924B984240F25481052045E0914BBE
:10460000984200F02F8140F2B7808F4B984200F023
:10461000F9808E4B984240F0D380894A536DD90778
:1046200040F1BE80864BB4FA84F49A6EC4F11F0444
:1046300022F0030222439A6638BD012101FA03F3F6
:1046400013F0130FB8D07D4B984240F24281042002
:10465000794B596821F00701014359600AB10022E2
:10466000DA63774B013C1A6822F4E03242EA843480
:104670001C6037E0012101FA03F313F0130FB8D0E7
:104680006E4B984240F2158104206B4B596821F023
:104690000701014359600AB10022DA6302F06EF8A3
:1046A0006B4BB0FBF4F0DB6CC3F307434A2B00F019
:1046B0009480792B00F09180604A482B18BF00222B
:1046C0009042644D644994BF002201225C4B2A60F1
:1046D0000A605A68B4FA84F4C4F11F0422F00F028D
:1046E00014435C6001F0D6FF534B41F67131DA6B35
:1046F000D9635B6803F00703042B62D94F4B9842E0
:1047000040F2DF8005204C4B596821F0070101433E
:104710005960002A3FF439AF0022DA6338BD484AB5
:10472000536DD9070BD5464BB4FA84F41A6FC4F114
:104730001F0422F0300242EA04121A6738BD136DDA
:104740005B06F0D5136D5B06F9D4ECE73C4A536D7C
:10475000DD070AD53A4BB4FA84F41A6FC4F11F048A
:1047600022F0030222431A6738BD136D5806F1D5B3
:10477000136D5806F9D4EDE7A3F5043398421ED122
:104780002F4A536DDD0713D52D4BB4FA84F49A6E7E
:10479000C4F11F0422F0F00242EA04129A6638BD06
:1047A000136D5B077FF53EAF136D5B07F8D439E7F8
:1047B000136D5807E8D5136D5807F9D4E4E738BDF1
:1047C00038BD012101FA03F313F0130F96D01B4BF0
:1047D000984240F28680042095E7204B17491D69D6
:1047E0009A69DB6905F03F05C3F3031343EA052526
:1047F00002F0F0021A4B2A43B2F5017F34BF0A4699
:104800001A465DE70E4A536DDD070BD50C4BB4FA23
:1048100084F49A6EC4F11B0422F4405242EA04323A
:104820009A6638BD136D5807F0D5136D5807F9D443
:10483000ECE700BF7007140000000C400048E801DE
:1048400000800C40602612006000240060062800F2
:10485000B081E00F78009043A0009043D0FF0FE0BC
:1048600000366E01234A536DD9070BD5214BB4FA9C
:1048700084F49A6EC4F11F0422F4706242EA0422A6
:104880009A6638BD136D5B07F0D5136D5B07F9D4DD
:10489000ECE7194B194903448B4294BF03200220D3
:1048A000D6E6154B154903448B4294BF03200220E2
:1048B000EBE6114B114903448B428CBF00200120D1
:1048C000E3E60D4B0D4903448B4294BF03200220C5
:1048D00019E7094B094903448B428CBF0020012092
:1048E000B6E6054B054903448B428CBF00200120EE
:1048F00009E700BF00800C40FFDB0BFFFF23F40043
:1049000000F00F00013806284ED8DFE800F014242C
:10491000334D4D420400294BDB6A03F46033B3F599
:10492000803F43D0B3F5003F42D0B3F5004F0CBFFA
:10493000082001207047214BDB6A03F47053B3F564
:10494000805F35D0B3F5005F30D0B3F5006F0CBF9A
:10495000042005207047194B986A00F003000228D4
:1049600025D0032826D0012822D09B6ADA030ED551
:1049700009207047114A936A03F00C03082B15D0E5
:104980000C2B17D0042B13D0936ADB02F0D4012038
:1049900070470A4B1B6813F080530DD0B3F1805F52
:1049A0000CBF08200120704700207047022070478C
:1049B00003207047062070470720704700800C4096
:1049C00000F47810B0F5A01F08B500F093800ED861
:1049D000B0F5402F7ED021D8B0F5003F76D0B0F5AD
:1049E000802F00F0B08000287BD0002008BDB0F5FB
:1049F000001F00F09A8039D8B0F5C01F61D0B0F523
:104A0000D01F72D0B0F5B01FEFD16448FFF708FD9A
:104A1000634B1B6FC3F30113D84008BDB0F5801F73
:104A200037D0B0F5901F6ED0B0F5602FDDD15C4B64
:104A30005B6903F4E063B3F5007F00F09E8040F211
:104A40008A80B3F5C06F00F0A480B3F5E06F00F08A
:104A50009E80B3F5407FC8D1524B534AD86C534B1C
:104A6000B0F1985F34BF1046184608BDB0F5181F66
:104A700018D0B0F5201F4FD0B0F5101FB5D14C485D
:104A8000FFF7CEFC464B9B6EC3F301330433D84093
:104A900008BD4748FFF7C4FC414B9B6EC3F30313AB
:104AA000D84008BD4248FFF7BBFC3D4B9A6EDB6F18
:104AB000C2F30132D04003F007030133B0FBF3F03F
:104AC00008BD3B48BDE80840FFF7AABCBDE8084068
:104AD00001F0E0BD324A136813F0805346D0002B3A
:104AE00083D0BDE8084001F049BE2C48BDE808402D
:104AF000FFF796BC2948FFF793FC294B1B6F03F087
:104B00000303D84008BD2A48FFF78AFC244B9B6E5C
:104B1000C3F30323D84008BD2548FFF781FC204B91
:104B20009B6E03F00303D84008BD2248FFF7E8FE60
:104B3000032817D00828D4D002287FF456AFBDE848
:104B4000084001F093BE01F019FE154B9B6803F07D
:104B50000F03D84008BDF3B1B3F5807F7FF445AFB4
:104B6000154808BDBDE8084001F078BE536903F45C
:104B7000E063B3F5007F7FF462AF0A4B0F4AD86C55
:104B80000F4BB0F1985F34BF1046184608BD0D4872
:104B900008BD0D4808BD0D4808BD00BF03001A0040
:104BA00000800C40B081E00F40420F00804F1200A7
:104BB0000200180007232000C0D8A700C0CF6A0059
:104BC00040B56400406F4001003FAB01809FD500BD
:104BD00070B5C0F30323013B82B00446092B11D802
:104BE000DFE803F022192410101D05101020274AB9
:104BF0001020274DC4F304346B6DDB0704D5224429
:104C00009200116002B070BD2B6D1842F7D02B6D71
:104C10001842F9D1F3E71F4AC4F30434EFE71E4A00
:104C20000120E6E71D4AF7E71D4AF5E7019101F08B
:104C300031FD1C4B0199DA6CC2F307424A2A0FD0AE
:104C4000792A0DD0184B482A18BF0023174A9842DA
:104C5000174D94BF002301231360164A2B60DBE736
:104C6000154A114D16699369D26906F03F06C2F3E1
:104C7000031242EA062603F0F003104A3343B3F569
:104C8000017F34BF2B461346E0E700BF0003E4106A
:104C900000800C402002E410C002E410C003E410C5
:104CA0004000E410B081E00F0048E8017800904334
:104CB000A00090430002E410D0FF0FE000366E0128
:104CC00038B500F00F04631E062B52D8DFE803F05E
:104CD0007A626251515D5600012202FA03F313F029
:104CE000130F00F09680A84B984240F23C820420BB
:104CF000A64B5A6822F0070202435A6009B100220B
:104D0000DA63A34BA3485C62FFF75AFEA24BDB6C4D
:104D1000C3F307434A2B00F08881792B00F085818B
:104D20009949482B18BF002188429C4A9C4B94BF4C
:104D3000002001201060186001F0FAF901F0AAFCCF
:104D4000924B41F67131DA6BD9635B6803F007036C
:104D5000042B40F25D818C4B984240F2EC8105209F
:104D60008A4B596821F00701014359600AB10022BA
:104D7000DA638A4A8A4B12681B6838BD03294ED011
:104D8000082973D002295AD038BD072923D0082911
:104D900066D038BD01390829F6D801A252F821F0B1
:104DA000634F00006B4F0000B94F0000894D0000B9
:104DB000894D0000D34F0000894D0000894D00004F
:104DC000414F000002390329DED8DFE811F00A0064
:104DD000B50056008D006E4B1A6822F080521A60A2
:104DE000C7E7704A04244FF4807369490B62136863
:104DF000002BFCD001F09CF901F0BCFC634B41F6A8
:104E00007132D96BDA635B6803F00703042B7FF61A
:104E100063AF5D4B984240F29681052068E75C4B9A
:104E20004021614A19621368002BFCD001F080F91F
:104E3000574A60235362D36A9903FCD599E7544BD0
:104E40004FF48071574A19621368002BFCD001F0AF
:104E50006FF94F4A40235362D36AD803FCD588E7E1
:104E60004B4B1A6842F080521A6082E7484A20236E
:104E70005362D36A1B04FCD57BE7474BDB6CC3F35F
:104E800007434A2B00F00481792B00F00181474849
:104E9000482B18BF0120404BDB6CC3F307434A2B60
:104EA00000F0E280792B00F0DF80374A482B0CBFFE
:104EB0001346002383423A4A38492CBF002301237A
:104EC0000B60136001F0C2FC2F4B02249842304B60
:104ED0001A6896BF22F0600242F0600242F020029F
:104EE0001A60334A042380E72B4BDB6CC3F3074380
:104EF0004A2B00F0F680792B00F0F3802B48482BEA
:104F000018BF0120244BDB6CC3F307434A2B00F08E
:104F1000D480792B00F0D1801B4A482B18BF002287
:104F200090421E4B1E4994BF0022012201241A60A8
:104F30000A6023461F4A58E71B4A0324402354E7CC
:104F40004FF480114FF480330022022C00F0828055
:104F50000F4A936A23F4801323F00C030B439362EC
:104F600007E700210B460A46EFE7094B4FF4807133
:104F70000C4A19621368002BFCD001F0D9F8082103
:104F800000230222E1E700BF0048E80100000C40D6
:104F900000800C4000430200B081E00F7800904395
:104FA000A0009043A40590439C0590430148E8016C
:104FB0008C059043840590436F4B40216F4A1962E2
:104FC0001368002BFCD001F0B3F804210023012268
:104FD000BBE701F05FFB6A4BDB6CC3F307434A2B73
:104FE00000F09480792B00F09180664D482B18BF1B
:104FF0000025A8426449654B654A94BF0020012002
:105000000125086018600C211560002303229CE72D
:10501000012101FA03F313F0130F3FF49CAE594B37
:10502000984240F2988004209AE65A4B554A1C69EF
:105030009969DB6904F03F04C3F3031343EA0424D2
:1050400001F0F001544B2143B1F5017F34BF11460B
:10505000194669E648481343816A21F4803121F0FA
:1050600003011943816284E64A4A464B14699169F7
:10507000D26904F03F04C2F3031242EA042401F0AF
:10508000F001454A2143B1F5017F28BF134611E7DE
:10509000404B424A18699969DB6900F03F00C3F34D
:1050A000031343EA002001F0F0013D4B0843B0F543
:1050B000017F34BF10461846EDE6364B314A1C6975
:1050C0009969DB6904F03F04C3F3031343EA042442
:1050D00001F0F001304B2143B1F5017F28BF1A46A2
:1050E0001EE72C4B2D4A18699969DB6900F03F00D7
:1050F000C3F3031343EA002001F0F001284B0843F7
:10510000B0F5017F34BF10461846FBE6214B1D4A1F
:105110001D699969DB6905F03F05C3F3031343EA91
:10512000052501F0F0011C4B0D43B5F5017F34BF9F
:1051300015461D465DE71B4B1B4903448B4294BF3C
:10514000032002200CE6174B174A0344934294BFF6
:1051500003200220CCE5134B134903448B428CBF40
:1051600000200120FCE50F4B0F4A034493428CBF03
:1051700000200120BCE500BF00800C409C0590434E
:10518000B081E00F0048E80178009043A000904310
:1051900010089043D0FF0FE000366E010148E8018F
:1051A00001366E01FFDB0BFFFF23F40038B5044628
:1051B000052804D8DFE800F0272B3035390438BD46
:1051C000684B1D6BC5F30725674AD26A02F470521B
:1051D000B2F5805F64D0B2F5005F61D0B2F5006FC8
:1051E0005ED001F0C7FA614B41F67132D96BDA63D8
:1051F0005B6803F00703042B1BD95D4B984240F218
:10520000A88005201FE0574BDD6AEDB2DCE7554B67
:10521000DD6AC5F30725D7E7524BDD6AC5F30745BD
:10522000D2E7504BDD6A2D0ECEE74E4B1D6BEDB233
:10523000CAE7012202FA03F313F0130FDDD04C4B3F
:1052400098426ED90420494B5A6822F00702024363
:105250005A6009B10022DA63434AD36823F4FF633A
:1052600023F0070343EA04242543D56001F012FA32
:105270003E4B41F67131DA6BD9635B6803F007038B
:10528000042B43D93A4B98425BD90520374B5968D8
:1052900021F007010143596062B10022DA6309E09D
:1052A000314AD36823F4FF6323F0070343EA04245D
:1052B0002543D56001F0EEF92A4BDB6CC3F30743BD
:1052C0004A2B0ED0792B0CD02949482B18BF00212E
:1052D0008842284A284B94BF0020012010601860A3
:1052E00038BD264B224A19699C69DB6901F03F01F0
:1052F000C3F3031343EA012104F0F004204B2143DC
:10530000B1F5017F34BF11461946E1E7012101FAE9
:1053100003F313F0130FB5D0154B984209D90420AD
:10532000B4E7184B184A034493428CBF0020012075
:1053300089E7144B144903448B428CBF00200120A1
:10534000A4E7104B104903448B4294BF0320022072
:105350009CE70C4B0C4A0344934294BF0320022069
:1053600071E700BFB081E00F00800C4000000C40EE
:105370000048E80178009043A0009043D0FF0FE080
:1053800000366E01FFDB0BFFFF23F40010B404288E
:105390002ED8DFE800F0271B031F23001648082340
:1053A000042469B1154B1C621AB95DF8044B00F076
:1053B000BFBE0368002BF8D10368002BF9D0F4E7D7
:1053C0000E4A5DF8044B136200F0B2BE0C48802315
:1053D0004024E6E70B4802230124E2E70A482023A1
:1053E0001024DEE709484FF400734FF48074D8E7C7
:1053F0005DF8044B704700BF8C05904300800C4063
:105400009C0590438405904394059043A4059043E4
:1054100030B400F104744D7822460C320834002375
:1054200064015201012D236013602AD0022D24D083
:10543000164B9B69C3620B788A781B050C7943EA8B
:105440000525CB7845EA021524048A7945EA8303C9
:1054500004F4E02423430AB143F08003CA790AB17B
:1054600043F040030A7A0AB143F002034A7A0AB1D0
:1054700043F00103036030BC7047044B1B6AC362F6
:10548000D9E7024BDB69C362D5E700BFB081E00F0B
:1054900010B4CB780C781B010CB143F001034C78AD
:1054A0000CB143F00403897809B143F002031AB93F
:1054B00083605DF8044B7047C3605DF8044B704730
:1054C000002310B433211024064A8360C3600460B3
:1054D0000361C161926944F24773C2625DF8044B93
:1054E00003637047B081E00F1C4B1D4A41F20C0171
:1054F00012685858996B2DE9F0470240194F9846A9
:1055000002EA010422EA010A4FF00209FCB1002577
:105510000126E30717D506FA05F2D8F808303A60F5
:1055200003EB0513DB6828466BB11A7AD3F800C089
:10553000111C82F0010218BF01211A72BCF1000F88
:1055400001D05A68E047640805F10105E1D1B9F1DD
:10555000010901D05446D9E7BDE8F08700200C408E
:1055600000300C4008300C40F0B41C4E0401B76809
:10557000049D274469BBF6683444FE6806B1317265
:1055800043B1A668C6F38166032E1CBF05FA06F672
:105590009B1923603AB1A3689B0F032B1CBF05FA2C
:1055A00003F3D2186260012303FA00F00B4BD861B9
:1055B00089B91863A368094A23F47F5323F037039A
:1055C00043F0020343EA0515A5609062F0BC506108
:1055D00070473C46D1E75863ECE700BF00200C4021
:1055E000124B30B49C688A6804EB00140D78E260BA
:1055F0000124844075B19C634D684B780B4A00F5DB
:10560000886142F821503BB9094A30BC02449200FB
:1056100013607047DC63EFE7054B41F20805034474
:105620009B0001215451196030BC704700200C4090
:105630006080E110F0B40D4BA9B9D9681578937862
:1056400057781679AD07D47845EA037545EA87653A
:10565000B20445EA036342EA843201EB00101343CB
:105660008360F0BC70479968E8E700BF00200C40F9
:105670002DE9F04F012183B006462C48FFF7A8FA28
:1056800072682B4B2B4D01920124002240F6FF71D2
:10569000DFF8A4B0C5F8804041F20C005A6003F571
:1056A0008859D96141F2080A596241F20418D96255
:1056B00041F2081C596341F20C17D96341F21011F1
:1056C000DC641A5043F80AB0C9F8002041F2141BF8
:1056D00043F8082041F2181A43F80C2041F21C1933
:1056E000DA5103F589585A5041F2241C41F2281727
:1056F00041F22C1143F80B2043F80A2043F809200B
:10570000C8F8002043F80C20DA515A50019A4FF0A3
:10571000004BC5F880412C6043F800B09A603278A5
:10572000520122435A6003B0BDE8F08F000302002B
:1057300000200C4000E100E0FF0F00802DE9F00F99
:10574000AB4B82B01B6847780193019AC36842F063
:105750008044002B00F08F830025DFF8B0B2DFF823
:10576000B0A2DFF8B092DFF89882DFF8ACC2294629
:1057700003F00202002A03F0040603F0080218BF37
:10578000022118BF5D46002E18BF042118BF5546E0
:10579000002A18BF4D4618BF082103F010066A0101
:1057A000002E02F184426FEA010602F1100218BFD6
:1057B0006FF0100618BF624618BF454618BF10218B
:1057C00033401760D4D1C26890F802A0002A00F0DC
:1057D00052830146DFF834B2DFF83492DFF83482C6
:1057E000DFF81CC2834F50461D468A4602F0020174
:1057F000002902F0040602F0080118BF022518BFB4
:105800005B46002E18BF042518BF4B46002918BF61
:10581000434618BF082502F010065901002E01F179
:1058200084416FEA050601F10C0118BF6FF0100604
:1058300018BF394618BF634618BF102532400860AC
:10584000D4D1DAF80C3050469AF803A0002B00F0BF
:1058500012830146DFF8B4B1DFF8B491DFF8B48108
:10586000DFF89CC1644F504615468A4603F002019A
:10587000002903F0040603F0080118BF022518BF31
:105880005A46002E18BF042518BF4A46002918BFE3
:10589000424618BF082503F010065101002E01F101
:1058A00084416FEA050601F1080118BF6FF0100688
:1058B00018BF394618BF624618BF1025334008602C
:1058C000D4D1DAF80C2050469AF804A0002A00F04F
:1058D000D2820146DFF834B1DFF83491DFF8348149
:1058E000DFF81CC1454F50461D468A4602F00201B2
:1058F000002902F0040602F0080118BF022518BFB3
:105900005B46002E18BF042518BF4B46002918BF60
:10591000434618BF082502F010065901002E01F178
:1059200084416FEA050601F1040118BF6FF010060B
:1059300018BF394618BF634618BF102532400860AB
:10594000D4D1DAF80C3050469AF80590002B00F0CC
:1059500092820146DFF8B4A0DFF8B480DFF8B4C06B
:10596000274F284E48461546894603F00201002974
:1059700003F0040B03F0080118BF022518BF5246BC
:10598000BBF1000F18BF042518BF4246002918BFFD
:10599000624618BF082503F01001002902F1047BBC
:1059A0006FEA05014FEA4B1B18BF6FF0100118BFDB
:1059B000B34618BF3A4618BF10250B40CBF800007D
:1059C000D3D1D9F80C20484699F806A0002A00F057
:1059D00052820146DFF834B0DFF83490DFF83480CB
:1059E000DFF81CC0084F50461D468A4616E000BF2F
:1059F000008000408C081042880810428408104241
:105A000044800040800810429408104210800040FA
:105A100024800040348000409008104202F00201CF
:105A2000002902F0040602F0080118BF022518BF81
:105A30005B46002E18BF042518BF4B46002918BF2F
:105A4000434618BF082502F010065901002E01F147
:105A500084416FEA050601F1140118BF6FF01006CA
:105A600018BF394618BF634618BF1025324008607A
:105A7000D4D1DAF80C30504613F0020100F0F8816E
:105A8000019DB74C9AF800202C409AF80960144305
:105A90009AF80A5044F0804444EA06449AF80770A1
:105AA00044EA45449AF808609AF84C5044EA07647E
:105AB00044EA0634002D40F0D88113F0040816D0D3
:105AC000457A867AAD0490F807C045EAC646077A5B
:105AD000A44D46EA4C6646EA4737254090F84C60AC
