:10000000000002203D65000073650000756500007A
:1000100077650000796500007B6500007165000070
:100020007165000071650000716500007D6500006C
:100030007F65000071650000816500008365000038
:1000400029540000958F0000896500008B65000031
:100050008D6500008F6500003D8E0000DD8C000086
:100060009565000097650000996500009B6500009C
:100070009D6500009F650000A1650000A36500006C
:10008000A5650000A7650000A9650000AB6500003C
:10009000558F0000AF650000D5940000B3650000E7
:1000A000B5650000B7650000B9650000BB650000DC
:1000B000BD650000BF65000029210000F13C000083
:1000C000C5650000C7650000C9650000CB6500007C
:1000D000CD650000CF650000D16500000000000084
:1000E0000000000000000000000000000000000010
:1000F0000000000000000000000000000000000000
:1001000010B5054C237833B9044B13B10448AFF351
:1001100000800123237010BD0008002000000000B3
:100120009CCA000008B5064B1BB106480649AFF350
:1001300000800648036813B1054B03B1984708BD1A
:10014000000000009CCA0000040800206C0700208A
:1001500000000000154B002B08BF134B9D46A3F574
:10016000803A00218B460F461348144A121A0AF0AF
:10017000F6FE0F4B002B00D098470E4B002B00D003
:1001800098470020002104000D000D48002802D0EF
:100190000C48AFF300800AF0B3FE2000290008F0FD
:1001A0009BFF0AF0ADFD00BF000008000000022028
:1001B00000000000000000000008002030B0012016
:1001C00000000000000000002DE9F047804690B0DC
:1001D00072B6384F384E3B6804465A1C1CBF013378
:1001E0003B609A4600F1300920686168A268E368C4
:1001F00035460FC510344C452E46F5D1D9F80000D0
:10020000D9F80410402203C6B9F808306846002126
:1002100033800AF0A4FE6D46D8F80000D8F8041028
:10022000D8F80820D8F80C302C460FC408F1100874
:10023000C8452546F0D1D8F80410D8F800001F4E64
:1002400003C53368B8F808101D4A2980CDF83A2054
:10025000B3B105F0A7FF4FF47F200BF065FDD0B1DF
:1002600005F0E6FF174A0023D7F800A013603360BB
:100270004FF0FF30BAF1000F04D110B0BDE8F087A5
:100280004FF0FF300AF1FF333B60002BF5D162B62F
:1002900010B0BDE8F08769464FF47F2040220BF094
:1002A0004BFD044605F0C4FF002CDBD12046D7F8F7
:1002B00000A0DFE7F4080120040000204400002033
:1002C000016AEA3D00000020F8B5114B11491B6896
:1002D000D3F83A000AF07CF9A8B10F4B0F4E1C6816
:1002E00004F1300720686168A268E36835460FC5ED
:1002F0001034BC422E46F5D12068616803C62389BC
:1003000000203380F8BD0548BDE8F840FFF75CBF2A
:1003100044000020016AEA3D0000002004000020A3
:1003200010B5022007210822012305F0E1FE052077
:100330000C210822012305F0DBFE03200821012205
:10034000002305F0D5FEBDE8104005200B210A2250
:10035000002305F0CDBE00BF10B5041E4FF00B0109
:100360004FF005004FF00A0208DD012305F0C0FE42
:100370000C4B1B787BB90C4B1C6010BD002305F0A7
:10038000B7FE084B1B78002BF5D008480AF044FE56
:10039000054B1C6010BD06480AF03EFE024B1C6077
:1003A00010BD00BF740000201C080020CCBD000060
:1003B000A4BD000008B50C4B1A7822B11B7813B10C
:1003C0000A480AF029FE0A2001F0D8FFBFF34F8F38
:1003D000074A084BD16801F4E0610B43D360BFF3D7
:1003E0004F8F00BFFDE700BF74000020F4BD000088
:1003F00000ED00E00400FA050C4B10B51B7813B1BA
:100400000B480AF009FE0C2108220023052005F004
:100410006FFE4FF4FA7001F0B1FFBDE81040052007
:100420000C210822012305F063BE00BF74000020E8
:1004300020BE000010B5174C82B020680421009047
:10044000684600F0EDFB234653F8040F05211B79A5
:10045000009068468DF8043000F0E2FB234653F824
:100460000C0F05211B79009068468DF8043000F0D0
:10047000D7FB54F8140F0621A38800906846ADF806
:10048000043000F0CDFB4FF4FA7001F077FF02B0BA
:1004900010BD00BF4CBD000010B5124B82B01B78E0
:1004A00013B111480AF0B8FD002407230321684660
:1004B0008DF800308DF801408DF8024000F0B0FB5F
:1004C0004FF47A7001F05AFF0923684603218DF832
:1004D00001408DF802408DF8003000F0A1FB02B021
:1004E00010BD00BF7400002048BE000010B50821F8
:1004F0000A460023032005F0FBFD4FF4FA7001F0DB
:100500003DFFBDE81040032008210122002305F033
:10051000EFBD00BF2DE9704F002488B008230325EC
:1005200020468DF80C408DF808308DF80A5003F005
:10053000A1FEDFF818A14FF47062012302268DF8A6
:100540000B0002A9504606928DF816308DF81F3028
:100550008DF80D408DF809408DF814408DF81D4040
:100560008DF817508DF81E408DF81C408DF81560E1
:1005700003F03EFD05A9504603F072FD2E4804F03D
:10058000BFF99DF80C3000240133B0FBF3F009F003
:10059000D5F9CDE900019DF8150009F0CFF94FF02C
:1005A000804502460B462046294606F0FBFA804667
:1005B0009DF808008946013009F0D0F902460B4643
:1005C0002046294606F0EEFA002204460D46404633
:1005D00049461A4B09F076F822462B4609F024FAD0
:1005E00002460B46DDE9000109F048FB09F0B6FCC4
:1005F000DFF85CB040F25633CBF80000CBF80030A7
:10060000DBF8000009F0AAF900220D4B09F00CFA02
:100610000C4A0D4BC2E90001CAF82060DAF8141048
:1006200080223143CAF814101A6083F80723DBF8DC
:10063000000008B0BDE8708F0002050000002840EF
:100640000000D03FB81D012000E100E00020004084
:10065000B01D0120F0B5002487B007460B232046CB
:100660008DF800308DF802408DF8014003F002FE55
:10067000174D0126032208238DF8030069462846FA
:100680008DF80F208DF80D308DF810708DF8044026
:100690008DF805408DF813408DF811408DF8144009
:1006A0008DF80C408DF812408DF80E6003F0A0FC20
:1006B00003A9284603F046FD2E626969054B802296
:1006C000314369611A6083F8072307B0F0BD00BFAA
:1006D0000020004000E100E010B500F001030446F6
:1006E0000C210020042205F003FD04F00203002089
:1006F0000D21042205F0FCFC042104EA01030A4652
:10070000022005F0F5FC04F0080302200521042274
:10071000BDE8104005F0ECBC074B10B44FF400509E
:100720004FF48054102120225C6158615DF8044B25
:10073000D965DA65704700BF006000400D4B4FF48B
:100740008052C1074CBF1A615A610A4B4FF40052E4
:1007500081074CBF1A615A61064B102241074CBFFA
:100760009A65DA65034B202201074CBF9A65DA656A
:10077000704700BF0060004070B55C4D82B02B78C0
:1007800004460E46002B49D147F2CE739C4226DD2B
:100790002B78002B40F08D80554B00221A70554A63
:1007A00046F2523312789C42D2B2534B00F39180FE
:1007B00000221A70A6F57A76B6B2B6F57A6F4FF0C7
:1007C00002004FF007014FF0080221D8484B1B7878
:1007D000F3B1012305F08CFC012002B070BD47F29B
:1007E000AF239C42DBDC2B78002B6AD1404A45F6D4
:1007F000E97301219C421170D1DC3F4B1A7892B908
:1008000019702B78002BD5D03C480AF005FCD1E7B5
:10081000002305F06DFC002002B070BD2146384871
:100820000AF0FAFBB0E72B78002B4ED1314B0122B6
:100830001A702B78002B40D100240723032168462F
:100840008DF800308DF801408DF8024000F0E8F995
:100850004FF47A7001F092FD0923684603218DF868
:1008600001408DF802408DF8003000F0D9F9254B99
:10087000254AD968184621F00101D960D3684FF4A0
:10088000805423F00103D36003F070FB4FF040204D
:1008900004F0B6FD1D4803F0BBFC1D4B10212022C7
:1008A0004FF400505C615861D965DA6500F07CFB5B
:1008B00080E718480AF0B0FB6EE717480AF0ACFB77
:1008C000BAE716480AF0A8FB90E715480AF0A4FB1F
:1008D000ACE7002A3FF46CAF00221A702B7813B1FA
:1008E00010480AF099FBFFF765FD00BF7400002077
:1008F00048000020821D01202008002028BF0000A1
:1009000070BE0000001000400014004000200040B5
:1009100000600040A8BE000048BE0000E8BE000025
:100920007CBF0000C8BF00002DE9F041164D86B025
:100930006C4606469E46884617460FCD0FC495E87E
:100940000300072384E8030001250024304669469C
:100950008DF80A30CDF810E08DF814508DF809505C
:100960008DF80D408DF80B4003F018FB30464146E2
:100970003A4603F00BFB304603F0F2FA0323B3616F
:1009800006B0BDE8F08100BF68BD00002DE9F0436E
:10099000484B8DB01B780546884603F0FF04002BBA
:1009A0005ED101274FF0030902A94FF040208DF8D6
:1009B00008408DF80B408DF80C408DF80D408DF8F7
:1009C0000E408DF80F408DF810408DF811408DF8D5
:1009D00001408DF802408DF803408DF809708DF8C4
:1009E00000708DF80A9004F0B3FC694622464FF07F
:1009F000402004F0EDFC69463A464FF0402004F0F8
:100A0000E7FC2D4E2B684FF0402E06ADCEF820307F
:100A1000CEF824400FCE0FC596E80300274E98F875
:100A2000008085E803000723304606A98DF82230B0
:100A30008DF821708DF825408DF823408DF82C70AD
:100A40000A9703F0ABFA304642460C2103F09EFAB7
:100A5000304603F085FAC6F818900DB0BDE8F08373
:100A6000154D06AC0FCD0FC495E80300134D98F853
:100A70000060012384E8030007222846002406A919
:100A80008DF82C308DF821300A938DF822208DF8C6
:100A900025408DF8234003F081FA284632460A218A
:100AA00003F074FA284603F05BFA0323AB610DB040
:100AB000BDE8F083701D012068BD000000100040FB
:100AC00030B587B000230124054602A94FF040202D
:100AD0008DF808308DF80B308DF80C308DF80D3016
:100AE0008DF80E308DF80F308DF810308DF81130F4
:100AF0008DF801308DF802308DF803308DF80A4002
:100B00008DF809408DF8004004F022FC22464FF099
:100B10004020694604F05CFC4FF040235D6207B062
:100B200030BD00BF10B54FF0402004F069FCBDE8B7
:100B3000104001200C210822002305F0D9BA00BF83
:100B4000F0B5284D89B002AC0FCD0FC495E8030075
:100B5000002584E803002B46294605244FF48057DE
:100B60004FF4E13604200A228DF808408DF8154034
:100B7000ADF81650ADF81870049605F0B9FA0121D9
:100B80002B460A46042005F0B3FA2B460220082122
:100B9000012205F0ADFA144C022009210A2201239A
:100BA00005F0A6FA28460A2201230E2105F0A0FA34
:100BB000204602A905F0B8FB636D012223F4E0632F
:100BC00043F480736365636D082143F00303636539
:100BD000022013468DE824000A4605F053FA09B0B6
:100BE000F0BD00BF80BD000000E0004003202021D8
:100BF00001F058BA00B5084A85B052F84C0F01AB65
:100C00005168127A03C3054801A91A7005F012FC55
:100C100005B05DF804FB00BF4CBD0000008008403B
:100C20002DE9F0478846E2B04B4F4C4E0146424614
:100C3000814668460AF08AF939783378A8F10302C8
:100C400003EB81035B00414668468DF801208DF877
:100C5000023000F02DFF0024020A0DF101030DF80F
:100C6000080008F1010E03F808200DF1840C23465A
:100C70000DF185024FF05D0A7D205E210BE07D2D98
:100C800003F101030CF804500ABF02F804A0013478
:100C9000023473450BDC1DF803507E2DEFD1013378
:100CA00073450CF80400115504F10204F3DD4146CC
:100CB000484601F073FB2A487E2105F0A9FB0DF19F
:100CC0008308A0440DF1830515F8011F244805F0A1
:100CD0009FFB4545F8D122487E2105F099FB214B29
:100CE0001B784BB100203278002382F00102327071
:100CF0003B7062B0BDE8F0874FF47A7001F0FEFD02
:100D00000028EFD00DF18309174DA1444FF0030ADD
:100D1000002413487E2105F07BFB0DF1830818F8B1
:100D2000011F0F4805F074FBC845F8D10C487E211F
:100D300005F06EFB2046294600220C4B08F074FE9D
:100D40000D46044609F00AF901F0D8FD0028C9D083
:100D5000BAF1010ADDD1C6E75200002049000020A7
:100D600000E000402508002000408F400000F83FD0
:100D700030B5847887B00278002344F001046846D7
:100D800004210093ADF804308DF800208DF8024066
:100D900000F08EFE9DF80030020A7E2B8DF80400D4
:100DA0008DF8052054D07D2B00F0A3808DF80830FD
:100DB00001259DF801307E2B56D006AA7D2B2A44B2
:100DC00000F0908002F8103C01359DF802307E2B37
:100DD00057D006AA7D2B2A4400F0998002F8103CD7
:100DE00001359DF803307E2B58D006AA7D2B2A446E
:100DF00000F0868002F8103C01359DF804307E2B0F
:100E000059D006AA7D2B2A4400F08F8002F8103CAE
:100E100001359DF805307E2B5AD006AA7D2B2A4439
:100E20007CD002F8103C013543487E2105F0F0FAF1
:100E30000DF10704254414F8011F3F4805F0E8FAB6
:100E4000AC42F8D13C487E2105F0E2FA07B030BD53
:100E50005E238DF809309DF801307D227E2B8DF8C0
:100E600008204FF00205A8D106AB2B447D215E225D
:100E700003F8101C03F80F2C9DF8023002357E2B6E
:100E8000A7D106AB2B447D215E2203F8101C03F88A
:100E90000F2C9DF8033002357E2BA6D106AB2B44D8
:100EA0007D215E2203F8101C03F80F2C9DF80430FE
:100EB00002357E2BA5D106AB2B447D215E2203F8A3
:100EC000101C03F80F2C9DF8053002357E2BA4D1A1
:100ED00006AB2B447D215E22023503F8101C03F87B
:100EE0000F2CA1E75D2102F8103C023502F80F1C1F
:100EF0006BE75D228DF808308DF80920022558E750
:100F00005D2102F8103C023502F80F1C75E75D21E7
:100F100002F8103C023502F80F1C62E75D2102F86E
:100F2000103C023502F80F1C7EE75D2102F8103CF0
:100F3000023502F80F1C6CE700E00040062970B58E
:100F400002DD03787E2B01D0002070BD431813F81A
:100F5000013C7E2BF8D11E4601390022012305E019
:100F6000845401338B4202F101020FDAC45C7D2C00
:100F7000F6D1C5186D785D2D04D05E2D04D1865450
:100F80000133EEE78454FBE79942DDDC941E013A1D
:100F9000855C035D214603EB052500F089FDADB2BC
:100FA0008542D1D1204670BDF0B50F4D0F4C2B6856
:100FB0000122002B267883B0227011DB4FF0160E31
:100FC0000227684604218DF803308DF801208DF842
:100FD00000E08DF80270FFF723FE4FF0FF332B6027
:100FE000267003B0F0BD00BF4C0000202508002093
:100FF0002DE9F04F4C494D4D0B68B9B00122002B43
:101000002E7814AC2A7012DB4FF0160E2046022701
:1010100004218DF851208DF853308DF850E08DF873
:101020005270FFF7FDFD404A4FF0FF331360404B15
:101030002E701B684FF0050909930AAB4FF47A7ABA
:1010400008930125099A042120462260FFF7E8FD54
:1010500001F0A0F9064601F097F933784FF0000C43
:101060008DF831C00D938DF830500E950F950DF120
:10107000300E6F46CDE90A01BEE80F000FC74FF0F2
:10108000FF36CDF844C0CDF848C010969EE80F005A
:1010900087E80F000899204691E80C00614601F0AE
:1010A000EFFA4FF002084FF0170B4FF0030CF0234C
:1010B000B922062100BB9DF8547020468DF85430AB
:1010C0008DF850B08DF851C08DF852808DF85520B4
:1010D0008DF85370FFF7A4FD04211623E8B12046D4
:1010E0008DF850308DF851508DF852808DF8537036
:1010F000FFF796FD0C4B1E60B9F1010F07D050466B
:1011000009F1FF3901F03AF94FEA4A0A9AE706492C
:101110000868C01739B0BDE8F08F034A3846C017D9
:10112000176039B0BDE8F08F4C0000202508002082
:101130000CC000002DE9F04FB9B001F067F9444B45
:101140000446D3F800A00D464FF0030B4FF47A7815
:101150000DF12809042108A8CDF820A0FFF760FDB3
:101160004FF0000E012302210B228DF831E08DF8A3
:1011700030300F930D910E920CAF6E460FCF0FC60D
:101180004FF0FF33CDF844E0CDF848E0109397E8F6
:101190000F00CDE90A4586E80F00414699E80C00AA
:1011A00014A801F06DFAD0F10106404638BF0026C0
:1011B00009F022F84FF07F5109F076F809F060FA53
:1011C000BBF1010B80462DD0002EC3D09DF85540B9
:1011D000204B023C1B78032C8CBF0024012443BB12
:1011E0006CB31D4D1D4C2B680122002B26782270FC
:1011F00011DB4FF0160E08A8022704218DF82330CA
:101200008DF821208DF820E08DF82270FFF708FD81
:101210004FF0FF332B6000202670FFF7E9FE39B056
:10122000BDE8F08F002ED1D10A4B5C461B78002B15
:10123000D6D00B48214609F0EFFE002CD1D1064B49
:101240004FF0FF321A60FFF7B5F839B0BDE8F08F04
:1012500010C00000740000204C0000202508002071
:101260002CC000002DE9F04F97B0037802AF0F2B90
:10127000044673D0192B43D00D2B03D05437BD46F1
:10128000BDE8F08FBA4BC2791978FA75B960217C44
:10129000A27C7960617C90F808B0F960796890F878
:1012A00009A090F80A9090F80B8090F80CC0467B4B
:1012B000857BB976C07BF9683A76BA6887F816B04C
:1012C00087F815A087F8149087F8138087F812C064
:1012D0007E743D74F8767976002A00F0BF80A549C7
:1012E00001200022087007F110051A70A24C2B464D
:1012F000543707CB20606160A260BD46BDE8F08F27
:10130000D0F88030162BB9DD817DA3F117051029A7
:10131000B4D801A353F821F0551600004F16000071
:101320007D1200007D1200002516000067160000E7
:10133000F91500007D120000C91500007D120000A3
:101340007D1200007D120000F7140000EF14000071
:10135000E7140000C114000097140000427983795B
:1013600003EB0223082B00F0158233DD202B00F065
:10137000D98140F3AE81802B7BD0B3F5807F7FF4A1
:101380007DAF7E4B1B7813B17D4809F045FE7D4D46
:101390007D4C2B6800207D4901228342267808700D
:1013A000227011DB4FF0160C4FF0020E07F1100007
:1013B0000421FB747A7487F810C087F812E0FFF7F5
:1013C0002FFC4FF0FF332B600A20267000F0D6FF71
:1013D0006F4836E0022B00F0B681042B52D0012B6F
:1013E0007FF44CAF654B1B7813B16A4809F014FECB
:1013F000644D654C2B680122002B2678227011DB8E
:101400004FF0160C4FF0020E07F110000421FB7490
:101410007A7487F810C087F812E0FFF701FC4FF0EC
:10142000FF332B605C495D4A584D01234FF0000E9D
:101430000A20267085F800E00B70137000F09EFF04
:10144000534802F0E5FE564A564BD16821F001019F
:10145000D160DA6822F00102DA600FE7BB69D4E9F3
:10146000220107F11005009395E80C0001F0C0FF80
:101470003CE7424B1B78002B3FF400AF4A4809F091
:10148000CBFDFBE63D4B1B78002B3FF4F7AE474806
:1014900009F0C2FDF2E6464A464B1168012201F10D
:1014A0002C0034311A70FFF771FAFFF73BFB334B16
:1014B0001B78002B3FF4E2AE3F4809F0ADFDDDE6BE
:1014C0003B4A3C4B1168002201F12C0034311A7068
:1014D000FFF75CFA294B1B78002B3FF4CFAE37485F
:1014E00009F09AFDCAE60120FEF736FFC6E60020A5
:1014F000FEF732FFC2E6214B1B7813B1304809F0EA
:101500008BFD304B01251D70FEF7C6FF244B254A8D
:10151000D968184621F00101D960D368194E23F02B
:101520000103D36002F022FD4FF0402003F068FF7A
:10153000174802F06DFEFFF7EFF83368124C002BEE
:1015400094F8008025700FDB4FF0160E022207F191
:1015500010000421FB747D7487F810E0BA74FFF763
:101560005FFB4FF0FF33336084F8008086E600BFF6
:10157000811D01205C1C0120C8AD012074000020E9
:10158000B8C100004C0000202508002024080020DD
:101590000020004060C000005200002049000020F0
:1015A000001000400014004080C10000A8C00000EE
:1015B00048BD0000701D0120ACC2000090C20000B8
:1015C00054C200005E1C01208E4E3378002B40F088
:1015D000108107F07DFB00287FF450AE0B2D7FF4C7
:1015E0004DAE204602F048F83378002B3FF446AE6B
:1015F000854809F011FD41E63A2D7FF43FAE00F138
:1016000017012A4607F1100009F0A0FC07F11000AD
:10161000FEF7DAFD7D4B196801F12C003431FFF73C
:10162000B5F92BE607F054FB00287FF427AE002D18
:101630007FF424AE764A774BD16821F00101D16066
:10164000DA6822F00102DA6007F0F8FB16E606F02D
:10165000E9FB13E66B4B1B7813B16F4809F0DCFC18
:10166000FEF744FF0AE6694B6D46196890B0042303
:101670008DF808300DF109003A2209F067FC674B3C
:101680000DF108081B7813B3654E3368002B1EDB81
:10169000E94696B002AC63491822204609F056FC90
:1016A000614B41461B880DF122001A0A23766276AF
:1016B0003B2209F04BFC33682046E3705521FFF7CD
:1016C000AFFA504B1B78002B40F09780CD46AD46CB
:1016D000D4E5102B7FF4D2AD4A4B1B7813B153489D
:1016E00009F09AFC4E4D524C2B680122002B2678B3
:1016F000227011DB4FF0160C4FF0020E07F11000B4
:101700000421FB747A7487F810C087F812E0FFF7A1
:1017100087FA4FF0FF332B60404B0022454826707C
:101720001A708EE60020FFF763FC364B00281B780A
:1017300055DB13B1404809F06FFC384B01221A7099
:1017400006F070FB9AE52F4B1B7813B13B4809F06C
:1017500063FC324B324D00221A70FEF74DFE2B68AF
:10176000334C0122002B2678227011DB4FF0160C2F
:101770004FF0020E07F110000421FB747A7487F811
:1017800010C087F812E0FFF74BFA4FF0FF332B60E1
:10179000267073E51B4B1B7813B1294809F03CFCFC
:1017A0001F4D234C2B680122002B2678227011DB61
:1017B0004FF0160C4FF0020E07F110000421FB74DD
:1017C0007A7487F810C087F812E0FFF729FA4FF013
:1017D000FF332B60114B002226701A704EE513B1B7
:1017E000184809F019FC0D4B00221A70FEF7E2FDB3
:1017F00044E5154809F010FCEBE6144809F00CFC30
:1018000064E700BF7400002030C2000048BD000043
:101810000010004000140040DCC10000240800203B
:101820004C00002014C000005000002000C1000047
:1018300025080020002000405CC1000084C000009A
:10184000D8C0000024C100000CC20000FCC1000090
:101850002DE9F04F664DC3B0002B14BF9A46AA463F
:10186000BAF800309146013208AF4FF6FF74D2B299
:10187000A3423962FA615F4902F1210208BF0023E5
:101880004FEAD202786208BFAAF80030DFF8788108
:10189000FA600B80012409F1080B45E0D8F800300C
:1018A000002B3EDBBAF800202525FD63002301262E
:1018B00003204FF0FF3587F8386087F839307B64B4
:1018C000BD6438644FF0020CD1B207F1380E120A31
:1018D0006D4607F12806C7F84CC0FA62B962D7E92D
:1018E00004233E65C7E90C23BEE80F000FC59EE840
:1018F0000F0085E80F0007F130030CCB07F158000B
:10190000C7F804C04FF47A7100F0BAFED7F804C0EB
:10191000002858D197F85D00003018BF012000283A
:1019200052D001340B2C60D00BF4FC737A6A6E46F3
:10193000ADEB030D8DF820200DF121004A46396AE8
:1019400009F004FB2C4B1A7808AB002A32D0D8F8E7
:101950000020DFF8B4C0002A2CDBF9686A46A2EB4D
:10196000C102C7F818D0954608AD24491822284668
:10197000C7F804C0BB6009F0E9FA1E49BB680A88D1
:101980001946130A2A766B76FA690DF13A0009F0C6
:10199000DDFAD7F804C0FA69DCF8003002F11A0168
:1019A000EB702846C9B2FFF73BF9154B1B78C3B95A
:1019B000BB699D46012CB5467FF470AF00F0E4FC96
:1019C000C7E904016AE76046BAF8002009494FF602
:1019D000FF730132EC37AAF800200B80BD46BDE84A
:1019E000F08F084809F018FBE2E70120ECE700BFA0
:1019F00022080020500000202408002014C000000D
:101A000074000020FCC100004C0000202DE9F041D2
:101A100002F1080303F4FC7300AFADEB030D6B465A
:101A200003F8010B1846541C09F090FA1A4B6E4645
:101A30001B7853B3194D2B68002B26DBE4B204F15D
:101A4000210303F4FC73E846ADEB030D144918229F
:101A5000684609F07BFA134B31461B880DF11A00DA
:101A60001A0A8DF818308DF81920224609F06EFAFE
:101A70002B6804F11A018DF80330C9B26846FFF7EC
:101A8000CFF8094B1B781BB9C546BD46BDE8F081B0
:101A9000064809F0C1FAF7E7240800204C000020AE
:101AA00014C000005000002074000020FCC10000A1
:101AB00030B489B1094D00234FF6FF72C45C013385
:101AC0005440E4B235F814408B4284EA1222F5D136
:101AD000D24390B230BC70470846FBE7C8C2000052
:101AE000014B1868704700BF28480020014B186858
:101AF000704700BFC41D0120344B2DE9F0431B6823
:101B0000334C1B68266891B003EB864606EB013622
:101B1000044630460D46174606F074FC033048D0A4
:101B2000394606A8252209F011FAE700294E35B3F7
:101B30003D1906EB45054FF0FF314FF00008CDF899
:101B40000080002300226970A970E970297102A841
:101B500002F082F8DDF808C0039804996B1D05F1C6
:101B60001002C5F805C058609960032582F801800D
:101B70003C4406F81450002011B0BDE8F083BDF8D5
:101B80001C10BDF81E203B199DF83C9006EB43034A
:101B90000DF1300CA3F80110A3F8032083F8119085
:101BA000BCE80700C3F80500C3F80910C3F80D200E
:101BB000DEE7304606F010FD064B04EBC4040222BB
:101BC00003F814204FF0FF30D6E700BFC41D0120FA
:101BD00028480020C81D01202DE9F04F714C93B01A
:101BE0002378804603911546002B72D1002A70D1CC
:101BF0006D4A039902EB48204FF4007209F0A6F9F0
:101C00006A4B6B4A1C680126002C02F80860C0F27F
:101C1000C580DFF8A8B1674FDBF800301B6803EB25
:101C200084430293002D62D1634A614B424402EB2C
:101C300006095D4A08F1FF351D444FEA083A02EBF8
:101C40004826204605E04D450AF5805A06F50076FF
:101C500016D015F8013F002BF5D0DBF800303146E7
:101C60001B68534403EB804006F062FF033068D0EA
:101C70004E4A4D4510680AF5805A06F50076E8D1BF
:101C80000446039908A8252209F060F9B8F1000F6D
:101C900035D1E600BDF82410BDF8262033199DF893
:101CA00044A007EB43030EADA3F80110A3F80320F3
:101CB00083F811A007CDC3F80500C3F80910C3F8D5
:101CC0000D203A4B3444186807F8148013B0BDE86F
:101CD000F08FFF214FF48042334809F040F9344837
:101CE0000021402209F03BF90023237080E71846C9
:101CF00006F088FB033024D02C4B1C6894E7E600E8
:101D0000351907EB45054FF0FF314FF0000ACDF8CC
:101D100000A004A86970A970E9702971002200234D
:101D200001F09AFFDDF810C0059806994FF00308FE
:101D3000C5F805C0C5F80900C5F80D1085F811A053
:101D4000BFE7029806F048FC184B4FF002021C68EF
:101D500004EBC403002C07F813201DDB611CC1F346
:101D600009010C4602E0994212D01C4604EBC40360
:101D700017F81320631C022AC3F30903F3D00B4A9C
:101D8000002C146008DB4FF000080125202643E7F3
:101D9000064B4FF0FF341C60204697E74FF0FF30B2
:101DA00094E700BF530000202808002028480020A6
:101DB0002C480020C81D01202B480020C41D0120F4
:101DC00030B40F4D2868002812DB0130C0F3090140
:101DD00008460C4C02E099420CD0184600EBC003B8
:101DE00014F81320431C022AC3F30903F3D028601C
:101DF00030BC70474FF0FF30286030BC704700BFE8
:101E000028480020C81D01202DE9F04F91B000AFF7
:101E100004F0D2FC052006F04FFB06F087FADFF84D
:101E200074B28F4C9BF80030206043B39BF80030B5
:101E3000002B40F0CF809BF80030002B40F0D28088
:101E40009BF80030002B40F0D7809BF80030002B2F
:101E500040F0DC809BF80030002B40F0E2809BF8E3
:101E60000030002B40F0E7809BF80030002B40F062
:101E7000EC809BF80030002B40F0A8802068C268FE
:101E8000036900249A4228BF1346073323F007034F
:101E9000ADEB030D4FF0FF33DFF8D0A105687B6099
:101EA0006E46A046FB607B6107E01234B4F5904FAC
:101EB00005F5802508F1010861D02846314606F075
:101EC000A7FD3378FF2B0BD09BF8003002220AF8D5
:101ED0000420002BE9D02946624809F09DF8E4E788
:101EE0002846314606F0D6FB814618B101230AF890
:101EF0000430DAE73146252207F1180009F026F808
:101F00004FF00103B86958493B6008F061FB3B683A
:101F100000B14B4613F0FF0F0AF804300AEB040C33
:101F2000C3D1FB8B514908EBC80201EB4202BB60F5
:101F30000CF105013961B7F81C90B96807F130035D
:101F4000A2F80190A2F8031007CB3B69CCF805007A
:101F500059609A607B6901330AD0FB68994507DCB8
:101F60004B45A2D1BB6879688B429EDD7B6003E064
:101F7000BB68C7F80C907B60C7F8148095E77B6955
:101F80003B4C5A1C1ABF581CC0F3090000200346E2
:101F900002E0824216D0134603EBC3021AF8121075
:101FA0005A1C0229C2F30902F3D023609BF80030C7
:101FB0001BB13048F96809F02FF8F8684437BD467E
:101FC000BDE8F08F4FF0FF332360EFE70A2009F000
:101FD0003BF853E7284809F01FF89BF80030002B26
:101FE0003FF42EAF23682548197909F015F89BF8BE
:101FF0000030002B3FF429AF23682148597909F0BC
:102000000BF89BF80030002B3FF424AF23681D48E9
:1020100099680A0D09F000F89BF80030002B3FF496
:102020001EAF23681848D96808F0F6FF9BF8003007
:10203000002B3FF419AF23681448196908F0ECFF2E
:102040009BF80030002B3FF414AF23681048596907
:1020500008F0E2FF9BF80030002B3FF40FAFB5E72C
:10206000C41D0120C4C50000E42C283FC81D012068
:1020700028480020ECC50000C8C40000ECC40000E3
:102080000CC500002CC5000050C500006CC5000048
:1020900088C5000074000020014B01221A707047AF
:1020A0006C480020F0B5194B012583B0184C074649
:1020B0000E46184829461D7002F02AFD394616487A
:1020C00002F09EFD3146204602F0F2F9204602F071
:1020D00017FC124B29461860204602F019FD002318
:1020E00001A88DF804308DF805308DF8063004F025
:1020F000EBF80B490B4BC8694FF0804220F007000A
:10210000C861C3F880211A6003B0F0BD6D4800209B
:1021100060161000004302000200180074480020FE
:102120000000084000E100E010B5094C094B62686E
:1021300000201A6004F0C4F80223A361064BE26990
:102140001B6822F00202E26103B1984710BD00BF94
:102150000000084070480020784800202DE9F04138
:10216000064682B000200F4604F0AAF8254B1C78E2
:10217000CCB1254D254A264C02231760A36129685E
:10218000244B01FB06F6A3FB06210020890904F07D
:1021900089F8012004F094F8E36943F00203E36155
:1021A00002B0BDE8F0814FF0010841461A4883F8BB
:1021B000008002F0ADFC1948032102F021FD20212E
:1021C000174802F075F9164802F09AFB0E4D414689
:1021D0002860134802F09CFC01A88DF804408DF89B
:1021E00005408DF8064004F06FF809490D4BC869A9
:1021F0004FF0804220F00700C861C3F880211A60C8
:10220000B8E700BF6D4800207448002078480020DF
:1022100000000840D34D6210004302000200180085
:102220006016100000E100E02DE9F84F494C002352
:10223000074649480D46237002F062FB47490646AF
:102240002846FFF78BFFBD424AD8454A04E0136990
:1022500023F00403136130BF2378002BF7D0414DE6
:10226000DFF8148172B62B683E495A1C36D05A1CCE
:102270000A60237803F0FF00E3B1013A2A6002B953
:1022800062B6D8F8000007F0B7FF0446304607F002
:10229000B3FF0146204608F0BBF8334908F004F8C4
:1022A00007F06EFB0022314B07F00CFA07F07EFEC0
:1022B000BDE8F88F2E4C6368C8F8003004F000F8D1
:1022C0000223A3612B4BE2691B6822F00202E26148
:1022D00003B198472A68002AD3D0CEE71A46C8E748
:1022E000204DDFF89480DFF878A0DFF884901CE0C0
:1022F000D8F80000013B2B6003B962B607F07CFF01
:102300008346304607F078FF0146584608F080F8CB
:10231000154907F0C9FF07F033FB0022134B07F004
:10232000D1F907F043FE87429CD92378002B99D13D
:10233000DAF8103023F00403CAF8103030BF72B658
:102340002B682278591C18BF0133002AD0D1D9F844
:102350000400CFE76C4800206016100099200000B0
:1023600000ED00E0F408012000007A440000E03FA6
:102370000000084078480020704800200146FFF720
:1023800053BF00BFFFF750BF014BD3E900017047B7
:10239000C853002000487047D053002030B4054B8C
:1023A000054C0A4630CC0146C3E9004530BC034821
:1023B00008F0CCBDC853002080480020D053002036
:1023C0002DE9F047DFF8408006468A461422D8E916
:1023D0000001002308F074F9D8E9004502EBC202BD
:1023E00008EB02193146661C09F1080945F100079E
:1023F000C8E9006748465246C9E9224508F0A6FDEB
:10240000C9F880A0BDE8F0878048002010B4064CD1
:10241000D4E90001D4E90023994208BF9042F7D1E2
:102420005DF8044B704700BF8048002082B02DE962
:10243000F04FB1B03AA981E80C00419A9DF8F13013
:1024400008920593409A429B3F999DF8F090DDF8E1
:10245000F480DDF8F8C0894E0792099306910B903D
:10246000DDE93A01D6E900ABD6E900239B4508BF78
:102470009245F7D15AEA0B0200F0F680D6E9004502
:10248000D6E900239D4208BF9442F7D1002D08BF32
:10249000142C77D2059B00240025002B78D18D4287
:1024A00008BF84423CBF04460D46B9F1000F7AD103
:1024B00022462B464FF0FF304FF0FF311AF1FF3428
:1024C000CDE902014BF1FF3512EB000A43EB010BA2
:1024D000089B0CA81844CDE900AB0A90E346B9F17B
:1024E000000F3ED0DDE900239D4208BF94422CBF7F
:1024F00000230123002B3ED020462946142200232E
:1025000008F0DEF802EBC202120102F1080306EB4A
:10251000030ADAE922018D4208BF84420DD15749EE
:102520000CA811440831902208F010FDDAE92223AA
:102530009D4208BF94422C9F02D0059900297BD16F
:10254000B8F1000F34DB002F03DD9DF83030434538
:102550002ED0DDE90201241845EB0105B9F1000F89
:10256000C0D1DDE90001A94208BFA0422CBF002371
:102570000123002BC0D16FF0030031B0BDE8F04F54
:1025800002B07047059B143C45F1FF35002B86D007
:10259000B9F1000F57D0A94208BFA0426AD38D42BB
:1025A00008BF844259D301220023CDE902238FE7DB
:1025B000BBF1000F05DB012FCBDD9DF831305B4512
:1025C000C7D1069900292ADB022FC2DD9DF83230DF
:1025D00003F001028A42BCD10798002827DA089943
:1025E000002944DD099A0DF1300CDDF828A0111FF7
:1025F000634651F8042F002A02DBD8788242A8D122
:1026000001335345F5D10B98614690222C9708F081
:102610009DFC002031B0BDE8F04F02B07047079A32
:10262000002ADCDB022F94DD9DF832300798C3F3DB
:10263000400383428DD1D2E76FF0020031B0BDE894
:10264000F04F02B0704722462B468B4208BF8242B1
:10265000BFF430AF02460B462CE7012200230446AC
:102660000D46CDE9022333E74FF0FF30D2E70DF1FD
:10267000300CC8E76FF00100CCE700BF80480020B5
:1026800082B02DE9F04FB9B042AC84E80C00DFF81D
:102690006882139010915E469DF811419DF810914B
:1026A0000C94479C459F0D94489CDDF818C10E94EE
:1026B000499C42AA0F944A9CD2E900011194D8E99E
:1026C00000ABD8E900239B4508BF9245F7D15AEAF1
:1026D0000B037ED0D8E90045D8E900239D4208BF0E
:1026E0009442F7D1002D08BF142CC0F0E2800C9A60
:1026F000143C45F1FF35002A40F0E1808D4208BFCF
:1027000084423CBF04460D46B9F1000F40F0E4801E
:1027100022462B464FF0FF304FF0FF311AF1FF34C5
:10272000CDE90A014BF1FF3512EB000A43EB010B37
:102730000F9B14A81844CDE908AB1290E346B9F1F9
:10274000000F3CD0DDE908018D4208BF84422CBF58
:1027500000230123002B3CD02046294614220023CD
:1027600007F0AEFF02EBC202120102F1080308EB10
:10277000030ADAE922018D4208BF84420DD15E4985
:1027800014A811440831902208F0E0FBDAE9222372
:102790009D4208BF9442349E01D00C98C8B9002FC6
:1027A0003DDB002E03DD9DF85030BB4237D0DDE924
:1027B0000A23A41845EB0305B9F1000FC2D1DDE9E6
:1027C0000823AB4208BFA2422CBF00230123002BE9
:1027D000C2D1109C002C0BDD21460A29A8BF0A217A
:1027E0000120FFF7CFFD241A002C10943FF754AFBF
:1027F00044AD6C460FCD0FC495E80F0084E80F0080
:1028000042A991E80C001398FFF710FE003018BFA2
:102810000120404239B0BDE8F04F02B07047BBF133
:10282000000F05DB012EC2DD9DF851309B45BED166
:102830000D9900292BDB022EB9DD9DF8523003F0F3
:1028400001028A42B3D10E98002828DA0F9B002B90
:102850002CDD1199DDF848C0081F14A90B4650F86B
:10286000042F002A03DB93F803E072459FD1013364
:102870006345F4D1B34613989022CDF8D0B008F058
:1028800065FB002039B0BDE8F04F02B070470E9AEA
:10289000002ADBDB022E8ADD9DF852300E98C3F34E
:1028A0004003984283D10F9B002BD2DCB34614A97E
:1028B000E1E70C9A00240025002A3FF41FAFB9F18C
:1028C000000F0ED0A94208BFA04282D38D4208BF9C
:1028D000844201D204460D4601220023CDE90A2399
:1028E00026E722462B468B4208BF8242BFF412AF36
:1028F00002460B460EE700BF804800202DE9F04F4E
:10290000E1B060AC0C94DDF83080634A634BD2E9EF
:10291000004568E9524593F800B0CDF83080CDE924
:102920000A45DFF87C810C9D002301215FFA8BF4BE
:102930004FF0FF3209940D90297269616B72EB615F
:102940002B62EC602A61AA61C246D8E90067D8E927
:1029500000239F4208BF9642F7D156EA070057D09E
:10296000D8E90045D8E900239D4208BF9442F7D139
:10297000002D08BF142CC0F08C80143C45F1FF35AD
:10298000DDE90A018D4208BF844205D204460D46A6
:1029900002E0013445F10005BD4208BFB4422046C3
:1029A00029464FF014024FF0000331D207F088FEA1
:1029B00002EBC202120102F1080308EB030BDBE990
:1029C00022018D4208BF84420AD10AEB020108317C
:1029D00090223CA808F0BAFADBE92223DDF87091D6
:1029E000B9F1020FD5DD9DF8F03009999942D0D1A7
:1029F0009DF8F230DB07CCD518AD28463CA99022D3
:102A0000CDF8709108F0A2FAE87861B0BDE8F08FD7
:102A10000D9C002C0BDD21460A29A8BF0A210120AC
:102A2000FFF7B0FC0D9C241A002C0D948DDCDDF812
:102A30003080099D002301224FF0FF36C8F80C506A
:102A4000C8F81C30C8F82030C8F8186088F808208A
:102A5000C8F8142088F80930C8F8106010AD6C462A
:102A60000FCD0FC495E80F000C9DDDE90A89C5E97B
:102A7000008984E80F00DDF8308018AD98E80C007C
:102A80002846FFF7D3FC0028BED0304661B0BDE831
:102A9000F08F0024002573E7C8530020D053002096
:102AA0008048002072B6074A07491368581C03D0B3
:102AB00088682BB962B670476FF0010388681360AD
:102AC000704700BFF4080120705400202DE9F04F3A
:102AD00001298BB00691099240F29D8000240025C7
:102AE000CDE90045504D4FF6FF722A60079292469D
:102AF0004E494F4A0023DDE900451F46A0F1020977
:102B0000984608939B461E460B601360CDE904452A
:102B1000CDE9024500E0BB4639F8024FA4F5FF4578
:102B20007F3D284606F01AFF02460B46DDE902010A
:102B300006F0C8FDCDE9020105FB05F006F00EFF29
:102B400002460B46DDE9040106F0BCFDCDE90401B7
:102B5000204606F003FF02460B46DDE9000106F0C1
:102B6000B1FD5C4588BFB04688BF27465445CDE9D6
:102B7000000102D20794A2460896069D0136AE4295
:102B8000C9D1079C284D2B4B2C602849284A089C0A
:102B9000099D0F60C2F800801C600698002D3ED091
:102BA00006F0CCFE04460D4622462B46DDE9020126
:102BB00007F064F807F01AFA0999086022462B46D4
:102BC000DDE9000107F05AF807F010FA1A4B186017
:102BD000DDE9020102460B4606F026FF22462B469F
:102BE00007F04CF80B460246DDE9040106F068FDEB
:102BF000069A0446501E0D4606F0A0FE02460B46FD
:102C00002046294607F03AF804F048F907F0EEF9B3
:102C10000BB0BDE8F08F00200BB0BDE8F08F06F0E0
:102C20008DFE04460D46C9E7505400205454002040
:102C3000E008012064540020685400202DE9F04F82
:102C400091B02F2900AF0C460546FA6140F2CA80C8
:102C50004A00083222F00702ADEB020D043BADF151
:102C6000020C3B62C7F810C0604BD7F81CC00022B2
:102C70001B688CF80020D7F868C07B61ACF1020CAF
:102C8000FB6EC7F824C0D7F870C0023B786FB96FED
:102C9000ACF1020CFB62564BC7F828C0C7F818D03D
:102CA00016469246A0F1020BA1F1040C07F1300880
:102CB000002138690A464FEA460E05EBC10131F89A
:102CC0000E100132A24220F8021F1146F5D1214612
:102CD0004246B869BB60C7F804C0FFF7F7FE3A6A1E
:102CE000796942F8040F3A6201EB8602D1698146A4
:102CF000FA6007F08BFCFA680028D168484618BFD4
:102D00004FF0010A07F082FCBB68D7F804C030B16D
:102D1000012000FA06F2F86901780A430270354A88
:102D2000354811680268786A013620F8021F786217
:102D30003248042E0168F86A08F1040820F8022FCE
:102D4000F862B86A1A6820F8021FB8622C482BF89B
:102D5000022F01684CF8041FAAD1BAF1000F04D168
:102D600000204437BD46BDE8F08F264B26491A683F
:102D700043F62040A1FB0251490801EB4101521AE0
:102D800000FB023210327E69517D75680029E7D15F
:102D900072B61E48926901684E1C12D0DFF84CC012
:102DA0001544DCF800609A682C44B568944228BF4A
:102DB0002246AA4294BF9A609D600029D0D162B693
:102DC000CEE70A4E154431689A682C448D689442C7
:102DD00028BF22466FF00101AA4294BF9A609D600D
:102DE0000160BDE74FF0FF30BBE700BF48BD00000A
:102DF000645400205454002050540020E008012066
:102E00006854002070540020ABAAAAAAF40801203C
:102E10002DE9F04FADF61C1D72B68648864A036850
:102E20005168581C18BF0133002900F0CF81166883
:102E3000824943F62040A1FB0641490801EB4101CC
:102E4000711A00FB012202F11007FC69787D1494CD
:102E50001499BC69BF29129000F27081002808BF44
:102E600000210D917348013B0360002B30D162B605
:102E70000D99BB6900292FD10D9C2344BB6172B60B
:102E80006C4E0D9C3268531CFB6918BF01321B1B32
:102E9000BF2BFB6140F25581797D002900F05B81F9
:102EA000002B40F05881012363484168624C01398E
:102EB0002068013084E803005E4E013A326002B9B6
:102EC00062B6002BA8D100200DF61C1DBDE8F08FC6
:102ED0000D9923460029CFD0594AA2FB0302920A3A
:102EE000C2EB0212A3EBC212C2F5F0658D4228BFFD
:102EF0000D464FEAC508111D07EBC1014246C6A8A1
:102F000008F024F80D99A94200F250810DF15C09F6
:102F10000DF164080DF16C0B0DF1740A23AD16AAC6
:102F20001FABCDF80090CDF80480CDF808B0CDF8F7
:102F30000CA00495C6A8FFF781FE20B99DF8583073
:102F4000002B40F04F81FEF7CBFD0028C0F222811C
:102F50000D99C6ABCA0003EBC100C2F5C062FF21E8
:102F600007F0FDFF0D9807F047F94FF0725107F099
:102F70009BF906F005FD03F0A7FC06F0EFFF002823
:102F8000159040F30781B6B209960B94C6AE0D9C1E
:102F90000F96002610940E96BB460B9C294EA50951
:102FA000A6FB05640B9EC4EB4414B6EB84142648C0
:102FB000099E14BF002201220680129E2EB1149E8B
:102FC0000D98864200F0E880002611961F491F4E9A
:102FD00008680F99431C3360FEF7FEFD0028C0F21D
:102FE000D880B4F5F062544254411394119C44B912
:102FF0009BF81430002B00F0B380139C002C00F0E1
:10300000B680FEF76DFD0F4E0B9AA6FB0565109C72
:10301000C5EB4513402C94BF12194032A2EB831329
:103020000A935B460C9082464FF00009AB461E4661
:1030300078E000BFF408012070540020ABAAAAAACF
:103040008988888886104208E408012054000020FE
:10305000924807EBC70310F8133006F10808022B5B
:103060005BD0032B79D1BBF1000F76DB98E807002A
:103070000A9CB9F1000F18BF4FF4F864089400F0EF
:10308000CBFD044658460D4606F068FC844BD3E958
:103090000023CDE906230022824B06F0C5FCDDE9C2
:1030A000062306F0EBFD02460B462046294606F0B5
:1030B00009FB02460B462AA800F082FD98E80700AB
:1030C0002DAB83E8070000214FF4007246A8357D40
:1030D00007F045FF08987449099A1FFA8BF48DF898
:1030E000C050ADF8A24029902791ADF8A02027AD9F
:1030F00046AC0FCD0FC40FCD0FC495E8030044F8C4
:10310000040B217046AA38460021B9F1000F00F0E7
:10311000BA80FEF7F1FC0BF1FF3B09F10109B9F5AB
:10312000006F1AD0BAF1000F57460AF1FF3A8FDA52
:103130000C9C04F5006CC9EB0C0789E7C0220D92CA
:1031400090E6002B30D1594E7168012938D97B7D2A
:103150000BB10123AAE60123AEE6119CB3460CB9DC
:10316000139E26B1524E01233360FEF729FE0E9CBA
:103170000B9E013440360E940B960F9C109E04F566
:103180000074403E0F9410960E9C159EB4427FF43E
:1031900004AF5F46BB696FE6159E731E0E9EF11A63
:1031A0004B424B41119311E77B7D85E64A1BC6A834
:1031B00007F12001D200404407F0C8FE0D99A5E6B2
:1031C000797D00297FF470AE0B4675E6394C013BE2
:1031D0002360002B7FF477AE62B600200DF61C1D35
:1031E000BDE8F08F1FA9102236A807F0AFFE4946B0
:1031F00008223EA807F0AAFE4146082240A807F090
:10320000A5FE5946082242A807F0A0FE5146082212
:1032100044A807F09BFE294610223AA807F096FE24
:10322000224A43F620411368234ADFF894C0A2FBE8
:103230000302520802EB42021C489B1A01FB0302E4
:10324000D2F828E031AD02F1180393E80700C5F881
:103250000CE085E80700DCF80000184907F024F8C6
:1032600007F00EFADFF85C80288298F800900123BE
:1032700029460A2054226E8288F80030FEF7C6FBE9
:1032800088F800905FE6114648464A46FEF7A4FCDF
:103290000028BFF640AF37467CE700BFC81D0120BD
:1032A000B81D012000009F40E42C283F70540020EE
:1032B00054000020F4080120ABAAAAAA0000C842CA
:1032C00058000020250800200A4B5A6882B118686F
:1032D00009490244013AA1FB0201490801EB4101FD
:1032E000521A43F6204101FB0233012283F82520C4
:1032F000704700BF70540020ABAAAAAA174B30B485
:1033000093E8140016492244013AA1FB02414908FE
:1033100001EB4101521A43F6204505FB023393F8B5
:10332000252010331AB9DA69B2F5F06F01D330BC39
:10333000704799690B4C1144A4FB0154A40AC4EBD7
:103340000414A1EBC414551C04340146DD6103EBE5
:10335000C400082230BC07F0F9BD00BF7054002043
:10336000ABAAAAAA8988888838B51E4C63681BBB9B
:1033700022681D4D1A44A5FB02056D0805EB4505A5
:10338000521B43F6204505FB02450021581C002234
:103390000023C5E90623A962E96285F825102962A0
:1033A00085F824106060FFF731F8104BC5E904017F
:1033B0001B681B68A36038BD22680B491A44013A98
:1033C000A1FB0201490801EB4101521A43F62041D9
:1033D00001FB0242022B4FF0010182F82510C7D9F0
:1033E00038BD00BF70540020ABAAAAAA48BD000097
:1033F00082B02DE9F04F83B00CAC84E80C0072B6BB
:10340000DFF858C1534DDCF800305A1C1CBF0133A3
:10341000CCF80030D5F804C00193BCF1000F00F0E7
:1034200084800024D5F80080DFF838B1A14643F647
:10343000204A04EB0803ABFB0321490801EB4101DF
:10344000591A0AFB015110310E7DD1E900233EB912
:10345000821A05D4BA4200D314B98946174600949B
:1034600001346445E5D1B9F1000F5ED0DDF800C04C
:1034700009F108030CF1010601270DF1300CA642F9
:103480009CE8070083E8070089F814704DD2B04427
:1034900007F1AA37A7FB08135B0803EB4303C3EB51
:1034A000080843F6204404FB08541034237D002B05
:1034B0003BD1DFF8A0800FE0D8F8003043F620447D
:1034C0003344A7FB03C2520802EB42029B1A04FBDF
:1034D00003841034237DC3B90CAB93E8070000F0DC
:1034E0009BFB00221C4B06F0EDF802460B460CA895
:1034F00000F066FB6B6801360DF1300C0834B34206
:103500009CE8070084E80700D6D8144C144B2468C4
:103510000DF1300C9CE80700019483E8070054B9D2
:1035200003B0BDE8F04F02B070470D4B0CAC94E80F
:10353000070083E80700019CDFF820C0631ECCF879
:103540000030002BECD162B603B0BDE8F04F02B002
:10355000704700BF705400200000F03FF4080120C5
:1035600058540020ABAAAAAA3B4B2DE9F04F1B6888
:10357000DFF8F8A01B6BDAF800104FF47A720B44F6
:1035800087B0804602FB03F006F036FEDFF8E090DD
:10359000DFF8E0E0D9F804108346DEF80060D9F8DF
:1035A0000000DEF80470DEF808E0361A67EB010769
:1035B000BB00D9F8081043EA9673B2005D012748B2
:1035C000C1EB0E0E45EAD2655401A21A65EB030366
:1035D00080FB0E14B61847EB03074FEAEE7ECEEBE6
:1035E000A41EF900F00010EB0E0041EA567141EB09
:1035F000EE7106F01BFE0146584606F009FF184A18
:10360000184D034614882B60B9E80700CDF8060072
:10361000CDF80A1018461449CDF80E20ADF8044034
:1036200006F042FE07F02CF8DAF80030ADF8120090
:10363000ADF8143001AC0FCC2488C8F80000404627
:10364000A8F81040C8F80410C8F80820C8F80C30D2
:1036500007B0BDE8F08F00BF48BD0000D34D621039
:10366000E4080120580000200000C842881D012005
:1036700058540020C8AD01202DE9F04FB9B002AF79
:1036800007F1400400F117010B22204607F05EFC11
:1036900094E8070007F1500303C3DFF820A323F8E1
:1036A000022B9AF80010120C1A70002940D1FEF774
:1036B00017FAD7F84710D7F84350B863A942796191
:1036C0002CD900282ADBADF5006D02A99AF800304C
:1036D000ADF5006D02AA7963FA63BD61002B40F07D
:1036E0003A829AF80030002B40F03F82BC6BB7F86A
:1036F00040E0A94B0126A44604EBC40213F81210C3
:10370000601C03EB420219B9B2F80120724515D0D2
:10371000C0F30A0464454FF00006EDD107F15001F3
:1037200006200B22FEF772F9DC37BD46BDE8F08FAC
:10373000B7F85010994807F06FFCB8E7BB6B9C4294
:1037400000F02182FD62FA6A00210125B962013C84
:10375000FA612E467962FB69F96A8B4200F379813E
:10376000BA6A4FEA84493E6302F10108934601E0D8
:10377000A84518D05D45FBD8FEF7B8F902689AF85D
:10378000003009EB020C0CEB0536002B41D1304622
:10379000796B4FF4006205F05DF8002800F093812A
:1037A0000135A845E6D13E6B3D63FEF79FF9013434
:1037B0000368C4F309044FEA844909EB030B4FF48F
:1037C00000625846F96B05F045F8734B9AF80020F3
:1037D00004EBC405844603EB45081ABB16B9B96B64
:1037E0008C422FD06C4A12F81560022E0CD0002E9D
:1037F00040F08B81B8F80120B7F840309A4221D1CF
:10380000BCF1000F00F086819AF80030B3B90026B1
:10381000CBE7B7F85030294600962246604807F0BB
:10382000FBFBB4E75B465F482146B7F85020C7F87A
:1038300004C007F0F1FBD7F804C0CFE75A4807F0FF
:10384000EBFBE4E73D6B4FF00109584802F0E6FD61
:1038500005F03EFA00287FF467AF554B1B68002B3C
:10386000FFF662AFB9F1000F00F0F6807B6903F15B
:10387000010CC7F830C0FA6A944594BF4FF0000BB2
:103880004FF0010BBBF1000F40F0EF807B6A092B7A
:1038900000F09680B9F1000F37D1FB69F96A5A1A26
:1038A000796AC1F109039A4228BF1A46002A3A628E
:1038B00024DDF96A9346BA694B46C2EB0108796A7E
:1038C00007F1900202EBC109796B3C6101EBC8087A
:1038D000FD601C460025022205EB090008EB0501EE
:1038E000154407F033FB082DF5D10134A34509F148
:1038F000080908F10808EDD13C69FD687A6A3B6A5D
:10390000F96A1A4419447A62F962FA6A3B6B9A427C
:10391000FFF421AF9AF80030002B40F02D81796A36
:1039200000297FF701AFFA6A224B541A551E002076
:1039300000224FF08041C7F85340C7F8575003F0BA
:1039400031F900221C4B05F0BBFE06F02FFBFB6A91
:103950006E461C1BE40004F11003ADEB030D02AD39
:1039600087F8520007F1500128460B2207F0EEFAC3
:10397000224607F190010DF1130007F0E7FA04F178
:103980000B022946D2B200230620FDF761FFDC3787
:10399000B546BD46BDE8F08FC81D012004C6000035
:1039A00098C60000DCC60000D4C6000000800840B5
:1039B0004C000020000010400000F03F7400002088
:1039C000FA6A7B6A02F1FF3EC3EB02080020002284
:1039D0006F4B4FF08041C7F804C0C7F857E0C7F8F5
:1039E000538003F0DFF800226A4B05F069FE06F011
:1039F000DDFAF96AC7F824D0C8EB01084FEAC80815
:103A000008F11003ADEB030D02AB87F8520007F18C
:103A1000500118460B22BB6007F098FA0DF1130015
:103A2000424607F1900107F091FABB6808F10B02DA
:103A30001946D2B200230620FDF70AFF7B6AD7F8A9
:103A400004C09D46BBF1000F40F09A80C7F824B037
:103A500020E74FF00009F8E67969D7F818C04B1C49
:103A60003B639C4528BF9C4605E7796A0029A7DC93
:103A7000FA6A0CF1FF3EC7F85320454B00220020A4
:103A80004FF08041C7F804C0C7F857E003F08AF848
:103A9000404B002205F014FE06F088FA07F15001B1
:103AA00087F852000B2207F15C0007F04FFAD7F8B5
:103AB00004C007F15C010B2200230620C7F82CC0CC
:103AC000FDF7C6FEE6E69AF800303E6B002B3ED1CD
:103AD000B7F86E2005F18063396FC2EB4212920194
:103AE000013B02EB83130A447969BB614B1CB96942
:103AF0009A4228BF1A4601F140039A4228BF1A464B
:103B00000135FA614FF000099FE63D6B4FF0010966
:103B100000269AE62522F96B07F16800C7F804C071
:103B200007F014FA386F06F067FB4FF0725106F099
:103B3000BBFB05F025FF02F0C7FED7F804C0012546
:103B4000C7F830C006F032FAB86202460CE61248F6
:103B500007F062FABCE7114829462A4607F05CFAEA
:103B60009AF80030002B3FF4C1ADD7F847100C484D
:103B70000A4607F051FAB9E50A4807F04DFACEE6D1
:103B80000021796274E7002E7FF4DCADC6E500BF4A
:103B9000000010400000F03FD4C6000020C6000026
:103BA0005CC600001CC7000008B5FEF72DF9024BEB
:103BB0000130186008BD00BF7054002000000000F4
:103BC0002DE9F04119468046104616461F4602F080
:103BD0000BFF06F08BFD04460D4605F0F7FE02468E
:103BE0000B463046394605F06BFD09A3D3E90023A7
:103BF00005F01AFF02F088FFC8F80040C8F804502A
:103C000006F0ACF9C8F808004046BDE8F08100BFF6
:103C10000000000080842E4130B585B004AB03E97C
:103C200007000198029905F0D1FE044603980D465D
:103C300005F094FE06A3D3E9002306F01FF8024620
:103C40000B462046294605F03DFD05B030BD00BFBE
:103C50000000000080842E4110B4019C026084604A
:103C600043605DF8044B704770B51C4B86B001246F
:103C70001C701B4D02F0F6FA0220002102F0E2FA5D
:103C800021462246052001AC01F020FB0FCD0FC4D8
:103C90002B68022600254FF44051802201A82360A2
:103CA000ADF8081003928DF804508DF806508DF889
:103CB00014508DF815508DF816508DF8056000F0F1
:103CC000F7FA0849084B0E63096808484FF00042AC
:103CD0000560C3F880211A6006B070BDEC080120B1
:103CE00034C700000010084000E100E00C0002436F
:103CF0000849094B012230B40A709D68074C0848F6
:103D000002212560026019635A6B30BC22F0020266
:103D10005A637047ED08012000100840E8080120B0
:103D20000C0002432DE9F047814F0126DFF828E21D
:103D30003E609EF8003086B081468846144603F007
:103D4000FF05002B78D07B4D00272F7000F000FB83
:103D50004FF47A7000FB08F0774B784EA3FB0020FD
:103D600002233363800905F0E9FD0022744B05F05E
:103D7000A9FC06F01BF90146384600F0D9FA6C4B55
:103D800032681F60736BC84543F00203736300F22F
:103D90008C806C4E013C2B7853B9032CFBD8DFE8A8
:103DA00004F03F3B370202F04BF92B78002BF4D0A4
:103DB000654E664F72B63368634A591C01D00133B1
:103DC00013602A785B49002A30D15C4B01220A70CB
:103DD0009C68574802213C60026019635A6B22F0CC
:103DE00002025A6333680BBB386806F005FA58497B
:103DF00006F00EFB564906F057FA05F0C1FD002209
:103E00004F4B05F05FFC06F0D1F806B0BDE8F08737
:103E1000012002F0B9F8BEE7012002F069F8BAE724
:103E2000336923F00403336130BFB4E7013B3360EF
:103E3000002BD9D162B6D7E78EF8006002F012FAF3
:103E40000220294602F0FEF931463246052001F0F3
:103E50003DFADFF808E101AEBEE80F000FC6DEF85C
:103E600000304FF4405180224FF0020A01A8336025
:103E7000ADF8081003928DF804508DF806508DF8B7
:103E800014508DF815508DF816508DF805A000F0DF
:103E90000FFA2A492F4BC1F830A04FF000420968B1
:103EA0003D60C3F880211A604DE7274E274FDFF8A9
:103EB00094802B78002B7FF47DAF631E032B05D8F5
:103EC000DFE803F0272F230202F0BAF872B6336856
:103ED0002A78581C18BF01333AB33868013B336065
:103EE00003B962B606F088F9194906F091FA184943
:103EF00006F0DAF905F044FD0022114B05F0E2FB73
:103F000006F054F88145D4D854E7012002F03CF87B
:103F1000DCE7D8F8103023F00403C8F8103030BFC5
:103F2000D4E7012001F0E4FFD0E7044A9068D5E728
:103F30000C000243ED080120D34D62100010084030
:103F40000000E03F00ED00E0F4080120E808012057
:103F500000007A4400E100E0EC08012034C70000D2
:103F6000036843F001030360704700BF064B10B4C1
:103F700000214FF08E440322046043605DF8044B3F
:103F8000C1608261704700BF80000100436823F078
:103F9000F7031A4342EA01114160704700F10473CC
:103FA000F0B45B014C7A00220E7A1A604A6824044D
:103FB00044EA46448E7ACD7A0F7844EA026291F858
:103FC0000CC04C7842EA06260A6946EA0516FF0745
:103FD0004D7B46EA8C06097D47EA8474120234431D
:103FE00042EA054204604260F0BC1960704700BFBD
:103FF00070B50E7905460C4616480EBB00F080FCE5
:10400000154B164E0344A6FB0323DE0D03D0013EE1
:10401000360206F4FE460A236B606378E178207866
:10402000A2781B01090443EA0063134301F4F81169
:1040300062790B4333430AB143F008032B6070BD30
:1040400000F05EFC3602034800F05AFC06F4FE461F
:10405000E1E700BF408104003F5DC600A5E830A550
:10406000082343602DE9F001446B8A7824F0FE4474
:1040700024F4FE04062A60D8DFE802F02F3B475301
:104080005F5F04002E4BDB6803F07F084FEA0848AF
:104090000F7891F801C04D68CB783F074E7A48EA17
:1040A000040447EA0C5745EA031344633B430EB14B
:1040B00043F080738C7A0CB143F004030C7A0CB19A
:1040C00043F00203C97A09B143F0010345EA024211
:1040D00013430361BDE8F0017047194B5E685D68EA
:1040E00006F4FE4305F07F0848EA03084FEA084853
:1040F000CEE7134B5D685B68C5F30668C3F3064300
:1041000043EA08284FEA0848C2E70D4B9E689D68BD
:1041100006F4FE4305F07F0848EA03084FEA084822
:10412000B6E7074B9D689B68C5F30668C3F3064373
:1041300043EA08284FEA0848AAE74FF00008A7E733
:10414000B081E00F02234360F0B4446B8A7824F41A
:10415000FE4424F07F04062A54D8DFE802F02B3511
:104160003F4953530400294BDB6803F07F0C0B7865
:104170004D780F791B0743EA0553CE788D794CEAC9
:10418000040443EA0723446343EA06130DB143F0F2
:104190008073CC790CB143F004034C790CB143F03B
:1041A0000203097A09B143F0010343EA0243C36001
:1041B000F0BC7047154B5E685D6806F4FE4305F081
:1041C0007F0C4CEA030CD2E7104B5D685B68C5F3CB
:1041D000066CC3F3064343EA0C2CC8E70B4B9E68FE
:1041E0009D6806F4FE4305F07F0C4CEA030CBEE725
:1041F000064B9D689B68C5F3066CC3F3064343EA10
:104200000C2CB4E74FF0000CB1E700BFB081E00F19
:10421000002230B40A234FF4F81540F2033440F280
:1042200047714360C260124B0261056042610462E3
:10423000C163426B5C6822F4FE42596804F4FE4498
:1042400022F07F02224301F07F010A434263446B64
:1042500059685A6801F4FE4124F0FE4302F07F02DF
:1042600023F4FE030A4343EA0243436330BC70472E
:10427000B081E00F08B520B10A4B984207D91F2042
:1042800008BD094800F03CFB0028F5D108BD074BEC
:1042900000F5742000F23F20A3FB0020800C0138C1
:1042A000C0B208BD0048E8014081040083DE1B4322
:1042B00083680178B3FA83F370B4C3F11F0411B1BA
:1042C000184B01221A60184A936BDD0706D4136855
:1042D00013F4405F02D0D36BDB07FCD4827C124B1B
:1042E00086885A60C268457846EA421245F0080559
:1042F00086782A43457C42EA8602007C42EA05121F
:1043000042EA803242EA04224FF0FF3018631A601A
:1043100029B10648034900221B6802600A6070BC8C
:10432000704700BF00070243001008400C00024322
:10433000064A936BD80706D4136813F4405F02D083
:10434000D36B9B07FCD4014BD96070470010084029
:10435000024B0121002219601A6070470C000243D1
:1043600008B500F00F03013B062B7DD8DFE803F012
:104370003C4C5B7C7C6A0400484BDB6A03F4603392
:10438000B3F5803F74D0B3F5003F6FD0B3F5004F65
:104390000CBF08230123424A904260D0414A904218
:1043A00003D13E4B9B6AC3F38103032B1AD8DFE88A
:1043B00003F0130F0B0202F00DF93B4B3B4A1B6855
:1043C00012680133D84008BDBDE8084002F0EEB9DC
:1043D000BDE8084002F0E2B9314B98424CD0314B75
:1043E000984252D0002008BD2C4BDB6A03F4705376
:1043F000B3F5805F3AD0B3F5005F39D0B3F5006F05
:104400000CBF04230523C6E7244A936A03F0030381
:10441000022BC0D0032B2DD0012B27D0936ADA03B7
:104420000ED50923B7E71D4A936A03F00C03082B46
:104430001ED00C2B1ED0042B18D0936ADB02F0D4B4
:104440000123A8E7154B1B6813F080531BD0144AB7
:10445000B3F1805F0CBF0823012390429ED10F4B24
:104460009B6A03F00303A0E7002394E7032392E78A
:10447000022390E706238EE7084B10209B6A33FA4D
:1044800000F006D108BD072385E7044B14209B6A82
:10449000F5E7BDE8084002F085B900BF00800C4098
:1044A0000200180003001A0078009043A000904317
:1044B00038B5C0F30313013B0C46062B05D8DFE8E3
:1044C00003F00F0404212C3E050038BDA94B98428F
:1044D00000F0DC8003F50433984200F0C08038BD62
:1044E00002F0E8F8A44B41F67131DA6BD9635B68EE
:1044F00003F00703042B40D9A04B984240F2698196
:10450000052045E09E4BB1FA81F49A68C4F11F047E
:1045100022F00F0214439C6038BD02F0CBF8964B9A
:1045200041F67131DA6BD9635B6803F00703042B42
:1045300040D9924B984240F25481052045E0914B7E
:10454000984200F02F8140F2B7808F4B984200F0E4
:10455000F9808E4B984240F0D380894A536DD90739
:1045600040F1BE80864BB4FA84F49A6EC4F11F0405
:1045700022F0030222439A6638BD012101FA03F3B7
:1045800013F0130FB8D07D4B984240F242810420C3
:10459000794B596821F00701014359600AB10022A3
:1045A000DA63774B013C1A6822F4E03242EA843441
:1045B0001C6037E0012101FA03F313F0130FB8D0A8
:1045C0006E4B984240F2158104206B4B596821F0E4
:1045D0000701014359600AB10022DA6302F06EF864
:1045E0006B4BB0FBF4F0DB6CC3F307434A2B00F0DA
:1045F0009480792B00F09180604A482B18BF0022EC
:104600009042644D644994BF002201225C4B2A60B1
:104610000A605A68B4FA84F4C4F11F0422F00F024D
:1046200014435C6001F0D6FF534B41F67131DA6BF5
:10463000D9635B6803F00703042B62D94F4B9842A0
:1046400040F2DF8005204C4B596821F007010143FF
:104650005960002A3FF439AF0022DA6338BD484A76
:10466000536DD9070BD5464BB4FA84F41A6FC4F1D5
:104670001F0422F0300242EA04121A6738BD136D9B
:104680005B06F0D5136D5B06F9D4ECE73C4A536D3D
:10469000DD070AD53A4BB4FA84F41A6FC4F11F044B
:1046A00022F0030222431A6738BD136D5806F1D574
:1046B000136D5806F9D4EDE7A3F5043398421ED1E3
:1046C0002F4A536DDD0713D52D4BB4FA84F49A6E3F
:1046D000C4F11F0422F0F00242EA04129A6638BDC7
:1046E000136D5B077FF53EAF136D5B07F8D439E7B9
:1046F000136D5807E8D5136D5807F9D4E4E738BDB2
:1047000038BD012101FA03F313F0130F96D01B4BB0
:10471000984240F28680042095E7204B17491D6996
:104720009A69DB6905F03F05C3F3031343EA0525E6
:1047300002F0F0021A4B2A43B2F5017F34BF0A4659
:104740001A465DE70E4A536DDD070BD50C4BB4FAE4
:1047500084F49A6EC4F11B0422F4405242EA0432FB
:104760009A6638BD136D5807F0D5136D5807F9D404
:10477000ECE700BF7007140000000C400048E8019F
:1047800000800C40602612006000240060062800B3
:10479000B081E00F78009043A0009043D0FF0FE07D
:1047A00000366E01234A536DD9070BD5214BB4FA5D
:1047B00084F49A6EC4F11F0422F4706242EA042267
:1047C0009A6638BD136D5B07F0D5136D5B07F9D49E
:1047D000ECE7194B194903448B4294BF0320022094
:1047E000D6E6154B154903448B4294BF03200220A3
:1047F000EBE6114B114903448B428CBF0020012092
:10480000E3E60D4B0D4903448B4294BF0320022085
:1048100019E7094B094903448B428CBF0020012052
:10482000B6E6054B054903448B428CBF00200120AE
:1048300009E700BF00800C40FFDB0BFFFF23F40003
:1048400000F00F00013806284ED8DFE800F01424ED
:10485000334D4D420400294BDB6A03F46033B3F55A
:10486000803F43D0B3F5003F42D0B3F5004F0CBFBB
:10487000082001207047214BDB6A03F47053B3F525
:10488000805F35D0B3F5005F30D0B3F5006F0CBF5B
:10489000042005207047194B986A00F00300022895
:1048A00025D0032826D0012822D09B6ADA030ED512
:1048B00009207047114A936A03F00C03082B15D0A6
:1048C0000C2B17D0042B13D0936ADB02F0D40120F9
:1048D00070470A4B1B6813F080530DD0B3F1805F13
:1048E0000CBF08200120704700207047022070474D
:1048F00003207047062070470720704700800C4057
:1049000000F47810B0F5A01F08B500F093800ED821
:10491000B0F5402F7ED021D8B0F5003F76D0B0F56D
:10492000802F00F0B08000287BD0002008BDB0F5BB
:10493000001F00F09A8039D8B0F5C01F61D0B0F5E3
:10494000D01F72D0B0F5B01FEFD16448FFF708FD5B
:10495000634B1B6FC3F30113D84008BDB0F5801F34
:1049600037D0B0F5901F6ED0B0F5602FDDD15C4B25
:104970005B6903F4E063B3F5007F00F09E8040F2D2
:104980008A80B3F5C06F00F0A480B3F5E06F00F04B
:104990009E80B3F5407FC8D1524B534AD86C534BDD
:1049A000B0F1985F34BF1046184608BDB0F5181F27
:1049B00018D0B0F5201F4FD0B0F5101FB5D14C481E
:1049C000FFF7CEFC464B9B6EC3F301330433D84054
:1049D00008BD4748FFF7C4FC414B9B6EC3F303136C
:1049E000D84008BD4248FFF7BBFC3D4B9A6EDB6FD9
:1049F000C2F30132D04003F007030133B0FBF3F000
:104A000008BD3B48BDE80840FFF7AABCBDE8084028
:104A100001F0E0BD324A136813F0805346D0002BFA
:104A200083D0BDE8084001F049BE2C48BDE80840ED
:104A3000FFF796BC2948FFF793FC294B1B6F03F047
:104A40000303D84008BD2A48FFF78AFC244B9B6E1D
:104A5000C3F30323D84008BD2548FFF781FC204B52
:104A60009B6E03F00303D84008BD2248FFF7E8FE21
:104A7000032817D00828D4D002287FF456AFBDE809
:104A8000084001F093BE01F019FE154B9B6803F03E
:104A90000F03D84008BDF3B1B3F5807F7FF445AF75
:104AA000154808BDBDE8084001F078BE536903F41D
:104AB000E063B3F5007F7FF462AF0A4B0F4AD86C16
:104AC0000F4BB0F1985F34BF1046184608BD0D4833
:104AD00008BD0D4808BD0D4808BD00BF03001A0001
:104AE00000800C40B081E00F40420F00804F120068
:104AF0000200180007232000C0D8A700C0CF6A001A
:104B000040B56400406F4001003FAB01809FD5007D
:104B100070B5C0F30323013B82B00446092B11D8C2
:104B2000DFE803F022192410101D05101020274A79
:104B30001020274DC4F304346B6DDB0704D52244E9
:104B40009200116002B070BD2B6D1842F7D02B6D32
:104B50001842F9D1F3E71F4AC4F30434EFE71E4AC1
:104B60000120E6E71D4AF7E71D4AF5E7019101F04C
:104B700031FD1C4B0199DA6CC2F307424A2A0FD06F
:104B8000792A0DD0184B482A18BF0023174A98429B
:104B9000174D94BF002301231360164A2B60DBE7F7
:104BA000154A114D16699369D26906F03F06C2F3A2
:104BB000031242EA062603F0F003104A3343B3F52A
:104BC000017F34BF2B461346E0E700BF0003E4102B
:104BD00000800C402002E410C002E410C003E41086
:104BE0004000E410B081E00F0048E80178009043F5
:104BF000A00090430002E410D0FF0FE000366E01E9
:104C000038B500F00F04631E062B52D8DFE803F01E
:104C10007A626251515D5600012202FA03F313F0E9
:104C2000130F00F09680A84B984240F23C8204207B
:104C3000A64B5A6822F0070202435A6009B10022CB
:104C4000DA63A34BA3485C62FFF75AFEA24BDB6C0E
:104C5000C3F307434A2B00F08881792B00F085814C
:104C60009949482B18BF002188429C4A9C4B94BF0D
:104C7000002001201060186001F0FAF901F0AAFC90
:104C8000924B41F67131DA6BD9635B6803F007032D
:104C9000042B40F25D818C4B984240F2EC81052060
:104CA0008A4B596821F00701014359600AB100227B
:104CB000DA638A4A8A4B12681B6838BD03294ED0D2
:104CC000082973D002295AD038BD072923D00829D2
:104CD00066D038BD01390829F6D801A252F821F072
:104CE000A34E0000AB4E0000F94E0000C94C00007E
:104CF000C94C0000134F0000C94C0000C94C000013
:104D0000814E000002390329DED8DFE811F00A00E5
:104D1000B50056008D006E4B1A6822F080521A6062
:104D2000C7E7704A04244FF4807369490B62136823
:104D3000002BFCD001F09CF901F0BCFC634B41F668
:104D40007132D96BDA635B6803F00703042B7FF6DB
:104D500063AF5D4B984240F29681052068E75C4B5B
:104D60004021614A19621368002BFCD001F080F9E0
:104D7000574A60235362D36A9903FCD599E7544B91
:104D80004FF48071574A19621368002BFCD001F070
:104D90006FF94F4A40235362D36AD803FCD588E7A2
:104DA0004B4B1A6842F080521A6082E7484A20232F
:104DB0005362D36A1B04FCD57BE7474BDB6CC3F320
:104DC00007434A2B00F00481792B00F0018147480A
:104DD000482B18BF0120404BDB6CC3F307434A2B21
:104DE00000F0E280792B00F0DF80374A482B0CBFBF
:104DF0001346002383423A4A38492CBF002301233B
:104E00000B60136001F0C2FC2F4B02249842304B20
:104E10001A6896BF22F0600242F0600242F020025F
:104E20001A60334A042380E72B4BDB6CC3F3074340
:104E30004A2B00F0F680792B00F0F3802B48482BAA
:104E400018BF0120244BDB6CC3F307434A2B00F04F
:104E5000D480792B00F0D1801B4A482B18BF002248
:104E600090421E4B1E4994BF0022012201241A6069
:104E70000A6023461F4A58E71B4A0324402354E78D
:104E80004FF480114FF480330022022C00F0828016
:104E90000F4A936A23F4801323F00C030B439362AD
:104EA00007E700210B460A46EFE7094B4FF48071F4
:104EB0000C4A19621368002BFCD001F0D9F80821C4
:104EC00000230222E1E700BF0048E80100000C4097
:104ED00000800C4000430200B081E00F7800904356
:104EE000A0009043A40590439C0590430148E8012D
:104EF0008C059043840590436F4B40216F4A1962A3
:104F00001368002BFCD001F0B3F804210023012228
:104F1000BBE701F05FFB6A4BDB6CC3F307434A2B33
:104F200000F09480792B00F09180664D482B18BFDB
:104F30000025A8426449654B654A94BF00200120C2
:104F40000125086018600C211560002303229CE7EE
:104F5000012101FA03F313F0130F3FF49CAE594BF8
:104F6000984240F2988004209AE65A4B554A1C69B0
:104F70009969DB6904F03F04C3F3031343EA042493
:104F800001F0F001544B2143B1F5017F34BF1146CC
:104F9000194669E648481343816A21F4803121F0BB
:104FA00003011943816284E64A4A464B14699169B8
:104FB000D26904F03F04C2F3031242EA042401F070
:104FC000F001454A2143B1F5017F28BF134611E79F
:104FD000404B424A18699969DB6900F03F00C3F30E
:104FE000031343EA002001F0F0013D4B0843B0F504
:104FF000017F34BF10461846EDE6364B314A1C6936
:105000009969DB6904F03F04C3F3031343EA042402
:1050100001F0F001304B2143B1F5017F28BF1A4662
:105020001EE72C4B2D4A18699969DB6900F03F0097
:10503000C3F3031343EA002001F0F001284B0843B7
:10504000B0F5017F34BF10461846FBE6214B1D4AE0
:105050001D699969DB6905F03F05C3F3031343EA52
:10506000052501F0F0011C4B0D43B5F5017F34BF60
:1050700015461D465DE71B4B1B4903448B4294BFFD
:10508000032002200CE6174B174A0344934294BFB7
:1050900003200220CCE5134B134903448B428CBF01
:1050A00000200120FCE50F4B0F4A034493428CBFC4
:1050B00000200120BCE500BF00800C409C0590430F
:1050C000B081E00F0048E80178009043A0009043D1
:1050D00010089043D0FF0FE000366E010148E80150
:1050E00001366E01FFDB0BFFFF23F40038B50446E9
:1050F000052804D8DFE800F0272B3035390438BD07
:10510000684B1D6BC5F30725674AD26A02F47052DB
:10511000B2F5805F64D0B2F5005F61D0B2F5006F88
:105120005ED001F0C7FA614B41F67132D96BDA6398
:105130005B6803F00703042B1BD95D4B984240F2D8
:10514000A88005201FE0574BDD6AEDB2DCE7554B28
:10515000DD6AC5F30725D7E7524BDD6AC5F307457E
:10516000D2E7504BDD6A2D0ECEE74E4B1D6BEDB2F4
:10517000CAE7012202FA03F313F0130FDDD04C4B00
:1051800098426ED90420494B5A6822F00702024324
:105190005A6009B10022DA63434AD36823F4FF63FB
:1051A00023F0070343EA04242543D56001F012FAF3
:1051B0003E4B41F67131DA6BD9635B6803F007034C
:1051C000042B43D93A4B98425BD90520374B596899
:1051D00021F007010143596062B10022DA6309E05E
:1051E000314AD36823F4FF6323F0070343EA04241E
:1051F0002543D56001F0EEF92A4BDB6CC3F307437E
:105200004A2B0ED0792B0CD02949482B18BF0021EE
:105210008842284A284B94BF002001201060186063
:1052200038BD264B224A19699C69DB6901F03F01B0
:10523000C3F3031343EA012104F0F004204B21439C
:10524000B1F5017F34BF11461946E1E7012101FAAA
:1052500003F313F0130FB5D0154B984209D904206E
:10526000B4E7184B184A034493428CBF0020012036
:1052700089E7144B144903448B428CBF0020012062
:10528000A4E7104B104903448B4294BF0320022033
:105290009CE70C4B0C4A0344934294BF032002202A
:1052A00071E700BFB081E00F00800C4000000C40AF
:1052B0000048E80178009043A0009043D0FF0FE041
:1052C00000366E01FFDB0BFFFF23F40010B404284F
:1052D0002ED8DFE800F0271B031F23001648082301
:1052E000042469B1154B1C621AB95DF8044B00F037
:1052F000BFBE0368002BF8D10368002BF9D0F4E798
:105300000E4A5DF8044B136200F0B2BE0C488023D5
:105310004024E6E70B4802230124E2E70A48202361
:105320001024DEE709484FF400734FF48074D8E787
:105330005DF8044B704700BF8C05904300800C4023
:105340009C0590438405904394059043A4059043A5
:1053500030B400F104744D7822460C320834002336
:1053600064015201012D236013602AD0022D24D044
:10537000164B9B69C3620B788A781B050C7943EA4C
:105380000525CB7845EA021524048A7945EA83038A
:1053900004F4E02423430AB143F08003CA790AB13C
:1053A00043F040030A7A0AB143F002034A7A0AB191
:1053B00043F00103036030BC7047044B1B6AC362B7
:1053C000D9E7024BDB69C362D5E700BFB081E00FCC
:1053D00010B4CB780C781B010CB143F001034C786E
:1053E0000CB143F00403897809B143F002031AB900
:1053F00083605DF8044B7047C3605DF8044B7047F1
:10540000002310B433211024064A8360C360046073
:105410000361C161926944F24773C2625DF8044B53
:1054200003637047B081E00F1C4B1D4A41F20C0131
:1054300012685858996B2DE9F0470240194F984669
:1054400002EA010422EA010A4FF00209FCB1002538
:105450000126E30717D506FA05F2D8F808303A60B6
:1054600003EB0513DB6828466BB11A7AD3F800C04A
:10547000111C82F0010218BF01211A72BCF1000F49
:1054800001D05A68E047640805F10105E1D1B9F19E
:10549000010901D05446D9E7BDE8F08700200C404F
:1054A00000300C4008300C40F0B41C4E0401B768CA
:1054B000049D274469BBF6683444FE6806B1317226
:1054C00043B1A668C6F38166032E1CBF05FA06F633
:1054D0009B1923603AB1A3689B0F032B1CBF05FAED
:1054E00003F3D2186260012303FA00F00B4BD8617A
:1054F00089B91863A368094A23F47F5323F037035B
:1055000043F0020343EA0515A5609062F0BC5061C8
:1055100070473C46D1E75863ECE700BF00200C40E1
:10552000124B30B49C688A6804EB00140D78E2607A
:105530000124844075B19C634D684B780B4A00F59B
:10554000886142F821503BB9094A30BC02449200BC
:1055500013607047DC63EFE7054B41F20805034435
:105560009B0001215451196030BC704700200C4051
:105570006080E110F0B40D4BA9B9D9681578937823
:1055800057781679AD07D47845EA037545EA8765FB
:10559000B20445EA036342EA843201EB001013438C
:1055A0008360F0BC70479968E8E700BF00200C40BA
:1055B0002DE9F04F012183B006462C48FFF7A8FAE9
:1055C00072682B4B2B4D01920124002240F6FF7193
:1055D000DFF8A4B0C5F8804041F20C005A6003F532
:1055E0008859D96141F2080A596241F20418D96216
:1055F00041F2081C596341F20C17D96341F21011B2
:10560000DC641A5043F80AB0C9F8002041F2141BB8
:1056100043F8082041F2181A43F80C2041F21C19F3
:10562000DA5103F589585A5041F2241C41F22817E7
:1056300041F22C1143F80B2043F80A2043F80920CB
:10564000C8F8002043F80C20DA515A50019A4FF064
:10565000004BC5F880412C6043F800B09A60327866
:10566000520122435A6003B0BDE8F08F00030200EC
:1056700000200C4000E100E0FF0F00802DE9F00F5A
:10568000AB4B82B01B6847780193019AC36842F024
:105690008044002B00F08F830025DFF8B0B2DFF8E4
:1056A000B0A2DFF8B092DFF89882DFF8ACC22946EA
:1056B00003F00202002A03F0040603F0080218BFF8
:1056C000022118BF5D46002E18BF042118BF5546A1
:1056D000002A18BF4D4618BF082103F010066A01C2
:1056E000002E02F184426FEA010602F1100218BF97
:1056F0006FF0100618BF624618BF454618BF10214C
:1057000033401760D4D1C26890F802A0002A00F09C
:1057100052830146DFF834B2DFF83492DFF8348286
:10572000DFF81CC2834F50461D468A4602F0020134
:10573000002902F0040602F0080118BF022518BF74
:105740005B46002E18BF042518BF4B46002918BF22
:10575000434618BF082502F010065901002E01F13A
:1057600084416FEA050601F10C0118BF6FF01006C5
:1057700018BF394618BF634618BF1025324008606D
:10578000D4D1DAF80C3050469AF803A0002B00F080
:1057900012830146DFF8B4B1DFF8B491DFF8B481C9
:1057A000DFF89CC1644F504615468A4603F002015B
:1057B000002903F0040603F0080118BF022518BFF2
:1057C0005A46002E18BF042518BF4A46002918BFA4
:1057D000424618BF082503F010065101002E01F1C2
:1057E00084416FEA050601F1080118BF6FF0100649
:1057F00018BF394618BF624618BF102533400860ED
:10580000D4D1DAF80C2050469AF804A0002A00F00F
:10581000D2820146DFF834B1DFF83491DFF8348109
:10582000DFF81CC1454F50461D468A4602F0020172
:10583000002902F0040602F0080118BF022518BF73
:105840005B46002E18BF042518BF4B46002918BF21
:10585000434618BF082502F010065901002E01F139
:1058600084416FEA050601F1040118BF6FF01006CC
:1058700018BF394618BF634618BF1025324008606C
:10588000D4D1DAF80C3050469AF80590002B00F08D
:1058900092820146DFF8B4A0DFF8B480DFF8B4C02C
:1058A000274F284E48461546894603F00201002935
:1058B00003F0040B03F0080118BF022518BF52467D
:1058C000BBF1000F18BF042518BF4246002918BFBE
:1058D000624618BF082503F01001002902F1047B7D
:1058E0006FEA05014FEA4B1B18BF6FF0100118BF9C
:1058F000B34618BF3A4618BF10250B40CBF800003E
:10590000D3D1D9F80C20484699F806A0002A00F017
:1059100052820146DFF834B0DFF83490DFF834808B
:10592000DFF81CC0084F50461D468A4616E000BFEF
:10593000008000408C081042880810428408104201
:1059400044800040800810429408104210800040BB
:1059500024800040348000409008104202F0020190
:10596000002902F0040602F0080118BF022518BF42
:105970005B46002E18BF042518BF4B46002918BFF0
:10598000434618BF082502F010065901002E01F108
:1059900084416FEA050601F1140118BF6FF010068B
:1059A00018BF394618BF634618BF1025324008603B
:1059B000D4D1DAF80C30504613F0020100F0F8812F
:1059C000019DB74C9AF800202C409AF809601443C6
:1059D0009AF80A5044F0804444EA06449AF8077062
:1059E00044EA45449AF808609AF84C5044EA07643F
:1059F00044EA0634002D40F0D88113F0040816D094
:105A0000457A867AAD0490F807C045EAC646077A1B
:105A1000A44D46EA4C6646EA4737254090F84C606C
:105A200047EA050444EA8204002E40F0BB8113F0EB
:105A3000080C15D0457A877A2D05C67945EA475571
:105A4000077A45EA8666984D46EA873790F84C60B3
:105A500047EA0217254047EA0504002E40F09F81DF
:105A600013F0100315D0457A877AAD05C67945EA5B
:105A7000C755077A45EAC6668C4D46EAC73790F89F
:105A80004C6047EA8217254047EA0504002E40F0A3
:105A90008381856A466A2F04056A47EA06263543EC
:105AA00039B1834FBE6826F0031626F47C562E4388
:105AB000BE60B8F1000F07D07D4FFE6926F00316D7
:105AC00026F47C562E43FE61BCF1000F07D0784FC0
:105AD000FE6A26F0031626F47C562E43FE623BB186
